{
	"voting.sol": {
		"Voting": {
			"abi": [
				{
					"inputs": [
						{
							"internalType": "uint256",
							"name": "_startingTime",
							"type": "uint256"
						},
						{
							"internalType": "uint256",
							"name": "_endingTime",
							"type": "uint256"
						}
					],
					"stateMutability": "nonpayable",
					"type": "constructor"
				},
				{
					"anonymous": false,
					"inputs": [
						{
							"indexed": false,
							"internalType": "address",
							"name": "candidate",
							"type": "address"
						}
					],
					"name": "AddCandidate",
					"type": "event"
				},
				{
					"anonymous": false,
					"inputs": [
						{
							"indexed": true,
							"internalType": "address",
							"name": "voter",
							"type": "address"
						},
						{
							"indexed": false,
							"internalType": "address",
							"name": "receiver",
							"type": "address"
						},
						{
							"indexed": false,
							"internalType": "uint256",
							"name": "timestamp",
							"type": "uint256"
						}
					],
					"name": "AddVote",
					"type": "event"
				},
				{
					"anonymous": false,
					"inputs": [
						{
							"indexed": false,
							"internalType": "address",
							"name": "voter",
							"type": "address"
						}
					],
					"name": "RemoveVote",
					"type": "event"
				},
				{
					"anonymous": false,
					"inputs": [
						{
							"indexed": false,
							"internalType": "address",
							"name": "startBy",
							"type": "address"
						}
					],
					"name": "StartVoting",
					"type": "event"
				},
				{
					"anonymous": false,
					"inputs": [
						{
							"indexed": false,
							"internalType": "address",
							"name": "stoppedBy",
							"type": "address"
						}
					],
					"name": "StopVoting",
					"type": "event"
				},
				{
					"inputs": [
						{
							"internalType": "address",
							"name": "_candidate",
							"type": "address"
						}
					],
					"name": "addCandidate",
					"outputs": [],
					"stateMutability": "nonpayable",
					"type": "function"
				},
				{
					"inputs": [
						{
							"internalType": "uint256",
							"name": "",
							"type": "uint256"
						}
					],
					"name": "candidates",
					"outputs": [
						{
							"internalType": "address",
							"name": "",
							"type": "address"
						}
					],
					"stateMutability": "view",
					"type": "function"
				},
				{
					"inputs": [
						{
							"internalType": "address",
							"name": "",
							"type": "address"
						}
					],
					"name": "candidatesVotes",
					"outputs": [
						{
							"internalType": "uint256",
							"name": "",
							"type": "uint256"
						}
					],
					"stateMutability": "view",
					"type": "function"
				},
				{
					"inputs": [
						{
							"internalType": "uint256",
							"name": "_receiver",
							"type": "uint256"
						}
					],
					"name": "castVote",
					"outputs": [],
					"stateMutability": "nonpayable",
					"type": "function"
				},
				{
					"inputs": [],
					"name": "endingTime",
					"outputs": [
						{
							"internalType": "uint256",
							"name": "",
							"type": "uint256"
						}
					],
					"stateMutability": "view",
					"type": "function"
				},
				{
					"inputs": [
						{
							"internalType": "uint256",
							"name": "_index",
							"type": "uint256"
						}
					],
					"name": "findCandidate",
					"outputs": [
						{
							"internalType": "address",
							"name": "",
							"type": "address"
						}
					],
					"stateMutability": "view",
					"type": "function"
				},
				{
					"inputs": [],
					"name": "getCandidatesVote",
					"outputs": [
						{
							"components": [
								{
									"internalType": "address",
									"name": "candidate",
									"type": "address"
								},
								{
									"internalType": "uint256",
									"name": "votesCount",
									"type": "uint256"
								}
							],
							"internalType": "struct Voting.CandidateVote[]",
							"name": "",
							"type": "tuple[]"
						}
					],
					"stateMutability": "view",
					"type": "function"
				},
				{
					"inputs": [],
					"name": "isVoting",
					"outputs": [
						{
							"internalType": "bool",
							"name": "",
							"type": "bool"
						}
					],
					"stateMutability": "view",
					"type": "function"
				},
				{
					"inputs": [],
					"name": "owner",
					"outputs": [
						{
							"internalType": "address",
							"name": "",
							"type": "address"
						}
					],
					"stateMutability": "view",
					"type": "function"
				},
				{
					"inputs": [
						{
							"internalType": "address",
							"name": "_voter",
							"type": "address"
						}
					],
					"name": "removeVote",
					"outputs": [],
					"stateMutability": "nonpayable",
					"type": "function"
				},
				{
					"inputs": [],
					"name": "startAndStopVoting",
					"outputs": [],
					"stateMutability": "nonpayable",
					"type": "function"
				},
				{
					"inputs": [],
					"name": "startingTime",
					"outputs": [
						{
							"internalType": "uint256",
							"name": "",
							"type": "uint256"
						}
					],
					"stateMutability": "view",
					"type": "function"
				},
				{
					"inputs": [
						{
							"internalType": "address",
							"name": "",
							"type": "address"
						}
					],
					"name": "votes",
					"outputs": [
						{
							"internalType": "address",
							"name": "receiver",
							"type": "address"
						},
						{
							"internalType": "uint256",
							"name": "timestamp",
							"type": "uint256"
						}
					],
					"stateMutability": "view",
					"type": "function"
				}
			],
			"devdoc": {
				"kind": "dev",
				"methods": {},
				"version": 1
			},
			"evm": {
				"assembly": "    /* \"voting.sol\":60:3585  contract Voting {... */\n  mstore(0x40, 0x80)\n    /* \"voting.sol\":794:955  constructor(uint _startingTime, uint _endingTime) {... */\n  callvalue\n  dup1\n  iszero\n  tag_1\n  jumpi\n  0x00\n  dup1\n  revert\ntag_1:\n  pop\n  mload(0x40)\n  sub(codesize, bytecodeSize)\n  dup1\n  bytecodeSize\n  dup4\n  codecopy\n  dup2\n  dup2\n  add\n  0x40\n  mstore\n  dup2\n  add\n  swap1\n  tag_2\n  swap2\n  swap1\n  tag_3\n  jump\t// in\ntag_2:\n    /* \"voting.sol\":863:873  msg.sender */\n  caller\n    /* \"voting.sol\":855:860  owner */\n  0x02\n  0x01\n    /* \"voting.sol\":855:873  owner = msg.sender */\n  0x0100\n  exp\n  dup2\n  sload\n  dup2\n  0xffffffffffffffffffffffffffffffffffffffff\n  mul\n  not\n  and\n  swap1\n  dup4\n  0xffffffffffffffffffffffffffffffffffffffff\n  and\n  mul\n  or\n  swap1\n  sstore\n  pop\n    /* \"voting.sol\":899:912  _startingTime */\n  dup2\n    /* \"voting.sol\":884:896  startingTime */\n  0x00\n    /* \"voting.sol\":884:912  startingTime = _startingTime */\n  dup2\n  swap1\n  sstore\n  pop\n    /* \"voting.sol\":936:947  _endingTime */\n  dup1\n    /* \"voting.sol\":923:933  endingTime */\n  0x01\n    /* \"voting.sol\":923:947  endingTime = _endingTime */\n  dup2\n  swap1\n  sstore\n  pop\n    /* \"voting.sol\":794:955  constructor(uint _startingTime, uint _endingTime) {... */\n  pop\n  pop\n    /* \"voting.sol\":60:3585  contract Voting {... */\n  jump(tag_6)\n    /* \"#utility.yul\":88:205   */\ntag_8:\n    /* \"#utility.yul\":197:198   */\n  0x00\n    /* \"#utility.yul\":194:195   */\n  dup1\n    /* \"#utility.yul\":187:199   */\n  revert\n    /* \"#utility.yul\":334:411   */\ntag_10:\n    /* \"#utility.yul\":371:378   */\n  0x00\n    /* \"#utility.yul\":400:405   */\n  dup2\n    /* \"#utility.yul\":389:405   */\n  swap1\n  pop\n    /* \"#utility.yul\":334:411   */\n  swap2\n  swap1\n  pop\n  jump\t// out\n    /* \"#utility.yul\":417:539   */\ntag_11:\n    /* \"#utility.yul\":490:514   */\n  tag_19\n    /* \"#utility.yul\":508:513   */\n  dup2\n    /* \"#utility.yul\":490:514   */\n  tag_10\n  jump\t// in\ntag_19:\n    /* \"#utility.yul\":483:488   */\n  dup2\n    /* \"#utility.yul\":480:515   */\n  eq\n    /* \"#utility.yul\":470:533   */\n  tag_20\n  jumpi\n    /* \"#utility.yul\":529:530   */\n  0x00\n    /* \"#utility.yul\":526:527   */\n  dup1\n    /* \"#utility.yul\":519:531   */\n  revert\n    /* \"#utility.yul\":470:533   */\ntag_20:\n    /* \"#utility.yul\":417:539   */\n  pop\n  jump\t// out\n    /* \"#utility.yul\":545:688   */\ntag_12:\n    /* \"#utility.yul\":602:607   */\n  0x00\n    /* \"#utility.yul\":633:639   */\n  dup2\n    /* \"#utility.yul\":627:640   */\n  mload\n    /* \"#utility.yul\":618:640   */\n  swap1\n  pop\n    /* \"#utility.yul\":649:682   */\n  tag_22\n    /* \"#utility.yul\":676:681   */\n  dup2\n    /* \"#utility.yul\":649:682   */\n  tag_11\n  jump\t// in\ntag_22:\n    /* \"#utility.yul\":545:688   */\n  swap3\n  swap2\n  pop\n  pop\n  jump\t// out\n    /* \"#utility.yul\":694:1201   */\ntag_3:\n    /* \"#utility.yul\":773:779   */\n  0x00\n    /* \"#utility.yul\":781:787   */\n  dup1\n    /* \"#utility.yul\":830:832   */\n  0x40\n    /* \"#utility.yul\":818:827   */\n  dup4\n    /* \"#utility.yul\":809:816   */\n  dup6\n    /* \"#utility.yul\":805:828   */\n  sub\n    /* \"#utility.yul\":801:833   */\n  slt\n    /* \"#utility.yul\":798:917   */\n  iszero\n  tag_24\n  jumpi\n    /* \"#utility.yul\":836:915   */\n  tag_25\n  tag_8\n  jump\t// in\ntag_25:\n    /* \"#utility.yul\":798:917   */\ntag_24:\n    /* \"#utility.yul\":956:957   */\n  0x00\n    /* \"#utility.yul\":981:1045   */\n  tag_26\n    /* \"#utility.yul\":1037:1044   */\n  dup6\n    /* \"#utility.yul\":1028:1034   */\n  dup3\n    /* \"#utility.yul\":1017:1026   */\n  dup7\n    /* \"#utility.yul\":1013:1035   */\n  add\n    /* \"#utility.yul\":981:1045   */\n  tag_12\n  jump\t// in\ntag_26:\n    /* \"#utility.yul\":971:1045   */\n  swap3\n  pop\n    /* \"#utility.yul\":927:1055   */\n  pop\n    /* \"#utility.yul\":1094:1096   */\n  0x20\n    /* \"#utility.yul\":1120:1184   */\n  tag_27\n    /* \"#utility.yul\":1176:1183   */\n  dup6\n    /* \"#utility.yul\":1167:1173   */\n  dup3\n    /* \"#utility.yul\":1156:1165   */\n  dup7\n    /* \"#utility.yul\":1152:1174   */\n  add\n    /* \"#utility.yul\":1120:1184   */\n  tag_12\n  jump\t// in\ntag_27:\n    /* \"#utility.yul\":1110:1184   */\n  swap2\n  pop\n    /* \"#utility.yul\":1065:1194   */\n  pop\n    /* \"#utility.yul\":694:1201   */\n  swap3\n  pop\n  swap3\n  swap1\n  pop\n  jump\t// out\n    /* \"voting.sol\":60:3585  contract Voting {... */\ntag_6:\n  dataSize(sub_0)\n  dup1\n  dataOffset(sub_0)\n  0x00\n  codecopy\n  0x00\n  return\nstop\n\nsub_0: assembly {\n        /* \"voting.sol\":60:3585  contract Voting {... */\n      mstore(0x40, 0x80)\n      callvalue\n      dup1\n      iszero\n      tag_1\n      jumpi\n      0x00\n      dup1\n      revert\n    tag_1:\n      pop\n      jumpi(tag_2, lt(calldatasize, 0x04))\n      shr(0xe0, calldataload(0x00))\n      dup1\n      0x3eb76b9c\n      gt\n      tag_16\n      jumpi\n      dup1\n      0x93c3f4b9\n      gt\n      tag_17\n      jumpi\n      dup1\n      0x93c3f4b9\n      eq\n      tag_12\n      jumpi\n      dup1\n      0xa2b2f7c3\n      eq\n      tag_13\n      jumpi\n      dup1\n      0xd5ab877f\n      eq\n      tag_14\n      jumpi\n      dup1\n      0xd8bff5a5\n      eq\n      tag_15\n      jumpi\n      jump(tag_2)\n    tag_17:\n      dup1\n      0x3eb76b9c\n      eq\n      tag_9\n      jumpi\n      dup1\n      0x6c47a6c3\n      eq\n      tag_10\n      jumpi\n      dup1\n      0x8da5cb5b\n      eq\n      tag_11\n      jumpi\n      jump(tag_2)\n    tag_16:\n      dup1\n      0xb170fd\n      eq\n      tag_3\n      jumpi\n      dup1\n      0x1bbef399\n      eq\n      tag_4\n      jumpi\n      dup1\n      0x3477ee2e\n      eq\n      tag_5\n      jumpi\n      dup1\n      0x39518b5e\n      eq\n      tag_6\n      jumpi\n      dup1\n      0x3acd75f8\n      eq\n      tag_7\n      jumpi\n      dup1\n      0x3ccc1f53\n      eq\n      tag_8\n      jumpi\n    tag_2:\n      0x00\n      dup1\n      revert\n        /* \"voting.sol\":462:511  mapping (address => uint) public  candidatesVotes */\n    tag_3:\n      tag_18\n      0x04\n      dup1\n      calldatasize\n      sub\n      dup2\n      add\n      swap1\n      tag_19\n      swap2\n      swap1\n      tag_20\n      jump\t// in\n    tag_19:\n      tag_21\n      jump\t// in\n    tag_18:\n      mload(0x40)\n      tag_22\n      swap2\n      swap1\n      tag_23\n      jump\t// in\n    tag_22:\n      mload(0x40)\n      dup1\n      swap2\n      sub\n      swap1\n      return\n        /* \"voting.sol\":145:165  bool public isVoting */\n    tag_4:\n      tag_24\n      tag_25\n      jump\t// in\n    tag_24:\n      mload(0x40)\n      tag_26\n      swap2\n      swap1\n      tag_27\n      jump\t// in\n    tag_26:\n      mload(0x40)\n      dup1\n      swap2\n      sub\n      swap1\n      return\n        /* \"voting.sol\":199:227  address[] public  candidates */\n    tag_5:\n      tag_28\n      0x04\n      dup1\n      calldatasize\n      sub\n      dup2\n      add\n      swap1\n      tag_29\n      swap2\n      swap1\n      tag_30\n      jump\t// in\n    tag_29:\n      tag_31\n      jump\t// in\n    tag_28:\n      mload(0x40)\n      tag_32\n      swap2\n      swap1\n      tag_33\n      jump\t// in\n    tag_32:\n      mload(0x40)\n      dup1\n      swap2\n      sub\n      swap1\n      return\n        /* \"voting.sol\":85:109  uint public startingTime */\n    tag_6:\n      tag_34\n      tag_35\n      jump\t// in\n    tag_34:\n      mload(0x40)\n      tag_36\n      swap2\n      swap1\n      tag_23\n      jump\t// in\n    tag_36:\n      mload(0x40)\n      dup1\n      swap2\n      sub\n      swap1\n      return\n        /* \"voting.sol\":1352:1719  function addCandidate(address _candidate) external onlyOwner{... */\n    tag_7:\n      tag_37\n      0x04\n      dup1\n      calldatasize\n      sub\n      dup2\n      add\n      swap1\n      tag_38\n      swap2\n      swap1\n      tag_20\n      jump\t// in\n    tag_38:\n      tag_39\n      jump\t// in\n    tag_37:\n      stop\n        /* \"voting.sol\":2775:3027  function removeVote(address _voter) external onlyOwner {... */\n    tag_8:\n      tag_40\n      0x04\n      dup1\n      calldatasize\n      sub\n      dup2\n      add\n      swap1\n      tag_41\n      swap2\n      swap1\n      tag_20\n      jump\t// in\n    tag_41:\n      tag_42\n      jump\t// in\n    tag_40:\n      stop\n        /* \"voting.sol\":2156:2767  function castVote(uint _receiver) external{... */\n    tag_9:\n      tag_43\n      0x04\n      dup1\n      calldatasize\n      sub\n      dup2\n      add\n      swap1\n      tag_44\n      swap2\n      swap1\n      tag_30\n      jump\t// in\n    tag_44:\n      tag_45\n      jump\t// in\n    tag_43:\n      stop\n        /* \"voting.sol\":116:138  uint public endingTime */\n    tag_10:\n      tag_46\n      tag_47\n      jump\t// in\n    tag_46:\n      mload(0x40)\n      tag_48\n      swap2\n      swap1\n      tag_23\n      jump\t// in\n    tag_48:\n      mload(0x40)\n      dup1\n      swap2\n      sub\n      swap1\n      return\n        /* \"voting.sol\":172:192  address public owner */\n    tag_11:\n      tag_49\n      tag_50\n      jump\t// in\n    tag_49:\n      mload(0x40)\n      tag_51\n      swap2\n      swap1\n      tag_33\n      jump\t// in\n    tag_51:\n      mload(0x40)\n      dup1\n      swap2\n      sub\n      swap1\n      return\n        /* \"voting.sol\":3155:3578  function getCandidatesVote() public view returns( CandidateVote[] memory) {... */\n    tag_12:\n      tag_52\n      tag_53\n      jump\t// in\n    tag_52:\n      mload(0x40)\n      tag_54\n      swap2\n      swap1\n      tag_55\n      jump\t// in\n    tag_54:\n      mload(0x40)\n      dup1\n      swap2\n      sub\n      swap1\n      return\n        /* \"voting.sol\":3035:3147  function findCandidate (uint _index) external view returns (address){... */\n    tag_13:\n      tag_56\n      0x04\n      dup1\n      calldatasize\n      sub\n      dup2\n      add\n      swap1\n      tag_57\n      swap2\n      swap1\n      tag_30\n      jump\t// in\n    tag_57:\n      tag_58\n      jump\t// in\n    tag_56:\n      mload(0x40)\n      tag_59\n      swap2\n      swap1\n      tag_33\n      jump\t// in\n    tag_59:\n      mload(0x40)\n      dup1\n      swap2\n      sub\n      swap1\n      return\n        /* \"voting.sol\":1727:2148  function startAndStopVoting() external onlyOwner{... */\n    tag_14:\n      tag_60\n      tag_61\n      jump\t// in\n    tag_60:\n      stop\n        /* \"voting.sol\":417:455  mapping (address => Vote) public votes */\n    tag_15:\n      tag_62\n      0x04\n      dup1\n      calldatasize\n      sub\n      dup2\n      add\n      swap1\n      tag_63\n      swap2\n      swap1\n      tag_20\n      jump\t// in\n    tag_63:\n      tag_64\n      jump\t// in\n    tag_62:\n      mload(0x40)\n      tag_65\n      swap3\n      swap2\n      swap1\n      tag_66\n      jump\t// in\n    tag_65:\n      mload(0x40)\n      dup1\n      swap2\n      sub\n      swap1\n      return\n        /* \"voting.sol\":462:511  mapping (address => uint) public  candidatesVotes */\n    tag_21:\n      mstore(0x20, 0x05)\n      dup1\n      0x00\n      mstore\n      keccak256(0x00, 0x40)\n      0x00\n      swap2\n      pop\n      swap1\n      pop\n      sload\n      dup2\n      jump\t// out\n        /* \"voting.sol\":145:165  bool public isVoting */\n    tag_25:\n      0x02\n      0x00\n      swap1\n      sload\n      swap1\n      0x0100\n      exp\n      swap1\n      div\n      0xff\n      and\n      dup2\n      jump\t// out\n        /* \"voting.sol\":199:227  address[] public  candidates */\n    tag_31:\n      0x03\n      dup2\n      dup2\n      sload\n      dup2\n      lt\n      tag_67\n      jumpi\n      0x00\n      dup1\n      revert\n    tag_67:\n      swap1\n      0x00\n      mstore\n      keccak256(0x00, 0x20)\n      add\n      0x00\n      swap2\n      pop\n      sload\n      swap1\n      0x0100\n      exp\n      swap1\n      div\n      0xffffffffffffffffffffffffffffffffffffffff\n      and\n      dup2\n      jump\t// out\n        /* \"voting.sol\":85:109  uint public startingTime */\n    tag_35:\n      sload(0x00)\n      dup2\n      jump\t// out\n        /* \"voting.sol\":1352:1719  function addCandidate(address _candidate) external onlyOwner{... */\n    tag_39:\n        /* \"voting.sol\":1017:1022  owner */\n      0x02\n      0x01\n      swap1\n      sload\n      swap1\n      0x0100\n      exp\n      swap1\n      div\n      0xffffffffffffffffffffffffffffffffffffffff\n      and\n        /* \"voting.sol\":1003:1022  msg.sender == owner */\n      0xffffffffffffffffffffffffffffffffffffffff\n      and\n        /* \"voting.sol\":1003:1013  msg.sender */\n      caller\n        /* \"voting.sol\":1003:1022  msg.sender == owner */\n      0xffffffffffffffffffffffffffffffffffffffff\n      and\n      eq\n        /* \"voting.sol\":995:1036  require(msg.sender == owner, \"not owner\") */\n      tag_70\n      jumpi\n      mload(0x40)\n      0x08c379a000000000000000000000000000000000000000000000000000000000\n      dup2\n      mstore\n      0x04\n      add\n      tag_71\n      swap1\n      tag_72\n      jump\t// in\n    tag_71:\n      mload(0x40)\n      dup1\n      swap2\n      sub\n      swap1\n      revert\n    tag_70:\n        /* \"voting.sol\":1445:1455  _candidate */\n      dup1\n        /* \"voting.sol\":1431:1455  msg.sender != _candidate */\n      0xffffffffffffffffffffffffffffffffffffffff\n      and\n        /* \"voting.sol\":1431:1441  msg.sender */\n      caller\n        /* \"voting.sol\":1431:1455  msg.sender != _candidate */\n      0xffffffffffffffffffffffffffffffffffffffff\n      and\n      sub\n        /* \"voting.sol\":1423:1482  require(msg.sender != _candidate, \"You cant be candidate!\") */\n      tag_74\n      jumpi\n      mload(0x40)\n      0x08c379a000000000000000000000000000000000000000000000000000000000\n      dup2\n      mstore\n      0x04\n      add\n      tag_75\n      swap1\n      tag_76\n      jump\t// in\n    tag_75:\n      mload(0x40)\n      dup1\n      swap2\n      sub\n      swap1\n      revert\n    tag_74:\n        /* \"voting.sol\":1502:1510  isVoting */\n      0x02\n      0x00\n      swap1\n      sload\n      swap1\n      0x0100\n      exp\n      swap1\n      div\n      0xff\n      and\n        /* \"voting.sol\":1501:1510  !isVoting */\n      iszero\n        /* \"voting.sol\":1493:1560  require(!isVoting, \"Already voting started, cant add new candiate\") */\n      tag_77\n      jumpi\n      mload(0x40)\n      0x08c379a000000000000000000000000000000000000000000000000000000000\n      dup2\n      mstore\n      0x04\n      add\n      tag_78\n      swap1\n      tag_79\n      jump\t// in\n    tag_78:\n      mload(0x40)\n      dup1\n      swap2\n      sub\n      swap1\n      revert\n    tag_77:\n        /* \"voting.sol\":1580:1606  isInCandidates(_candidate) */\n      tag_80\n        /* \"voting.sol\":1595:1605  _candidate */\n      dup2\n        /* \"voting.sol\":1580:1594  isInCandidates */\n      tag_81\n        /* \"voting.sol\":1580:1606  isInCandidates(_candidate) */\n      jump\t// in\n    tag_80:\n        /* \"voting.sol\":1579:1606  !isInCandidates(_candidate) */\n      iszero\n        /* \"voting.sol\":1571:1626  require(!isInCandidates(_candidate) , \"Already exists\") */\n      tag_82\n      jumpi\n      mload(0x40)\n      0x08c379a000000000000000000000000000000000000000000000000000000000\n      dup2\n      mstore\n      0x04\n      add\n      tag_83\n      swap1\n      tag_84\n      jump\t// in\n    tag_83:\n      mload(0x40)\n      dup1\n      swap2\n      sub\n      swap1\n      revert\n    tag_82:\n        /* \"voting.sol\":1644:1654  candidates */\n      0x03\n        /* \"voting.sol\":1660:1670  _candidate */\n      dup2\n        /* \"voting.sol\":1644:1671  candidates.push(_candidate) */\n      swap1\n      dup1\n      0x01\n      dup2\n      sload\n      add\n      dup1\n      dup3\n      sstore\n      dup1\n      swap2\n      pop\n      pop\n      0x01\n      swap1\n      sub\n      swap1\n      0x00\n      mstore\n      keccak256(0x00, 0x20)\n      add\n      0x00\n      swap1\n      swap2\n      swap1\n      swap2\n      swap1\n      swap2\n      0x0100\n      exp\n      dup2\n      sload\n      dup2\n      0xffffffffffffffffffffffffffffffffffffffff\n      mul\n      not\n      and\n      swap1\n      dup4\n      0xffffffffffffffffffffffffffffffffffffffff\n      and\n      mul\n      or\n      swap1\n      sstore\n      pop\n        /* \"voting.sol\":1687:1711  AddCandidate(_candidate) */\n      0x054648b2bb8115bd12250246de13a17e41e676e3b714fa2d69eceb576cca2fac\n        /* \"voting.sol\":1700:1710  _candidate */\n      dup2\n        /* \"voting.sol\":1687:1711  AddCandidate(_candidate) */\n      mload(0x40)\n      tag_86\n      swap2\n      swap1\n      tag_33\n      jump\t// in\n    tag_86:\n      mload(0x40)\n      dup1\n      swap2\n      sub\n      swap1\n      log1\n        /* \"voting.sol\":1352:1719  function addCandidate(address _candidate) external onlyOwner{... */\n      pop\n      jump\t// out\n        /* \"voting.sol\":2775:3027  function removeVote(address _voter) external onlyOwner {... */\n    tag_42:\n        /* \"voting.sol\":1017:1022  owner */\n      0x02\n      0x01\n      swap1\n      sload\n      swap1\n      0x0100\n      exp\n      swap1\n      div\n      0xffffffffffffffffffffffffffffffffffffffff\n      and\n        /* \"voting.sol\":1003:1022  msg.sender == owner */\n      0xffffffffffffffffffffffffffffffffffffffff\n      and\n        /* \"voting.sol\":1003:1013  msg.sender */\n      caller\n        /* \"voting.sol\":1003:1022  msg.sender == owner */\n      0xffffffffffffffffffffffffffffffffffffffff\n      and\n      eq\n        /* \"voting.sol\":995:1036  require(msg.sender == owner, \"not owner\") */\n      tag_88\n      jumpi\n      mload(0x40)\n      0x08c379a000000000000000000000000000000000000000000000000000000000\n      dup2\n      mstore\n      0x04\n      add\n      tag_89\n      swap1\n      tag_72\n      jump\t// in\n    tag_89:\n      mload(0x40)\n      dup1\n      swap2\n      sub\n      swap1\n      revert\n    tag_88:\n        /* \"voting.sol\":2841:2858  Vote storage vote */\n      0x00\n        /* \"voting.sol\":2861:2866  votes */\n      0x04\n        /* \"voting.sol\":2861:2874  votes[_voter] */\n      0x00\n        /* \"voting.sol\":2867:2873  _voter */\n      dup4\n        /* \"voting.sol\":2861:2874  votes[_voter] */\n      0xffffffffffffffffffffffffffffffffffffffff\n      and\n      0xffffffffffffffffffffffffffffffffffffffff\n      and\n      dup2\n      mstore\n      0x20\n      add\n      swap1\n      dup2\n      mstore\n      0x20\n      add\n      0x00\n      keccak256\n        /* \"voting.sol\":2841:2874  Vote storage vote = votes[_voter] */\n      swap1\n      pop\n        /* \"voting.sol\":2918:2919  0 */\n      0x00\n        /* \"voting.sol\":2893:2920  vote.receiver != address(0) */\n      0xffffffffffffffffffffffffffffffffffffffff\n      and\n        /* \"voting.sol\":2893:2897  vote */\n      dup2\n        /* \"voting.sol\":2893:2906  vote.receiver */\n      0x00\n      add\n      0x00\n      swap1\n      sload\n      swap1\n      0x0100\n      exp\n      swap1\n      div\n      0xffffffffffffffffffffffffffffffffffffffff\n      and\n        /* \"voting.sol\":2893:2920  vote.receiver != address(0) */\n      0xffffffffffffffffffffffffffffffffffffffff\n      and\n      sub\n        /* \"voting.sol\":2885:2943  require(vote.receiver != address(0), \"Not vote available\") */\n      tag_91\n      jumpi\n      mload(0x40)\n      0x08c379a000000000000000000000000000000000000000000000000000000000\n      dup2\n      mstore\n      0x04\n      add\n      tag_92\n      swap1\n      tag_93\n      jump\t// in\n    tag_92:\n      mload(0x40)\n      dup1\n      swap2\n      sub\n      swap1\n      revert\n    tag_91:\n        /* \"voting.sol\":2971:2976  votes */\n      0x04\n        /* \"voting.sol\":2971:2984  votes[_voter] */\n      0x00\n        /* \"voting.sol\":2977:2983  _voter */\n      dup4\n        /* \"voting.sol\":2971:2984  votes[_voter] */\n      0xffffffffffffffffffffffffffffffffffffffff\n      and\n      0xffffffffffffffffffffffffffffffffffffffff\n      and\n      dup2\n      mstore\n      0x20\n      add\n      swap1\n      dup2\n      mstore\n      0x20\n      add\n      0x00\n      keccak256\n      0x00\n        /* \"voting.sol\":2964:2984  delete votes[_voter] */\n      dup1\n      dup3\n      add\n      exp(0x0100, 0x00)\n      dup2\n      sload\n      swap1\n      0xffffffffffffffffffffffffffffffffffffffff\n      mul\n      not\n      and\n      swap1\n      sstore\n      0x01\n      dup3\n      add\n      0x00\n      swap1\n      sstore\n      pop\n      pop\n        /* \"voting.sol\":3001:3019  RemoveVote(_voter) */\n      0xd835495b0cc14603f691a3161f6442cbe3602e0745f2c60b948d0d3268e6c6c7\n        /* \"voting.sol\":3012:3018  _voter */\n      dup3\n        /* \"voting.sol\":3001:3019  RemoveVote(_voter) */\n      mload(0x40)\n      tag_94\n      swap2\n      swap1\n      tag_33\n      jump\t// in\n    tag_94:\n      mload(0x40)\n      dup1\n      swap2\n      sub\n      swap1\n      log1\n        /* \"voting.sol\":2830:3027  {... */\n      pop\n        /* \"voting.sol\":2775:3027  function removeVote(address _voter) external onlyOwner {... */\n      pop\n      jump\t// out\n        /* \"voting.sol\":2156:2767  function castVote(uint _receiver) external{... */\n    tag_45:\n        /* \"voting.sol\":2217:2225  isVoting */\n      0x02\n      0x00\n      swap1\n      sload\n      swap1\n      0x0100\n      exp\n      swap1\n      div\n      0xff\n      and\n        /* \"voting.sol\":2209:2246  require(isVoting, \"Vote not started\") */\n      tag_96\n      jumpi\n      mload(0x40)\n      0x08c379a000000000000000000000000000000000000000000000000000000000\n      dup2\n      mstore\n      0x04\n      add\n      tag_97\n      swap1\n      tag_98\n      jump\t// in\n    tag_97:\n      mload(0x40)\n      dup1\n      swap2\n      sub\n      swap1\n      revert\n    tag_96:\n        /* \"voting.sol\":2284:2294  endingTime */\n      sload(0x01)\n        /* \"voting.sol\":2265:2280  block.timestamp */\n      timestamp\n        /* \"voting.sol\":2265:2294  block.timestamp <= endingTime */\n      gt\n      iszero\n        /* \"voting.sol\":2257:2320  require(block.timestamp <= endingTime, \"Voting time is ended!\") */\n      tag_99\n      jumpi\n      mload(0x40)\n      0x08c379a000000000000000000000000000000000000000000000000000000000\n      dup2\n      mstore\n      0x04\n      add\n      tag_100\n      swap1\n      tag_101\n      jump\t// in\n    tag_100:\n      mload(0x40)\n      dup1\n      swap2\n      sub\n      swap1\n      revert\n    tag_99:\n        /* \"voting.sol\":2351:2361  candidates */\n      0x03\n        /* \"voting.sol\":2351:2368  candidates.length */\n      dup1\n      sload\n      swap1\n      pop\n        /* \"voting.sol\":2339:2348  _receiver */\n      dup2\n        /* \"voting.sol\":2339:2368  _receiver < candidates.length */\n      lt\n        /* \"voting.sol\":2339:2386  _receiver < candidates.length && _receiver >= 0 */\n      dup1\n      iszero\n      tag_102\n      jumpi\n      pop\n        /* \"voting.sol\":2385:2386  0 */\n      0x00\n        /* \"voting.sol\":2372:2381  _receiver */\n      dup2\n        /* \"voting.sol\":2372:2386  _receiver >= 0 */\n      lt\n      iszero\n        /* \"voting.sol\":2339:2386  _receiver < candidates.length && _receiver >= 0 */\n    tag_102:\n        /* \"voting.sol\":2331:2411  require(_receiver < candidates.length && _receiver >= 0, \"Candidate not found!\") */\n      tag_103\n      jumpi\n      mload(0x40)\n      0x08c379a000000000000000000000000000000000000000000000000000000000\n      dup2\n      mstore\n      0x04\n      add\n      tag_104\n      swap1\n      tag_105\n      jump\t// in\n    tag_104:\n      mload(0x40)\n      dup1\n      swap2\n      sub\n      swap1\n      revert\n    tag_103:\n        /* \"voting.sol\":2424:2441  Vote storage vote */\n      0x00\n        /* \"voting.sol\":2444:2449  votes */\n      0x04\n        /* \"voting.sol\":2444:2461  votes[msg.sender] */\n      0x00\n        /* \"voting.sol\":2450:2460  msg.sender */\n      caller\n        /* \"voting.sol\":2444:2461  votes[msg.sender] */\n      0xffffffffffffffffffffffffffffffffffffffff\n      and\n      0xffffffffffffffffffffffffffffffffffffffff\n      and\n      dup2\n      mstore\n      0x20\n      add\n      swap1\n      dup2\n      mstore\n      0x20\n      add\n      0x00\n      keccak256\n        /* \"voting.sol\":2424:2461  Vote storage vote = votes[msg.sender] */\n      swap1\n      pop\n        /* \"voting.sol\":2505:2506  0 */\n      0x00\n        /* \"voting.sol\":2480:2507  vote.receiver == address(0) */\n      0xffffffffffffffffffffffffffffffffffffffff\n      and\n        /* \"voting.sol\":2480:2484  vote */\n      dup2\n        /* \"voting.sol\":2480:2493  vote.receiver */\n      0x00\n      add\n      0x00\n      swap1\n      sload\n      swap1\n      0x0100\n      exp\n      swap1\n      div\n      0xffffffffffffffffffffffffffffffffffffffff\n      and\n        /* \"voting.sol\":2480:2507  vote.receiver == address(0) */\n      0xffffffffffffffffffffffffffffffffffffffff\n      and\n      eq\n        /* \"voting.sol\":2472:2538  require(vote.receiver == address(0), \"Already, casted your vote!\") */\n      tag_106\n      jumpi\n      mload(0x40)\n      0x08c379a000000000000000000000000000000000000000000000000000000000\n      dup2\n      mstore\n      0x04\n      add\n      tag_107\n      swap1\n      tag_108\n      jump\t// in\n    tag_107:\n      mload(0x40)\n      dup1\n      swap2\n      sub\n      swap1\n      revert\n    tag_106:\n        /* \"voting.sol\":2575:2585  candidates */\n      0x03\n        /* \"voting.sol\":2586:2595  _receiver */\n      dup3\n        /* \"voting.sol\":2575:2596  candidates[_receiver] */\n      dup2\n      sload\n      dup2\n      lt\n      tag_109\n      jumpi\n      tag_110\n      tag_111\n      jump\t// in\n    tag_110:\n    tag_109:\n      swap1\n      0x00\n      mstore\n      keccak256(0x00, 0x20)\n      add\n      0x00\n      swap1\n      sload\n      swap1\n      0x0100\n      exp\n      swap1\n      div\n      0xffffffffffffffffffffffffffffffffffffffff\n      and\n        /* \"voting.sol\":2559:2563  vote */\n      dup2\n        /* \"voting.sol\":2559:2572  vote.receiver */\n      0x00\n      add\n      0x00\n        /* \"voting.sol\":2559:2596  vote.receiver = candidates[_receiver] */\n      0x0100\n      exp\n      dup2\n      sload\n      dup2\n      0xffffffffffffffffffffffffffffffffffffffff\n      mul\n      not\n      and\n      swap1\n      dup4\n      0xffffffffffffffffffffffffffffffffffffffff\n      and\n      mul\n      or\n      swap1\n      sstore\n      pop\n        /* \"voting.sol\":2624:2639  block.timestamp */\n      timestamp\n        /* \"voting.sol\":2607:2611  vote */\n      dup2\n        /* \"voting.sol\":2607:2621  vote.timestamp */\n      0x01\n      add\n        /* \"voting.sol\":2607:2639  vote.timestamp = block.timestamp */\n      dup2\n      swap1\n      sstore\n      pop\n        /* \"voting.sol\":2692:2693  1 */\n      0x01\n        /* \"voting.sol\":2650:2665  candidatesVotes */\n      0x05\n        /* \"voting.sol\":2650:2688  candidatesVotes[candidates[_receiver]] */\n      0x00\n        /* \"voting.sol\":2666:2676  candidates */\n      0x03\n        /* \"voting.sol\":2677:2686  _receiver */\n      dup6\n        /* \"voting.sol\":2666:2687  candidates[_receiver] */\n      dup2\n      sload\n      dup2\n      lt\n      tag_113\n      jumpi\n      tag_114\n      tag_111\n      jump\t// in\n    tag_114:\n    tag_113:\n      swap1\n      0x00\n      mstore\n      keccak256(0x00, 0x20)\n      add\n      0x00\n      swap1\n      sload\n      swap1\n      0x0100\n      exp\n      swap1\n      div\n      0xffffffffffffffffffffffffffffffffffffffff\n      and\n        /* \"voting.sol\":2650:2688  candidatesVotes[candidates[_receiver]] */\n      0xffffffffffffffffffffffffffffffffffffffff\n      and\n      0xffffffffffffffffffffffffffffffffffffffff\n      and\n      dup2\n      mstore\n      0x20\n      add\n      swap1\n      dup2\n      mstore\n      0x20\n      add\n      0x00\n      keccak256\n      0x00\n        /* \"voting.sol\":2650:2693  candidatesVotes[candidates[_receiver]] += 1 */\n      dup3\n      dup3\n      sload\n      tag_116\n      swap2\n      swap1\n      tag_117\n      jump\t// in\n    tag_116:\n      swap3\n      pop\n      pop\n      dup2\n      swap1\n      sstore\n      pop\n        /* \"voting.sol\":2717:2727  msg.sender */\n      caller\n        /* \"voting.sol\":2709:2759  AddVote(msg.sender, vote.receiver, vote.timestamp) */\n      0xffffffffffffffffffffffffffffffffffffffff\n      and\n      0x80eacb8485891d1331e1057618388e157b8496244c3b2eab9302445007b46811\n        /* \"voting.sol\":2729:2733  vote */\n      dup3\n        /* \"voting.sol\":2729:2742  vote.receiver */\n      0x00\n      add\n      0x00\n      swap1\n      sload\n      swap1\n      0x0100\n      exp\n      swap1\n      div\n      0xffffffffffffffffffffffffffffffffffffffff\n      and\n        /* \"voting.sol\":2744:2748  vote */\n      dup4\n        /* \"voting.sol\":2744:2758  vote.timestamp */\n      0x01\n      add\n      sload\n        /* \"voting.sol\":2709:2759  AddVote(msg.sender, vote.receiver, vote.timestamp) */\n      mload(0x40)\n      tag_118\n      swap3\n      swap2\n      swap1\n      tag_66\n      jump\t// in\n    tag_118:\n      mload(0x40)\n      dup1\n      swap2\n      sub\n      swap1\n      log2\n        /* \"voting.sol\":2198:2767  {... */\n      pop\n        /* \"voting.sol\":2156:2767  function castVote(uint _receiver) external{... */\n      pop\n      jump\t// out\n        /* \"voting.sol\":116:138  uint public endingTime */\n    tag_47:\n      sload(0x01)\n      dup2\n      jump\t// out\n        /* \"voting.sol\":172:192  address public owner */\n    tag_50:\n      0x02\n      0x01\n      swap1\n      sload\n      swap1\n      0x0100\n      exp\n      swap1\n      div\n      0xffffffffffffffffffffffffffffffffffffffff\n      and\n      dup2\n      jump\t// out\n        /* \"voting.sol\":3155:3578  function getCandidatesVote() public view returns( CandidateVote[] memory) {... */\n    tag_53:\n        /* \"voting.sol\":3205:3227  CandidateVote[] memory */\n      0x60\n        /* \"voting.sol\":3242:3280  CandidateVote[] memory totalCastedVote */\n      0x00\n        /* \"voting.sol\":3303:3313  candidates */\n      0x03\n        /* \"voting.sol\":3303:3320  candidates.length */\n      dup1\n      sload\n      swap1\n      pop\n        /* \"voting.sol\":3283:3321  new CandidateVote[](candidates.length) */\n      0xffffffffffffffff\n      dup2\n      gt\n      iszero\n      tag_120\n      jumpi\n      tag_121\n      tag_122\n      jump\t// in\n    tag_121:\n    tag_120:\n      mload(0x40)\n      swap1\n      dup1\n      dup3\n      mstore\n      dup1\n      0x20\n      mul\n      0x20\n      add\n      dup3\n      add\n      0x40\n      mstore\n      dup1\n      iszero\n      tag_123\n      jumpi\n      dup2\n      0x20\n      add\n    tag_124:\n      tag_125\n      tag_126\n      jump\t// in\n    tag_125:\n      dup2\n      mstore\n      0x20\n      add\n      swap1\n      0x01\n      swap1\n      sub\n      swap1\n      dup2\n      tag_124\n      jumpi\n      swap1\n      pop\n    tag_123:\n      pop\n        /* \"voting.sol\":3242:3321  CandidateVote[] memory totalCastedVote = new CandidateVote[](candidates.length) */\n      swap1\n      pop\n        /* \"voting.sol\":3347:3353  uint i */\n      0x00\n        /* \"voting.sol\":3342:3534  for (uint i=0; i < candidates.length;i++){... */\n    tag_127:\n        /* \"voting.sol\":3361:3371  candidates */\n      0x03\n        /* \"voting.sol\":3361:3378  candidates.length */\n      dup1\n      sload\n      swap1\n      pop\n        /* \"voting.sol\":3357:3358  i */\n      dup2\n        /* \"voting.sol\":3357:3378  i < candidates.length */\n      lt\n        /* \"voting.sol\":3342:3534  for (uint i=0; i < candidates.length;i++){... */\n      iszero\n      tag_128\n      jumpi\n        /* \"voting.sol\":3432:3442  candidates */\n      0x03\n        /* \"voting.sol\":3443:3444  i */\n      dup2\n        /* \"voting.sol\":3432:3445  candidates[i] */\n      dup2\n      sload\n      dup2\n      lt\n      tag_130\n      jumpi\n      tag_131\n      tag_111\n      jump\t// in\n    tag_131:\n    tag_130:\n      swap1\n      0x00\n      mstore\n      keccak256(0x00, 0x20)\n      add\n      0x00\n      swap1\n      sload\n      swap1\n      0x0100\n      exp\n      swap1\n      div\n      0xffffffffffffffffffffffffffffffffffffffff\n      and\n        /* \"voting.sol\":3398:3413  totalCastedVote */\n      dup3\n        /* \"voting.sol\":3414:3415  i */\n      dup3\n        /* \"voting.sol\":3398:3416  totalCastedVote[i] */\n      dup2\n      mload\n      dup2\n      lt\n      tag_133\n      jumpi\n      tag_134\n      tag_111\n      jump\t// in\n    tag_134:\n    tag_133:\n      0x20\n      mul\n      0x20\n      add\n      add\n      mload\n        /* \"voting.sol\":3398:3426  totalCastedVote[i].candidate */\n      0x00\n      add\n        /* \"voting.sol\":3398:3445  totalCastedVote[i].candidate  =   candidates[i] */\n      swap1\n      0xffffffffffffffffffffffffffffffffffffffff\n      and\n      swap1\n      dup2\n      0xffffffffffffffffffffffffffffffffffffffff\n      and\n      dup2\n      mstore\n      pop\n      pop\n        /* \"voting.sol\":3492:3507  candidatesVotes */\n      0x05\n        /* \"voting.sol\":3492:3522  candidatesVotes[candidates[i]] */\n      0x00\n        /* \"voting.sol\":3508:3518  candidates */\n      0x03\n        /* \"voting.sol\":3519:3520  i */\n      dup4\n        /* \"voting.sol\":3508:3521  candidates[i] */\n      dup2\n      sload\n      dup2\n      lt\n      tag_135\n      jumpi\n      tag_136\n      tag_111\n      jump\t// in\n    tag_136:\n    tag_135:\n      swap1\n      0x00\n      mstore\n      keccak256(0x00, 0x20)\n      add\n      0x00\n      swap1\n      sload\n      swap1\n      0x0100\n      exp\n      swap1\n      div\n      0xffffffffffffffffffffffffffffffffffffffff\n      and\n        /* \"voting.sol\":3492:3522  candidatesVotes[candidates[i]] */\n      0xffffffffffffffffffffffffffffffffffffffff\n      and\n      0xffffffffffffffffffffffffffffffffffffffff\n      and\n      dup2\n      mstore\n      0x20\n      add\n      swap1\n      dup2\n      mstore\n      0x20\n      add\n      0x00\n      keccak256\n      sload\n        /* \"voting.sol\":3460:3475  totalCastedVote */\n      dup3\n        /* \"voting.sol\":3476:3477  i */\n      dup3\n        /* \"voting.sol\":3460:3478  totalCastedVote[i] */\n      dup2\n      mload\n      dup2\n      lt\n      tag_138\n      jumpi\n      tag_139\n      tag_111\n      jump\t// in\n    tag_139:\n    tag_138:\n      0x20\n      mul\n      0x20\n      add\n      add\n      mload\n        /* \"voting.sol\":3460:3489  totalCastedVote[i].votesCount */\n      0x20\n      add\n        /* \"voting.sol\":3460:3522  totalCastedVote[i].votesCount = candidatesVotes[candidates[i]] */\n      dup2\n      dup2\n      mstore\n      pop\n      pop\n        /* \"voting.sol\":3379:3382  i++ */\n      dup1\n      dup1\n      0x01\n      add\n      swap2\n      pop\n      pop\n        /* \"voting.sol\":3342:3534  for (uint i=0; i < candidates.length;i++){... */\n      jump(tag_127)\n    tag_128:\n      pop\n        /* \"voting.sol\":3553:3568  totalCastedVote */\n      dup1\n        /* \"voting.sol\":3546:3568  return totalCastedVote */\n      swap2\n      pop\n      pop\n        /* \"voting.sol\":3155:3578  function getCandidatesVote() public view returns( CandidateVote[] memory) {... */\n      swap1\n      jump\t// out\n        /* \"voting.sol\":3035:3147  function findCandidate (uint _index) external view returns (address){... */\n    tag_58:\n        /* \"voting.sol\":3095:3102  address */\n      0x00\n        /* \"voting.sol\":3121:3131  candidates */\n      0x03\n        /* \"voting.sol\":3132:3138  _index */\n      dup3\n        /* \"voting.sol\":3121:3139  candidates[_index] */\n      dup2\n      sload\n      dup2\n      lt\n      tag_141\n      jumpi\n      tag_142\n      tag_111\n      jump\t// in\n    tag_142:\n    tag_141:\n      swap1\n      0x00\n      mstore\n      keccak256(0x00, 0x20)\n      add\n      0x00\n      swap1\n      sload\n      swap1\n      0x0100\n      exp\n      swap1\n      div\n      0xffffffffffffffffffffffffffffffffffffffff\n      and\n        /* \"voting.sol\":3114:3139  return candidates[_index] */\n      swap1\n      pop\n        /* \"voting.sol\":3035:3147  function findCandidate (uint _index) external view returns (address){... */\n      swap2\n      swap1\n      pop\n      jump\t// out\n        /* \"voting.sol\":1727:2148  function startAndStopVoting() external onlyOwner{... */\n    tag_61:\n        /* \"voting.sol\":1017:1022  owner */\n      0x02\n      0x01\n      swap1\n      sload\n      swap1\n      0x0100\n      exp\n      swap1\n      div\n      0xffffffffffffffffffffffffffffffffffffffff\n      and\n        /* \"voting.sol\":1003:1022  msg.sender == owner */\n      0xffffffffffffffffffffffffffffffffffffffff\n      and\n        /* \"voting.sol\":1003:1013  msg.sender */\n      caller\n        /* \"voting.sol\":1003:1022  msg.sender == owner */\n      0xffffffffffffffffffffffffffffffffffffffff\n      and\n      eq\n        /* \"voting.sol\":995:1036  require(msg.sender == owner, \"not owner\") */\n      tag_145\n      jumpi\n      mload(0x40)\n      0x08c379a000000000000000000000000000000000000000000000000000000000\n      dup2\n      mstore\n      0x04\n      add\n      tag_146\n      swap1\n      tag_72\n      jump\t// in\n    tag_146:\n      mload(0x40)\n      dup1\n      swap2\n      sub\n      swap1\n      revert\n    tag_145:\n        /* \"voting.sol\":1790:1798  isVoting */\n      0x02\n      0x00\n      swap1\n      sload\n      swap1\n      0x0100\n      exp\n      swap1\n      div\n      0xff\n      and\n        /* \"voting.sol\":1786:2141  if(!isVoting) {... */\n      tag_148\n      jumpi\n        /* \"voting.sol\":1842:1854  startingTime */\n      sload(0x00)\n        /* \"voting.sol\":1823:1838  block.timestamp */\n      timestamp\n        /* \"voting.sol\":1823:1854  block.timestamp >= startingTime */\n      lt\n      iszero\n        /* \"voting.sol\":1815:1882  require(block.timestamp >= startingTime, \"Voting time is comming!\") */\n      tag_149\n      jumpi\n      mload(0x40)\n      0x08c379a000000000000000000000000000000000000000000000000000000000\n      dup2\n      mstore\n      0x04\n      add\n      tag_150\n      swap1\n      tag_151\n      jump\t// in\n    tag_150:\n      mload(0x40)\n      dup1\n      swap2\n      sub\n      swap1\n      revert\n    tag_149:\n        /* \"voting.sol\":1908:1912  true */\n      0x01\n        /* \"voting.sol\":1897:1905  isVoting */\n      0x02\n      0x00\n        /* \"voting.sol\":1897:1912  isVoting = true */\n      0x0100\n      exp\n      dup2\n      sload\n      dup2\n      0xff\n      mul\n      not\n      and\n      swap1\n      dup4\n      iszero\n      iszero\n      mul\n      or\n      swap1\n      sstore\n      pop\n        /* \"voting.sol\":1932:1955  StartVoting(msg.sender) */\n      0x84d66542381393079134898f2436f7ba19b5fab5b4ae13da6b78e7454395661d\n        /* \"voting.sol\":1944:1954  msg.sender */\n      caller\n        /* \"voting.sol\":1932:1955  StartVoting(msg.sender) */\n      mload(0x40)\n      tag_152\n      swap2\n      swap1\n      tag_33\n      jump\t// in\n    tag_152:\n      mload(0x40)\n      dup1\n      swap2\n      sub\n      swap1\n      log1\n        /* \"voting.sol\":1786:2141  if(!isVoting) {... */\n      jump(tag_153)\n    tag_148:\n        /* \"voting.sol\":2015:2025  endingTime */\n      sload(0x01)\n        /* \"voting.sol\":1996:2011  block.timestamp */\n      timestamp\n        /* \"voting.sol\":1996:2025  block.timestamp >= endingTime */\n      lt\n      iszero\n        /* \"voting.sol\":1988:2055  require(block.timestamp >= endingTime, \"Voting time is not ended!\") */\n      tag_154\n      jumpi\n      mload(0x40)\n      0x08c379a000000000000000000000000000000000000000000000000000000000\n      dup2\n      mstore\n      0x04\n      add\n      tag_155\n      swap1\n      tag_156\n      jump\t// in\n    tag_155:\n      mload(0x40)\n      dup1\n      swap2\n      sub\n      swap1\n      revert\n    tag_154:\n        /* \"voting.sol\":2081:2086  false */\n      0x00\n        /* \"voting.sol\":2070:2078  isVoting */\n      0x02\n      0x00\n        /* \"voting.sol\":2070:2086  isVoting = false */\n      0x0100\n      exp\n      dup2\n      sload\n      dup2\n      0xff\n      mul\n      not\n      and\n      swap1\n      dup4\n      iszero\n      iszero\n      mul\n      or\n      swap1\n      sstore\n      pop\n        /* \"voting.sol\":2106:2128  StopVoting(msg.sender) */\n      0xd027f2ec970e91ce28ac9b4d8c78f89288e3b6029357e79cbd81578f250aa4a1\n        /* \"voting.sol\":2117:2127  msg.sender */\n      caller\n        /* \"voting.sol\":2106:2128  StopVoting(msg.sender) */\n      mload(0x40)\n      tag_157\n      swap2\n      swap1\n      tag_33\n      jump\t// in\n    tag_157:\n      mload(0x40)\n      dup1\n      swap2\n      sub\n      swap1\n      log1\n        /* \"voting.sol\":1786:2141  if(!isVoting) {... */\n    tag_153:\n        /* \"voting.sol\":1727:2148  function startAndStopVoting() external onlyOwner{... */\n      jump\t// out\n        /* \"voting.sol\":417:455  mapping (address => Vote) public votes */\n    tag_64:\n      mstore(0x20, 0x04)\n      dup1\n      0x00\n      mstore\n      keccak256(0x00, 0x40)\n      0x00\n      swap2\n      pop\n      swap1\n      pop\n      dup1\n      0x00\n      add\n      0x00\n      swap1\n      sload\n      swap1\n      0x0100\n      exp\n      swap1\n      div\n      0xffffffffffffffffffffffffffffffffffffffff\n      and\n      swap1\n      dup1\n      0x01\n      add\n      sload\n      swap1\n      pop\n      dup3\n      jump\t// out\n        /* \"voting.sol\":1064:1344  function isInCandidates(address _candidate) private view  returns(bool){... */\n    tag_81:\n        /* \"voting.sol\":1130:1134  bool */\n      0x00\n        /* \"voting.sol\":1153:1159  uint i */\n      dup1\n        /* \"voting.sol\":1162:1163  0 */\n      0x00\n        /* \"voting.sol\":1153:1163  uint i = 0 */\n      swap1\n      pop\n        /* \"voting.sol\":1148:1313  for (uint i = 0; i < candidates.length; i++)   {... */\n    tag_159:\n        /* \"voting.sol\":1169:1179  candidates */\n      0x03\n        /* \"voting.sol\":1169:1186  candidates.length */\n      dup1\n      sload\n      swap1\n      pop\n        /* \"voting.sol\":1165:1166  i */\n      dup2\n        /* \"voting.sol\":1165:1186  i < candidates.length */\n      lt\n        /* \"voting.sol\":1148:1313  for (uint i = 0; i < candidates.length; i++)   {... */\n      iszero\n      tag_160\n      jumpi\n        /* \"voting.sol\":1244:1254  _candidate */\n      dup3\n        /* \"voting.sol\":1227:1254  candidates[i] == _candidate */\n      0xffffffffffffffffffffffffffffffffffffffff\n      and\n        /* \"voting.sol\":1227:1237  candidates */\n      0x03\n        /* \"voting.sol\":1238:1239  i */\n      dup3\n        /* \"voting.sol\":1227:1240  candidates[i] */\n      dup2\n      sload\n      dup2\n      lt\n      tag_162\n      jumpi\n      tag_163\n      tag_111\n      jump\t// in\n    tag_163:\n    tag_162:\n      swap1\n      0x00\n      mstore\n      keccak256(0x00, 0x20)\n      add\n      0x00\n      swap1\n      sload\n      swap1\n      0x0100\n      exp\n      swap1\n      div\n      0xffffffffffffffffffffffffffffffffffffffff\n      and\n        /* \"voting.sol\":1227:1254  candidates[i] == _candidate */\n      0xffffffffffffffffffffffffffffffffffffffff\n      and\n      sub\n        /* \"voting.sol\":1224:1302  if(candidates[i] == _candidate) {... */\n      tag_165\n      jumpi\n        /* \"voting.sol\":1282:1286  true */\n      0x01\n        /* \"voting.sol\":1275:1286  return true */\n      swap2\n      pop\n      pop\n      jump(tag_158)\n        /* \"voting.sol\":1224:1302  if(candidates[i] == _candidate) {... */\n    tag_165:\n        /* \"voting.sol\":1188:1191  i++ */\n      dup1\n      dup1\n      0x01\n      add\n      swap2\n      pop\n      pop\n        /* \"voting.sol\":1148:1313  for (uint i = 0; i < candidates.length; i++)   {... */\n      jump(tag_159)\n    tag_160:\n      pop\n        /* \"voting.sol\":1331:1336  false */\n      0x00\n        /* \"voting.sol\":1323:1336  return  false */\n      swap1\n      pop\n        /* \"voting.sol\":1064:1344  function isInCandidates(address _candidate) private view  returns(bool){... */\n    tag_158:\n      swap2\n      swap1\n      pop\n      jump\t// out\n    tag_126:\n      mload(0x40)\n      dup1\n      0x40\n      add\n      0x40\n      mstore\n      dup1\n      and(0xffffffffffffffffffffffffffffffffffffffff, 0x00)\n      dup2\n      mstore\n      0x20\n      add\n      0x00\n      dup2\n      mstore\n      pop\n      swap1\n      jump\t// out\n        /* \"#utility.yul\":88:205   */\n    tag_167:\n        /* \"#utility.yul\":197:198   */\n      0x00\n        /* \"#utility.yul\":194:195   */\n      dup1\n        /* \"#utility.yul\":187:199   */\n      revert\n        /* \"#utility.yul\":334:460   */\n    tag_169:\n        /* \"#utility.yul\":371:378   */\n      0x00\n        /* \"#utility.yul\":411:453   */\n      0xffffffffffffffffffffffffffffffffffffffff\n        /* \"#utility.yul\":404:409   */\n      dup3\n        /* \"#utility.yul\":400:454   */\n      and\n        /* \"#utility.yul\":389:454   */\n      swap1\n      pop\n        /* \"#utility.yul\":334:460   */\n      swap2\n      swap1\n      pop\n      jump\t// out\n        /* \"#utility.yul\":466:562   */\n    tag_170:\n        /* \"#utility.yul\":503:510   */\n      0x00\n        /* \"#utility.yul\":532:556   */\n      tag_219\n        /* \"#utility.yul\":550:555   */\n      dup3\n        /* \"#utility.yul\":532:556   */\n      tag_169\n      jump\t// in\n    tag_219:\n        /* \"#utility.yul\":521:556   */\n      swap1\n      pop\n        /* \"#utility.yul\":466:562   */\n      swap2\n      swap1\n      pop\n      jump\t// out\n        /* \"#utility.yul\":568:690   */\n    tag_171:\n        /* \"#utility.yul\":641:665   */\n      tag_221\n        /* \"#utility.yul\":659:664   */\n      dup2\n        /* \"#utility.yul\":641:665   */\n      tag_170\n      jump\t// in\n    tag_221:\n        /* \"#utility.yul\":634:639   */\n      dup2\n        /* \"#utility.yul\":631:666   */\n      eq\n        /* \"#utility.yul\":621:684   */\n      tag_222\n      jumpi\n        /* \"#utility.yul\":680:681   */\n      0x00\n        /* \"#utility.yul\":677:678   */\n      dup1\n        /* \"#utility.yul\":670:682   */\n      revert\n        /* \"#utility.yul\":621:684   */\n    tag_222:\n        /* \"#utility.yul\":568:690   */\n      pop\n      jump\t// out\n        /* \"#utility.yul\":696:835   */\n    tag_172:\n        /* \"#utility.yul\":742:747   */\n      0x00\n        /* \"#utility.yul\":780:786   */\n      dup2\n        /* \"#utility.yul\":767:787   */\n      calldataload\n        /* \"#utility.yul\":758:787   */\n      swap1\n      pop\n        /* \"#utility.yul\":796:829   */\n      tag_224\n        /* \"#utility.yul\":823:828   */\n      dup2\n        /* \"#utility.yul\":796:829   */\n      tag_171\n      jump\t// in\n    tag_224:\n        /* \"#utility.yul\":696:835   */\n      swap3\n      swap2\n      pop\n      pop\n      jump\t// out\n        /* \"#utility.yul\":841:1170   */\n    tag_20:\n        /* \"#utility.yul\":900:906   */\n      0x00\n        /* \"#utility.yul\":949:951   */\n      0x20\n        /* \"#utility.yul\":937:946   */\n      dup3\n        /* \"#utility.yul\":928:935   */\n      dup5\n        /* \"#utility.yul\":924:947   */\n      sub\n        /* \"#utility.yul\":920:952   */\n      slt\n        /* \"#utility.yul\":917:1036   */\n      iszero\n      tag_226\n      jumpi\n        /* \"#utility.yul\":955:1034   */\n      tag_227\n      tag_167\n      jump\t// in\n    tag_227:\n        /* \"#utility.yul\":917:1036   */\n    tag_226:\n        /* \"#utility.yul\":1075:1076   */\n      0x00\n        /* \"#utility.yul\":1100:1153   */\n      tag_228\n        /* \"#utility.yul\":1145:1152   */\n      dup5\n        /* \"#utility.yul\":1136:1142   */\n      dup3\n        /* \"#utility.yul\":1125:1134   */\n      dup6\n        /* \"#utility.yul\":1121:1143   */\n      add\n        /* \"#utility.yul\":1100:1153   */\n      tag_172\n      jump\t// in\n    tag_228:\n        /* \"#utility.yul\":1090:1153   */\n      swap2\n      pop\n        /* \"#utility.yul\":1046:1163   */\n      pop\n        /* \"#utility.yul\":841:1170   */\n      swap3\n      swap2\n      pop\n      pop\n      jump\t// out\n        /* \"#utility.yul\":1176:1253   */\n    tag_173:\n        /* \"#utility.yul\":1213:1220   */\n      0x00\n        /* \"#utility.yul\":1242:1247   */\n      dup2\n        /* \"#utility.yul\":1231:1247   */\n      swap1\n      pop\n        /* \"#utility.yul\":1176:1253   */\n      swap2\n      swap1\n      pop\n      jump\t// out\n        /* \"#utility.yul\":1259:1377   */\n    tag_174:\n        /* \"#utility.yul\":1346:1370   */\n      tag_231\n        /* \"#utility.yul\":1364:1369   */\n      dup2\n        /* \"#utility.yul\":1346:1370   */\n      tag_173\n      jump\t// in\n    tag_231:\n        /* \"#utility.yul\":1341:1344   */\n      dup3\n        /* \"#utility.yul\":1334:1371   */\n      mstore\n        /* \"#utility.yul\":1259:1377   */\n      pop\n      pop\n      jump\t// out\n        /* \"#utility.yul\":1383:1605   */\n    tag_23:\n        /* \"#utility.yul\":1476:1480   */\n      0x00\n        /* \"#utility.yul\":1514:1516   */\n      0x20\n        /* \"#utility.yul\":1503:1512   */\n      dup3\n        /* \"#utility.yul\":1499:1517   */\n      add\n        /* \"#utility.yul\":1491:1517   */\n      swap1\n      pop\n        /* \"#utility.yul\":1527:1598   */\n      tag_233\n        /* \"#utility.yul\":1595:1596   */\n      0x00\n        /* \"#utility.yul\":1584:1593   */\n      dup4\n        /* \"#utility.yul\":1580:1597   */\n      add\n        /* \"#utility.yul\":1571:1577   */\n      dup5\n        /* \"#utility.yul\":1527:1598   */\n      tag_174\n      jump\t// in\n    tag_233:\n        /* \"#utility.yul\":1383:1605   */\n      swap3\n      swap2\n      pop\n      pop\n      jump\t// out\n        /* \"#utility.yul\":1611:1701   */\n    tag_175:\n        /* \"#utility.yul\":1645:1652   */\n      0x00\n        /* \"#utility.yul\":1688:1693   */\n      dup2\n        /* \"#utility.yul\":1681:1694   */\n      iszero\n        /* \"#utility.yul\":1674:1695   */\n      iszero\n        /* \"#utility.yul\":1663:1695   */\n      swap1\n      pop\n        /* \"#utility.yul\":1611:1701   */\n      swap2\n      swap1\n      pop\n      jump\t// out\n        /* \"#utility.yul\":1707:1816   */\n    tag_176:\n        /* \"#utility.yul\":1788:1809   */\n      tag_236\n        /* \"#utility.yul\":1803:1808   */\n      dup2\n        /* \"#utility.yul\":1788:1809   */\n      tag_175\n      jump\t// in\n    tag_236:\n        /* \"#utility.yul\":1783:1786   */\n      dup3\n        /* \"#utility.yul\":1776:1810   */\n      mstore\n        /* \"#utility.yul\":1707:1816   */\n      pop\n      pop\n      jump\t// out\n        /* \"#utility.yul\":1822:2032   */\n    tag_27:\n        /* \"#utility.yul\":1909:1913   */\n      0x00\n        /* \"#utility.yul\":1947:1949   */\n      0x20\n        /* \"#utility.yul\":1936:1945   */\n      dup3\n        /* \"#utility.yul\":1932:1950   */\n      add\n        /* \"#utility.yul\":1924:1950   */\n      swap1\n      pop\n        /* \"#utility.yul\":1960:2025   */\n      tag_238\n        /* \"#utility.yul\":2022:2023   */\n      0x00\n        /* \"#utility.yul\":2011:2020   */\n      dup4\n        /* \"#utility.yul\":2007:2024   */\n      add\n        /* \"#utility.yul\":1998:2004   */\n      dup5\n        /* \"#utility.yul\":1960:2025   */\n      tag_176\n      jump\t// in\n    tag_238:\n        /* \"#utility.yul\":1822:2032   */\n      swap3\n      swap2\n      pop\n      pop\n      jump\t// out\n        /* \"#utility.yul\":2038:2160   */\n    tag_177:\n        /* \"#utility.yul\":2111:2135   */\n      tag_240\n        /* \"#utility.yul\":2129:2134   */\n      dup2\n        /* \"#utility.yul\":2111:2135   */\n      tag_173\n      jump\t// in\n    tag_240:\n        /* \"#utility.yul\":2104:2109   */\n      dup2\n        /* \"#utility.yul\":2101:2136   */\n      eq\n        /* \"#utility.yul\":2091:2154   */\n      tag_241\n      jumpi\n        /* \"#utility.yul\":2150:2151   */\n      0x00\n        /* \"#utility.yul\":2147:2148   */\n      dup1\n        /* \"#utility.yul\":2140:2152   */\n      revert\n        /* \"#utility.yul\":2091:2154   */\n    tag_241:\n        /* \"#utility.yul\":2038:2160   */\n      pop\n      jump\t// out\n        /* \"#utility.yul\":2166:2305   */\n    tag_178:\n        /* \"#utility.yul\":2212:2217   */\n      0x00\n        /* \"#utility.yul\":2250:2256   */\n      dup2\n        /* \"#utility.yul\":2237:2257   */\n      calldataload\n        /* \"#utility.yul\":2228:2257   */\n      swap1\n      pop\n        /* \"#utility.yul\":2266:2299   */\n      tag_243\n        /* \"#utility.yul\":2293:2298   */\n      dup2\n        /* \"#utility.yul\":2266:2299   */\n      tag_177\n      jump\t// in\n    tag_243:\n        /* \"#utility.yul\":2166:2305   */\n      swap3\n      swap2\n      pop\n      pop\n      jump\t// out\n        /* \"#utility.yul\":2311:2640   */\n    tag_30:\n        /* \"#utility.yul\":2370:2376   */\n      0x00\n        /* \"#utility.yul\":2419:2421   */\n      0x20\n        /* \"#utility.yul\":2407:2416   */\n      dup3\n        /* \"#utility.yul\":2398:2405   */\n      dup5\n        /* \"#utility.yul\":2394:2417   */\n      sub\n        /* \"#utility.yul\":2390:2422   */\n      slt\n        /* \"#utility.yul\":2387:2506   */\n      iszero\n      tag_245\n      jumpi\n        /* \"#utility.yul\":2425:2504   */\n      tag_246\n      tag_167\n      jump\t// in\n    tag_246:\n        /* \"#utility.yul\":2387:2506   */\n    tag_245:\n        /* \"#utility.yul\":2545:2546   */\n      0x00\n        /* \"#utility.yul\":2570:2623   */\n      tag_247\n        /* \"#utility.yul\":2615:2622   */\n      dup5\n        /* \"#utility.yul\":2606:2612   */\n      dup3\n        /* \"#utility.yul\":2595:2604   */\n      dup6\n        /* \"#utility.yul\":2591:2613   */\n      add\n        /* \"#utility.yul\":2570:2623   */\n      tag_178\n      jump\t// in\n    tag_247:\n        /* \"#utility.yul\":2560:2623   */\n      swap2\n      pop\n        /* \"#utility.yul\":2516:2633   */\n      pop\n        /* \"#utility.yul\":2311:2640   */\n      swap3\n      swap2\n      pop\n      pop\n      jump\t// out\n        /* \"#utility.yul\":2646:2764   */\n    tag_179:\n        /* \"#utility.yul\":2733:2757   */\n      tag_249\n        /* \"#utility.yul\":2751:2756   */\n      dup2\n        /* \"#utility.yul\":2733:2757   */\n      tag_170\n      jump\t// in\n    tag_249:\n        /* \"#utility.yul\":2728:2731   */\n      dup3\n        /* \"#utility.yul\":2721:2758   */\n      mstore\n        /* \"#utility.yul\":2646:2764   */\n      pop\n      pop\n      jump\t// out\n        /* \"#utility.yul\":2770:2992   */\n    tag_33:\n        /* \"#utility.yul\":2863:2867   */\n      0x00\n        /* \"#utility.yul\":2901:2903   */\n      0x20\n        /* \"#utility.yul\":2890:2899   */\n      dup3\n        /* \"#utility.yul\":2886:2904   */\n      add\n        /* \"#utility.yul\":2878:2904   */\n      swap1\n      pop\n        /* \"#utility.yul\":2914:2985   */\n      tag_251\n        /* \"#utility.yul\":2982:2983   */\n      0x00\n        /* \"#utility.yul\":2971:2980   */\n      dup4\n        /* \"#utility.yul\":2967:2984   */\n      add\n        /* \"#utility.yul\":2958:2964   */\n      dup5\n        /* \"#utility.yul\":2914:2985   */\n      tag_179\n      jump\t// in\n    tag_251:\n        /* \"#utility.yul\":2770:2992   */\n      swap3\n      swap2\n      pop\n      pop\n      jump\t// out\n        /* \"#utility.yul\":2998:3141   */\n    tag_180:\n        /* \"#utility.yul\":3094:3100   */\n      0x00\n        /* \"#utility.yul\":3128:3133   */\n      dup2\n        /* \"#utility.yul\":3122:3134   */\n      mload\n        /* \"#utility.yul\":3112:3134   */\n      swap1\n      pop\n        /* \"#utility.yul\":2998:3141   */\n      swap2\n      swap1\n      pop\n      jump\t// out\n        /* \"#utility.yul\":3147:3360   */\n    tag_181:\n        /* \"#utility.yul\":3275:3286   */\n      0x00\n        /* \"#utility.yul\":3309:3315   */\n      dup3\n        /* \"#utility.yul\":3304:3307   */\n      dup3\n        /* \"#utility.yul\":3297:3316   */\n      mstore\n        /* \"#utility.yul\":3349:3353   */\n      0x20\n        /* \"#utility.yul\":3344:3347   */\n      dup3\n        /* \"#utility.yul\":3340:3354   */\n      add\n        /* \"#utility.yul\":3325:3354   */\n      swap1\n      pop\n        /* \"#utility.yul\":3147:3360   */\n      swap3\n      swap2\n      pop\n      pop\n      jump\t// out\n        /* \"#utility.yul\":3366:3527   */\n    tag_182:\n        /* \"#utility.yul\":3462:3466   */\n      0x00\n        /* \"#utility.yul\":3485:3488   */\n      dup2\n        /* \"#utility.yul\":3477:3488   */\n      swap1\n      pop\n        /* \"#utility.yul\":3515:3519   */\n      0x20\n        /* \"#utility.yul\":3510:3513   */\n      dup3\n        /* \"#utility.yul\":3506:3520   */\n      add\n        /* \"#utility.yul\":3498:3520   */\n      swap1\n      pop\n        /* \"#utility.yul\":3366:3527   */\n      swap2\n      swap1\n      pop\n      jump\t// out\n        /* \"#utility.yul\":3533:3641   */\n    tag_183:\n        /* \"#utility.yul\":3610:3634   */\n      tag_256\n        /* \"#utility.yul\":3628:3633   */\n      dup2\n        /* \"#utility.yul\":3610:3634   */\n      tag_170\n      jump\t// in\n    tag_256:\n        /* \"#utility.yul\":3605:3608   */\n      dup3\n        /* \"#utility.yul\":3598:3635   */\n      mstore\n        /* \"#utility.yul\":3533:3641   */\n      pop\n      pop\n      jump\t// out\n        /* \"#utility.yul\":3647:3755   */\n    tag_184:\n        /* \"#utility.yul\":3724:3748   */\n      tag_258\n        /* \"#utility.yul\":3742:3747   */\n      dup2\n        /* \"#utility.yul\":3724:3748   */\n      tag_173\n      jump\t// in\n    tag_258:\n        /* \"#utility.yul\":3719:3722   */\n      dup3\n        /* \"#utility.yul\":3712:3749   */\n      mstore\n        /* \"#utility.yul\":3647:3755   */\n      pop\n      pop\n      jump\t// out\n        /* \"#utility.yul\":3827:4343   */\n    tag_185:\n        /* \"#utility.yul\":3972:3976   */\n      0x40\n        /* \"#utility.yul\":3967:3970   */\n      dup3\n        /* \"#utility.yul\":3963:3977   */\n      add\n        /* \"#utility.yul\":4064:4068   */\n      0x00\n        /* \"#utility.yul\":4057:4062   */\n      dup3\n        /* \"#utility.yul\":4053:4069   */\n      add\n        /* \"#utility.yul\":4047:4070   */\n      mload\n        /* \"#utility.yul\":4083:4146   */\n      tag_260\n        /* \"#utility.yul\":4140:4144   */\n      0x00\n        /* \"#utility.yul\":4135:4138   */\n      dup6\n        /* \"#utility.yul\":4131:4145   */\n      add\n        /* \"#utility.yul\":4117:4129   */\n      dup3\n        /* \"#utility.yul\":4083:4146   */\n      tag_183\n      jump\t// in\n    tag_260:\n        /* \"#utility.yul\":3987:4156   */\n      pop\n        /* \"#utility.yul\":4244:4248   */\n      0x20\n        /* \"#utility.yul\":4237:4242   */\n      dup3\n        /* \"#utility.yul\":4233:4249   */\n      add\n        /* \"#utility.yul\":4227:4250   */\n      mload\n        /* \"#utility.yul\":4263:4326   */\n      tag_261\n        /* \"#utility.yul\":4320:4324   */\n      0x20\n        /* \"#utility.yul\":4315:4318   */\n      dup6\n        /* \"#utility.yul\":4311:4325   */\n      add\n        /* \"#utility.yul\":4297:4309   */\n      dup3\n        /* \"#utility.yul\":4263:4326   */\n      tag_184\n      jump\t// in\n    tag_261:\n        /* \"#utility.yul\":4166:4336   */\n      pop\n        /* \"#utility.yul\":3941:4343   */\n      pop\n        /* \"#utility.yul\":3827:4343   */\n      pop\n      pop\n      jump\t// out\n        /* \"#utility.yul\":4349:4644   */\n    tag_186:\n        /* \"#utility.yul\":4476:4486   */\n      0x00\n        /* \"#utility.yul\":4497:4601   */\n      tag_263\n        /* \"#utility.yul\":4597:4600   */\n      dup4\n        /* \"#utility.yul\":4589:4595   */\n      dup4\n        /* \"#utility.yul\":4497:4601   */\n      tag_185\n      jump\t// in\n    tag_263:\n        /* \"#utility.yul\":4633:4637   */\n      0x40\n        /* \"#utility.yul\":4628:4631   */\n      dup4\n        /* \"#utility.yul\":4624:4638   */\n      add\n        /* \"#utility.yul\":4610:4638   */\n      swap1\n      pop\n        /* \"#utility.yul\":4349:4644   */\n      swap3\n      swap2\n      pop\n      pop\n      jump\t// out\n        /* \"#utility.yul\":4650:4792   */\n    tag_187:\n        /* \"#utility.yul\":4749:4753   */\n      0x00\n        /* \"#utility.yul\":4781:4785   */\n      0x20\n        /* \"#utility.yul\":4776:4779   */\n      dup3\n        /* \"#utility.yul\":4772:4786   */\n      add\n        /* \"#utility.yul\":4764:4786   */\n      swap1\n      pop\n        /* \"#utility.yul\":4650:4792   */\n      swap2\n      swap1\n      pop\n      jump\t// out\n        /* \"#utility.yul\":4868:5832   */\n    tag_188:\n        /* \"#utility.yul\":5045:5048   */\n      0x00\n        /* \"#utility.yul\":5074:5157   */\n      tag_266\n        /* \"#utility.yul\":5151:5156   */\n      dup3\n        /* \"#utility.yul\":5074:5157   */\n      tag_180\n      jump\t// in\n    tag_266:\n        /* \"#utility.yul\":5173:5288   */\n      tag_267\n        /* \"#utility.yul\":5281:5287   */\n      dup2\n        /* \"#utility.yul\":5276:5279   */\n      dup6\n        /* \"#utility.yul\":5173:5288   */\n      tag_181\n      jump\t// in\n    tag_267:\n        /* \"#utility.yul\":5166:5288   */\n      swap4\n      pop\n        /* \"#utility.yul\":5312:5397   */\n      tag_268\n        /* \"#utility.yul\":5391:5396   */\n      dup4\n        /* \"#utility.yul\":5312:5397   */\n      tag_182\n      jump\t// in\n    tag_268:\n        /* \"#utility.yul\":5420:5427   */\n      dup1\n        /* \"#utility.yul\":5451:5452   */\n      0x00\n        /* \"#utility.yul\":5436:5807   */\n    tag_269:\n        /* \"#utility.yul\":5461:5467   */\n      dup4\n        /* \"#utility.yul\":5458:5459   */\n      dup2\n        /* \"#utility.yul\":5455:5468   */\n      lt\n        /* \"#utility.yul\":5436:5807   */\n      iszero\n      tag_271\n      jumpi\n        /* \"#utility.yul\":5537:5543   */\n      dup2\n        /* \"#utility.yul\":5531:5544   */\n      mload\n        /* \"#utility.yul\":5564:5685   */\n      tag_272\n        /* \"#utility.yul\":5681:5684   */\n      dup9\n        /* \"#utility.yul\":5666:5679   */\n      dup3\n        /* \"#utility.yul\":5564:5685   */\n      tag_186\n      jump\t// in\n    tag_272:\n        /* \"#utility.yul\":5557:5685   */\n      swap8\n      pop\n        /* \"#utility.yul\":5708:5797   */\n      tag_273\n        /* \"#utility.yul\":5790:5796   */\n      dup4\n        /* \"#utility.yul\":5708:5797   */\n      tag_187\n      jump\t// in\n    tag_273:\n        /* \"#utility.yul\":5698:5797   */\n      swap3\n      pop\n        /* \"#utility.yul\":5496:5807   */\n      pop\n        /* \"#utility.yul\":5483:5484   */\n      0x01\n        /* \"#utility.yul\":5480:5481   */\n      dup2\n        /* \"#utility.yul\":5476:5485   */\n      add\n        /* \"#utility.yul\":5471:5485   */\n      swap1\n      pop\n        /* \"#utility.yul\":5436:5807   */\n      jump(tag_269)\n    tag_271:\n        /* \"#utility.yul\":5440:5454   */\n      pop\n        /* \"#utility.yul\":5823:5826   */\n      dup6\n        /* \"#utility.yul\":5816:5826   */\n      swap4\n      pop\n        /* \"#utility.yul\":5050:5832   */\n      pop\n      pop\n      pop\n        /* \"#utility.yul\":4868:5832   */\n      swap3\n      swap2\n      pop\n      pop\n      jump\t// out\n        /* \"#utility.yul\":5838:6327   */\n    tag_55:\n        /* \"#utility.yul\":6039:6043   */\n      0x00\n        /* \"#utility.yul\":6077:6079   */\n      0x20\n        /* \"#utility.yul\":6066:6075   */\n      dup3\n        /* \"#utility.yul\":6062:6080   */\n      add\n        /* \"#utility.yul\":6054:6080   */\n      swap1\n      pop\n        /* \"#utility.yul\":6126:6135   */\n      dup2\n        /* \"#utility.yul\":6120:6124   */\n      dup2\n        /* \"#utility.yul\":6116:6136   */\n      sub\n        /* \"#utility.yul\":6112:6113   */\n      0x00\n        /* \"#utility.yul\":6101:6110   */\n      dup4\n        /* \"#utility.yul\":6097:6114   */\n      add\n        /* \"#utility.yul\":6090:6137   */\n      mstore\n        /* \"#utility.yul\":6154:6320   */\n      tag_275\n        /* \"#utility.yul\":6315:6319   */\n      dup2\n        /* \"#utility.yul\":6306:6312   */\n      dup5\n        /* \"#utility.yul\":6154:6320   */\n      tag_188\n      jump\t// in\n    tag_275:\n        /* \"#utility.yul\":6146:6320   */\n      swap1\n      pop\n        /* \"#utility.yul\":5838:6327   */\n      swap3\n      swap2\n      pop\n      pop\n      jump\t// out\n        /* \"#utility.yul\":6333:6665   */\n    tag_66:\n        /* \"#utility.yul\":6454:6458   */\n      0x00\n        /* \"#utility.yul\":6492:6494   */\n      0x40\n        /* \"#utility.yul\":6481:6490   */\n      dup3\n        /* \"#utility.yul\":6477:6495   */\n      add\n        /* \"#utility.yul\":6469:6495   */\n      swap1\n      pop\n        /* \"#utility.yul\":6505:6576   */\n      tag_277\n        /* \"#utility.yul\":6573:6574   */\n      0x00\n        /* \"#utility.yul\":6562:6571   */\n      dup4\n        /* \"#utility.yul\":6558:6575   */\n      add\n        /* \"#utility.yul\":6549:6555   */\n      dup6\n        /* \"#utility.yul\":6505:6576   */\n      tag_179\n      jump\t// in\n    tag_277:\n        /* \"#utility.yul\":6586:6658   */\n      tag_278\n        /* \"#utility.yul\":6654:6656   */\n      0x20\n        /* \"#utility.yul\":6643:6652   */\n      dup4\n        /* \"#utility.yul\":6639:6657   */\n      add\n        /* \"#utility.yul\":6630:6636   */\n      dup5\n        /* \"#utility.yul\":6586:6658   */\n      tag_174\n      jump\t// in\n    tag_278:\n        /* \"#utility.yul\":6333:6665   */\n      swap4\n      swap3\n      pop\n      pop\n      pop\n      jump\t// out\n        /* \"#utility.yul\":6671:6840   */\n    tag_189:\n        /* \"#utility.yul\":6755:6766   */\n      0x00\n        /* \"#utility.yul\":6789:6795   */\n      dup3\n        /* \"#utility.yul\":6784:6787   */\n      dup3\n        /* \"#utility.yul\":6777:6796   */\n      mstore\n        /* \"#utility.yul\":6829:6833   */\n      0x20\n        /* \"#utility.yul\":6824:6827   */\n      dup3\n        /* \"#utility.yul\":6820:6834   */\n      add\n        /* \"#utility.yul\":6805:6834   */\n      swap1\n      pop\n        /* \"#utility.yul\":6671:6840   */\n      swap3\n      swap2\n      pop\n      pop\n      jump\t// out\n        /* \"#utility.yul\":6846:7005   */\n    tag_190:\n        /* \"#utility.yul\":6986:6997   */\n      0x6e6f74206f776e65720000000000000000000000000000000000000000000000\n        /* \"#utility.yul\":6982:6983   */\n      0x00\n        /* \"#utility.yul\":6974:6980   */\n      dup3\n        /* \"#utility.yul\":6970:6984   */\n      add\n        /* \"#utility.yul\":6963:6998   */\n      mstore\n        /* \"#utility.yul\":6846:7005   */\n      pop\n      jump\t// out\n        /* \"#utility.yul\":7011:7376   */\n    tag_191:\n        /* \"#utility.yul\":7153:7156   */\n      0x00\n        /* \"#utility.yul\":7174:7240   */\n      tag_282\n        /* \"#utility.yul\":7238:7239   */\n      0x09\n        /* \"#utility.yul\":7233:7236   */\n      dup4\n        /* \"#utility.yul\":7174:7240   */\n      tag_189\n      jump\t// in\n    tag_282:\n        /* \"#utility.yul\":7167:7240   */\n      swap2\n      pop\n        /* \"#utility.yul\":7249:7342   */\n      tag_283\n        /* \"#utility.yul\":7338:7341   */\n      dup3\n        /* \"#utility.yul\":7249:7342   */\n      tag_190\n      jump\t// in\n    tag_283:\n        /* \"#utility.yul\":7367:7369   */\n      0x20\n        /* \"#utility.yul\":7362:7365   */\n      dup3\n        /* \"#utility.yul\":7358:7370   */\n      add\n        /* \"#utility.yul\":7351:7370   */\n      swap1\n      pop\n        /* \"#utility.yul\":7011:7376   */\n      swap2\n      swap1\n      pop\n      jump\t// out\n        /* \"#utility.yul\":7382:7801   */\n    tag_72:\n        /* \"#utility.yul\":7548:7552   */\n      0x00\n        /* \"#utility.yul\":7586:7588   */\n      0x20\n        /* \"#utility.yul\":7575:7584   */\n      dup3\n        /* \"#utility.yul\":7571:7589   */\n      add\n        /* \"#utility.yul\":7563:7589   */\n      swap1\n      pop\n        /* \"#utility.yul\":7635:7644   */\n      dup2\n        /* \"#utility.yul\":7629:7633   */\n      dup2\n        /* \"#utility.yul\":7625:7645   */\n      sub\n        /* \"#utility.yul\":7621:7622   */\n      0x00\n        /* \"#utility.yul\":7610:7619   */\n      dup4\n        /* \"#utility.yul\":7606:7623   */\n      add\n        /* \"#utility.yul\":7599:7646   */\n      mstore\n        /* \"#utility.yul\":7663:7794   */\n      tag_285\n        /* \"#utility.yul\":7789:7793   */\n      dup2\n        /* \"#utility.yul\":7663:7794   */\n      tag_191\n      jump\t// in\n    tag_285:\n        /* \"#utility.yul\":7655:7794   */\n      swap1\n      pop\n        /* \"#utility.yul\":7382:7801   */\n      swap2\n      swap1\n      pop\n      jump\t// out\n        /* \"#utility.yul\":7807:7979   */\n    tag_192:\n        /* \"#utility.yul\":7947:7971   */\n      0x596f752063616e742062652063616e6469646174652100000000000000000000\n        /* \"#utility.yul\":7943:7944   */\n      0x00\n        /* \"#utility.yul\":7935:7941   */\n      dup3\n        /* \"#utility.yul\":7931:7945   */\n      add\n        /* \"#utility.yul\":7924:7972   */\n      mstore\n        /* \"#utility.yul\":7807:7979   */\n      pop\n      jump\t// out\n        /* \"#utility.yul\":7985:8351   */\n    tag_193:\n        /* \"#utility.yul\":8127:8130   */\n      0x00\n        /* \"#utility.yul\":8148:8215   */\n      tag_288\n        /* \"#utility.yul\":8212:8214   */\n      0x16\n        /* \"#utility.yul\":8207:8210   */\n      dup4\n        /* \"#utility.yul\":8148:8215   */\n      tag_189\n      jump\t// in\n    tag_288:\n        /* \"#utility.yul\":8141:8215   */\n      swap2\n      pop\n        /* \"#utility.yul\":8224:8317   */\n      tag_289\n        /* \"#utility.yul\":8313:8316   */\n      dup3\n        /* \"#utility.yul\":8224:8317   */\n      tag_192\n      jump\t// in\n    tag_289:\n        /* \"#utility.yul\":8342:8344   */\n      0x20\n        /* \"#utility.yul\":8337:8340   */\n      dup3\n        /* \"#utility.yul\":8333:8345   */\n      add\n        /* \"#utility.yul\":8326:8345   */\n      swap1\n      pop\n        /* \"#utility.yul\":7985:8351   */\n      swap2\n      swap1\n      pop\n      jump\t// out\n        /* \"#utility.yul\":8357:8776   */\n    tag_76:\n        /* \"#utility.yul\":8523:8527   */\n      0x00\n        /* \"#utility.yul\":8561:8563   */\n      0x20\n        /* \"#utility.yul\":8550:8559   */\n      dup3\n        /* \"#utility.yul\":8546:8564   */\n      add\n        /* \"#utility.yul\":8538:8564   */\n      swap1\n      pop\n        /* \"#utility.yul\":8610:8619   */\n      dup2\n        /* \"#utility.yul\":8604:8608   */\n      dup2\n        /* \"#utility.yul\":8600:8620   */\n      sub\n        /* \"#utility.yul\":8596:8597   */\n      0x00\n        /* \"#utility.yul\":8585:8594   */\n      dup4\n        /* \"#utility.yul\":8581:8598   */\n      add\n        /* \"#utility.yul\":8574:8621   */\n      mstore\n        /* \"#utility.yul\":8638:8769   */\n      tag_291\n        /* \"#utility.yul\":8764:8768   */\n      dup2\n        /* \"#utility.yul\":8638:8769   */\n      tag_193\n      jump\t// in\n    tag_291:\n        /* \"#utility.yul\":8630:8769   */\n      swap1\n      pop\n        /* \"#utility.yul\":8357:8776   */\n      swap2\n      swap1\n      pop\n      jump\t// out\n        /* \"#utility.yul\":8782:9014   */\n    tag_194:\n        /* \"#utility.yul\":8922:8956   */\n      0x416c726561647920766f74696e6720737461727465642c2063616e7420616464\n        /* \"#utility.yul\":8918:8919   */\n      0x00\n        /* \"#utility.yul\":8910:8916   */\n      dup3\n        /* \"#utility.yul\":8906:8920   */\n      add\n        /* \"#utility.yul\":8899:8957   */\n      mstore\n        /* \"#utility.yul\":8991:9006   */\n      0x206e65772063616e646961746500000000000000000000000000000000000000\n        /* \"#utility.yul\":8986:8988   */\n      0x20\n        /* \"#utility.yul\":8978:8984   */\n      dup3\n        /* \"#utility.yul\":8974:8989   */\n      add\n        /* \"#utility.yul\":8967:9007   */\n      mstore\n        /* \"#utility.yul\":8782:9014   */\n      pop\n      jump\t// out\n        /* \"#utility.yul\":9020:9386   */\n    tag_195:\n        /* \"#utility.yul\":9162:9165   */\n      0x00\n        /* \"#utility.yul\":9183:9250   */\n      tag_294\n        /* \"#utility.yul\":9247:9249   */\n      0x2d\n        /* \"#utility.yul\":9242:9245   */\n      dup4\n        /* \"#utility.yul\":9183:9250   */\n      tag_189\n      jump\t// in\n    tag_294:\n        /* \"#utility.yul\":9176:9250   */\n      swap2\n      pop\n        /* \"#utility.yul\":9259:9352   */\n      tag_295\n        /* \"#utility.yul\":9348:9351   */\n      dup3\n        /* \"#utility.yul\":9259:9352   */\n      tag_194\n      jump\t// in\n    tag_295:\n        /* \"#utility.yul\":9377:9379   */\n      0x40\n        /* \"#utility.yul\":9372:9375   */\n      dup3\n        /* \"#utility.yul\":9368:9380   */\n      add\n        /* \"#utility.yul\":9361:9380   */\n      swap1\n      pop\n        /* \"#utility.yul\":9020:9386   */\n      swap2\n      swap1\n      pop\n      jump\t// out\n        /* \"#utility.yul\":9392:9811   */\n    tag_79:\n        /* \"#utility.yul\":9558:9562   */\n      0x00\n        /* \"#utility.yul\":9596:9598   */\n      0x20\n        /* \"#utility.yul\":9585:9594   */\n      dup3\n        /* \"#utility.yul\":9581:9599   */\n      add\n        /* \"#utility.yul\":9573:9599   */\n      swap1\n      pop\n        /* \"#utility.yul\":9645:9654   */\n      dup2\n        /* \"#utility.yul\":9639:9643   */\n      dup2\n        /* \"#utility.yul\":9635:9655   */\n      sub\n        /* \"#utility.yul\":9631:9632   */\n      0x00\n        /* \"#utility.yul\":9620:9629   */\n      dup4\n        /* \"#utility.yul\":9616:9633   */\n      add\n        /* \"#utility.yul\":9609:9656   */\n      mstore\n        /* \"#utility.yul\":9673:9804   */\n      tag_297\n        /* \"#utility.yul\":9799:9803   */\n      dup2\n        /* \"#utility.yul\":9673:9804   */\n      tag_195\n      jump\t// in\n    tag_297:\n        /* \"#utility.yul\":9665:9804   */\n      swap1\n      pop\n        /* \"#utility.yul\":9392:9811   */\n      swap2\n      swap1\n      pop\n      jump\t// out\n        /* \"#utility.yul\":9817:9981   */\n    tag_196:\n        /* \"#utility.yul\":9957:9973   */\n      0x416c726561647920657869737473000000000000000000000000000000000000\n        /* \"#utility.yul\":9953:9954   */\n      0x00\n        /* \"#utility.yul\":9945:9951   */\n      dup3\n        /* \"#utility.yul\":9941:9955   */\n      add\n        /* \"#utility.yul\":9934:9974   */\n      mstore\n        /* \"#utility.yul\":9817:9981   */\n      pop\n      jump\t// out\n        /* \"#utility.yul\":9987:10353   */\n    tag_197:\n        /* \"#utility.yul\":10129:10132   */\n      0x00\n        /* \"#utility.yul\":10150:10217   */\n      tag_300\n        /* \"#utility.yul\":10214:10216   */\n      0x0e\n        /* \"#utility.yul\":10209:10212   */\n      dup4\n        /* \"#utility.yul\":10150:10217   */\n      tag_189\n      jump\t// in\n    tag_300:\n        /* \"#utility.yul\":10143:10217   */\n      swap2\n      pop\n        /* \"#utility.yul\":10226:10319   */\n      tag_301\n        /* \"#utility.yul\":10315:10318   */\n      dup3\n        /* \"#utility.yul\":10226:10319   */\n      tag_196\n      jump\t// in\n    tag_301:\n        /* \"#utility.yul\":10344:10346   */\n      0x20\n        /* \"#utility.yul\":10339:10342   */\n      dup3\n        /* \"#utility.yul\":10335:10347   */\n      add\n        /* \"#utility.yul\":10328:10347   */\n      swap1\n      pop\n        /* \"#utility.yul\":9987:10353   */\n      swap2\n      swap1\n      pop\n      jump\t// out\n        /* \"#utility.yul\":10359:10778   */\n    tag_84:\n        /* \"#utility.yul\":10525:10529   */\n      0x00\n        /* \"#utility.yul\":10563:10565   */\n      0x20\n        /* \"#utility.yul\":10552:10561   */\n      dup3\n        /* \"#utility.yul\":10548:10566   */\n      add\n        /* \"#utility.yul\":10540:10566   */\n      swap1\n      pop\n        /* \"#utility.yul\":10612:10621   */\n      dup2\n        /* \"#utility.yul\":10606:10610   */\n      dup2\n        /* \"#utility.yul\":10602:10622   */\n      sub\n        /* \"#utility.yul\":10598:10599   */\n      0x00\n        /* \"#utility.yul\":10587:10596   */\n      dup4\n        /* \"#utility.yul\":10583:10600   */\n      add\n        /* \"#utility.yul\":10576:10623   */\n      mstore\n        /* \"#utility.yul\":10640:10771   */\n      tag_303\n        /* \"#utility.yul\":10766:10770   */\n      dup2\n        /* \"#utility.yul\":10640:10771   */\n      tag_197\n      jump\t// in\n    tag_303:\n        /* \"#utility.yul\":10632:10771   */\n      swap1\n      pop\n        /* \"#utility.yul\":10359:10778   */\n      swap2\n      swap1\n      pop\n      jump\t// out\n        /* \"#utility.yul\":10784:10952   */\n    tag_198:\n        /* \"#utility.yul\":10924:10944   */\n      0x4e6f7420766f746520617661696c61626c650000000000000000000000000000\n        /* \"#utility.yul\":10920:10921   */\n      0x00\n        /* \"#utility.yul\":10912:10918   */\n      dup3\n        /* \"#utility.yul\":10908:10922   */\n      add\n        /* \"#utility.yul\":10901:10945   */\n      mstore\n        /* \"#utility.yul\":10784:10952   */\n      pop\n      jump\t// out\n        /* \"#utility.yul\":10958:11324   */\n    tag_199:\n        /* \"#utility.yul\":11100:11103   */\n      0x00\n        /* \"#utility.yul\":11121:11188   */\n      tag_306\n        /* \"#utility.yul\":11185:11187   */\n      0x12\n        /* \"#utility.yul\":11180:11183   */\n      dup4\n        /* \"#utility.yul\":11121:11188   */\n      tag_189\n      jump\t// in\n    tag_306:\n        /* \"#utility.yul\":11114:11188   */\n      swap2\n      pop\n        /* \"#utility.yul\":11197:11290   */\n      tag_307\n        /* \"#utility.yul\":11286:11289   */\n      dup3\n        /* \"#utility.yul\":11197:11290   */\n      tag_198\n      jump\t// in\n    tag_307:\n        /* \"#utility.yul\":11315:11317   */\n      0x20\n        /* \"#utility.yul\":11310:11313   */\n      dup3\n        /* \"#utility.yul\":11306:11318   */\n      add\n        /* \"#utility.yul\":11299:11318   */\n      swap1\n      pop\n        /* \"#utility.yul\":10958:11324   */\n      swap2\n      swap1\n      pop\n      jump\t// out\n        /* \"#utility.yul\":11330:11749   */\n    tag_93:\n        /* \"#utility.yul\":11496:11500   */\n      0x00\n        /* \"#utility.yul\":11534:11536   */\n      0x20\n        /* \"#utility.yul\":11523:11532   */\n      dup3\n        /* \"#utility.yul\":11519:11537   */\n      add\n        /* \"#utility.yul\":11511:11537   */\n      swap1\n      pop\n        /* \"#utility.yul\":11583:11592   */\n      dup2\n        /* \"#utility.yul\":11577:11581   */\n      dup2\n        /* \"#utility.yul\":11573:11593   */\n      sub\n        /* \"#utility.yul\":11569:11570   */\n      0x00\n        /* \"#utility.yul\":11558:11567   */\n      dup4\n        /* \"#utility.yul\":11554:11571   */\n      add\n        /* \"#utility.yul\":11547:11594   */\n      mstore\n        /* \"#utility.yul\":11611:11742   */\n      tag_309\n        /* \"#utility.yul\":11737:11741   */\n      dup2\n        /* \"#utility.yul\":11611:11742   */\n      tag_199\n      jump\t// in\n    tag_309:\n        /* \"#utility.yul\":11603:11742   */\n      swap1\n      pop\n        /* \"#utility.yul\":11330:11749   */\n      swap2\n      swap1\n      pop\n      jump\t// out\n        /* \"#utility.yul\":11755:11921   */\n    tag_200:\n        /* \"#utility.yul\":11895:11913   */\n      0x566f7465206e6f74207374617274656400000000000000000000000000000000\n        /* \"#utility.yul\":11891:11892   */\n      0x00\n        /* \"#utility.yul\":11883:11889   */\n      dup3\n        /* \"#utility.yul\":11879:11893   */\n      add\n        /* \"#utility.yul\":11872:11914   */\n      mstore\n        /* \"#utility.yul\":11755:11921   */\n      pop\n      jump\t// out\n        /* \"#utility.yul\":11927:12293   */\n    tag_201:\n        /* \"#utility.yul\":12069:12072   */\n      0x00\n        /* \"#utility.yul\":12090:12157   */\n      tag_312\n        /* \"#utility.yul\":12154:12156   */\n      0x10\n        /* \"#utility.yul\":12149:12152   */\n      dup4\n        /* \"#utility.yul\":12090:12157   */\n      tag_189\n      jump\t// in\n    tag_312:\n        /* \"#utility.yul\":12083:12157   */\n      swap2\n      pop\n        /* \"#utility.yul\":12166:12259   */\n      tag_313\n        /* \"#utility.yul\":12255:12258   */\n      dup3\n        /* \"#utility.yul\":12166:12259   */\n      tag_200\n      jump\t// in\n    tag_313:\n        /* \"#utility.yul\":12284:12286   */\n      0x20\n        /* \"#utility.yul\":12279:12282   */\n      dup3\n        /* \"#utility.yul\":12275:12287   */\n      add\n        /* \"#utility.yul\":12268:12287   */\n      swap1\n      pop\n        /* \"#utility.yul\":11927:12293   */\n      swap2\n      swap1\n      pop\n      jump\t// out\n        /* \"#utility.yul\":12299:12718   */\n    tag_98:\n        /* \"#utility.yul\":12465:12469   */\n      0x00\n        /* \"#utility.yul\":12503:12505   */\n      0x20\n        /* \"#utility.yul\":12492:12501   */\n      dup3\n        /* \"#utility.yul\":12488:12506   */\n      add\n        /* \"#utility.yul\":12480:12506   */\n      swap1\n      pop\n        /* \"#utility.yul\":12552:12561   */\n      dup2\n        /* \"#utility.yul\":12546:12550   */\n      dup2\n        /* \"#utility.yul\":12542:12562   */\n      sub\n        /* \"#utility.yul\":12538:12539   */\n      0x00\n        /* \"#utility.yul\":12527:12536   */\n      dup4\n        /* \"#utility.yul\":12523:12540   */\n      add\n        /* \"#utility.yul\":12516:12563   */\n      mstore\n        /* \"#utility.yul\":12580:12711   */\n      tag_315\n        /* \"#utility.yul\":12706:12710   */\n      dup2\n        /* \"#utility.yul\":12580:12711   */\n      tag_201\n      jump\t// in\n    tag_315:\n        /* \"#utility.yul\":12572:12711   */\n      swap1\n      pop\n        /* \"#utility.yul\":12299:12718   */\n      swap2\n      swap1\n      pop\n      jump\t// out\n        /* \"#utility.yul\":12724:12895   */\n    tag_202:\n        /* \"#utility.yul\":12864:12887   */\n      0x566f74696e672074696d6520697320656e646564210000000000000000000000\n        /* \"#utility.yul\":12860:12861   */\n      0x00\n        /* \"#utility.yul\":12852:12858   */\n      dup3\n        /* \"#utility.yul\":12848:12862   */\n      add\n        /* \"#utility.yul\":12841:12888   */\n      mstore\n        /* \"#utility.yul\":12724:12895   */\n      pop\n      jump\t// out\n        /* \"#utility.yul\":12901:13267   */\n    tag_203:\n        /* \"#utility.yul\":13043:13046   */\n      0x00\n        /* \"#utility.yul\":13064:13131   */\n      tag_318\n        /* \"#utility.yul\":13128:13130   */\n      0x15\n        /* \"#utility.yul\":13123:13126   */\n      dup4\n        /* \"#utility.yul\":13064:13131   */\n      tag_189\n      jump\t// in\n    tag_318:\n        /* \"#utility.yul\":13057:13131   */\n      swap2\n      pop\n        /* \"#utility.yul\":13140:13233   */\n      tag_319\n        /* \"#utility.yul\":13229:13232   */\n      dup3\n        /* \"#utility.yul\":13140:13233   */\n      tag_202\n      jump\t// in\n    tag_319:\n        /* \"#utility.yul\":13258:13260   */\n      0x20\n        /* \"#utility.yul\":13253:13256   */\n      dup3\n        /* \"#utility.yul\":13249:13261   */\n      add\n        /* \"#utility.yul\":13242:13261   */\n      swap1\n      pop\n        /* \"#utility.yul\":12901:13267   */\n      swap2\n      swap1\n      pop\n      jump\t// out\n        /* \"#utility.yul\":13273:13692   */\n    tag_101:\n        /* \"#utility.yul\":13439:13443   */\n      0x00\n        /* \"#utility.yul\":13477:13479   */\n      0x20\n        /* \"#utility.yul\":13466:13475   */\n      dup3\n        /* \"#utility.yul\":13462:13480   */\n      add\n        /* \"#utility.yul\":13454:13480   */\n      swap1\n      pop\n        /* \"#utility.yul\":13526:13535   */\n      dup2\n        /* \"#utility.yul\":13520:13524   */\n      dup2\n        /* \"#utility.yul\":13516:13536   */\n      sub\n        /* \"#utility.yul\":13512:13513   */\n      0x00\n        /* \"#utility.yul\":13501:13510   */\n      dup4\n        /* \"#utility.yul\":13497:13514   */\n      add\n        /* \"#utility.yul\":13490:13537   */\n      mstore\n        /* \"#utility.yul\":13554:13685   */\n      tag_321\n        /* \"#utility.yul\":13680:13684   */\n      dup2\n        /* \"#utility.yul\":13554:13685   */\n      tag_203\n      jump\t// in\n    tag_321:\n        /* \"#utility.yul\":13546:13685   */\n      swap1\n      pop\n        /* \"#utility.yul\":13273:13692   */\n      swap2\n      swap1\n      pop\n      jump\t// out\n        /* \"#utility.yul\":13698:13868   */\n    tag_204:\n        /* \"#utility.yul\":13838:13860   */\n      0x43616e646964617465206e6f7420666f756e6421000000000000000000000000\n        /* \"#utility.yul\":13834:13835   */\n      0x00\n        /* \"#utility.yul\":13826:13832   */\n      dup3\n        /* \"#utility.yul\":13822:13836   */\n      add\n        /* \"#utility.yul\":13815:13861   */\n      mstore\n        /* \"#utility.yul\":13698:13868   */\n      pop\n      jump\t// out\n        /* \"#utility.yul\":13874:14240   */\n    tag_205:\n        /* \"#utility.yul\":14016:14019   */\n      0x00\n        /* \"#utility.yul\":14037:14104   */\n      tag_324\n        /* \"#utility.yul\":14101:14103   */\n      0x14\n        /* \"#utility.yul\":14096:14099   */\n      dup4\n        /* \"#utility.yul\":14037:14104   */\n      tag_189\n      jump\t// in\n    tag_324:\n        /* \"#utility.yul\":14030:14104   */\n      swap2\n      pop\n        /* \"#utility.yul\":14113:14206   */\n      tag_325\n        /* \"#utility.yul\":14202:14205   */\n      dup3\n        /* \"#utility.yul\":14113:14206   */\n      tag_204\n      jump\t// in\n    tag_325:\n        /* \"#utility.yul\":14231:14233   */\n      0x20\n        /* \"#utility.yul\":14226:14229   */\n      dup3\n        /* \"#utility.yul\":14222:14234   */\n      add\n        /* \"#utility.yul\":14215:14234   */\n      swap1\n      pop\n        /* \"#utility.yul\":13874:14240   */\n      swap2\n      swap1\n      pop\n      jump\t// out\n        /* \"#utility.yul\":14246:14665   */\n    tag_105:\n        /* \"#utility.yul\":14412:14416   */\n      0x00\n        /* \"#utility.yul\":14450:14452   */\n      0x20\n        /* \"#utility.yul\":14439:14448   */\n      dup3\n        /* \"#utility.yul\":14435:14453   */\n      add\n        /* \"#utility.yul\":14427:14453   */\n      swap1\n      pop\n        /* \"#utility.yul\":14499:14508   */\n      dup2\n        /* \"#utility.yul\":14493:14497   */\n      dup2\n        /* \"#utility.yul\":14489:14509   */\n      sub\n        /* \"#utility.yul\":14485:14486   */\n      0x00\n        /* \"#utility.yul\":14474:14483   */\n      dup4\n        /* \"#utility.yul\":14470:14487   */\n      add\n        /* \"#utility.yul\":14463:14510   */\n      mstore\n        /* \"#utility.yul\":14527:14658   */\n      tag_327\n        /* \"#utility.yul\":14653:14657   */\n      dup2\n        /* \"#utility.yul\":14527:14658   */\n      tag_205\n      jump\t// in\n    tag_327:\n        /* \"#utility.yul\":14519:14658   */\n      swap1\n      pop\n        /* \"#utility.yul\":14246:14665   */\n      swap2\n      swap1\n      pop\n      jump\t// out\n        /* \"#utility.yul\":14671:14847   */\n    tag_206:\n        /* \"#utility.yul\":14811:14839   */\n      0x416c72656164792c2063617374656420796f757220766f746521000000000000\n        /* \"#utility.yul\":14807:14808   */\n      0x00\n        /* \"#utility.yul\":14799:14805   */\n      dup3\n        /* \"#utility.yul\":14795:14809   */\n      add\n        /* \"#utility.yul\":14788:14840   */\n      mstore\n        /* \"#utility.yul\":14671:14847   */\n      pop\n      jump\t// out\n        /* \"#utility.yul\":14853:15219   */\n    tag_207:\n        /* \"#utility.yul\":14995:14998   */\n      0x00\n        /* \"#utility.yul\":15016:15083   */\n      tag_330\n        /* \"#utility.yul\":15080:15082   */\n      0x1a\n        /* \"#utility.yul\":15075:15078   */\n      dup4\n        /* \"#utility.yul\":15016:15083   */\n      tag_189\n      jump\t// in\n    tag_330:\n        /* \"#utility.yul\":15009:15083   */\n      swap2\n      pop\n        /* \"#utility.yul\":15092:15185   */\n      tag_331\n        /* \"#utility.yul\":15181:15184   */\n      dup3\n        /* \"#utility.yul\":15092:15185   */\n      tag_206\n      jump\t// in\n    tag_331:\n        /* \"#utility.yul\":15210:15212   */\n      0x20\n        /* \"#utility.yul\":15205:15208   */\n      dup3\n        /* \"#utility.yul\":15201:15213   */\n      add\n        /* \"#utility.yul\":15194:15213   */\n      swap1\n      pop\n        /* \"#utility.yul\":14853:15219   */\n      swap2\n      swap1\n      pop\n      jump\t// out\n        /* \"#utility.yul\":15225:15644   */\n    tag_108:\n        /* \"#utility.yul\":15391:15395   */\n      0x00\n        /* \"#utility.yul\":15429:15431   */\n      0x20\n        /* \"#utility.yul\":15418:15427   */\n      dup3\n        /* \"#utility.yul\":15414:15432   */\n      add\n        /* \"#utility.yul\":15406:15432   */\n      swap1\n      pop\n        /* \"#utility.yul\":15478:15487   */\n      dup2\n        /* \"#utility.yul\":15472:15476   */\n      dup2\n        /* \"#utility.yul\":15468:15488   */\n      sub\n        /* \"#utility.yul\":15464:15465   */\n      0x00\n        /* \"#utility.yul\":15453:15462   */\n      dup4\n        /* \"#utility.yul\":15449:15466   */\n      add\n        /* \"#utility.yul\":15442:15489   */\n      mstore\n        /* \"#utility.yul\":15506:15637   */\n      tag_333\n        /* \"#utility.yul\":15632:15636   */\n      dup2\n        /* \"#utility.yul\":15506:15637   */\n      tag_207\n      jump\t// in\n    tag_333:\n        /* \"#utility.yul\":15498:15637   */\n      swap1\n      pop\n        /* \"#utility.yul\":15225:15644   */\n      swap2\n      swap1\n      pop\n      jump\t// out\n        /* \"#utility.yul\":15650:15830   */\n    tag_111:\n        /* \"#utility.yul\":15698:15775   */\n      0x4e487b7100000000000000000000000000000000000000000000000000000000\n        /* \"#utility.yul\":15695:15696   */\n      0x00\n        /* \"#utility.yul\":15688:15776   */\n      mstore\n        /* \"#utility.yul\":15795:15799   */\n      0x32\n        /* \"#utility.yul\":15792:15793   */\n      0x04\n        /* \"#utility.yul\":15785:15800   */\n      mstore\n        /* \"#utility.yul\":15819:15823   */\n      0x24\n        /* \"#utility.yul\":15816:15817   */\n      0x00\n        /* \"#utility.yul\":15809:15824   */\n      revert\n        /* \"#utility.yul\":15836:16016   */\n    tag_208:\n        /* \"#utility.yul\":15884:15961   */\n      0x4e487b7100000000000000000000000000000000000000000000000000000000\n        /* \"#utility.yul\":15881:15882   */\n      0x00\n        /* \"#utility.yul\":15874:15962   */\n      mstore\n        /* \"#utility.yul\":15981:15985   */\n      0x11\n        /* \"#utility.yul\":15978:15979   */\n      0x04\n        /* \"#utility.yul\":15971:15986   */\n      mstore\n        /* \"#utility.yul\":16005:16009   */\n      0x24\n        /* \"#utility.yul\":16002:16003   */\n      0x00\n        /* \"#utility.yul\":15995:16010   */\n      revert\n        /* \"#utility.yul\":16022:16213   */\n    tag_117:\n        /* \"#utility.yul\":16062:16065   */\n      0x00\n        /* \"#utility.yul\":16081:16101   */\n      tag_337\n        /* \"#utility.yul\":16099:16100   */\n      dup3\n        /* \"#utility.yul\":16081:16101   */\n      tag_173\n      jump\t// in\n    tag_337:\n        /* \"#utility.yul\":16076:16101   */\n      swap2\n      pop\n        /* \"#utility.yul\":16115:16135   */\n      tag_338\n        /* \"#utility.yul\":16133:16134   */\n      dup4\n        /* \"#utility.yul\":16115:16135   */\n      tag_173\n      jump\t// in\n    tag_338:\n        /* \"#utility.yul\":16110:16135   */\n      swap3\n      pop\n        /* \"#utility.yul\":16158:16159   */\n      dup3\n        /* \"#utility.yul\":16155:16156   */\n      dup3\n        /* \"#utility.yul\":16151:16160   */\n      add\n        /* \"#utility.yul\":16144:16160   */\n      swap1\n      pop\n        /* \"#utility.yul\":16179:16182   */\n      dup1\n        /* \"#utility.yul\":16176:16177   */\n      dup3\n        /* \"#utility.yul\":16173:16183   */\n      gt\n        /* \"#utility.yul\":16170:16206   */\n      iszero\n      tag_339\n      jumpi\n        /* \"#utility.yul\":16186:16204   */\n      tag_340\n      tag_208\n      jump\t// in\n    tag_340:\n        /* \"#utility.yul\":16170:16206   */\n    tag_339:\n        /* \"#utility.yul\":16022:16213   */\n      swap3\n      swap2\n      pop\n      pop\n      jump\t// out\n        /* \"#utility.yul\":16219:16399   */\n    tag_122:\n        /* \"#utility.yul\":16267:16344   */\n      0x4e487b7100000000000000000000000000000000000000000000000000000000\n        /* \"#utility.yul\":16264:16265   */\n      0x00\n        /* \"#utility.yul\":16257:16345   */\n      mstore\n        /* \"#utility.yul\":16364:16368   */\n      0x41\n        /* \"#utility.yul\":16361:16362   */\n      0x04\n        /* \"#utility.yul\":16354:16369   */\n      mstore\n        /* \"#utility.yul\":16388:16392   */\n      0x24\n        /* \"#utility.yul\":16385:16386   */\n      0x00\n        /* \"#utility.yul\":16378:16393   */\n      revert\n        /* \"#utility.yul\":16405:16578   */\n    tag_209:\n        /* \"#utility.yul\":16545:16570   */\n      0x566f74696e672074696d6520697320636f6d6d696e6721000000000000000000\n        /* \"#utility.yul\":16541:16542   */\n      0x00\n        /* \"#utility.yul\":16533:16539   */\n      dup3\n        /* \"#utility.yul\":16529:16543   */\n      add\n        /* \"#utility.yul\":16522:16571   */\n      mstore\n        /* \"#utility.yul\":16405:16578   */\n      pop\n      jump\t// out\n        /* \"#utility.yul\":16584:16950   */\n    tag_210:\n        /* \"#utility.yul\":16726:16729   */\n      0x00\n        /* \"#utility.yul\":16747:16814   */\n      tag_344\n        /* \"#utility.yul\":16811:16813   */\n      0x17\n        /* \"#utility.yul\":16806:16809   */\n      dup4\n        /* \"#utility.yul\":16747:16814   */\n      tag_189\n      jump\t// in\n    tag_344:\n        /* \"#utility.yul\":16740:16814   */\n      swap2\n      pop\n        /* \"#utility.yul\":16823:16916   */\n      tag_345\n        /* \"#utility.yul\":16912:16915   */\n      dup3\n        /* \"#utility.yul\":16823:16916   */\n      tag_209\n      jump\t// in\n    tag_345:\n        /* \"#utility.yul\":16941:16943   */\n      0x20\n        /* \"#utility.yul\":16936:16939   */\n      dup3\n        /* \"#utility.yul\":16932:16944   */\n      add\n        /* \"#utility.yul\":16925:16944   */\n      swap1\n      pop\n        /* \"#utility.yul\":16584:16950   */\n      swap2\n      swap1\n      pop\n      jump\t// out\n        /* \"#utility.yul\":16956:17375   */\n    tag_151:\n        /* \"#utility.yul\":17122:17126   */\n      0x00\n        /* \"#utility.yul\":17160:17162   */\n      0x20\n        /* \"#utility.yul\":17149:17158   */\n      dup3\n        /* \"#utility.yul\":17145:17163   */\n      add\n        /* \"#utility.yul\":17137:17163   */\n      swap1\n      pop\n        /* \"#utility.yul\":17209:17218   */\n      dup2\n        /* \"#utility.yul\":17203:17207   */\n      dup2\n        /* \"#utility.yul\":17199:17219   */\n      sub\n        /* \"#utility.yul\":17195:17196   */\n      0x00\n        /* \"#utility.yul\":17184:17193   */\n      dup4\n        /* \"#utility.yul\":17180:17197   */\n      add\n        /* \"#utility.yul\":17173:17220   */\n      mstore\n        /* \"#utility.yul\":17237:17368   */\n      tag_347\n        /* \"#utility.yul\":17363:17367   */\n      dup2\n        /* \"#utility.yul\":17237:17368   */\n      tag_210\n      jump\t// in\n    tag_347:\n        /* \"#utility.yul\":17229:17368   */\n      swap1\n      pop\n        /* \"#utility.yul\":16956:17375   */\n      swap2\n      swap1\n      pop\n      jump\t// out\n        /* \"#utility.yul\":17381:17556   */\n    tag_211:\n        /* \"#utility.yul\":17521:17548   */\n      0x566f74696e672074696d65206973206e6f7420656e6465642100000000000000\n        /* \"#utility.yul\":17517:17518   */\n      0x00\n        /* \"#utility.yul\":17509:17515   */\n      dup3\n        /* \"#utility.yul\":17505:17519   */\n      add\n        /* \"#utility.yul\":17498:17549   */\n      mstore\n        /* \"#utility.yul\":17381:17556   */\n      pop\n      jump\t// out\n        /* \"#utility.yul\":17562:17928   */\n    tag_212:\n        /* \"#utility.yul\":17704:17707   */\n      0x00\n        /* \"#utility.yul\":17725:17792   */\n      tag_350\n        /* \"#utility.yul\":17789:17791   */\n      0x19\n        /* \"#utility.yul\":17784:17787   */\n      dup4\n        /* \"#utility.yul\":17725:17792   */\n      tag_189\n      jump\t// in\n    tag_350:\n        /* \"#utility.yul\":17718:17792   */\n      swap2\n      pop\n        /* \"#utility.yul\":17801:17894   */\n      tag_351\n        /* \"#utility.yul\":17890:17893   */\n      dup3\n        /* \"#utility.yul\":17801:17894   */\n      tag_211\n      jump\t// in\n    tag_351:\n        /* \"#utility.yul\":17919:17921   */\n      0x20\n        /* \"#utility.yul\":17914:17917   */\n      dup3\n        /* \"#utility.yul\":17910:17922   */\n      add\n        /* \"#utility.yul\":17903:17922   */\n      swap1\n      pop\n        /* \"#utility.yul\":17562:17928   */\n      swap2\n      swap1\n      pop\n      jump\t// out\n        /* \"#utility.yul\":17934:18353   */\n    tag_156:\n        /* \"#utility.yul\":18100:18104   */\n      0x00\n        /* \"#utility.yul\":18138:18140   */\n      0x20\n        /* \"#utility.yul\":18127:18136   */\n      dup3\n        /* \"#utility.yul\":18123:18141   */\n      add\n        /* \"#utility.yul\":18115:18141   */\n      swap1\n      pop\n        /* \"#utility.yul\":18187:18196   */\n      dup2\n        /* \"#utility.yul\":18181:18185   */\n      dup2\n        /* \"#utility.yul\":18177:18197   */\n      sub\n        /* \"#utility.yul\":18173:18174   */\n      0x00\n        /* \"#utility.yul\":18162:18171   */\n      dup4\n        /* \"#utility.yul\":18158:18175   */\n      add\n        /* \"#utility.yul\":18151:18198   */\n      mstore\n        /* \"#utility.yul\":18215:18346   */\n      tag_353\n        /* \"#utility.yul\":18341:18345   */\n      dup2\n        /* \"#utility.yul\":18215:18346   */\n      tag_212\n      jump\t// in\n    tag_353:\n        /* \"#utility.yul\":18207:18346   */\n      swap1\n      pop\n        /* \"#utility.yul\":17934:18353   */\n      swap2\n      swap1\n      pop\n      jump\t// out\n\n    auxdata: 0xa2646970667358221220512806e1d3f2d8da36a3567cc42110280e66604aebe2a18f6b16c225c1ea12e264736f6c634300081c0033\n}\n",
				"bytecode": {
					"linkReferences": {},
					"object": "608060405234801561001057600080fd5b5060405161195e38038061195e833981810160405281019061003291906100c3565b33600260016101000a81548173ffffffffffffffffffffffffffffffffffffffff021916908373ffffffffffffffffffffffffffffffffffffffff16021790555081600081905550806001819055505050610103565b600080fd5b6000819050919050565b6100a08161008d565b81146100ab57600080fd5b50565b6000815190506100bd81610097565b92915050565b600080604083850312156100da576100d9610088565b5b60006100e8858286016100ae565b92505060206100f9858286016100ae565b9150509250929050565b61184c806101126000396000f3fe608060405234801561001057600080fd5b50600436106100ce5760003560e01c80633eb76b9c1161008c57806393c3f4b91161006657806393c3f4b9146101ff578063a2b2f7c31461021d578063d5ab877f1461024d578063d8bff5a514610257576100ce565b80633eb76b9c146101a75780636c47a6c3146101c35780638da5cb5b146101e1576100ce565b8062b170fd146100d35780631bbef399146101035780633477ee2e1461012157806339518b5e146101515780633acd75f81461016f5780633ccc1f531461018b575b600080fd5b6100ed60048036038101906100e89190611019565b610288565b6040516100fa919061105f565b60405180910390f35b61010b6102a0565b6040516101189190611095565b60405180910390f35b61013b600480360381019061013691906110dc565b6102b3565b6040516101489190611118565b60405180910390f35b6101596102f2565b604051610166919061105f565b60405180910390f35b61018960048036038101906101849190611019565b6102f8565b005b6101a560048036038101906101a09190611019565b61052c565b005b6101c160048036038101906101bc91906110dc565b61073e565b005b6101cb610a97565b6040516101d8919061105f565b60405180910390f35b6101e9610a9d565b6040516101f69190611118565b60405180910390f35b610207610ac3565b604051610214919061122f565b60405180910390f35b610237600480360381019061023291906110dc565b610c78565b6040516102449190611118565b60405180910390f35b610255610cc0565b005b610271600480360381019061026c9190611019565b610e9a565b60405161027f929190611251565b60405180910390f35b60056020528060005260406000206000915090505481565b600260009054906101000a900460ff1681565b600381815481106102c357600080fd5b906000526020600020016000915054906101000a900473ffffffffffffffffffffffffffffffffffffffff1681565b60005481565b600260019054906101000a900473ffffffffffffffffffffffffffffffffffffffff1673ffffffffffffffffffffffffffffffffffffffff163373ffffffffffffffffffffffffffffffffffffffff1614610388576040517f08c379a000000000000000000000000000000000000000000000000000000000815260040161037f906112d7565b60405180910390fd5b8073ffffffffffffffffffffffffffffffffffffffff163373ffffffffffffffffffffffffffffffffffffffff16036103f6576040517f08c379a00000000000000000000000000000000000000000000000000000000081526004016103ed90611343565b60405180910390fd5b600260009054906101000a900460ff1615610446576040517f08c379a000000000000000000000000000000000000000000000000000000000815260040161043d906113d5565b60405180910390fd5b61044f81610ede565b1561048f576040517f08c379a000000000000000000000000000000000000000000000000000000000815260040161048690611441565b60405180910390fd5b6003819080600181540180825580915050600190039060005260206000200160009091909190916101000a81548173ffffffffffffffffffffffffffffffffffffffff021916908373ffffffffffffffffffffffffffffffffffffffff1602179055507f054648b2bb8115bd12250246de13a17e41e676e3b714fa2d69eceb576cca2fac816040516105219190611118565b60405180910390a150565b600260019054906101000a900473ffffffffffffffffffffffffffffffffffffffff1673ffffffffffffffffffffffffffffffffffffffff163373ffffffffffffffffffffffffffffffffffffffff16146105bc576040517f08c379a00000000000000000000000000000000000000000000000000000000081526004016105b3906112d7565b60405180910390fd5b6000600460008373ffffffffffffffffffffffffffffffffffffffff1673ffffffffffffffffffffffffffffffffffffffff1681526020019081526020016000209050600073ffffffffffffffffffffffffffffffffffffffff168160000160009054906101000a900473ffffffffffffffffffffffffffffffffffffffff1673ffffffffffffffffffffffffffffffffffffffff1603610692576040517f08c379a0000000000000000000000000000000000000000000000000000000008152600401610689906114ad565b60405180910390fd5b600460008373ffffffffffffffffffffffffffffffffffffffff1673ffffffffffffffffffffffffffffffffffffffff168152602001908152602001600020600080820160006101000a81549073ffffffffffffffffffffffffffffffffffffffff0219169055600182016000905550507fd835495b0cc14603f691a3161f6442cbe3602e0745f2c60b948d0d3268e6c6c7826040516107329190611118565b60405180910390a15050565b600260009054906101000a900460ff1661078d576040517f08c379a000000000000000000000000000000000000000000000000000000000815260040161078490611519565b60405180910390fd5b6001544211156107d2576040517f08c379a00000000000000000000000000000000000000000000000000000000081526004016107c990611585565b60405180910390fd5b600380549050811080156107e7575060008110155b610826576040517f08c379a000000000000000000000000000000000000000000000000000000000815260040161081d906115f1565b60405180910390fd5b6000600460003373ffffffffffffffffffffffffffffffffffffffff1673ffffffffffffffffffffffffffffffffffffffff1681526020019081526020016000209050600073ffffffffffffffffffffffffffffffffffffffff168160000160009054906101000a900473ffffffffffffffffffffffffffffffffffffffff1673ffffffffffffffffffffffffffffffffffffffff16146108fc576040517f08c379a00000000000000000000000000000000000000000000000000000000081526004016108f39061165d565b60405180910390fd5b600382815481106109105761090f61167d565b5b9060005260206000200160009054906101000a900473ffffffffffffffffffffffffffffffffffffffff168160000160006101000a81548173ffffffffffffffffffffffffffffffffffffffff021916908373ffffffffffffffffffffffffffffffffffffffff160217905550428160010181905550600160056000600385815481106109a05761099f61167d565b5b9060005260206000200160009054906101000a900473ffffffffffffffffffffffffffffffffffffffff1673ffffffffffffffffffffffffffffffffffffffff1673ffffffffffffffffffffffffffffffffffffffff1681526020019081526020016000206000828254610a1491906116db565b925050819055503373ffffffffffffffffffffffffffffffffffffffff167f80eacb8485891d1331e1057618388e157b8496244c3b2eab9302445007b468118260000160009054906101000a900473ffffffffffffffffffffffffffffffffffffffff168360010154604051610a8b929190611251565b60405180910390a25050565b60015481565b600260019054906101000a900473ffffffffffffffffffffffffffffffffffffffff1681565b6060600060038054905067ffffffffffffffff811115610ae657610ae561170f565b5b604051908082528060200260200182016040528015610b1f57816020015b610b0c610f86565b815260200190600190039081610b045790505b50905060005b600380549050811015610c705760038181548110610b4657610b4561167d565b5b9060005260206000200160009054906101000a900473ffffffffffffffffffffffffffffffffffffffff16828281518110610b8457610b8361167d565b5b60200260200101516000019073ffffffffffffffffffffffffffffffffffffffff16908173ffffffffffffffffffffffffffffffffffffffff16815250506005600060038381548110610bda57610bd961167d565b5b9060005260206000200160009054906101000a900473ffffffffffffffffffffffffffffffffffffffff1673ffffffffffffffffffffffffffffffffffffffff1673ffffffffffffffffffffffffffffffffffffffff16815260200190815260200160002054828281518110610c5357610c5261167d565b5b602002602001015160200181815250508080600101915050610b25565b508091505090565b600060038281548110610c8e57610c8d61167d565b5b9060005260206000200160009054906101000a900473ffffffffffffffffffffffffffffffffffffffff169050919050565b600260019054906101000a900473ffffffffffffffffffffffffffffffffffffffff1673ffffffffffffffffffffffffffffffffffffffff163373ffffffffffffffffffffffffffffffffffffffff1614610d50576040517f08c379a0000000000000000000000000000000000000000000000000000000008152600401610d47906112d7565b60405180910390fd5b600260009054906101000a900460ff16610e0057600054421015610da9576040517f08c379a0000000000000000000000000000000000000000000000000000000008152600401610da09061178a565b60405180910390fd5b6001600260006101000a81548160ff0219169083151502179055507f84d66542381393079134898f2436f7ba19b5fab5b4ae13da6b78e7454395661d33604051610df39190611118565b60405180910390a1610e98565b600154421015610e45576040517f08c379a0000000000000000000000000000000000000000000000000000000008152600401610e3c906117f6565b60405180910390fd5b6000600260006101000a81548160ff0219169083151502179055507fd027f2ec970e91ce28ac9b4d8c78f89288e3b6029357e79cbd81578f250aa4a133604051610e8f9190611118565b60405180910390a15b565b60046020528060005260406000206000915090508060000160009054906101000a900473ffffffffffffffffffffffffffffffffffffffff16908060010154905082565b600080600090505b600380549050811015610f7b578273ffffffffffffffffffffffffffffffffffffffff1660038281548110610f1e57610f1d61167d565b5b9060005260206000200160009054906101000a900473ffffffffffffffffffffffffffffffffffffffff1673ffffffffffffffffffffffffffffffffffffffff1603610f6e576001915050610f81565b8080600101915050610ee6565b50600090505b919050565b6040518060400160405280600073ffffffffffffffffffffffffffffffffffffffff168152602001600081525090565b600080fd5b600073ffffffffffffffffffffffffffffffffffffffff82169050919050565b6000610fe682610fbb565b9050919050565b610ff681610fdb565b811461100157600080fd5b50565b60008135905061101381610fed565b92915050565b60006020828403121561102f5761102e610fb6565b5b600061103d84828501611004565b91505092915050565b6000819050919050565b61105981611046565b82525050565b60006020820190506110746000830184611050565b92915050565b60008115159050919050565b61108f8161107a565b82525050565b60006020820190506110aa6000830184611086565b92915050565b6110b981611046565b81146110c457600080fd5b50565b6000813590506110d6816110b0565b92915050565b6000602082840312156110f2576110f1610fb6565b5b6000611100848285016110c7565b91505092915050565b61111281610fdb565b82525050565b600060208201905061112d6000830184611109565b92915050565b600081519050919050565b600082825260208201905092915050565b6000819050602082019050919050565b61116881610fdb565b82525050565b61117781611046565b82525050565b604082016000820151611193600085018261115f565b5060208201516111a6602085018261116e565b50505050565b60006111b8838361117d565b60408301905092915050565b6000602082019050919050565b60006111dc82611133565b6111e6818561113e565b93506111f18361114f565b8060005b8381101561122257815161120988826111ac565b9750611214836111c4565b9250506001810190506111f5565b5085935050505092915050565b6000602082019050818103600083015261124981846111d1565b905092915050565b60006040820190506112666000830185611109565b6112736020830184611050565b9392505050565b600082825260208201905092915050565b7f6e6f74206f776e65720000000000000000000000000000000000000000000000600082015250565b60006112c160098361127a565b91506112cc8261128b565b602082019050919050565b600060208201905081810360008301526112f0816112b4565b9050919050565b7f596f752063616e742062652063616e6469646174652100000000000000000000600082015250565b600061132d60168361127a565b9150611338826112f7565b602082019050919050565b6000602082019050818103600083015261135c81611320565b9050919050565b7f416c726561647920766f74696e6720737461727465642c2063616e742061646460008201527f206e65772063616e646961746500000000000000000000000000000000000000602082015250565b60006113bf602d8361127a565b91506113ca82611363565b604082019050919050565b600060208201905081810360008301526113ee816113b2565b9050919050565b7f416c726561647920657869737473000000000000000000000000000000000000600082015250565b600061142b600e8361127a565b9150611436826113f5565b602082019050919050565b6000602082019050818103600083015261145a8161141e565b9050919050565b7f4e6f7420766f746520617661696c61626c650000000000000000000000000000600082015250565b600061149760128361127a565b91506114a282611461565b602082019050919050565b600060208201905081810360008301526114c68161148a565b9050919050565b7f566f7465206e6f74207374617274656400000000000000000000000000000000600082015250565b600061150360108361127a565b915061150e826114cd565b602082019050919050565b60006020820190508181036000830152611532816114f6565b9050919050565b7f566f74696e672074696d6520697320656e646564210000000000000000000000600082015250565b600061156f60158361127a565b915061157a82611539565b602082019050919050565b6000602082019050818103600083015261159e81611562565b9050919050565b7f43616e646964617465206e6f7420666f756e6421000000000000000000000000600082015250565b60006115db60148361127a565b91506115e6826115a5565b602082019050919050565b6000602082019050818103600083015261160a816115ce565b9050919050565b7f416c72656164792c2063617374656420796f757220766f746521000000000000600082015250565b6000611647601a8361127a565b915061165282611611565b602082019050919050565b600060208201905081810360008301526116768161163a565b9050919050565b7f4e487b7100000000000000000000000000000000000000000000000000000000600052603260045260246000fd5b7f4e487b7100000000000000000000000000000000000000000000000000000000600052601160045260246000fd5b60006116e682611046565b91506116f183611046565b9250828201905080821115611709576117086116ac565b5b92915050565b7f4e487b7100000000000000000000000000000000000000000000000000000000600052604160045260246000fd5b7f566f74696e672074696d6520697320636f6d6d696e6721000000000000000000600082015250565b600061177460178361127a565b915061177f8261173e565b602082019050919050565b600060208201905081810360008301526117a381611767565b9050919050565b7f566f74696e672074696d65206973206e6f7420656e6465642100000000000000600082015250565b60006117e060198361127a565b91506117eb826117aa565b602082019050919050565b6000602082019050818103600083015261180f816117d3565b905091905056fea2646970667358221220512806e1d3f2d8da36a3567cc42110280e66604aebe2a18f6b16c225c1ea12e264736f6c634300081c0033",
					"opcodes": "PUSH1 0x80 PUSH1 0x40 MSTORE CALLVALUE DUP1 ISZERO PUSH2 0x10 JUMPI PUSH1 0x0 DUP1 REVERT JUMPDEST POP PUSH1 0x40 MLOAD PUSH2 0x195E CODESIZE SUB DUP1 PUSH2 0x195E DUP4 CODECOPY DUP2 DUP2 ADD PUSH1 0x40 MSTORE DUP2 ADD SWAP1 PUSH2 0x32 SWAP2 SWAP1 PUSH2 0xC3 JUMP JUMPDEST CALLER PUSH1 0x2 PUSH1 0x1 PUSH2 0x100 EXP DUP2 SLOAD DUP2 PUSH20 0xFFFFFFFFFFFFFFFFFFFFFFFFFFFFFFFFFFFFFFFF MUL NOT AND SWAP1 DUP4 PUSH20 0xFFFFFFFFFFFFFFFFFFFFFFFFFFFFFFFFFFFFFFFF AND MUL OR SWAP1 SSTORE POP DUP2 PUSH1 0x0 DUP2 SWAP1 SSTORE POP DUP1 PUSH1 0x1 DUP2 SWAP1 SSTORE POP POP POP PUSH2 0x103 JUMP JUMPDEST PUSH1 0x0 DUP1 REVERT JUMPDEST PUSH1 0x0 DUP2 SWAP1 POP SWAP2 SWAP1 POP JUMP JUMPDEST PUSH2 0xA0 DUP2 PUSH2 0x8D JUMP JUMPDEST DUP2 EQ PUSH2 0xAB JUMPI PUSH1 0x0 DUP1 REVERT JUMPDEST POP JUMP JUMPDEST PUSH1 0x0 DUP2 MLOAD SWAP1 POP PUSH2 0xBD DUP2 PUSH2 0x97 JUMP JUMPDEST SWAP3 SWAP2 POP POP JUMP JUMPDEST PUSH1 0x0 DUP1 PUSH1 0x40 DUP4 DUP6 SUB SLT ISZERO PUSH2 0xDA JUMPI PUSH2 0xD9 PUSH2 0x88 JUMP JUMPDEST JUMPDEST PUSH1 0x0 PUSH2 0xE8 DUP6 DUP3 DUP7 ADD PUSH2 0xAE JUMP JUMPDEST SWAP3 POP POP PUSH1 0x20 PUSH2 0xF9 DUP6 DUP3 DUP7 ADD PUSH2 0xAE JUMP JUMPDEST SWAP2 POP POP SWAP3 POP SWAP3 SWAP1 POP JUMP JUMPDEST PUSH2 0x184C DUP1 PUSH2 0x112 PUSH1 0x0 CODECOPY PUSH1 0x0 RETURN INVALID PUSH1 0x80 PUSH1 0x40 MSTORE CALLVALUE DUP1 ISZERO PUSH2 0x10 JUMPI PUSH1 0x0 DUP1 REVERT JUMPDEST POP PUSH1 0x4 CALLDATASIZE LT PUSH2 0xCE JUMPI PUSH1 0x0 CALLDATALOAD PUSH1 0xE0 SHR DUP1 PUSH4 0x3EB76B9C GT PUSH2 0x8C JUMPI DUP1 PUSH4 0x93C3F4B9 GT PUSH2 0x66 JUMPI DUP1 PUSH4 0x93C3F4B9 EQ PUSH2 0x1FF JUMPI DUP1 PUSH4 0xA2B2F7C3 EQ PUSH2 0x21D JUMPI DUP1 PUSH4 0xD5AB877F EQ PUSH2 0x24D JUMPI DUP1 PUSH4 0xD8BFF5A5 EQ PUSH2 0x257 JUMPI PUSH2 0xCE JUMP JUMPDEST DUP1 PUSH4 0x3EB76B9C EQ PUSH2 0x1A7 JUMPI DUP1 PUSH4 0x6C47A6C3 EQ PUSH2 0x1C3 JUMPI DUP1 PUSH4 0x8DA5CB5B EQ PUSH2 0x1E1 JUMPI PUSH2 0xCE JUMP JUMPDEST DUP1 PUSH3 0xB170FD EQ PUSH2 0xD3 JUMPI DUP1 PUSH4 0x1BBEF399 EQ PUSH2 0x103 JUMPI DUP1 PUSH4 0x3477EE2E EQ PUSH2 0x121 JUMPI DUP1 PUSH4 0x39518B5E EQ PUSH2 0x151 JUMPI DUP1 PUSH4 0x3ACD75F8 EQ PUSH2 0x16F JUMPI DUP1 PUSH4 0x3CCC1F53 EQ PUSH2 0x18B JUMPI JUMPDEST PUSH1 0x0 DUP1 REVERT JUMPDEST PUSH2 0xED PUSH1 0x4 DUP1 CALLDATASIZE SUB DUP2 ADD SWAP1 PUSH2 0xE8 SWAP2 SWAP1 PUSH2 0x1019 JUMP JUMPDEST PUSH2 0x288 JUMP JUMPDEST PUSH1 0x40 MLOAD PUSH2 0xFA SWAP2 SWAP1 PUSH2 0x105F JUMP JUMPDEST PUSH1 0x40 MLOAD DUP1 SWAP2 SUB SWAP1 RETURN JUMPDEST PUSH2 0x10B PUSH2 0x2A0 JUMP JUMPDEST PUSH1 0x40 MLOAD PUSH2 0x118 SWAP2 SWAP1 PUSH2 0x1095 JUMP JUMPDEST PUSH1 0x40 MLOAD DUP1 SWAP2 SUB SWAP1 RETURN JUMPDEST PUSH2 0x13B PUSH1 0x4 DUP1 CALLDATASIZE SUB DUP2 ADD SWAP1 PUSH2 0x136 SWAP2 SWAP1 PUSH2 0x10DC JUMP JUMPDEST PUSH2 0x2B3 JUMP JUMPDEST PUSH1 0x40 MLOAD PUSH2 0x148 SWAP2 SWAP1 PUSH2 0x1118 JUMP JUMPDEST PUSH1 0x40 MLOAD DUP1 SWAP2 SUB SWAP1 RETURN JUMPDEST PUSH2 0x159 PUSH2 0x2F2 JUMP JUMPDEST PUSH1 0x40 MLOAD PUSH2 0x166 SWAP2 SWAP1 PUSH2 0x105F JUMP JUMPDEST PUSH1 0x40 MLOAD DUP1 SWAP2 SUB SWAP1 RETURN JUMPDEST PUSH2 0x189 PUSH1 0x4 DUP1 CALLDATASIZE SUB DUP2 ADD SWAP1 PUSH2 0x184 SWAP2 SWAP1 PUSH2 0x1019 JUMP JUMPDEST PUSH2 0x2F8 JUMP JUMPDEST STOP JUMPDEST PUSH2 0x1A5 PUSH1 0x4 DUP1 CALLDATASIZE SUB DUP2 ADD SWAP1 PUSH2 0x1A0 SWAP2 SWAP1 PUSH2 0x1019 JUMP JUMPDEST PUSH2 0x52C JUMP JUMPDEST STOP JUMPDEST PUSH2 0x1C1 PUSH1 0x4 DUP1 CALLDATASIZE SUB DUP2 ADD SWAP1 PUSH2 0x1BC SWAP2 SWAP1 PUSH2 0x10DC JUMP JUMPDEST PUSH2 0x73E JUMP JUMPDEST STOP JUMPDEST PUSH2 0x1CB PUSH2 0xA97 JUMP JUMPDEST PUSH1 0x40 MLOAD PUSH2 0x1D8 SWAP2 SWAP1 PUSH2 0x105F JUMP JUMPDEST PUSH1 0x40 MLOAD DUP1 SWAP2 SUB SWAP1 RETURN JUMPDEST PUSH2 0x1E9 PUSH2 0xA9D JUMP JUMPDEST PUSH1 0x40 MLOAD PUSH2 0x1F6 SWAP2 SWAP1 PUSH2 0x1118 JUMP JUMPDEST PUSH1 0x40 MLOAD DUP1 SWAP2 SUB SWAP1 RETURN JUMPDEST PUSH2 0x207 PUSH2 0xAC3 JUMP JUMPDEST PUSH1 0x40 MLOAD PUSH2 0x214 SWAP2 SWAP1 PUSH2 0x122F JUMP JUMPDEST PUSH1 0x40 MLOAD DUP1 SWAP2 SUB SWAP1 RETURN JUMPDEST PUSH2 0x237 PUSH1 0x4 DUP1 CALLDATASIZE SUB DUP2 ADD SWAP1 PUSH2 0x232 SWAP2 SWAP1 PUSH2 0x10DC JUMP JUMPDEST PUSH2 0xC78 JUMP JUMPDEST PUSH1 0x40 MLOAD PUSH2 0x244 SWAP2 SWAP1 PUSH2 0x1118 JUMP JUMPDEST PUSH1 0x40 MLOAD DUP1 SWAP2 SUB SWAP1 RETURN JUMPDEST PUSH2 0x255 PUSH2 0xCC0 JUMP JUMPDEST STOP JUMPDEST PUSH2 0x271 PUSH1 0x4 DUP1 CALLDATASIZE SUB DUP2 ADD SWAP1 PUSH2 0x26C SWAP2 SWAP1 PUSH2 0x1019 JUMP JUMPDEST PUSH2 0xE9A JUMP JUMPDEST PUSH1 0x40 MLOAD PUSH2 0x27F SWAP3 SWAP2 SWAP1 PUSH2 0x1251 JUMP JUMPDEST PUSH1 0x40 MLOAD DUP1 SWAP2 SUB SWAP1 RETURN JUMPDEST PUSH1 0x5 PUSH1 0x20 MSTORE DUP1 PUSH1 0x0 MSTORE PUSH1 0x40 PUSH1 0x0 KECCAK256 PUSH1 0x0 SWAP2 POP SWAP1 POP SLOAD DUP2 JUMP JUMPDEST PUSH1 0x2 PUSH1 0x0 SWAP1 SLOAD SWAP1 PUSH2 0x100 EXP SWAP1 DIV PUSH1 0xFF AND DUP2 JUMP JUMPDEST PUSH1 0x3 DUP2 DUP2 SLOAD DUP2 LT PUSH2 0x2C3 JUMPI PUSH1 0x0 DUP1 REVERT JUMPDEST SWAP1 PUSH1 0x0 MSTORE PUSH1 0x20 PUSH1 0x0 KECCAK256 ADD PUSH1 0x0 SWAP2 POP SLOAD SWAP1 PUSH2 0x100 EXP SWAP1 DIV PUSH20 0xFFFFFFFFFFFFFFFFFFFFFFFFFFFFFFFFFFFFFFFF AND DUP2 JUMP JUMPDEST PUSH1 0x0 SLOAD DUP2 JUMP JUMPDEST PUSH1 0x2 PUSH1 0x1 SWAP1 SLOAD SWAP1 PUSH2 0x100 EXP SWAP1 DIV PUSH20 0xFFFFFFFFFFFFFFFFFFFFFFFFFFFFFFFFFFFFFFFF AND PUSH20 0xFFFFFFFFFFFFFFFFFFFFFFFFFFFFFFFFFFFFFFFF AND CALLER PUSH20 0xFFFFFFFFFFFFFFFFFFFFFFFFFFFFFFFFFFFFFFFF AND EQ PUSH2 0x388 JUMPI PUSH1 0x40 MLOAD PUSH32 0x8C379A000000000000000000000000000000000000000000000000000000000 DUP2 MSTORE PUSH1 0x4 ADD PUSH2 0x37F SWAP1 PUSH2 0x12D7 JUMP JUMPDEST PUSH1 0x40 MLOAD DUP1 SWAP2 SUB SWAP1 REVERT JUMPDEST DUP1 PUSH20 0xFFFFFFFFFFFFFFFFFFFFFFFFFFFFFFFFFFFFFFFF AND CALLER PUSH20 0xFFFFFFFFFFFFFFFFFFFFFFFFFFFFFFFFFFFFFFFF AND SUB PUSH2 0x3F6 JUMPI PUSH1 0x40 MLOAD PUSH32 0x8C379A000000000000000000000000000000000000000000000000000000000 DUP2 MSTORE PUSH1 0x4 ADD PUSH2 0x3ED SWAP1 PUSH2 0x1343 JUMP JUMPDEST PUSH1 0x40 MLOAD DUP1 SWAP2 SUB SWAP1 REVERT JUMPDEST PUSH1 0x2 PUSH1 0x0 SWAP1 SLOAD SWAP1 PUSH2 0x100 EXP SWAP1 DIV PUSH1 0xFF AND ISZERO PUSH2 0x446 JUMPI PUSH1 0x40 MLOAD PUSH32 0x8C379A000000000000000000000000000000000000000000000000000000000 DUP2 MSTORE PUSH1 0x4 ADD PUSH2 0x43D SWAP1 PUSH2 0x13D5 JUMP JUMPDEST PUSH1 0x40 MLOAD DUP1 SWAP2 SUB SWAP1 REVERT JUMPDEST PUSH2 0x44F DUP2 PUSH2 0xEDE JUMP JUMPDEST ISZERO PUSH2 0x48F JUMPI PUSH1 0x40 MLOAD PUSH32 0x8C379A000000000000000000000000000000000000000000000000000000000 DUP2 MSTORE PUSH1 0x4 ADD PUSH2 0x486 SWAP1 PUSH2 0x1441 JUMP JUMPDEST PUSH1 0x40 MLOAD DUP1 SWAP2 SUB SWAP1 REVERT JUMPDEST PUSH1 0x3 DUP2 SWAP1 DUP1 PUSH1 0x1 DUP2 SLOAD ADD DUP1 DUP3 SSTORE DUP1 SWAP2 POP POP PUSH1 0x1 SWAP1 SUB SWAP1 PUSH1 0x0 MSTORE PUSH1 0x20 PUSH1 0x0 KECCAK256 ADD PUSH1 0x0 SWAP1 SWAP2 SWAP1 SWAP2 SWAP1 SWAP2 PUSH2 0x100 EXP DUP2 SLOAD DUP2 PUSH20 0xFFFFFFFFFFFFFFFFFFFFFFFFFFFFFFFFFFFFFFFF MUL NOT AND SWAP1 DUP4 PUSH20 0xFFFFFFFFFFFFFFFFFFFFFFFFFFFFFFFFFFFFFFFF AND MUL OR SWAP1 SSTORE POP PUSH32 0x54648B2BB8115BD12250246DE13A17E41E676E3B714FA2D69ECEB576CCA2FAC DUP2 PUSH1 0x40 MLOAD PUSH2 0x521 SWAP2 SWAP1 PUSH2 0x1118 JUMP JUMPDEST PUSH1 0x40 MLOAD DUP1 SWAP2 SUB SWAP1 LOG1 POP JUMP JUMPDEST PUSH1 0x2 PUSH1 0x1 SWAP1 SLOAD SWAP1 PUSH2 0x100 EXP SWAP1 DIV PUSH20 0xFFFFFFFFFFFFFFFFFFFFFFFFFFFFFFFFFFFFFFFF AND PUSH20 0xFFFFFFFFFFFFFFFFFFFFFFFFFFFFFFFFFFFFFFFF AND CALLER PUSH20 0xFFFFFFFFFFFFFFFFFFFFFFFFFFFFFFFFFFFFFFFF AND EQ PUSH2 0x5BC JUMPI PUSH1 0x40 MLOAD PUSH32 0x8C379A000000000000000000000000000000000000000000000000000000000 DUP2 MSTORE PUSH1 0x4 ADD PUSH2 0x5B3 SWAP1 PUSH2 0x12D7 JUMP JUMPDEST PUSH1 0x40 MLOAD DUP1 SWAP2 SUB SWAP1 REVERT JUMPDEST PUSH1 0x0 PUSH1 0x4 PUSH1 0x0 DUP4 PUSH20 0xFFFFFFFFFFFFFFFFFFFFFFFFFFFFFFFFFFFFFFFF AND PUSH20 0xFFFFFFFFFFFFFFFFFFFFFFFFFFFFFFFFFFFFFFFF AND DUP2 MSTORE PUSH1 0x20 ADD SWAP1 DUP2 MSTORE PUSH1 0x20 ADD PUSH1 0x0 KECCAK256 SWAP1 POP PUSH1 0x0 PUSH20 0xFFFFFFFFFFFFFFFFFFFFFFFFFFFFFFFFFFFFFFFF AND DUP2 PUSH1 0x0 ADD PUSH1 0x0 SWAP1 SLOAD SWAP1 PUSH2 0x100 EXP SWAP1 DIV PUSH20 0xFFFFFFFFFFFFFFFFFFFFFFFFFFFFFFFFFFFFFFFF AND PUSH20 0xFFFFFFFFFFFFFFFFFFFFFFFFFFFFFFFFFFFFFFFF AND SUB PUSH2 0x692 JUMPI PUSH1 0x40 MLOAD PUSH32 0x8C379A000000000000000000000000000000000000000000000000000000000 DUP2 MSTORE PUSH1 0x4 ADD PUSH2 0x689 SWAP1 PUSH2 0x14AD JUMP JUMPDEST PUSH1 0x40 MLOAD DUP1 SWAP2 SUB SWAP1 REVERT JUMPDEST PUSH1 0x4 PUSH1 0x0 DUP4 PUSH20 0xFFFFFFFFFFFFFFFFFFFFFFFFFFFFFFFFFFFFFFFF AND PUSH20 0xFFFFFFFFFFFFFFFFFFFFFFFFFFFFFFFFFFFFFFFF AND DUP2 MSTORE PUSH1 0x20 ADD SWAP1 DUP2 MSTORE PUSH1 0x20 ADD PUSH1 0x0 KECCAK256 PUSH1 0x0 DUP1 DUP3 ADD PUSH1 0x0 PUSH2 0x100 EXP DUP2 SLOAD SWAP1 PUSH20 0xFFFFFFFFFFFFFFFFFFFFFFFFFFFFFFFFFFFFFFFF MUL NOT AND SWAP1 SSTORE PUSH1 0x1 DUP3 ADD PUSH1 0x0 SWAP1 SSTORE POP POP PUSH32 0xD835495B0CC14603F691A3161F6442CBE3602E0745F2C60B948D0D3268E6C6C7 DUP3 PUSH1 0x40 MLOAD PUSH2 0x732 SWAP2 SWAP1 PUSH2 0x1118 JUMP JUMPDEST PUSH1 0x40 MLOAD DUP1 SWAP2 SUB SWAP1 LOG1 POP POP JUMP JUMPDEST PUSH1 0x2 PUSH1 0x0 SWAP1 SLOAD SWAP1 PUSH2 0x100 EXP SWAP1 DIV PUSH1 0xFF AND PUSH2 0x78D JUMPI PUSH1 0x40 MLOAD PUSH32 0x8C379A000000000000000000000000000000000000000000000000000000000 DUP2 MSTORE PUSH1 0x4 ADD PUSH2 0x784 SWAP1 PUSH2 0x1519 JUMP JUMPDEST PUSH1 0x40 MLOAD DUP1 SWAP2 SUB SWAP1 REVERT JUMPDEST PUSH1 0x1 SLOAD TIMESTAMP GT ISZERO PUSH2 0x7D2 JUMPI PUSH1 0x40 MLOAD PUSH32 0x8C379A000000000000000000000000000000000000000000000000000000000 DUP2 MSTORE PUSH1 0x4 ADD PUSH2 0x7C9 SWAP1 PUSH2 0x1585 JUMP JUMPDEST PUSH1 0x40 MLOAD DUP1 SWAP2 SUB SWAP1 REVERT JUMPDEST PUSH1 0x3 DUP1 SLOAD SWAP1 POP DUP2 LT DUP1 ISZERO PUSH2 0x7E7 JUMPI POP PUSH1 0x0 DUP2 LT ISZERO JUMPDEST PUSH2 0x826 JUMPI PUSH1 0x40 MLOAD PUSH32 0x8C379A000000000000000000000000000000000000000000000000000000000 DUP2 MSTORE PUSH1 0x4 ADD PUSH2 0x81D SWAP1 PUSH2 0x15F1 JUMP JUMPDEST PUSH1 0x40 MLOAD DUP1 SWAP2 SUB SWAP1 REVERT JUMPDEST PUSH1 0x0 PUSH1 0x4 PUSH1 0x0 CALLER PUSH20 0xFFFFFFFFFFFFFFFFFFFFFFFFFFFFFFFFFFFFFFFF AND PUSH20 0xFFFFFFFFFFFFFFFFFFFFFFFFFFFFFFFFFFFFFFFF AND DUP2 MSTORE PUSH1 0x20 ADD SWAP1 DUP2 MSTORE PUSH1 0x20 ADD PUSH1 0x0 KECCAK256 SWAP1 POP PUSH1 0x0 PUSH20 0xFFFFFFFFFFFFFFFFFFFFFFFFFFFFFFFFFFFFFFFF AND DUP2 PUSH1 0x0 ADD PUSH1 0x0 SWAP1 SLOAD SWAP1 PUSH2 0x100 EXP SWAP1 DIV PUSH20 0xFFFFFFFFFFFFFFFFFFFFFFFFFFFFFFFFFFFFFFFF AND PUSH20 0xFFFFFFFFFFFFFFFFFFFFFFFFFFFFFFFFFFFFFFFF AND EQ PUSH2 0x8FC JUMPI PUSH1 0x40 MLOAD PUSH32 0x8C379A000000000000000000000000000000000000000000000000000000000 DUP2 MSTORE PUSH1 0x4 ADD PUSH2 0x8F3 SWAP1 PUSH2 0x165D JUMP JUMPDEST PUSH1 0x40 MLOAD DUP1 SWAP2 SUB SWAP1 REVERT JUMPDEST PUSH1 0x3 DUP3 DUP2 SLOAD DUP2 LT PUSH2 0x910 JUMPI PUSH2 0x90F PUSH2 0x167D JUMP JUMPDEST JUMPDEST SWAP1 PUSH1 0x0 MSTORE PUSH1 0x20 PUSH1 0x0 KECCAK256 ADD PUSH1 0x0 SWAP1 SLOAD SWAP1 PUSH2 0x100 EXP SWAP1 DIV PUSH20 0xFFFFFFFFFFFFFFFFFFFFFFFFFFFFFFFFFFFFFFFF AND DUP2 PUSH1 0x0 ADD PUSH1 0x0 PUSH2 0x100 EXP DUP2 SLOAD DUP2 PUSH20 0xFFFFFFFFFFFFFFFFFFFFFFFFFFFFFFFFFFFFFFFF MUL NOT AND SWAP1 DUP4 PUSH20 0xFFFFFFFFFFFFFFFFFFFFFFFFFFFFFFFFFFFFFFFF AND MUL OR SWAP1 SSTORE POP TIMESTAMP DUP2 PUSH1 0x1 ADD DUP2 SWAP1 SSTORE POP PUSH1 0x1 PUSH1 0x5 PUSH1 0x0 PUSH1 0x3 DUP6 DUP2 SLOAD DUP2 LT PUSH2 0x9A0 JUMPI PUSH2 0x99F PUSH2 0x167D JUMP JUMPDEST JUMPDEST SWAP1 PUSH1 0x0 MSTORE PUSH1 0x20 PUSH1 0x0 KECCAK256 ADD PUSH1 0x0 SWAP1 SLOAD SWAP1 PUSH2 0x100 EXP SWAP1 DIV PUSH20 0xFFFFFFFFFFFFFFFFFFFFFFFFFFFFFFFFFFFFFFFF AND PUSH20 0xFFFFFFFFFFFFFFFFFFFFFFFFFFFFFFFFFFFFFFFF AND PUSH20 0xFFFFFFFFFFFFFFFFFFFFFFFFFFFFFFFFFFFFFFFF AND DUP2 MSTORE PUSH1 0x20 ADD SWAP1 DUP2 MSTORE PUSH1 0x20 ADD PUSH1 0x0 KECCAK256 PUSH1 0x0 DUP3 DUP3 SLOAD PUSH2 0xA14 SWAP2 SWAP1 PUSH2 0x16DB JUMP JUMPDEST SWAP3 POP POP DUP2 SWAP1 SSTORE POP CALLER PUSH20 0xFFFFFFFFFFFFFFFFFFFFFFFFFFFFFFFFFFFFFFFF AND PUSH32 0x80EACB8485891D1331E1057618388E157B8496244C3B2EAB9302445007B46811 DUP3 PUSH1 0x0 ADD PUSH1 0x0 SWAP1 SLOAD SWAP1 PUSH2 0x100 EXP SWAP1 DIV PUSH20 0xFFFFFFFFFFFFFFFFFFFFFFFFFFFFFFFFFFFFFFFF AND DUP4 PUSH1 0x1 ADD SLOAD PUSH1 0x40 MLOAD PUSH2 0xA8B SWAP3 SWAP2 SWAP1 PUSH2 0x1251 JUMP JUMPDEST PUSH1 0x40 MLOAD DUP1 SWAP2 SUB SWAP1 LOG2 POP POP JUMP JUMPDEST PUSH1 0x1 SLOAD DUP2 JUMP JUMPDEST PUSH1 0x2 PUSH1 0x1 SWAP1 SLOAD SWAP1 PUSH2 0x100 EXP SWAP1 DIV PUSH20 0xFFFFFFFFFFFFFFFFFFFFFFFFFFFFFFFFFFFFFFFF AND DUP2 JUMP JUMPDEST PUSH1 0x60 PUSH1 0x0 PUSH1 0x3 DUP1 SLOAD SWAP1 POP PUSH8 0xFFFFFFFFFFFFFFFF DUP2 GT ISZERO PUSH2 0xAE6 JUMPI PUSH2 0xAE5 PUSH2 0x170F JUMP JUMPDEST JUMPDEST PUSH1 0x40 MLOAD SWAP1 DUP1 DUP3 MSTORE DUP1 PUSH1 0x20 MUL PUSH1 0x20 ADD DUP3 ADD PUSH1 0x40 MSTORE DUP1 ISZERO PUSH2 0xB1F JUMPI DUP2 PUSH1 0x20 ADD JUMPDEST PUSH2 0xB0C PUSH2 0xF86 JUMP JUMPDEST DUP2 MSTORE PUSH1 0x20 ADD SWAP1 PUSH1 0x1 SWAP1 SUB SWAP1 DUP2 PUSH2 0xB04 JUMPI SWAP1 POP JUMPDEST POP SWAP1 POP PUSH1 0x0 JUMPDEST PUSH1 0x3 DUP1 SLOAD SWAP1 POP DUP2 LT ISZERO PUSH2 0xC70 JUMPI PUSH1 0x3 DUP2 DUP2 SLOAD DUP2 LT PUSH2 0xB46 JUMPI PUSH2 0xB45 PUSH2 0x167D JUMP JUMPDEST JUMPDEST SWAP1 PUSH1 0x0 MSTORE PUSH1 0x20 PUSH1 0x0 KECCAK256 ADD PUSH1 0x0 SWAP1 SLOAD SWAP1 PUSH2 0x100 EXP SWAP1 DIV PUSH20 0xFFFFFFFFFFFFFFFFFFFFFFFFFFFFFFFFFFFFFFFF AND DUP3 DUP3 DUP2 MLOAD DUP2 LT PUSH2 0xB84 JUMPI PUSH2 0xB83 PUSH2 0x167D JUMP JUMPDEST JUMPDEST PUSH1 0x20 MUL PUSH1 0x20 ADD ADD MLOAD PUSH1 0x0 ADD SWAP1 PUSH20 0xFFFFFFFFFFFFFFFFFFFFFFFFFFFFFFFFFFFFFFFF AND SWAP1 DUP2 PUSH20 0xFFFFFFFFFFFFFFFFFFFFFFFFFFFFFFFFFFFFFFFF AND DUP2 MSTORE POP POP PUSH1 0x5 PUSH1 0x0 PUSH1 0x3 DUP4 DUP2 SLOAD DUP2 LT PUSH2 0xBDA JUMPI PUSH2 0xBD9 PUSH2 0x167D JUMP JUMPDEST JUMPDEST SWAP1 PUSH1 0x0 MSTORE PUSH1 0x20 PUSH1 0x0 KECCAK256 ADD PUSH1 0x0 SWAP1 SLOAD SWAP1 PUSH2 0x100 EXP SWAP1 DIV PUSH20 0xFFFFFFFFFFFFFFFFFFFFFFFFFFFFFFFFFFFFFFFF AND PUSH20 0xFFFFFFFFFFFFFFFFFFFFFFFFFFFFFFFFFFFFFFFF AND PUSH20 0xFFFFFFFFFFFFFFFFFFFFFFFFFFFFFFFFFFFFFFFF AND DUP2 MSTORE PUSH1 0x20 ADD SWAP1 DUP2 MSTORE PUSH1 0x20 ADD PUSH1 0x0 KECCAK256 SLOAD DUP3 DUP3 DUP2 MLOAD DUP2 LT PUSH2 0xC53 JUMPI PUSH2 0xC52 PUSH2 0x167D JUMP JUMPDEST JUMPDEST PUSH1 0x20 MUL PUSH1 0x20 ADD ADD MLOAD PUSH1 0x20 ADD DUP2 DUP2 MSTORE POP POP DUP1 DUP1 PUSH1 0x1 ADD SWAP2 POP POP PUSH2 0xB25 JUMP JUMPDEST POP DUP1 SWAP2 POP POP SWAP1 JUMP JUMPDEST PUSH1 0x0 PUSH1 0x3 DUP3 DUP2 SLOAD DUP2 LT PUSH2 0xC8E JUMPI PUSH2 0xC8D PUSH2 0x167D JUMP JUMPDEST JUMPDEST SWAP1 PUSH1 0x0 MSTORE PUSH1 0x20 PUSH1 0x0 KECCAK256 ADD PUSH1 0x0 SWAP1 SLOAD SWAP1 PUSH2 0x100 EXP SWAP1 DIV PUSH20 0xFFFFFFFFFFFFFFFFFFFFFFFFFFFFFFFFFFFFFFFF AND SWAP1 POP SWAP2 SWAP1 POP JUMP JUMPDEST PUSH1 0x2 PUSH1 0x1 SWAP1 SLOAD SWAP1 PUSH2 0x100 EXP SWAP1 DIV PUSH20 0xFFFFFFFFFFFFFFFFFFFFFFFFFFFFFFFFFFFFFFFF AND PUSH20 0xFFFFFFFFFFFFFFFFFFFFFFFFFFFFFFFFFFFFFFFF AND CALLER PUSH20 0xFFFFFFFFFFFFFFFFFFFFFFFFFFFFFFFFFFFFFFFF AND EQ PUSH2 0xD50 JUMPI PUSH1 0x40 MLOAD PUSH32 0x8C379A000000000000000000000000000000000000000000000000000000000 DUP2 MSTORE PUSH1 0x4 ADD PUSH2 0xD47 SWAP1 PUSH2 0x12D7 JUMP JUMPDEST PUSH1 0x40 MLOAD DUP1 SWAP2 SUB SWAP1 REVERT JUMPDEST PUSH1 0x2 PUSH1 0x0 SWAP1 SLOAD SWAP1 PUSH2 0x100 EXP SWAP1 DIV PUSH1 0xFF AND PUSH2 0xE00 JUMPI PUSH1 0x0 SLOAD TIMESTAMP LT ISZERO PUSH2 0xDA9 JUMPI PUSH1 0x40 MLOAD PUSH32 0x8C379A000000000000000000000000000000000000000000000000000000000 DUP2 MSTORE PUSH1 0x4 ADD PUSH2 0xDA0 SWAP1 PUSH2 0x178A JUMP JUMPDEST PUSH1 0x40 MLOAD DUP1 SWAP2 SUB SWAP1 REVERT JUMPDEST PUSH1 0x1 PUSH1 0x2 PUSH1 0x0 PUSH2 0x100 EXP DUP2 SLOAD DUP2 PUSH1 0xFF MUL NOT AND SWAP1 DUP4 ISZERO ISZERO MUL OR SWAP1 SSTORE POP PUSH32 0x84D66542381393079134898F2436F7BA19B5FAB5B4AE13DA6B78E7454395661D CALLER PUSH1 0x40 MLOAD PUSH2 0xDF3 SWAP2 SWAP1 PUSH2 0x1118 JUMP JUMPDEST PUSH1 0x40 MLOAD DUP1 SWAP2 SUB SWAP1 LOG1 PUSH2 0xE98 JUMP JUMPDEST PUSH1 0x1 SLOAD TIMESTAMP LT ISZERO PUSH2 0xE45 JUMPI PUSH1 0x40 MLOAD PUSH32 0x8C379A000000000000000000000000000000000000000000000000000000000 DUP2 MSTORE PUSH1 0x4 ADD PUSH2 0xE3C SWAP1 PUSH2 0x17F6 JUMP JUMPDEST PUSH1 0x40 MLOAD DUP1 SWAP2 SUB SWAP1 REVERT JUMPDEST PUSH1 0x0 PUSH1 0x2 PUSH1 0x0 PUSH2 0x100 EXP DUP2 SLOAD DUP2 PUSH1 0xFF MUL NOT AND SWAP1 DUP4 ISZERO ISZERO MUL OR SWAP1 SSTORE POP PUSH32 0xD027F2EC970E91CE28AC9B4D8C78F89288E3B6029357E79CBD81578F250AA4A1 CALLER PUSH1 0x40 MLOAD PUSH2 0xE8F SWAP2 SWAP1 PUSH2 0x1118 JUMP JUMPDEST PUSH1 0x40 MLOAD DUP1 SWAP2 SUB SWAP1 LOG1 JUMPDEST JUMP JUMPDEST PUSH1 0x4 PUSH1 0x20 MSTORE DUP1 PUSH1 0x0 MSTORE PUSH1 0x40 PUSH1 0x0 KECCAK256 PUSH1 0x0 SWAP2 POP SWAP1 POP DUP1 PUSH1 0x0 ADD PUSH1 0x0 SWAP1 SLOAD SWAP1 PUSH2 0x100 EXP SWAP1 DIV PUSH20 0xFFFFFFFFFFFFFFFFFFFFFFFFFFFFFFFFFFFFFFFF AND SWAP1 DUP1 PUSH1 0x1 ADD SLOAD SWAP1 POP DUP3 JUMP JUMPDEST PUSH1 0x0 DUP1 PUSH1 0x0 SWAP1 POP JUMPDEST PUSH1 0x3 DUP1 SLOAD SWAP1 POP DUP2 LT ISZERO PUSH2 0xF7B JUMPI DUP3 PUSH20 0xFFFFFFFFFFFFFFFFFFFFFFFFFFFFFFFFFFFFFFFF AND PUSH1 0x3 DUP3 DUP2 SLOAD DUP2 LT PUSH2 0xF1E JUMPI PUSH2 0xF1D PUSH2 0x167D JUMP JUMPDEST JUMPDEST SWAP1 PUSH1 0x0 MSTORE PUSH1 0x20 PUSH1 0x0 KECCAK256 ADD PUSH1 0x0 SWAP1 SLOAD SWAP1 PUSH2 0x100 EXP SWAP1 DIV PUSH20 0xFFFFFFFFFFFFFFFFFFFFFFFFFFFFFFFFFFFFFFFF AND PUSH20 0xFFFFFFFFFFFFFFFFFFFFFFFFFFFFFFFFFFFFFFFF AND SUB PUSH2 0xF6E JUMPI PUSH1 0x1 SWAP2 POP POP PUSH2 0xF81 JUMP JUMPDEST DUP1 DUP1 PUSH1 0x1 ADD SWAP2 POP POP PUSH2 0xEE6 JUMP JUMPDEST POP PUSH1 0x0 SWAP1 POP JUMPDEST SWAP2 SWAP1 POP JUMP JUMPDEST PUSH1 0x40 MLOAD DUP1 PUSH1 0x40 ADD PUSH1 0x40 MSTORE DUP1 PUSH1 0x0 PUSH20 0xFFFFFFFFFFFFFFFFFFFFFFFFFFFFFFFFFFFFFFFF AND DUP2 MSTORE PUSH1 0x20 ADD PUSH1 0x0 DUP2 MSTORE POP SWAP1 JUMP JUMPDEST PUSH1 0x0 DUP1 REVERT JUMPDEST PUSH1 0x0 PUSH20 0xFFFFFFFFFFFFFFFFFFFFFFFFFFFFFFFFFFFFFFFF DUP3 AND SWAP1 POP SWAP2 SWAP1 POP JUMP JUMPDEST PUSH1 0x0 PUSH2 0xFE6 DUP3 PUSH2 0xFBB JUMP JUMPDEST SWAP1 POP SWAP2 SWAP1 POP JUMP JUMPDEST PUSH2 0xFF6 DUP2 PUSH2 0xFDB JUMP JUMPDEST DUP2 EQ PUSH2 0x1001 JUMPI PUSH1 0x0 DUP1 REVERT JUMPDEST POP JUMP JUMPDEST PUSH1 0x0 DUP2 CALLDATALOAD SWAP1 POP PUSH2 0x1013 DUP2 PUSH2 0xFED JUMP JUMPDEST SWAP3 SWAP2 POP POP JUMP JUMPDEST PUSH1 0x0 PUSH1 0x20 DUP3 DUP5 SUB SLT ISZERO PUSH2 0x102F JUMPI PUSH2 0x102E PUSH2 0xFB6 JUMP JUMPDEST JUMPDEST PUSH1 0x0 PUSH2 0x103D DUP5 DUP3 DUP6 ADD PUSH2 0x1004 JUMP JUMPDEST SWAP2 POP POP SWAP3 SWAP2 POP POP JUMP JUMPDEST PUSH1 0x0 DUP2 SWAP1 POP SWAP2 SWAP1 POP JUMP JUMPDEST PUSH2 0x1059 DUP2 PUSH2 0x1046 JUMP JUMPDEST DUP3 MSTORE POP POP JUMP JUMPDEST PUSH1 0x0 PUSH1 0x20 DUP3 ADD SWAP1 POP PUSH2 0x1074 PUSH1 0x0 DUP4 ADD DUP5 PUSH2 0x1050 JUMP JUMPDEST SWAP3 SWAP2 POP POP JUMP JUMPDEST PUSH1 0x0 DUP2 ISZERO ISZERO SWAP1 POP SWAP2 SWAP1 POP JUMP JUMPDEST PUSH2 0x108F DUP2 PUSH2 0x107A JUMP JUMPDEST DUP3 MSTORE POP POP JUMP JUMPDEST PUSH1 0x0 PUSH1 0x20 DUP3 ADD SWAP1 POP PUSH2 0x10AA PUSH1 0x0 DUP4 ADD DUP5 PUSH2 0x1086 JUMP JUMPDEST SWAP3 SWAP2 POP POP JUMP JUMPDEST PUSH2 0x10B9 DUP2 PUSH2 0x1046 JUMP JUMPDEST DUP2 EQ PUSH2 0x10C4 JUMPI PUSH1 0x0 DUP1 REVERT JUMPDEST POP JUMP JUMPDEST PUSH1 0x0 DUP2 CALLDATALOAD SWAP1 POP PUSH2 0x10D6 DUP2 PUSH2 0x10B0 JUMP JUMPDEST SWAP3 SWAP2 POP POP JUMP JUMPDEST PUSH1 0x0 PUSH1 0x20 DUP3 DUP5 SUB SLT ISZERO PUSH2 0x10F2 JUMPI PUSH2 0x10F1 PUSH2 0xFB6 JUMP JUMPDEST JUMPDEST PUSH1 0x0 PUSH2 0x1100 DUP5 DUP3 DUP6 ADD PUSH2 0x10C7 JUMP JUMPDEST SWAP2 POP POP SWAP3 SWAP2 POP POP JUMP JUMPDEST PUSH2 0x1112 DUP2 PUSH2 0xFDB JUMP JUMPDEST DUP3 MSTORE POP POP JUMP JUMPDEST PUSH1 0x0 PUSH1 0x20 DUP3 ADD SWAP1 POP PUSH2 0x112D PUSH1 0x0 DUP4 ADD DUP5 PUSH2 0x1109 JUMP JUMPDEST SWAP3 SWAP2 POP POP JUMP JUMPDEST PUSH1 0x0 DUP2 MLOAD SWAP1 POP SWAP2 SWAP1 POP JUMP JUMPDEST PUSH1 0x0 DUP3 DUP3 MSTORE PUSH1 0x20 DUP3 ADD SWAP1 POP SWAP3 SWAP2 POP POP JUMP JUMPDEST PUSH1 0x0 DUP2 SWAP1 POP PUSH1 0x20 DUP3 ADD SWAP1 POP SWAP2 SWAP1 POP JUMP JUMPDEST PUSH2 0x1168 DUP2 PUSH2 0xFDB JUMP JUMPDEST DUP3 MSTORE POP POP JUMP JUMPDEST PUSH2 0x1177 DUP2 PUSH2 0x1046 JUMP JUMPDEST DUP3 MSTORE POP POP JUMP JUMPDEST PUSH1 0x40 DUP3 ADD PUSH1 0x0 DUP3 ADD MLOAD PUSH2 0x1193 PUSH1 0x0 DUP6 ADD DUP3 PUSH2 0x115F JUMP JUMPDEST POP PUSH1 0x20 DUP3 ADD MLOAD PUSH2 0x11A6 PUSH1 0x20 DUP6 ADD DUP3 PUSH2 0x116E JUMP JUMPDEST POP POP POP POP JUMP JUMPDEST PUSH1 0x0 PUSH2 0x11B8 DUP4 DUP4 PUSH2 0x117D JUMP JUMPDEST PUSH1 0x40 DUP4 ADD SWAP1 POP SWAP3 SWAP2 POP POP JUMP JUMPDEST PUSH1 0x0 PUSH1 0x20 DUP3 ADD SWAP1 POP SWAP2 SWAP1 POP JUMP JUMPDEST PUSH1 0x0 PUSH2 0x11DC DUP3 PUSH2 0x1133 JUMP JUMPDEST PUSH2 0x11E6 DUP2 DUP6 PUSH2 0x113E JUMP JUMPDEST SWAP4 POP PUSH2 0x11F1 DUP4 PUSH2 0x114F JUMP JUMPDEST DUP1 PUSH1 0x0 JUMPDEST DUP4 DUP2 LT ISZERO PUSH2 0x1222 JUMPI DUP2 MLOAD PUSH2 0x1209 DUP9 DUP3 PUSH2 0x11AC JUMP JUMPDEST SWAP8 POP PUSH2 0x1214 DUP4 PUSH2 0x11C4 JUMP JUMPDEST SWAP3 POP POP PUSH1 0x1 DUP2 ADD SWAP1 POP PUSH2 0x11F5 JUMP JUMPDEST POP DUP6 SWAP4 POP POP POP POP SWAP3 SWAP2 POP POP JUMP JUMPDEST PUSH1 0x0 PUSH1 0x20 DUP3 ADD SWAP1 POP DUP2 DUP2 SUB PUSH1 0x0 DUP4 ADD MSTORE PUSH2 0x1249 DUP2 DUP5 PUSH2 0x11D1 JUMP JUMPDEST SWAP1 POP SWAP3 SWAP2 POP POP JUMP JUMPDEST PUSH1 0x0 PUSH1 0x40 DUP3 ADD SWAP1 POP PUSH2 0x1266 PUSH1 0x0 DUP4 ADD DUP6 PUSH2 0x1109 JUMP JUMPDEST PUSH2 0x1273 PUSH1 0x20 DUP4 ADD DUP5 PUSH2 0x1050 JUMP JUMPDEST SWAP4 SWAP3 POP POP POP JUMP JUMPDEST PUSH1 0x0 DUP3 DUP3 MSTORE PUSH1 0x20 DUP3 ADD SWAP1 POP SWAP3 SWAP2 POP POP JUMP JUMPDEST PUSH32 0x6E6F74206F776E65720000000000000000000000000000000000000000000000 PUSH1 0x0 DUP3 ADD MSTORE POP JUMP JUMPDEST PUSH1 0x0 PUSH2 0x12C1 PUSH1 0x9 DUP4 PUSH2 0x127A JUMP JUMPDEST SWAP2 POP PUSH2 0x12CC DUP3 PUSH2 0x128B JUMP JUMPDEST PUSH1 0x20 DUP3 ADD SWAP1 POP SWAP2 SWAP1 POP JUMP JUMPDEST PUSH1 0x0 PUSH1 0x20 DUP3 ADD SWAP1 POP DUP2 DUP2 SUB PUSH1 0x0 DUP4 ADD MSTORE PUSH2 0x12F0 DUP2 PUSH2 0x12B4 JUMP JUMPDEST SWAP1 POP SWAP2 SWAP1 POP JUMP JUMPDEST PUSH32 0x596F752063616E742062652063616E6469646174652100000000000000000000 PUSH1 0x0 DUP3 ADD MSTORE POP JUMP JUMPDEST PUSH1 0x0 PUSH2 0x132D PUSH1 0x16 DUP4 PUSH2 0x127A JUMP JUMPDEST SWAP2 POP PUSH2 0x1338 DUP3 PUSH2 0x12F7 JUMP JUMPDEST PUSH1 0x20 DUP3 ADD SWAP1 POP SWAP2 SWAP1 POP JUMP JUMPDEST PUSH1 0x0 PUSH1 0x20 DUP3 ADD SWAP1 POP DUP2 DUP2 SUB PUSH1 0x0 DUP4 ADD MSTORE PUSH2 0x135C DUP2 PUSH2 0x1320 JUMP JUMPDEST SWAP1 POP SWAP2 SWAP1 POP JUMP JUMPDEST PUSH32 0x416C726561647920766F74696E6720737461727465642C2063616E7420616464 PUSH1 0x0 DUP3 ADD MSTORE PUSH32 0x206E65772063616E646961746500000000000000000000000000000000000000 PUSH1 0x20 DUP3 ADD MSTORE POP JUMP JUMPDEST PUSH1 0x0 PUSH2 0x13BF PUSH1 0x2D DUP4 PUSH2 0x127A JUMP JUMPDEST SWAP2 POP PUSH2 0x13CA DUP3 PUSH2 0x1363 JUMP JUMPDEST PUSH1 0x40 DUP3 ADD SWAP1 POP SWAP2 SWAP1 POP JUMP JUMPDEST PUSH1 0x0 PUSH1 0x20 DUP3 ADD SWAP1 POP DUP2 DUP2 SUB PUSH1 0x0 DUP4 ADD MSTORE PUSH2 0x13EE DUP2 PUSH2 0x13B2 JUMP JUMPDEST SWAP1 POP SWAP2 SWAP1 POP JUMP JUMPDEST PUSH32 0x416C726561647920657869737473000000000000000000000000000000000000 PUSH1 0x0 DUP3 ADD MSTORE POP JUMP JUMPDEST PUSH1 0x0 PUSH2 0x142B PUSH1 0xE DUP4 PUSH2 0x127A JUMP JUMPDEST SWAP2 POP PUSH2 0x1436 DUP3 PUSH2 0x13F5 JUMP JUMPDEST PUSH1 0x20 DUP3 ADD SWAP1 POP SWAP2 SWAP1 POP JUMP JUMPDEST PUSH1 0x0 PUSH1 0x20 DUP3 ADD SWAP1 POP DUP2 DUP2 SUB PUSH1 0x0 DUP4 ADD MSTORE PUSH2 0x145A DUP2 PUSH2 0x141E JUMP JUMPDEST SWAP1 POP SWAP2 SWAP1 POP JUMP JUMPDEST PUSH32 0x4E6F7420766F746520617661696C61626C650000000000000000000000000000 PUSH1 0x0 DUP3 ADD MSTORE POP JUMP JUMPDEST PUSH1 0x0 PUSH2 0x1497 PUSH1 0x12 DUP4 PUSH2 0x127A JUMP JUMPDEST SWAP2 POP PUSH2 0x14A2 DUP3 PUSH2 0x1461 JUMP JUMPDEST PUSH1 0x20 DUP3 ADD SWAP1 POP SWAP2 SWAP1 POP JUMP JUMPDEST PUSH1 0x0 PUSH1 0x20 DUP3 ADD SWAP1 POP DUP2 DUP2 SUB PUSH1 0x0 DUP4 ADD MSTORE PUSH2 0x14C6 DUP2 PUSH2 0x148A JUMP JUMPDEST SWAP1 POP SWAP2 SWAP1 POP JUMP JUMPDEST PUSH32 0x566F7465206E6F74207374617274656400000000000000000000000000000000 PUSH1 0x0 DUP3 ADD MSTORE POP JUMP JUMPDEST PUSH1 0x0 PUSH2 0x1503 PUSH1 0x10 DUP4 PUSH2 0x127A JUMP JUMPDEST SWAP2 POP PUSH2 0x150E DUP3 PUSH2 0x14CD JUMP JUMPDEST PUSH1 0x20 DUP3 ADD SWAP1 POP SWAP2 SWAP1 POP JUMP JUMPDEST PUSH1 0x0 PUSH1 0x20 DUP3 ADD SWAP1 POP DUP2 DUP2 SUB PUSH1 0x0 DUP4 ADD MSTORE PUSH2 0x1532 DUP2 PUSH2 0x14F6 JUMP JUMPDEST SWAP1 POP SWAP2 SWAP1 POP JUMP JUMPDEST PUSH32 0x566F74696E672074696D6520697320656E646564210000000000000000000000 PUSH1 0x0 DUP3 ADD MSTORE POP JUMP JUMPDEST PUSH1 0x0 PUSH2 0x156F PUSH1 0x15 DUP4 PUSH2 0x127A JUMP JUMPDEST SWAP2 POP PUSH2 0x157A DUP3 PUSH2 0x1539 JUMP JUMPDEST PUSH1 0x20 DUP3 ADD SWAP1 POP SWAP2 SWAP1 POP JUMP JUMPDEST PUSH1 0x0 PUSH1 0x20 DUP3 ADD SWAP1 POP DUP2 DUP2 SUB PUSH1 0x0 DUP4 ADD MSTORE PUSH2 0x159E DUP2 PUSH2 0x1562 JUMP JUMPDEST SWAP1 POP SWAP2 SWAP1 POP JUMP JUMPDEST PUSH32 0x43616E646964617465206E6F7420666F756E6421000000000000000000000000 PUSH1 0x0 DUP3 ADD MSTORE POP JUMP JUMPDEST PUSH1 0x0 PUSH2 0x15DB PUSH1 0x14 DUP4 PUSH2 0x127A JUMP JUMPDEST SWAP2 POP PUSH2 0x15E6 DUP3 PUSH2 0x15A5 JUMP JUMPDEST PUSH1 0x20 DUP3 ADD SWAP1 POP SWAP2 SWAP1 POP JUMP JUMPDEST PUSH1 0x0 PUSH1 0x20 DUP3 ADD SWAP1 POP DUP2 DUP2 SUB PUSH1 0x0 DUP4 ADD MSTORE PUSH2 0x160A DUP2 PUSH2 0x15CE JUMP JUMPDEST SWAP1 POP SWAP2 SWAP1 POP JUMP JUMPDEST PUSH32 0x416C72656164792C2063617374656420796F757220766F746521000000000000 PUSH1 0x0 DUP3 ADD MSTORE POP JUMP JUMPDEST PUSH1 0x0 PUSH2 0x1647 PUSH1 0x1A DUP4 PUSH2 0x127A JUMP JUMPDEST SWAP2 POP PUSH2 0x1652 DUP3 PUSH2 0x1611 JUMP JUMPDEST PUSH1 0x20 DUP3 ADD SWAP1 POP SWAP2 SWAP1 POP JUMP JUMPDEST PUSH1 0x0 PUSH1 0x20 DUP3 ADD SWAP1 POP DUP2 DUP2 SUB PUSH1 0x0 DUP4 ADD MSTORE PUSH2 0x1676 DUP2 PUSH2 0x163A JUMP JUMPDEST SWAP1 POP SWAP2 SWAP1 POP JUMP JUMPDEST PUSH32 0x4E487B7100000000000000000000000000000000000000000000000000000000 PUSH1 0x0 MSTORE PUSH1 0x32 PUSH1 0x4 MSTORE PUSH1 0x24 PUSH1 0x0 REVERT JUMPDEST PUSH32 0x4E487B7100000000000000000000000000000000000000000000000000000000 PUSH1 0x0 MSTORE PUSH1 0x11 PUSH1 0x4 MSTORE PUSH1 0x24 PUSH1 0x0 REVERT JUMPDEST PUSH1 0x0 PUSH2 0x16E6 DUP3 PUSH2 0x1046 JUMP JUMPDEST SWAP2 POP PUSH2 0x16F1 DUP4 PUSH2 0x1046 JUMP JUMPDEST SWAP3 POP DUP3 DUP3 ADD SWAP1 POP DUP1 DUP3 GT ISZERO PUSH2 0x1709 JUMPI PUSH2 0x1708 PUSH2 0x16AC JUMP JUMPDEST JUMPDEST SWAP3 SWAP2 POP POP JUMP JUMPDEST PUSH32 0x4E487B7100000000000000000000000000000000000000000000000000000000 PUSH1 0x0 MSTORE PUSH1 0x41 PUSH1 0x4 MSTORE PUSH1 0x24 PUSH1 0x0 REVERT JUMPDEST PUSH32 0x566F74696E672074696D6520697320636F6D6D696E6721000000000000000000 PUSH1 0x0 DUP3 ADD MSTORE POP JUMP JUMPDEST PUSH1 0x0 PUSH2 0x1774 PUSH1 0x17 DUP4 PUSH2 0x127A JUMP JUMPDEST SWAP2 POP PUSH2 0x177F DUP3 PUSH2 0x173E JUMP JUMPDEST PUSH1 0x20 DUP3 ADD SWAP1 POP SWAP2 SWAP1 POP JUMP JUMPDEST PUSH1 0x0 PUSH1 0x20 DUP3 ADD SWAP1 POP DUP2 DUP2 SUB PUSH1 0x0 DUP4 ADD MSTORE PUSH2 0x17A3 DUP2 PUSH2 0x1767 JUMP JUMPDEST SWAP1 POP SWAP2 SWAP1 POP JUMP JUMPDEST PUSH32 0x566F74696E672074696D65206973206E6F7420656E6465642100000000000000 PUSH1 0x0 DUP3 ADD MSTORE POP JUMP JUMPDEST PUSH1 0x0 PUSH2 0x17E0 PUSH1 0x19 DUP4 PUSH2 0x127A JUMP JUMPDEST SWAP2 POP PUSH2 0x17EB DUP3 PUSH2 0x17AA JUMP JUMPDEST PUSH1 0x20 DUP3 ADD SWAP1 POP SWAP2 SWAP1 POP JUMP JUMPDEST PUSH1 0x0 PUSH1 0x20 DUP3 ADD SWAP1 POP DUP2 DUP2 SUB PUSH1 0x0 DUP4 ADD MSTORE PUSH2 0x180F DUP2 PUSH2 0x17D3 JUMP JUMPDEST SWAP1 POP SWAP2 SWAP1 POP JUMP INVALID LOG2 PUSH5 0x6970667358 0x22 SLT KECCAK256 MLOAD 0x28 MOD 0xE1 0xD3 CALLCODE 0xD8 0xDA CALLDATASIZE LOG3 JUMP PUSH29 0xC42110280E66604AEBE2A18F6B16C225C1EA12E264736F6C634300081C STOP CALLER "
				},
				"gasEstimates": {
					"creation": {
						"codeDepositCost": "1244000",
						"executionCost": "infinite",
						"totalCost": "infinite"
					},
					"external": {
						"addCandidate(address)": "infinite",
						"candidates(uint256)": "5001",
						"candidatesVotes(address)": "2815",
						"castVote(uint256)": "infinite",
						"endingTime()": "2474",
						"findCandidate(uint256)": "5011",
						"getCandidatesVote()": "infinite",
						"isVoting()": "2494",
						"owner()": "2631",
						"removeVote(address)": "infinite",
						"startAndStopVoting()": "32215",
						"startingTime()": "2496",
						"votes(address)": "infinite"
					},
					"internal": {
						"isInCandidates(address)": "infinite"
					}
				},
				"methodIdentifiers": {
					"addCandidate(address)": "3acd75f8",
					"candidates(uint256)": "3477ee2e",
					"candidatesVotes(address)": "00b170fd",
					"castVote(uint256)": "3eb76b9c",
					"endingTime()": "6c47a6c3",
					"findCandidate(uint256)": "a2b2f7c3",
					"getCandidatesVote()": "93c3f4b9",
					"isVoting()": "1bbef399",
					"owner()": "8da5cb5b",
					"removeVote(address)": "3ccc1f53",
					"startAndStopVoting()": "d5ab877f",
					"startingTime()": "39518b5e",
					"votes(address)": "d8bff5a5"
				}
			},
			"storageLayout": {
				"storage": [
					{
						"astId": 3,
						"contract": "voting.sol:Voting",
						"label": "startingTime",
						"offset": 0,
						"slot": "0",
						"type": "t_uint256"
					},
					{
						"astId": 5,
						"contract": "voting.sol:Voting",
						"label": "endingTime",
						"offset": 0,
						"slot": "1",
						"type": "t_uint256"
					},
					{
						"astId": 7,
						"contract": "voting.sol:Voting",
						"label": "isVoting",
						"offset": 0,
						"slot": "2",
						"type": "t_bool"
					},
					{
						"astId": 9,
						"contract": "voting.sol:Voting",
						"label": "owner",
						"offset": 1,
						"slot": "2",
						"type": "t_address"
					},
					{
						"astId": 12,
						"contract": "voting.sol:Voting",
						"label": "candidates",
						"offset": 0,
						"slot": "3",
						"type": "t_array(t_address)dyn_storage"
					},
					{
						"astId": 27,
						"contract": "voting.sol:Voting",
						"label": "votes",
						"offset": 0,
						"slot": "4",
						"type": "t_mapping(t_address,t_struct(Vote)17_storage)"
					},
					{
						"astId": 31,
						"contract": "voting.sol:Voting",
						"label": "candidatesVotes",
						"offset": 0,
						"slot": "5",
						"type": "t_mapping(t_address,t_uint256)"
					}
				],
				"types": {
					"t_address": {
						"encoding": "inplace",
						"label": "address",
						"numberOfBytes": "20"
					},
					"t_array(t_address)dyn_storage": {
						"base": "t_address",
						"encoding": "dynamic_array",
						"label": "address[]",
						"numberOfBytes": "32"
					},
					"t_bool": {
						"encoding": "inplace",
						"label": "bool",
						"numberOfBytes": "1"
					},
					"t_mapping(t_address,t_struct(Vote)17_storage)": {
						"encoding": "mapping",
						"key": "t_address",
						"label": "mapping(address => struct Voting.Vote)",
						"numberOfBytes": "32",
						"value": "t_struct(Vote)17_storage"
					},
					"t_mapping(t_address,t_uint256)": {
						"encoding": "mapping",
						"key": "t_address",
						"label": "mapping(address => uint256)",
						"numberOfBytes": "32",
						"value": "t_uint256"
					},
					"t_struct(Vote)17_storage": {
						"encoding": "inplace",
						"label": "struct Voting.Vote",
						"members": [
							{
								"astId": 14,
								"contract": "voting.sol:Voting",
								"label": "receiver",
								"offset": 0,
								"slot": "0",
								"type": "t_address"
							},
							{
								"astId": 16,
								"contract": "voting.sol:Voting",
								"label": "timestamp",
								"offset": 0,
								"slot": "1",
								"type": "t_uint256"
							}
						],
						"numberOfBytes": "64"
					},
					"t_uint256": {
						"encoding": "inplace",
						"label": "uint256",
						"numberOfBytes": "32"
					}
				}
			},
			"userdoc": {
				"kind": "user",
				"methods": {},
				"version": 1
			}
		}
	}
}