{
	"contracts/Voting.sol": {
		"Voting": {
			"abi": [
				{
					"inputs": [],
					"stateMutability": "nonpayable",
					"type": "constructor"
				},
				{
					"anonymous": false,
					"inputs": [
						{
							"indexed": false,
							"internalType": "address",
							"name": "candidate",
							"type": "address"
						}
					],
					"name": "CandidateAdded",
					"type": "event"
				},
				{
					"anonymous": false,
					"inputs": [
						{
							"indexed": true,
							"internalType": "address",
							"name": "voter",
							"type": "address"
						},
						{
							"indexed": false,
							"internalType": "address",
							"name": "receiver",
							"type": "address"
						},
						{
							"indexed": false,
							"internalType": "uint256",
							"name": "timestamp",
							"type": "uint256"
						}
					],
					"name": "VoteCast",
					"type": "event"
				},
				{
					"anonymous": false,
					"inputs": [
						{
							"indexed": false,
							"internalType": "address",
							"name": "voter",
							"type": "address"
						}
					],
					"name": "VoteRemoved",
					"type": "event"
				},
				{
					"anonymous": false,
					"inputs": [
						{
							"indexed": false,
							"internalType": "bool",
							"name": "isVoting",
							"type": "bool"
						},
						{
							"indexed": false,
							"internalType": "address",
							"name": "triggeredBy",
							"type": "address"
						}
					],
					"name": "VotingStatusChanged",
					"type": "event"
				},
				{
					"inputs": [
						{
							"internalType": "address",
							"name": "_address",
							"type": "address"
						}
					],
					"name": "activateCandidate",
					"outputs": [],
					"stateMutability": "nonpayable",
					"type": "function"
				},
				{
					"inputs": [
						{
							"internalType": "address",
							"name": "_candidateAddress",
							"type": "address"
						},
						{
							"internalType": "string",
							"name": "_name",
							"type": "string"
						},
						{
							"internalType": "string",
							"name": "_profession",
							"type": "string"
						}
					],
					"name": "addCandidate",
					"outputs": [],
					"stateMutability": "nonpayable",
					"type": "function"
				},
				{
					"inputs": [
						{
							"internalType": "address",
							"name": "_address",
							"type": "address"
						}
					],
					"name": "blockCandidate",
					"outputs": [],
					"stateMutability": "nonpayable",
					"type": "function"
				},
				{
					"inputs": [
						{
							"internalType": "address",
							"name": "",
							"type": "address"
						}
					],
					"name": "candidates",
					"outputs": [
						{
							"internalType": "address",
							"name": "_address",
							"type": "address"
						},
						{
							"internalType": "string",
							"name": "name",
							"type": "string"
						},
						{
							"internalType": "string",
							"name": "profession",
							"type": "string"
						},
						{
							"internalType": "enum Voting.CandidateStatus",
							"name": "status",
							"type": "uint8"
						}
					],
					"stateMutability": "view",
					"type": "function"
				},
				{
					"inputs": [
						{
							"internalType": "uint256",
							"name": "",
							"type": "uint256"
						}
					],
					"name": "candidatesData",
					"outputs": [
						{
							"internalType": "address",
							"name": "_address",
							"type": "address"
						},
						{
							"internalType": "string",
							"name": "name",
							"type": "string"
						},
						{
							"internalType": "string",
							"name": "profession",
							"type": "string"
						},
						{
							"internalType": "enum Voting.CandidateStatus",
							"name": "status",
							"type": "uint8"
						}
					],
					"stateMutability": "view",
					"type": "function"
				},
				{
					"inputs": [
						{
							"internalType": "address",
							"name": "",
							"type": "address"
						}
					],
					"name": "candidatesVotes",
					"outputs": [
						{
							"internalType": "uint256",
							"name": "",
							"type": "uint256"
						}
					],
					"stateMutability": "view",
					"type": "function"
				},
				{
					"inputs": [
						{
							"internalType": "address",
							"name": "_address",
							"type": "address"
						}
					],
					"name": "castVote",
					"outputs": [],
					"stateMutability": "nonpayable",
					"type": "function"
				},
				{
					"inputs": [],
					"name": "endingTime",
					"outputs": [
						{
							"internalType": "uint256",
							"name": "",
							"type": "uint256"
						}
					],
					"stateMutability": "view",
					"type": "function"
				},
				{
					"inputs": [],
					"name": "getCandidatesVotes",
					"outputs": [
						{
							"components": [
								{
									"internalType": "address",
									"name": "_address",
									"type": "address"
								},
								{
									"internalType": "uint256",
									"name": "votesCount",
									"type": "uint256"
								},
								{
									"components": [
										{
											"internalType": "address",
											"name": "_address",
											"type": "address"
										},
										{
											"internalType": "string",
											"name": "name",
											"type": "string"
										},
										{
											"internalType": "string",
											"name": "profession",
											"type": "string"
										},
										{
											"internalType": "enum Voting.CandidateStatus",
											"name": "status",
											"type": "uint8"
										}
									],
									"internalType": "struct Voting.Candidate",
									"name": "profile",
									"type": "tuple"
								}
							],
							"internalType": "struct Voting.CandidateVote[]",
							"name": "",
							"type": "tuple[]"
						}
					],
					"stateMutability": "view",
					"type": "function"
				},
				{
					"inputs": [],
					"name": "isVoting",
					"outputs": [
						{
							"internalType": "bool",
							"name": "",
							"type": "bool"
						}
					],
					"stateMutability": "view",
					"type": "function"
				},
				{
					"inputs": [],
					"name": "owner",
					"outputs": [
						{
							"internalType": "address",
							"name": "",
							"type": "address"
						}
					],
					"stateMutability": "view",
					"type": "function"
				},
				{
					"inputs": [
						{
							"internalType": "address",
							"name": "_address",
							"type": "address"
						}
					],
					"name": "pendingCandidate",
					"outputs": [],
					"stateMutability": "nonpayable",
					"type": "function"
				},
				{
					"inputs": [
						{
							"internalType": "address",
							"name": "_voter",
							"type": "address"
						}
					],
					"name": "removeVote",
					"outputs": [],
					"stateMutability": "nonpayable",
					"type": "function"
				},
				{
					"inputs": [
						{
							"internalType": "uint256",
							"name": "_startingTime",
							"type": "uint256"
						},
						{
							"internalType": "uint256",
							"name": "_endingTime",
							"type": "uint256"
						}
					],
					"name": "setDate",
					"outputs": [],
					"stateMutability": "nonpayable",
					"type": "function"
				},
				{
					"inputs": [],
					"name": "startingTime",
					"outputs": [
						{
							"internalType": "uint256",
							"name": "",
							"type": "uint256"
						}
					],
					"stateMutability": "view",
					"type": "function"
				},
				{
					"inputs": [],
					"name": "toggleVoting",
					"outputs": [],
					"stateMutability": "nonpayable",
					"type": "function"
				},
				{
					"inputs": [
						{
							"internalType": "address",
							"name": "_candidateAddress",
							"type": "address"
						},
						{
							"internalType": "string",
							"name": "_name",
							"type": "string"
						},
						{
							"internalType": "string",
							"name": "_profession",
							"type": "string"
						}
					],
					"name": "updateCandidate",
					"outputs": [],
					"stateMutability": "nonpayable",
					"type": "function"
				},
				{
					"inputs": [
						{
							"internalType": "address",
							"name": "",
							"type": "address"
						}
					],
					"name": "votes",
					"outputs": [
						{
							"internalType": "address",
							"name": "receiver",
							"type": "address"
						},
						{
							"internalType": "uint256",
							"name": "timestamp",
							"type": "uint256"
						}
					],
					"stateMutability": "view",
					"type": "function"
				}
			],
			"devdoc": {
				"kind": "dev",
				"methods": {},
				"version": 1
			},
			"evm": {
				"assembly": "    /* \"contracts/Voting.sol\":57:7519  contract Voting {... */\n  mstore(0x40, 0x80)\n    /* \"contracts/Voting.sol\":1080:1129  constructor() {... */\n  callvalue\n  dup1\n  iszero\n  tag_1\n  jumpi\n  0x00\n  dup1\n  revert\ntag_1:\n  pop\n    /* \"contracts/Voting.sol\":1112:1122  msg.sender */\n  caller\n    /* \"contracts/Voting.sol\":1104:1109  owner */\n  0x02\n  0x01\n    /* \"contracts/Voting.sol\":1104:1122  owner = msg.sender */\n  0x0100\n  exp\n  dup2\n  sload\n  dup2\n  0xffffffffffffffffffffffffffffffffffffffff\n  mul\n  not\n  and\n  swap1\n  dup4\n  0xffffffffffffffffffffffffffffffffffffffff\n  and\n  mul\n  or\n  swap1\n  sstore\n  pop\n    /* \"contracts/Voting.sol\":57:7519  contract Voting {... */\n  dataSize(sub_0)\n  dup1\n  dataOffset(sub_0)\n  0x00\n  codecopy\n  0x00\n  return\nstop\n\nsub_0: assembly {\n        /* \"contracts/Voting.sol\":57:7519  contract Voting {... */\n      mstore(0x40, 0x80)\n      callvalue\n      dup1\n      iszero\n      tag_1\n      jumpi\n      0x00\n      dup1\n      revert\n    tag_1:\n      pop\n      jumpi(tag_2, lt(calldatasize, 0x04))\n      shr(0xe0, calldataload(0x00))\n      dup1\n      0x8da5cb5b\n      gt\n      tag_21\n      jumpi\n      dup1\n      0xd8bff5a5\n      gt\n      tag_22\n      jumpi\n      dup1\n      0xd8bff5a5\n      eq\n      tag_16\n      jumpi\n      dup1\n      0xe22a6231\n      eq\n      tag_17\n      jumpi\n      dup1\n      0xe3888e9a\n      eq\n      tag_18\n      jumpi\n      dup1\n      0xef6bdade\n      eq\n      tag_19\n      jumpi\n      dup1\n      0xf3587e46\n      eq\n      tag_20\n      jumpi\n      jump(tag_2)\n    tag_22:\n      dup1\n      0x8da5cb5b\n      eq\n      tag_12\n      jumpi\n      dup1\n      0xaae3bd47\n      eq\n      tag_13\n      jumpi\n      dup1\n      0xb21e3387\n      eq\n      tag_14\n      jumpi\n      dup1\n      0xbced38ed\n      eq\n      tag_15\n      jumpi\n      jump(tag_2)\n    tag_21:\n      dup1\n      0x3ccc1f53\n      gt\n      tag_23\n      jumpi\n      dup1\n      0x3ccc1f53\n      eq\n      tag_7\n      jumpi\n      dup1\n      0x4f1c7762\n      eq\n      tag_8\n      jumpi\n      dup1\n      0x53358fc4\n      eq\n      tag_9\n      jumpi\n      dup1\n      0x6c47a6c3\n      eq\n      tag_10\n      jumpi\n      dup1\n      0x8ab66a90\n      eq\n      tag_11\n      jumpi\n      jump(tag_2)\n    tag_23:\n      dup1\n      0xb170fd\n      eq\n      tag_3\n      jumpi\n      dup1\n      0x0ddf0c41\n      eq\n      tag_4\n      jumpi\n      dup1\n      0x1bbef399\n      eq\n      tag_5\n      jumpi\n      dup1\n      0x39518b5e\n      eq\n      tag_6\n      jumpi\n    tag_2:\n      0x00\n      dup1\n      revert\n        /* \"contracts/Voting.sol\":792:842  mapping(address => uint256) public candidatesVotes */\n    tag_3:\n      tag_24\n      0x04\n      dup1\n      calldatasize\n      sub\n      dup2\n      add\n      swap1\n      tag_25\n      swap2\n      swap1\n      tag_26\n      jump\t// in\n    tag_25:\n      tag_27\n      jump\t// in\n    tag_24:\n      mload(0x40)\n      tag_28\n      swap2\n      swap1\n      tag_29\n      jump\t// in\n    tag_28:\n      mload(0x40)\n      dup1\n      swap2\n      sub\n      swap1\n      return\n        /* \"contracts/Voting.sol\":3300:3794  function updateCandidate(... */\n    tag_4:\n      tag_30\n      0x04\n      dup1\n      calldatasize\n      sub\n      dup2\n      add\n      swap1\n      tag_31\n      swap2\n      swap1\n      tag_32\n      jump\t// in\n    tag_31:\n      tag_33\n      jump\t// in\n    tag_30:\n      stop\n        /* \"contracts/Voting.sol\":551:571  bool public isVoting */\n    tag_5:\n      tag_34\n      tag_35\n      jump\t// in\n    tag_34:\n      mload(0x40)\n      tag_36\n      swap2\n      swap1\n      tag_37\n      jump\t// in\n    tag_36:\n      mload(0x40)\n      dup1\n      swap2\n      sub\n      swap1\n      return\n        /* \"contracts/Voting.sol\":487:514  uint256 public startingTime */\n    tag_6:\n      tag_38\n      tag_39\n      jump\t// in\n    tag_38:\n      mload(0x40)\n      tag_40\n      swap2\n      swap1\n      tag_29\n      jump\t// in\n    tag_40:\n      mload(0x40)\n      dup1\n      swap2\n      sub\n      swap1\n      return\n        /* \"contracts/Voting.sol\":5941:6292  function removeVote(address _voter)... */\n    tag_7:\n      tag_41\n      0x04\n      dup1\n      calldatasize\n      sub\n      dup2\n      add\n      swap1\n      tag_42\n      swap2\n      swap1\n      tag_26\n      jump\t// in\n    tag_42:\n      tag_43\n      jump\t// in\n    tag_41:\n      stop\n        /* \"contracts/Voting.sol\":603:636  Candidate[] public candidatesData */\n    tag_8:\n      tag_44\n      0x04\n      dup1\n      calldatasize\n      sub\n      dup2\n      add\n      swap1\n      tag_45\n      swap2\n      swap1\n      tag_46\n      jump\t// in\n    tag_45:\n      tag_47\n      jump\t// in\n    tag_44:\n      mload(0x40)\n      tag_48\n      swap5\n      swap4\n      swap3\n      swap2\n      swap1\n      tag_49\n      jump\t// in\n    tag_48:\n      mload(0x40)\n      dup1\n      swap2\n      sub\n      swap1\n      return\n        /* \"contracts/Voting.sol\":5282:5935  function castVote(address _address)... */\n    tag_9:\n      tag_50\n      0x04\n      dup1\n      calldatasize\n      sub\n      dup2\n      add\n      swap1\n      tag_51\n      swap2\n      swap1\n      tag_26\n      jump\t// in\n    tag_51:\n      tag_52\n      jump\t// in\n    tag_50:\n      stop\n        /* \"contracts/Voting.sol\":520:545  uint256 public endingTime */\n    tag_10:\n      tag_53\n      tag_54\n      jump\t// in\n    tag_53:\n      mload(0x40)\n      tag_55\n      swap2\n      swap1\n      tag_29\n      jump\t// in\n    tag_55:\n      mload(0x40)\n      dup1\n      swap2\n      sub\n      swap1\n      return\n        /* \"contracts/Voting.sol\":642:689  mapping(address => Candidate) public candidates */\n    tag_11:\n      tag_56\n      0x04\n      dup1\n      calldatasize\n      sub\n      dup2\n      add\n      swap1\n      tag_57\n      swap2\n      swap1\n      tag_26\n      jump\t// in\n    tag_57:\n      tag_58\n      jump\t// in\n    tag_56:\n      mload(0x40)\n      tag_59\n      swap5\n      swap4\n      swap3\n      swap2\n      swap1\n      tag_49\n      jump\t// in\n    tag_59:\n      mload(0x40)\n      dup1\n      swap2\n      sub\n      swap1\n      return\n        /* \"contracts/Voting.sol\":577:597  address public owner */\n    tag_12:\n      tag_60\n      tag_61\n      jump\t// in\n    tag_60:\n      mload(0x40)\n      tag_62\n      swap2\n      swap1\n      tag_63\n      jump\t// in\n    tag_62:\n      mload(0x40)\n      dup1\n      swap2\n      sub\n      swap1\n      return\n        /* \"contracts/Voting.sol\":4837:5276  function toggleVoting() external onlyOwner votingDate {... */\n    tag_13:\n      tag_64\n      tag_65\n      jump\t// in\n    tag_64:\n      stop\n        /* \"contracts/Voting.sol\":6298:6824  function getCandidatesVotes() public view returns (CandidateVote[] memory) {... */\n    tag_14:\n      tag_66\n      tag_67\n      jump\t// in\n    tag_66:\n      mload(0x40)\n      tag_68\n      swap2\n      swap1\n      tag_69\n      jump\t// in\n    tag_68:\n      mload(0x40)\n      dup1\n      swap2\n      sub\n      swap1\n      return\n        /* \"contracts/Voting.sol\":4520:4831  function blockCandidate(address _address)... */\n    tag_15:\n      tag_70\n      0x04\n      dup1\n      calldatasize\n      sub\n      dup2\n      add\n      swap1\n      tag_71\n      swap2\n      swap1\n      tag_26\n      jump\t// in\n    tag_71:\n      tag_72\n      jump\t// in\n    tag_70:\n      stop\n        /* \"contracts/Voting.sol\":749:786  mapping(address => Vote) public votes */\n    tag_16:\n      tag_73\n      0x04\n      dup1\n      calldatasize\n      sub\n      dup2\n      add\n      swap1\n      tag_74\n      swap2\n      swap1\n      tag_26\n      jump\t// in\n    tag_74:\n      tag_75\n      jump\t// in\n    tag_73:\n      mload(0x40)\n      tag_76\n      swap3\n      swap2\n      swap1\n      tag_77\n      jump\t// in\n    tag_76:\n      mload(0x40)\n      dup1\n      swap2\n      sub\n      swap1\n      return\n        /* \"contracts/Voting.sol\":2313:3294  function addCandidate(... */\n    tag_17:\n      tag_78\n      0x04\n      dup1\n      calldatasize\n      sub\n      dup2\n      add\n      swap1\n      tag_79\n      swap2\n      swap1\n      tag_32\n      jump\t// in\n    tag_79:\n      tag_80\n      jump\t// in\n    tag_78:\n      stop\n        /* \"contracts/Voting.sol\":4160:4514  function pendingCandidate(address _address)... */\n    tag_18:\n      tag_81\n      0x04\n      dup1\n      calldatasize\n      sub\n      dup2\n      add\n      swap1\n      tag_82\n      swap2\n      swap1\n      tag_26\n      jump\t// in\n    tag_82:\n      tag_83\n      jump\t// in\n    tag_81:\n      stop\n        /* \"contracts/Voting.sol\":3800:4154  function activateCandidate(address _address)... */\n    tag_19:\n      tag_84\n      0x04\n      dup1\n      calldatasize\n      sub\n      dup2\n      add\n      swap1\n      tag_85\n      swap2\n      swap1\n      tag_26\n      jump\t// in\n    tag_85:\n      tag_86\n      jump\t// in\n    tag_84:\n      stop\n        /* \"contracts/Voting.sol\":2002:2307  function setDate(uint256 _startingTime, uint256 _endingTime)... */\n    tag_20:\n      tag_87\n      0x04\n      dup1\n      calldatasize\n      sub\n      dup2\n      add\n      swap1\n      tag_88\n      swap2\n      swap1\n      tag_89\n      jump\t// in\n    tag_88:\n      tag_90\n      jump\t// in\n    tag_87:\n      stop\n        /* \"contracts/Voting.sol\":792:842  mapping(address => uint256) public candidatesVotes */\n    tag_27:\n      mstore(0x20, 0x07)\n      dup1\n      0x00\n      mstore\n      keccak256(0x00, 0x40)\n      0x00\n      swap2\n      pop\n      swap1\n      pop\n      sload\n      dup2\n      jump\t// out\n        /* \"contracts/Voting.sol\":3300:3794  function updateCandidate(... */\n    tag_33:\n        /* \"contracts/Voting.sol\":1188:1193  owner */\n      0x02\n      0x01\n      swap1\n      sload\n      swap1\n      0x0100\n      exp\n      swap1\n      div\n      0xffffffffffffffffffffffffffffffffffffffff\n      and\n        /* \"contracts/Voting.sol\":1174:1193  msg.sender == owner */\n      0xffffffffffffffffffffffffffffffffffffffff\n      and\n        /* \"contracts/Voting.sol\":1174:1184  msg.sender */\n      caller\n        /* \"contracts/Voting.sol\":1174:1193  msg.sender == owner */\n      0xffffffffffffffffffffffffffffffffffffffff\n      and\n      eq\n        /* \"contracts/Voting.sol\":1166:1235  require(msg.sender == owner, \"Only the owner can call this function\") */\n      tag_92\n      jumpi\n      mload(0x40)\n      0x08c379a000000000000000000000000000000000000000000000000000000000\n      dup2\n      mstore\n      0x04\n      add\n      tag_93\n      swap1\n      tag_94\n      jump\t// in\n    tag_93:\n      mload(0x40)\n      dup1\n      swap2\n      sub\n      swap1\n      revert\n    tag_92:\n        /* \"contracts/Voting.sol\":3466:3483  _candidateAddress */\n      dup3\n        /* \"contracts/Voting.sol\":1856:1883  Candidate storage candidate */\n      0x00\n        /* \"contracts/Voting.sol\":1886:1896  candidates */\n      0x04\n        /* \"contracts/Voting.sol\":1886:1906  candidates[_address] */\n      0x00\n        /* \"contracts/Voting.sol\":1897:1905  _address */\n      dup4\n        /* \"contracts/Voting.sol\":1886:1906  candidates[_address] */\n      0xffffffffffffffffffffffffffffffffffffffff\n      and\n      0xffffffffffffffffffffffffffffffffffffffff\n      and\n      dup2\n      mstore\n      0x20\n      add\n      swap1\n      dup2\n      mstore\n      0x20\n      add\n      0x00\n      keccak256\n        /* \"contracts/Voting.sol\":1856:1906  Candidate storage candidate = candidates[_address] */\n      swap1\n      pop\n        /* \"contracts/Voting.sol\":1946:1954  _address */\n      dup2\n        /* \"contracts/Voting.sol\":1924:1954  candidate._address == _address */\n      0xffffffffffffffffffffffffffffffffffffffff\n      and\n        /* \"contracts/Voting.sol\":1924:1933  candidate */\n      dup2\n        /* \"contracts/Voting.sol\":1924:1942  candidate._address */\n      0x00\n      add\n      0x00\n      swap1\n      sload\n      swap1\n      0x0100\n      exp\n      swap1\n      div\n      0xffffffffffffffffffffffffffffffffffffffff\n      and\n        /* \"contracts/Voting.sol\":1924:1954  candidate._address == _address */\n      0xffffffffffffffffffffffffffffffffffffffff\n      and\n      eq\n        /* \"contracts/Voting.sol\":1916:1978  require(candidate._address == _address, \"Candidate not found\") */\n      tag_96\n      jumpi\n      mload(0x40)\n      0x08c379a000000000000000000000000000000000000000000000000000000000\n      dup2\n      mstore\n      0x04\n      add\n      tag_97\n      swap1\n      tag_98\n      jump\t// in\n    tag_97:\n      mload(0x40)\n      dup1\n      swap2\n      sub\n      swap1\n      revert\n    tag_96:\n        /* \"contracts/Voting.sol\":3504:3512  isVoting */\n      0x02\n      0x00\n      swap1\n      sload\n      swap1\n      0x0100\n      exp\n      swap1\n      div\n      0xff\n      and\n        /* \"contracts/Voting.sol\":3503:3512  !isVoting */\n      iszero\n        /* \"contracts/Voting.sol\":3495:3566  require(!isVoting, \"Cannot update candidates after voting has started\") */\n      tag_100\n      jumpi\n      mload(0x40)\n      0x08c379a000000000000000000000000000000000000000000000000000000000\n      dup2\n      mstore\n      0x04\n      add\n      tag_101\n      swap1\n      tag_102\n      jump\t// in\n    tag_101:\n      mload(0x40)\n      dup1\n      swap2\n      sub\n      swap1\n      revert\n    tag_100:\n        /* \"contracts/Voting.sol\":3608:3739  Candidate(... */\n      mload(0x40)\n      dup1\n      0x80\n      add\n      0x40\n      mstore\n      dup1\n        /* \"contracts/Voting.sol\":3631:3648  _candidateAddress */\n      dup7\n        /* \"contracts/Voting.sol\":3608:3739  Candidate(... */\n      0xffffffffffffffffffffffffffffffffffffffff\n      and\n      dup2\n      mstore\n      0x20\n      add\n        /* \"contracts/Voting.sol\":3662:3667  _name */\n      dup6\n        /* \"contracts/Voting.sol\":3608:3739  Candidate(... */\n      dup2\n      mstore\n      0x20\n      add\n        /* \"contracts/Voting.sol\":3681:3692  _profession */\n      dup5\n        /* \"contracts/Voting.sol\":3608:3739  Candidate(... */\n      dup2\n      mstore\n      0x20\n      add\n        /* \"contracts/Voting.sol\":3706:3729  CandidateStatus.PENDING */\n      0x01\n        /* \"contracts/Voting.sol\":3608:3739  Candidate(... */\n      0x02\n      dup2\n      gt\n      iszero\n      tag_103\n      jumpi\n      tag_104\n      tag_105\n      jump\t// in\n    tag_104:\n    tag_103:\n      dup2\n      mstore\n      pop\n        /* \"contracts/Voting.sol\":3576:3586  candidates */\n      0x04\n        /* \"contracts/Voting.sol\":3576:3605  candidates[_candidateAddress] */\n      0x00\n        /* \"contracts/Voting.sol\":3587:3604  _candidateAddress */\n      dup8\n        /* \"contracts/Voting.sol\":3576:3605  candidates[_candidateAddress] */\n      0xffffffffffffffffffffffffffffffffffffffff\n      and\n      0xffffffffffffffffffffffffffffffffffffffff\n      and\n      dup2\n      mstore\n      0x20\n      add\n      swap1\n      dup2\n      mstore\n      0x20\n      add\n      0x00\n      keccak256\n        /* \"contracts/Voting.sol\":3576:3739  candidates[_candidateAddress] = Candidate(... */\n      0x00\n      dup3\n      add\n      mload\n      dup2\n      0x00\n      add\n      exp(0x0100, 0x00)\n      dup2\n      sload\n      dup2\n      0xffffffffffffffffffffffffffffffffffffffff\n      mul\n      not\n      and\n      swap1\n      dup4\n      0xffffffffffffffffffffffffffffffffffffffff\n      and\n      mul\n      or\n      swap1\n      sstore\n      pop\n      0x20\n      dup3\n      add\n      mload\n      dup2\n      0x01\n      add\n      swap1\n      dup2\n      tag_106\n      swap2\n      swap1\n      tag_107\n      jump\t// in\n    tag_106:\n      pop\n      0x40\n      dup3\n      add\n      mload\n      dup2\n      0x02\n      add\n      swap1\n      dup2\n      tag_108\n      swap2\n      swap1\n      tag_107\n      jump\t// in\n    tag_108:\n      pop\n      0x60\n      dup3\n      add\n      mload\n      dup2\n      0x03\n      add\n      exp(0x0100, 0x00)\n      dup2\n      sload\n      dup2\n      0xff\n      mul\n      not\n      and\n      swap1\n      dup4\n      0x02\n      dup2\n      gt\n      iszero\n      tag_109\n      jumpi\n      tag_110\n      tag_105\n      jump\t// in\n    tag_110:\n    tag_109:\n      mul\n      or\n      swap1\n      sstore\n      pop\n      swap1\n      pop\n      pop\n        /* \"contracts/Voting.sol\":3754:3787  CandidateAdded(_candidateAddress) */\n      0xaa38be308bdffe126c2b6be720070355eb22e0efc549ac39221b1ce71642ed40\n        /* \"contracts/Voting.sol\":3769:3786  _candidateAddress */\n      dup6\n        /* \"contracts/Voting.sol\":3754:3787  CandidateAdded(_candidateAddress) */\n      mload(0x40)\n      tag_111\n      swap2\n      swap1\n      tag_63\n      jump\t// in\n    tag_111:\n      mload(0x40)\n      dup1\n      swap2\n      sub\n      swap1\n      log1\n        /* \"contracts/Voting.sol\":1846:1996  {... */\n      pop\n        /* \"contracts/Voting.sol\":1245:1246  _ */\n      pop\n        /* \"contracts/Voting.sol\":3300:3794  function updateCandidate(... */\n      pop\n      pop\n      pop\n      jump\t// out\n        /* \"contracts/Voting.sol\":551:571  bool public isVoting */\n    tag_35:\n      0x02\n      0x00\n      swap1\n      sload\n      swap1\n      0x0100\n      exp\n      swap1\n      div\n      0xff\n      and\n      dup2\n      jump\t// out\n        /* \"contracts/Voting.sol\":487:514  uint256 public startingTime */\n    tag_39:\n      sload(0x00)\n      dup2\n      jump\t// out\n        /* \"contracts/Voting.sol\":5941:6292  function removeVote(address _voter)... */\n    tag_43:\n        /* \"contracts/Voting.sol\":1188:1193  owner */\n      0x02\n      0x01\n      swap1\n      sload\n      swap1\n      0x0100\n      exp\n      swap1\n      div\n      0xffffffffffffffffffffffffffffffffffffffff\n      and\n        /* \"contracts/Voting.sol\":1174:1193  msg.sender == owner */\n      0xffffffffffffffffffffffffffffffffffffffff\n      and\n        /* \"contracts/Voting.sol\":1174:1184  msg.sender */\n      caller\n        /* \"contracts/Voting.sol\":1174:1193  msg.sender == owner */\n      0xffffffffffffffffffffffffffffffffffffffff\n      and\n      eq\n        /* \"contracts/Voting.sol\":1166:1235  require(msg.sender == owner, \"Only the owner can call this function\") */\n      tag_113\n      jumpi\n      mload(0x40)\n      0x08c379a000000000000000000000000000000000000000000000000000000000\n      dup2\n      mstore\n      0x04\n      add\n      tag_114\n      swap1\n      tag_94\n      jump\t// in\n    tag_114:\n      mload(0x40)\n      dup1\n      swap2\n      sub\n      swap1\n      revert\n    tag_113:\n        /* \"contracts/Voting.sol\":1543:1551  isVoting */\n      0x02\n      0x00\n      swap1\n      sload\n      swap1\n      0x0100\n      exp\n      swap1\n      div\n      0xff\n      and\n        /* \"contracts/Voting.sol\":1535:1576  require(isVoting, \"Voting is not active\") */\n      tag_116\n      jumpi\n      mload(0x40)\n      0x08c379a000000000000000000000000000000000000000000000000000000000\n      dup2\n      mstore\n      0x04\n      add\n      tag_117\n      swap1\n      tag_118\n      jump\t// in\n    tag_117:\n      mload(0x40)\n      dup1\n      swap2\n      sub\n      swap1\n      revert\n    tag_116:\n        /* \"contracts/Voting.sol\":1667:1679  startingTime */\n      sload(0x00)\n        /* \"contracts/Voting.sol\":1648:1663  block.timestamp */\n      timestamp\n        /* \"contracts/Voting.sol\":1648:1679  block.timestamp >= startingTime */\n      lt\n      iszero\n        /* \"contracts/Voting.sol\":1640:1710  require(block.timestamp >= startingTime, \"Voting has not started yet\") */\n      tag_120\n      jumpi\n      mload(0x40)\n      0x08c379a000000000000000000000000000000000000000000000000000000000\n      dup2\n      mstore\n      0x04\n      add\n      tag_121\n      swap1\n      tag_122\n      jump\t// in\n    tag_121:\n      mload(0x40)\n      dup1\n      swap2\n      sub\n      swap1\n      revert\n    tag_120:\n        /* \"contracts/Voting.sol\":1747:1757  endingTime */\n      sload(0x01)\n        /* \"contracts/Voting.sol\":1728:1743  block.timestamp */\n      timestamp\n        /* \"contracts/Voting.sol\":1728:1757  block.timestamp <= endingTime */\n      gt\n      iszero\n        /* \"contracts/Voting.sol\":1720:1778  require(block.timestamp <= endingTime, \"Voting has ended\") */\n      tag_123\n      jumpi\n      mload(0x40)\n      0x08c379a000000000000000000000000000000000000000000000000000000000\n      dup2\n      mstore\n      0x04\n      add\n      tag_124\n      swap1\n      tag_125\n      jump\t// in\n    tag_124:\n      mload(0x40)\n      dup1\n      swap2\n      sub\n      swap1\n      revert\n    tag_123:\n        /* \"contracts/Voting.sol\":6074:6091  Vote storage vote */\n      0x00\n        /* \"contracts/Voting.sol\":6094:6099  votes */\n      0x06\n        /* \"contracts/Voting.sol\":6094:6107  votes[_voter] */\n      0x00\n        /* \"contracts/Voting.sol\":6100:6106  _voter */\n      dup4\n        /* \"contracts/Voting.sol\":6094:6107  votes[_voter] */\n      0xffffffffffffffffffffffffffffffffffffffff\n      and\n      0xffffffffffffffffffffffffffffffffffffffff\n      and\n      dup2\n      mstore\n      0x20\n      add\n      swap1\n      dup2\n      mstore\n      0x20\n      add\n      0x00\n      keccak256\n        /* \"contracts/Voting.sol\":6074:6107  Vote storage vote = votes[_voter] */\n      swap1\n      pop\n        /* \"contracts/Voting.sol\":6150:6151  0 */\n      0x00\n        /* \"contracts/Voting.sol\":6125:6152  vote.receiver != address(0) */\n      0xffffffffffffffffffffffffffffffffffffffff\n      and\n        /* \"contracts/Voting.sol\":6125:6129  vote */\n      dup2\n        /* \"contracts/Voting.sol\":6125:6138  vote.receiver */\n      0x00\n      add\n      0x00\n      swap1\n      sload\n      swap1\n      0x0100\n      exp\n      swap1\n      div\n      0xffffffffffffffffffffffffffffffffffffffff\n      and\n        /* \"contracts/Voting.sol\":6125:6152  vote.receiver != address(0) */\n      0xffffffffffffffffffffffffffffffffffffffff\n      and\n      sub\n        /* \"contracts/Voting.sol\":6117:6174  require(vote.receiver != address(0), \"No vote to remove\") */\n      tag_127\n      jumpi\n      mload(0x40)\n      0x08c379a000000000000000000000000000000000000000000000000000000000\n      dup2\n      mstore\n      0x04\n      add\n      tag_128\n      swap1\n      tag_129\n      jump\t// in\n    tag_128:\n      mload(0x40)\n      dup1\n      swap2\n      sub\n      swap1\n      revert\n    tag_127:\n        /* \"contracts/Voting.sol\":6219:6220  1 */\n      0x01\n        /* \"contracts/Voting.sol\":6185:6200  candidatesVotes */\n      0x07\n        /* \"contracts/Voting.sol\":6185:6215  candidatesVotes[vote.receiver] */\n      0x00\n        /* \"contracts/Voting.sol\":6201:6205  vote */\n      dup4\n        /* \"contracts/Voting.sol\":6201:6214  vote.receiver */\n      0x00\n      add\n      0x00\n      swap1\n      sload\n      swap1\n      0x0100\n      exp\n      swap1\n      div\n      0xffffffffffffffffffffffffffffffffffffffff\n      and\n        /* \"contracts/Voting.sol\":6185:6215  candidatesVotes[vote.receiver] */\n      0xffffffffffffffffffffffffffffffffffffffff\n      and\n      0xffffffffffffffffffffffffffffffffffffffff\n      and\n      dup2\n      mstore\n      0x20\n      add\n      swap1\n      dup2\n      mstore\n      0x20\n      add\n      0x00\n      keccak256\n      0x00\n        /* \"contracts/Voting.sol\":6185:6220  candidatesVotes[vote.receiver] -= 1 */\n      dup3\n      dup3\n      sload\n      tag_130\n      swap2\n      swap1\n      tag_131\n      jump\t// in\n    tag_130:\n      swap3\n      pop\n      pop\n      dup2\n      swap1\n      sstore\n      pop\n        /* \"contracts/Voting.sol\":6237:6242  votes */\n      0x06\n        /* \"contracts/Voting.sol\":6237:6250  votes[_voter] */\n      0x00\n        /* \"contracts/Voting.sol\":6243:6249  _voter */\n      dup4\n        /* \"contracts/Voting.sol\":6237:6250  votes[_voter] */\n      0xffffffffffffffffffffffffffffffffffffffff\n      and\n      0xffffffffffffffffffffffffffffffffffffffff\n      and\n      dup2\n      mstore\n      0x20\n      add\n      swap1\n      dup2\n      mstore\n      0x20\n      add\n      0x00\n      keccak256\n      0x00\n        /* \"contracts/Voting.sol\":6230:6250  delete votes[_voter] */\n      dup1\n      dup3\n      add\n      exp(0x0100, 0x00)\n      dup2\n      sload\n      swap1\n      0xffffffffffffffffffffffffffffffffffffffff\n      mul\n      not\n      and\n      swap1\n      sstore\n      0x01\n      dup3\n      add\n      0x00\n      swap1\n      sstore\n      pop\n      pop\n        /* \"contracts/Voting.sol\":6266:6285  VoteRemoved(_voter) */\n      0x5b5c1d8abb8598f40cb2c7a7f57935ec6e1a778efc4ceef46e664ca271d0ef27\n        /* \"contracts/Voting.sol\":6278:6284  _voter */\n      dup3\n        /* \"contracts/Voting.sol\":6266:6285  VoteRemoved(_voter) */\n      mload(0x40)\n      tag_132\n      swap2\n      swap1\n      tag_63\n      jump\t// in\n    tag_132:\n      mload(0x40)\n      dup1\n      swap2\n      sub\n      swap1\n      log1\n        /* \"contracts/Voting.sol\":6064:6292  {... */\n      pop\n        /* \"contracts/Voting.sol\":5941:6292  function removeVote(address _voter)... */\n      pop\n      jump\t// out\n        /* \"contracts/Voting.sol\":603:636  Candidate[] public candidatesData */\n    tag_47:\n      0x03\n      dup2\n      dup2\n      sload\n      dup2\n      lt\n      tag_133\n      jumpi\n      0x00\n      dup1\n      revert\n    tag_133:\n      swap1\n      0x00\n      mstore\n      keccak256(0x00, 0x20)\n      swap1\n      0x04\n      mul\n      add\n      0x00\n      swap2\n      pop\n      swap1\n      pop\n      dup1\n      0x00\n      add\n      0x00\n      swap1\n      sload\n      swap1\n      0x0100\n      exp\n      swap1\n      div\n      0xffffffffffffffffffffffffffffffffffffffff\n      and\n      swap1\n      dup1\n      0x01\n      add\n      dup1\n      sload\n      tag_135\n      swap1\n      tag_136\n      jump\t// in\n    tag_135:\n      dup1\n      0x1f\n      add\n      0x20\n      dup1\n      swap2\n      div\n      mul\n      0x20\n      add\n      mload(0x40)\n      swap1\n      dup2\n      add\n      0x40\n      mstore\n      dup1\n      swap3\n      swap2\n      swap1\n      dup2\n      dup2\n      mstore\n      0x20\n      add\n      dup3\n      dup1\n      sload\n      tag_137\n      swap1\n      tag_136\n      jump\t// in\n    tag_137:\n      dup1\n      iszero\n      tag_138\n      jumpi\n      dup1\n      0x1f\n      lt\n      tag_139\n      jumpi\n      0x0100\n      dup1\n      dup4\n      sload\n      div\n      mul\n      dup4\n      mstore\n      swap2\n      0x20\n      add\n      swap2\n      jump(tag_138)\n    tag_139:\n      dup3\n      add\n      swap2\n      swap1\n      0x00\n      mstore\n      keccak256(0x00, 0x20)\n      swap1\n    tag_140:\n      dup2\n      sload\n      dup2\n      mstore\n      swap1\n      0x01\n      add\n      swap1\n      0x20\n      add\n      dup1\n      dup4\n      gt\n      tag_140\n      jumpi\n      dup3\n      swap1\n      sub\n      0x1f\n      and\n      dup3\n      add\n      swap2\n    tag_138:\n      pop\n      pop\n      pop\n      pop\n      pop\n      swap1\n      dup1\n      0x02\n      add\n      dup1\n      sload\n      tag_141\n      swap1\n      tag_136\n      jump\t// in\n    tag_141:\n      dup1\n      0x1f\n      add\n      0x20\n      dup1\n      swap2\n      div\n      mul\n      0x20\n      add\n      mload(0x40)\n      swap1\n      dup2\n      add\n      0x40\n      mstore\n      dup1\n      swap3\n      swap2\n      swap1\n      dup2\n      dup2\n      mstore\n      0x20\n      add\n      dup3\n      dup1\n      sload\n      tag_142\n      swap1\n      tag_136\n      jump\t// in\n    tag_142:\n      dup1\n      iszero\n      tag_143\n      jumpi\n      dup1\n      0x1f\n      lt\n      tag_144\n      jumpi\n      0x0100\n      dup1\n      dup4\n      sload\n      div\n      mul\n      dup4\n      mstore\n      swap2\n      0x20\n      add\n      swap2\n      jump(tag_143)\n    tag_144:\n      dup3\n      add\n      swap2\n      swap1\n      0x00\n      mstore\n      keccak256(0x00, 0x20)\n      swap1\n    tag_145:\n      dup2\n      sload\n      dup2\n      mstore\n      swap1\n      0x01\n      add\n      swap1\n      0x20\n      add\n      dup1\n      dup4\n      gt\n      tag_145\n      jumpi\n      dup3\n      swap1\n      sub\n      0x1f\n      and\n      dup3\n      add\n      swap2\n    tag_143:\n      pop\n      pop\n      pop\n      pop\n      pop\n      swap1\n      dup1\n      0x03\n      add\n      0x00\n      swap1\n      sload\n      swap1\n      0x0100\n      exp\n      swap1\n      div\n      0xff\n      and\n      swap1\n      pop\n      dup5\n      jump\t// out\n        /* \"contracts/Voting.sol\":5282:5935  function castVote(address _address)... */\n    tag_52:\n        /* \"contracts/Voting.sol\":1543:1551  isVoting */\n      0x02\n      0x00\n      swap1\n      sload\n      swap1\n      0x0100\n      exp\n      swap1\n      div\n      0xff\n      and\n        /* \"contracts/Voting.sol\":1535:1576  require(isVoting, \"Voting is not active\") */\n      tag_147\n      jumpi\n      mload(0x40)\n      0x08c379a000000000000000000000000000000000000000000000000000000000\n      dup2\n      mstore\n      0x04\n      add\n      tag_148\n      swap1\n      tag_118\n      jump\t// in\n    tag_148:\n      mload(0x40)\n      dup1\n      swap2\n      sub\n      swap1\n      revert\n    tag_147:\n        /* \"contracts/Voting.sol\":1667:1679  startingTime */\n      sload(0x00)\n        /* \"contracts/Voting.sol\":1648:1663  block.timestamp */\n      timestamp\n        /* \"contracts/Voting.sol\":1648:1679  block.timestamp >= startingTime */\n      lt\n      iszero\n        /* \"contracts/Voting.sol\":1640:1710  require(block.timestamp >= startingTime, \"Voting has not started yet\") */\n      tag_150\n      jumpi\n      mload(0x40)\n      0x08c379a000000000000000000000000000000000000000000000000000000000\n      dup2\n      mstore\n      0x04\n      add\n      tag_151\n      swap1\n      tag_122\n      jump\t// in\n    tag_151:\n      mload(0x40)\n      dup1\n      swap2\n      sub\n      swap1\n      revert\n    tag_150:\n        /* \"contracts/Voting.sol\":1747:1757  endingTime */\n      sload(0x01)\n        /* \"contracts/Voting.sol\":1728:1743  block.timestamp */\n      timestamp\n        /* \"contracts/Voting.sol\":1728:1757  block.timestamp <= endingTime */\n      gt\n      iszero\n        /* \"contracts/Voting.sol\":1720:1778  require(block.timestamp <= endingTime, \"Voting has ended\") */\n      tag_152\n      jumpi\n      mload(0x40)\n      0x08c379a000000000000000000000000000000000000000000000000000000000\n      dup2\n      mstore\n      0x04\n      add\n      tag_153\n      swap1\n      tag_125\n      jump\t// in\n    tag_153:\n      mload(0x40)\n      dup1\n      swap2\n      sub\n      swap1\n      revert\n    tag_152:\n        /* \"contracts/Voting.sol\":5408:5416  _address */\n      dup1\n        /* \"contracts/Voting.sol\":1856:1883  Candidate storage candidate */\n      0x00\n        /* \"contracts/Voting.sol\":1886:1896  candidates */\n      0x04\n        /* \"contracts/Voting.sol\":1886:1906  candidates[_address] */\n      0x00\n        /* \"contracts/Voting.sol\":1897:1905  _address */\n      dup4\n        /* \"contracts/Voting.sol\":1886:1906  candidates[_address] */\n      0xffffffffffffffffffffffffffffffffffffffff\n      and\n      0xffffffffffffffffffffffffffffffffffffffff\n      and\n      dup2\n      mstore\n      0x20\n      add\n      swap1\n      dup2\n      mstore\n      0x20\n      add\n      0x00\n      keccak256\n        /* \"contracts/Voting.sol\":1856:1906  Candidate storage candidate = candidates[_address] */\n      swap1\n      pop\n        /* \"contracts/Voting.sol\":1946:1954  _address */\n      dup2\n        /* \"contracts/Voting.sol\":1924:1954  candidate._address == _address */\n      0xffffffffffffffffffffffffffffffffffffffff\n      and\n        /* \"contracts/Voting.sol\":1924:1933  candidate */\n      dup2\n        /* \"contracts/Voting.sol\":1924:1942  candidate._address */\n      0x00\n      add\n      0x00\n      swap1\n      sload\n      swap1\n      0x0100\n      exp\n      swap1\n      div\n      0xffffffffffffffffffffffffffffffffffffffff\n      and\n        /* \"contracts/Voting.sol\":1924:1954  candidate._address == _address */\n      0xffffffffffffffffffffffffffffffffffffffff\n      and\n      eq\n        /* \"contracts/Voting.sol\":1916:1978  require(candidate._address == _address, \"Candidate not found\") */\n      tag_155\n      jumpi\n      mload(0x40)\n      0x08c379a000000000000000000000000000000000000000000000000000000000\n      dup2\n      mstore\n      0x04\n      add\n      tag_156\n      swap1\n      tag_98\n      jump\t// in\n    tag_156:\n      mload(0x40)\n      dup1\n      swap2\n      sub\n      swap1\n      revert\n    tag_155:\n        /* \"contracts/Voting.sol\":5432:5459  Candidate storage candidate */\n      0x00\n        /* \"contracts/Voting.sol\":5462:5472  candidates */\n      0x04\n        /* \"contracts/Voting.sol\":5462:5482  candidates[_address] */\n      0x00\n        /* \"contracts/Voting.sol\":5473:5481  _address */\n      dup6\n        /* \"contracts/Voting.sol\":5462:5482  candidates[_address] */\n      0xffffffffffffffffffffffffffffffffffffffff\n      and\n      0xffffffffffffffffffffffffffffffffffffffff\n      and\n      dup2\n      mstore\n      0x20\n      add\n      swap1\n      dup2\n      mstore\n      0x20\n      add\n      0x00\n      keccak256\n        /* \"contracts/Voting.sol\":5432:5482  Candidate storage candidate = candidates[_address] */\n      swap1\n      pop\n        /* \"contracts/Voting.sol\":5493:5510  Vote storage vote */\n      0x00\n        /* \"contracts/Voting.sol\":5513:5518  votes */\n      0x06\n        /* \"contracts/Voting.sol\":5513:5530  votes[msg.sender] */\n      0x00\n        /* \"contracts/Voting.sol\":5519:5529  msg.sender */\n      caller\n        /* \"contracts/Voting.sol\":5513:5530  votes[msg.sender] */\n      0xffffffffffffffffffffffffffffffffffffffff\n      and\n      0xffffffffffffffffffffffffffffffffffffffff\n      and\n      dup2\n      mstore\n      0x20\n      add\n      swap1\n      dup2\n      mstore\n      0x20\n      add\n      0x00\n      keccak256\n        /* \"contracts/Voting.sol\":5493:5530  Vote storage vote = votes[msg.sender] */\n      swap1\n      pop\n        /* \"contracts/Voting.sol\":5573:5574  0 */\n      0x00\n        /* \"contracts/Voting.sol\":5548:5575  vote.receiver == address(0) */\n      0xffffffffffffffffffffffffffffffffffffffff\n      and\n        /* \"contracts/Voting.sol\":5548:5552  vote */\n      dup2\n        /* \"contracts/Voting.sol\":5548:5561  vote.receiver */\n      0x00\n      add\n      0x00\n      swap1\n      sload\n      swap1\n      0x0100\n      exp\n      swap1\n      div\n      0xffffffffffffffffffffffffffffffffffffffff\n      and\n        /* \"contracts/Voting.sol\":5548:5575  vote.receiver == address(0) */\n      0xffffffffffffffffffffffffffffffffffffffff\n      and\n      eq\n        /* \"contracts/Voting.sol\":5540:5597  require(vote.receiver == address(0), \"Vote already cast\") */\n      tag_158\n      jumpi\n      mload(0x40)\n      0x08c379a000000000000000000000000000000000000000000000000000000000\n      dup2\n      mstore\n      0x04\n      add\n      tag_159\n      swap1\n      tag_160\n      jump\t// in\n    tag_159:\n      mload(0x40)\n      dup1\n      swap2\n      sub\n      swap1\n      revert\n    tag_158:\n        /* \"contracts/Voting.sol\":5649:5671  CandidateStatus.ACTIVE */\n      0x00\n        /* \"contracts/Voting.sol\":5629:5671  candidate.status == CandidateStatus.ACTIVE */\n      0x02\n      dup2\n      gt\n      iszero\n      tag_161\n      jumpi\n      tag_162\n      tag_105\n      jump\t// in\n    tag_162:\n    tag_161:\n        /* \"contracts/Voting.sol\":5629:5638  candidate */\n      dup3\n        /* \"contracts/Voting.sol\":5629:5645  candidate.status */\n      0x03\n      add\n      0x00\n      swap1\n      sload\n      swap1\n      0x0100\n      exp\n      swap1\n      div\n      0xff\n      and\n        /* \"contracts/Voting.sol\":5629:5671  candidate.status == CandidateStatus.ACTIVE */\n      0x02\n      dup2\n      gt\n      iszero\n      tag_163\n      jumpi\n      tag_164\n      tag_105\n      jump\t// in\n    tag_164:\n    tag_163:\n      eq\n        /* \"contracts/Voting.sol\":5608:5720  require(... */\n      tag_165\n      jumpi\n      mload(0x40)\n      0x08c379a000000000000000000000000000000000000000000000000000000000\n      dup2\n      mstore\n      0x04\n      add\n      tag_166\n      swap1\n      tag_167\n      jump\t// in\n    tag_166:\n      mload(0x40)\n      dup1\n      swap2\n      sub\n      swap1\n      revert\n    tag_165:\n        /* \"contracts/Voting.sol\":5747:5756  candidate */\n      dup2\n        /* \"contracts/Voting.sol\":5747:5765  candidate._address */\n      0x00\n      add\n      0x00\n      swap1\n      sload\n      swap1\n      0x0100\n      exp\n      swap1\n      div\n      0xffffffffffffffffffffffffffffffffffffffff\n      and\n        /* \"contracts/Voting.sol\":5731:5735  vote */\n      dup2\n        /* \"contracts/Voting.sol\":5731:5744  vote.receiver */\n      0x00\n      add\n      0x00\n        /* \"contracts/Voting.sol\":5731:5765  vote.receiver = candidate._address */\n      0x0100\n      exp\n      dup2\n      sload\n      dup2\n      0xffffffffffffffffffffffffffffffffffffffff\n      mul\n      not\n      and\n      swap1\n      dup4\n      0xffffffffffffffffffffffffffffffffffffffff\n      and\n      mul\n      or\n      swap1\n      sstore\n      pop\n        /* \"contracts/Voting.sol\":5792:5807  block.timestamp */\n      timestamp\n        /* \"contracts/Voting.sol\":5775:5779  vote */\n      dup2\n        /* \"contracts/Voting.sol\":5775:5789  vote.timestamp */\n      0x01\n      add\n        /* \"contracts/Voting.sol\":5775:5807  vote.timestamp = block.timestamp */\n      dup2\n      swap1\n      sstore\n      pop\n        /* \"contracts/Voting.sol\":5856:5857  1 */\n      0x01\n        /* \"contracts/Voting.sol\":5817:5832  candidatesVotes */\n      0x07\n        /* \"contracts/Voting.sol\":5817:5852  candidatesVotes[candidate._address] */\n      0x00\n        /* \"contracts/Voting.sol\":5833:5842  candidate */\n      dup5\n        /* \"contracts/Voting.sol\":5833:5851  candidate._address */\n      0x00\n      add\n      0x00\n      swap1\n      sload\n      swap1\n      0x0100\n      exp\n      swap1\n      div\n      0xffffffffffffffffffffffffffffffffffffffff\n      and\n        /* \"contracts/Voting.sol\":5817:5852  candidatesVotes[candidate._address] */\n      0xffffffffffffffffffffffffffffffffffffffff\n      and\n      0xffffffffffffffffffffffffffffffffffffffff\n      and\n      dup2\n      mstore\n      0x20\n      add\n      swap1\n      dup2\n      mstore\n      0x20\n      add\n      0x00\n      keccak256\n      0x00\n        /* \"contracts/Voting.sol\":5817:5857  candidatesVotes[candidate._address] += 1 */\n      dup3\n      dup3\n      sload\n      tag_168\n      swap2\n      swap1\n      tag_169\n      jump\t// in\n    tag_168:\n      swap3\n      pop\n      pop\n      dup2\n      swap1\n      sstore\n      pop\n        /* \"contracts/Voting.sol\":5881:5891  msg.sender */\n      caller\n        /* \"contracts/Voting.sol\":5872:5928  VoteCast(msg.sender, candidate._address, vote.timestamp) */\n      0xffffffffffffffffffffffffffffffffffffffff\n      and\n      0x484413c33463e7d976e3ded2a85b0c31610d0906977df2cd9cbd6d12a6872a84\n        /* \"contracts/Voting.sol\":5893:5902  candidate */\n      dup4\n        /* \"contracts/Voting.sol\":5893:5911  candidate._address */\n      0x00\n      add\n      0x00\n      swap1\n      sload\n      swap1\n      0x0100\n      exp\n      swap1\n      div\n      0xffffffffffffffffffffffffffffffffffffffff\n      and\n        /* \"contracts/Voting.sol\":5913:5917  vote */\n      dup4\n        /* \"contracts/Voting.sol\":5913:5927  vote.timestamp */\n      0x01\n      add\n      sload\n        /* \"contracts/Voting.sol\":5872:5928  VoteCast(msg.sender, candidate._address, vote.timestamp) */\n      mload(0x40)\n      tag_170\n      swap3\n      swap2\n      swap1\n      tag_77\n      jump\t// in\n    tag_170:\n      mload(0x40)\n      dup1\n      swap2\n      sub\n      swap1\n      log2\n        /* \"contracts/Voting.sol\":5422:5935  {... */\n      pop\n      pop\n        /* \"contracts/Voting.sol\":1846:1996  {... */\n      pop\n        /* \"contracts/Voting.sol\":1788:1789  _ */\n      pop\n        /* \"contracts/Voting.sol\":5282:5935  function castVote(address _address)... */\n      pop\n      jump\t// out\n        /* \"contracts/Voting.sol\":520:545  uint256 public endingTime */\n    tag_54:\n      sload(0x01)\n      dup2\n      jump\t// out\n        /* \"contracts/Voting.sol\":642:689  mapping(address => Candidate) public candidates */\n    tag_58:\n      mstore(0x20, 0x04)\n      dup1\n      0x00\n      mstore\n      keccak256(0x00, 0x40)\n      0x00\n      swap2\n      pop\n      swap1\n      pop\n      dup1\n      0x00\n      add\n      0x00\n      swap1\n      sload\n      swap1\n      0x0100\n      exp\n      swap1\n      div\n      0xffffffffffffffffffffffffffffffffffffffff\n      and\n      swap1\n      dup1\n      0x01\n      add\n      dup1\n      sload\n      tag_171\n      swap1\n      tag_136\n      jump\t// in\n    tag_171:\n      dup1\n      0x1f\n      add\n      0x20\n      dup1\n      swap2\n      div\n      mul\n      0x20\n      add\n      mload(0x40)\n      swap1\n      dup2\n      add\n      0x40\n      mstore\n      dup1\n      swap3\n      swap2\n      swap1\n      dup2\n      dup2\n      mstore\n      0x20\n      add\n      dup3\n      dup1\n      sload\n      tag_172\n      swap1\n      tag_136\n      jump\t// in\n    tag_172:\n      dup1\n      iszero\n      tag_173\n      jumpi\n      dup1\n      0x1f\n      lt\n      tag_174\n      jumpi\n      0x0100\n      dup1\n      dup4\n      sload\n      div\n      mul\n      dup4\n      mstore\n      swap2\n      0x20\n      add\n      swap2\n      jump(tag_173)\n    tag_174:\n      dup3\n      add\n      swap2\n      swap1\n      0x00\n      mstore\n      keccak256(0x00, 0x20)\n      swap1\n    tag_175:\n      dup2\n      sload\n      dup2\n      mstore\n      swap1\n      0x01\n      add\n      swap1\n      0x20\n      add\n      dup1\n      dup4\n      gt\n      tag_175\n      jumpi\n      dup3\n      swap1\n      sub\n      0x1f\n      and\n      dup3\n      add\n      swap2\n    tag_173:\n      pop\n      pop\n      pop\n      pop\n      pop\n      swap1\n      dup1\n      0x02\n      add\n      dup1\n      sload\n      tag_176\n      swap1\n      tag_136\n      jump\t// in\n    tag_176:\n      dup1\n      0x1f\n      add\n      0x20\n      dup1\n      swap2\n      div\n      mul\n      0x20\n      add\n      mload(0x40)\n      swap1\n      dup2\n      add\n      0x40\n      mstore\n      dup1\n      swap3\n      swap2\n      swap1\n      dup2\n      dup2\n      mstore\n      0x20\n      add\n      dup3\n      dup1\n      sload\n      tag_177\n      swap1\n      tag_136\n      jump\t// in\n    tag_177:\n      dup1\n      iszero\n      tag_178\n      jumpi\n      dup1\n      0x1f\n      lt\n      tag_179\n      jumpi\n      0x0100\n      dup1\n      dup4\n      sload\n      div\n      mul\n      dup4\n      mstore\n      swap2\n      0x20\n      add\n      swap2\n      jump(tag_178)\n    tag_179:\n      dup3\n      add\n      swap2\n      swap1\n      0x00\n      mstore\n      keccak256(0x00, 0x20)\n      swap1\n    tag_180:\n      dup2\n      sload\n      dup2\n      mstore\n      swap1\n      0x01\n      add\n      swap1\n      0x20\n      add\n      dup1\n      dup4\n      gt\n      tag_180\n      jumpi\n      dup3\n      swap1\n      sub\n      0x1f\n      and\n      dup3\n      add\n      swap2\n    tag_178:\n      pop\n      pop\n      pop\n      pop\n      pop\n      swap1\n      dup1\n      0x03\n      add\n      0x00\n      swap1\n      sload\n      swap1\n      0x0100\n      exp\n      swap1\n      div\n      0xff\n      and\n      swap1\n      pop\n      dup5\n      jump\t// out\n        /* \"contracts/Voting.sol\":577:597  address public owner */\n    tag_61:\n      0x02\n      0x01\n      swap1\n      sload\n      swap1\n      0x0100\n      exp\n      swap1\n      div\n      0xffffffffffffffffffffffffffffffffffffffff\n      and\n      dup2\n      jump\t// out\n        /* \"contracts/Voting.sol\":4837:5276  function toggleVoting() external onlyOwner votingDate {... */\n    tag_65:\n        /* \"contracts/Voting.sol\":1188:1193  owner */\n      0x02\n      0x01\n      swap1\n      sload\n      swap1\n      0x0100\n      exp\n      swap1\n      div\n      0xffffffffffffffffffffffffffffffffffffffff\n      and\n        /* \"contracts/Voting.sol\":1174:1193  msg.sender == owner */\n      0xffffffffffffffffffffffffffffffffffffffff\n      and\n        /* \"contracts/Voting.sol\":1174:1184  msg.sender */\n      caller\n        /* \"contracts/Voting.sol\":1174:1193  msg.sender == owner */\n      0xffffffffffffffffffffffffffffffffffffffff\n      and\n      eq\n        /* \"contracts/Voting.sol\":1166:1235  require(msg.sender == owner, \"Only the owner can call this function\") */\n      tag_182\n      jumpi\n      mload(0x40)\n      0x08c379a000000000000000000000000000000000000000000000000000000000\n      dup2\n      mstore\n      0x04\n      add\n      tag_183\n      swap1\n      tag_94\n      jump\t// in\n    tag_183:\n      mload(0x40)\n      dup1\n      swap2\n      sub\n      swap1\n      revert\n    tag_182:\n        /* \"contracts/Voting.sol\":1313:1314  0 */\n      0x00\n        /* \"contracts/Voting.sol\":1298:1310  startingTime */\n      dup1\n      sload\n        /* \"contracts/Voting.sol\":1298:1314  startingTime > 0 */\n      gt\n        /* \"contracts/Voting.sol\":1290:1345  require(startingTime > 0, \"Starting time is required!\") */\n      tag_185\n      jumpi\n      mload(0x40)\n      0x08c379a000000000000000000000000000000000000000000000000000000000\n      dup2\n      mstore\n      0x04\n      add\n      tag_186\n      swap1\n      tag_187\n      jump\t// in\n    tag_186:\n      mload(0x40)\n      dup1\n      swap2\n      sub\n      swap1\n      revert\n    tag_185:\n        /* \"contracts/Voting.sol\":1376:1377  0 */\n      0x00\n        /* \"contracts/Voting.sol\":1363:1373  endingTime */\n      sload(0x01)\n        /* \"contracts/Voting.sol\":1363:1377  endingTime > 0 */\n      gt\n        /* \"contracts/Voting.sol\":1355:1406  require(endingTime > 0, \"Ending time is required!\") */\n      tag_188\n      jumpi\n      mload(0x40)\n      0x08c379a000000000000000000000000000000000000000000000000000000000\n      dup2\n      mstore\n      0x04\n      add\n      tag_189\n      swap1\n      tag_190\n      jump\t// in\n    tag_189:\n      mload(0x40)\n      dup1\n      swap2\n      sub\n      swap1\n      revert\n    tag_188:\n        /* \"contracts/Voting.sol\":1437:1452  block.timestamp */\n      timestamp\n        /* \"contracts/Voting.sol\":1424:1434  endingTime */\n      sload(0x01)\n        /* \"contracts/Voting.sol\":1424:1452  endingTime > block.timestamp */\n      gt\n        /* \"contracts/Voting.sol\":1416:1477  require(endingTime > block.timestamp, \"Voting time is ended\") */\n      tag_191\n      jumpi\n      mload(0x40)\n      0x08c379a000000000000000000000000000000000000000000000000000000000\n      dup2\n      mstore\n      0x04\n      add\n      tag_192\n      swap1\n      tag_193\n      jump\t// in\n    tag_192:\n      mload(0x40)\n      dup1\n      swap2\n      sub\n      swap1\n      revert\n    tag_191:\n        /* \"contracts/Voting.sol\":4906:4914  isVoting */\n      0x02\n      0x00\n      swap1\n      sload\n      swap1\n      0x0100\n      exp\n      swap1\n      div\n      0xff\n      and\n        /* \"contracts/Voting.sol\":4901:5214  if (!isVoting) {... */\n      tag_195\n      jumpi\n        /* \"contracts/Voting.sol\":4974:4986  startingTime */\n      sload(0x00)\n        /* \"contracts/Voting.sol\":4955:4970  block.timestamp */\n      timestamp\n        /* \"contracts/Voting.sol\":4955:4986  block.timestamp >= startingTime */\n      lt\n      iszero\n        /* \"contracts/Voting.sol\":4930:5045  require(... */\n      tag_196\n      jumpi\n      mload(0x40)\n      0x08c379a000000000000000000000000000000000000000000000000000000000\n      dup2\n      mstore\n      0x04\n      add\n      tag_197\n      swap1\n      tag_198\n      jump\t// in\n    tag_197:\n      mload(0x40)\n      dup1\n      swap2\n      sub\n      swap1\n      revert\n    tag_196:\n        /* \"contracts/Voting.sol\":5070:5074  true */\n      0x01\n        /* \"contracts/Voting.sol\":5059:5067  isVoting */\n      0x02\n      0x00\n        /* \"contracts/Voting.sol\":5059:5074  isVoting = true */\n      0x0100\n      exp\n      dup2\n      sload\n      dup2\n      0xff\n      mul\n      not\n      and\n      swap1\n      dup4\n      iszero\n      iszero\n      mul\n      or\n      swap1\n      sstore\n      pop\n        /* \"contracts/Voting.sol\":4901:5214  if (!isVoting) {... */\n      jump(tag_199)\n    tag_195:\n        /* \"contracts/Voting.sol\":5198:5203  false */\n      0x00\n        /* \"contracts/Voting.sol\":5187:5195  isVoting */\n      0x02\n      0x00\n        /* \"contracts/Voting.sol\":5187:5203  isVoting = false */\n      0x0100\n      exp\n      dup2\n      sload\n      dup2\n      0xff\n      mul\n      not\n      and\n      swap1\n      dup4\n      iszero\n      iszero\n      mul\n      or\n      swap1\n      sstore\n      pop\n        /* \"contracts/Voting.sol\":4901:5214  if (!isVoting) {... */\n    tag_199:\n        /* \"contracts/Voting.sol\":5228:5269  VotingStatusChanged(isVoting, msg.sender) */\n      0xba8599342b44e2c0b69a45b40b47f660e309d28ec3d9ce8262d4a783355e65a4\n        /* \"contracts/Voting.sol\":5248:5256  isVoting */\n      0x02\n      0x00\n      swap1\n      sload\n      swap1\n      0x0100\n      exp\n      swap1\n      div\n      0xff\n      and\n        /* \"contracts/Voting.sol\":5258:5268  msg.sender */\n      caller\n        /* \"contracts/Voting.sol\":5228:5269  VotingStatusChanged(isVoting, msg.sender) */\n      mload(0x40)\n      tag_200\n      swap3\n      swap2\n      swap1\n      tag_201\n      jump\t// in\n    tag_200:\n      mload(0x40)\n      dup1\n      swap2\n      sub\n      swap1\n      log1\n        /* \"contracts/Voting.sol\":4837:5276  function toggleVoting() external onlyOwner votingDate {... */\n      jump\t// out\n        /* \"contracts/Voting.sol\":6298:6824  function getCandidatesVotes() public view returns (CandidateVote[] memory) {... */\n    tag_67:\n        /* \"contracts/Voting.sol\":6349:6371  CandidateVote[] memory */\n      0x60\n        /* \"contracts/Voting.sol\":6383:6416  CandidateVote[] memory totalVotes */\n      0x00\n        /* \"contracts/Voting.sol\":6452:6466  candidatesData */\n      0x03\n        /* \"contracts/Voting.sol\":6452:6473  candidatesData.length */\n      dup1\n      sload\n      swap1\n      pop\n        /* \"contracts/Voting.sol\":6419:6483  new CandidateVote[](... */\n      0xffffffffffffffff\n      dup2\n      gt\n      iszero\n      tag_203\n      jumpi\n      tag_204\n      tag_205\n      jump\t// in\n    tag_204:\n    tag_203:\n      mload(0x40)\n      swap1\n      dup1\n      dup3\n      mstore\n      dup1\n      0x20\n      mul\n      0x20\n      add\n      dup3\n      add\n      0x40\n      mstore\n      dup1\n      iszero\n      tag_206\n      jumpi\n      dup2\n      0x20\n      add\n    tag_207:\n      tag_208\n      tag_209\n      jump\t// in\n    tag_208:\n      dup2\n      mstore\n      0x20\n      add\n      swap1\n      0x01\n      swap1\n      sub\n      swap1\n      dup2\n      tag_207\n      jumpi\n      swap1\n      pop\n    tag_206:\n      pop\n        /* \"contracts/Voting.sol\":6383:6483  CandidateVote[] memory totalVotes = new CandidateVote[](... */\n      swap1\n      pop\n        /* \"contracts/Voting.sol\":6499:6508  uint256 i */\n      0x00\n        /* \"contracts/Voting.sol\":6494:6790  for (uint256 i = 0; i < candidatesData.length; i++) {... */\n    tag_210:\n        /* \"contracts/Voting.sol\":6518:6532  candidatesData */\n      0x03\n        /* \"contracts/Voting.sol\":6518:6539  candidatesData.length */\n      dup1\n      sload\n      swap1\n      pop\n        /* \"contracts/Voting.sol\":6514:6515  i */\n      dup2\n        /* \"contracts/Voting.sol\":6514:6539  i < candidatesData.length */\n      lt\n        /* \"contracts/Voting.sol\":6494:6790  for (uint256 i = 0; i < candidatesData.length; i++) {... */\n      iszero\n      tag_211\n      jumpi\n        /* \"contracts/Voting.sol\":6560:6586  Candidate memory candidate */\n      0x00\n        /* \"contracts/Voting.sol\":6589:6603  candidatesData */\n      0x03\n        /* \"contracts/Voting.sol\":6604:6605  i */\n      dup3\n        /* \"contracts/Voting.sol\":6589:6606  candidatesData[i] */\n      dup2\n      sload\n      dup2\n      lt\n      tag_213\n      jumpi\n      tag_214\n      tag_215\n      jump\t// in\n    tag_214:\n    tag_213:\n      swap1\n      0x00\n      mstore\n      keccak256(0x00, 0x20)\n      swap1\n      0x04\n      mul\n      add\n        /* \"contracts/Voting.sol\":6560:6606  Candidate memory candidate = candidatesData[i] */\n      mload(0x40)\n      dup1\n      0x80\n      add\n      0x40\n      mstore\n      swap1\n      dup2\n      0x00\n      dup3\n      add\n      0x00\n      swap1\n      sload\n      swap1\n      0x0100\n      exp\n      swap1\n      div\n      0xffffffffffffffffffffffffffffffffffffffff\n      and\n      0xffffffffffffffffffffffffffffffffffffffff\n      and\n      0xffffffffffffffffffffffffffffffffffffffff\n      and\n      dup2\n      mstore\n      0x20\n      add\n      0x01\n      dup3\n      add\n      dup1\n      sload\n      tag_217\n      swap1\n      tag_136\n      jump\t// in\n    tag_217:\n      dup1\n      0x1f\n      add\n      0x20\n      dup1\n      swap2\n      div\n      mul\n      0x20\n      add\n      mload(0x40)\n      swap1\n      dup2\n      add\n      0x40\n      mstore\n      dup1\n      swap3\n      swap2\n      swap1\n      dup2\n      dup2\n      mstore\n      0x20\n      add\n      dup3\n      dup1\n      sload\n      tag_218\n      swap1\n      tag_136\n      jump\t// in\n    tag_218:\n      dup1\n      iszero\n      tag_219\n      jumpi\n      dup1\n      0x1f\n      lt\n      tag_220\n      jumpi\n      0x0100\n      dup1\n      dup4\n      sload\n      div\n      mul\n      dup4\n      mstore\n      swap2\n      0x20\n      add\n      swap2\n      jump(tag_219)\n    tag_220:\n      dup3\n      add\n      swap2\n      swap1\n      0x00\n      mstore\n      keccak256(0x00, 0x20)\n      swap1\n    tag_221:\n      dup2\n      sload\n      dup2\n      mstore\n      swap1\n      0x01\n      add\n      swap1\n      0x20\n      add\n      dup1\n      dup4\n      gt\n      tag_221\n      jumpi\n      dup3\n      swap1\n      sub\n      0x1f\n      and\n      dup3\n      add\n      swap2\n    tag_219:\n      pop\n      pop\n      pop\n      pop\n      pop\n      dup2\n      mstore\n      0x20\n      add\n      0x02\n      dup3\n      add\n      dup1\n      sload\n      tag_222\n      swap1\n      tag_136\n      jump\t// in\n    tag_222:\n      dup1\n      0x1f\n      add\n      0x20\n      dup1\n      swap2\n      div\n      mul\n      0x20\n      add\n      mload(0x40)\n      swap1\n      dup2\n      add\n      0x40\n      mstore\n      dup1\n      swap3\n      swap2\n      swap1\n      dup2\n      dup2\n      mstore\n      0x20\n      add\n      dup3\n      dup1\n      sload\n      tag_223\n      swap1\n      tag_136\n      jump\t// in\n    tag_223:\n      dup1\n      iszero\n      tag_224\n      jumpi\n      dup1\n      0x1f\n      lt\n      tag_225\n      jumpi\n      0x0100\n      dup1\n      dup4\n      sload\n      div\n      mul\n      dup4\n      mstore\n      swap2\n      0x20\n      add\n      swap2\n      jump(tag_224)\n    tag_225:\n      dup3\n      add\n      swap2\n      swap1\n      0x00\n      mstore\n      keccak256(0x00, 0x20)\n      swap1\n    tag_226:\n      dup2\n      sload\n      dup2\n      mstore\n      swap1\n      0x01\n      add\n      swap1\n      0x20\n      add\n      dup1\n      dup4\n      gt\n      tag_226\n      jumpi\n      dup3\n      swap1\n      sub\n      0x1f\n      and\n      dup3\n      add\n      swap2\n    tag_224:\n      pop\n      pop\n      pop\n      pop\n      pop\n      dup2\n      mstore\n      0x20\n      add\n      0x03\n      dup3\n      add\n      0x00\n      swap1\n      sload\n      swap1\n      0x0100\n      exp\n      swap1\n      div\n      0xff\n      and\n      0x02\n      dup2\n      gt\n      iszero\n      tag_227\n      jumpi\n      tag_228\n      tag_105\n      jump\t// in\n    tag_228:\n    tag_227:\n      0x02\n      dup2\n      gt\n      iszero\n      tag_229\n      jumpi\n      tag_230\n      tag_105\n      jump\t// in\n    tag_230:\n    tag_229:\n      dup2\n      mstore\n      pop\n      pop\n      swap1\n      pop\n        /* \"contracts/Voting.sol\":6636:6779  CandidateVote(... */\n      mload(0x40)\n      dup1\n      0x60\n      add\n      0x40\n      mstore\n      dup1\n        /* \"contracts/Voting.sol\":6667:6676  candidate */\n      dup3\n        /* \"contracts/Voting.sol\":6667:6685  candidate._address */\n      0x00\n      add\n      mload\n        /* \"contracts/Voting.sol\":6636:6779  CandidateVote(... */\n      0xffffffffffffffffffffffffffffffffffffffff\n      and\n      dup2\n      mstore\n      0x20\n      add\n        /* \"contracts/Voting.sol\":6703:6718  candidatesVotes */\n      0x07\n        /* \"contracts/Voting.sol\":6703:6738  candidatesVotes[candidate._address] */\n      0x00\n        /* \"contracts/Voting.sol\":6719:6728  candidate */\n      dup5\n        /* \"contracts/Voting.sol\":6719:6737  candidate._address */\n      0x00\n      add\n      mload\n        /* \"contracts/Voting.sol\":6703:6738  candidatesVotes[candidate._address] */\n      0xffffffffffffffffffffffffffffffffffffffff\n      and\n      0xffffffffffffffffffffffffffffffffffffffff\n      and\n      dup2\n      mstore\n      0x20\n      add\n      swap1\n      dup2\n      mstore\n      0x20\n      add\n      0x00\n      keccak256\n      sload\n        /* \"contracts/Voting.sol\":6636:6779  CandidateVote(... */\n      dup2\n      mstore\n      0x20\n      add\n        /* \"contracts/Voting.sol\":6756:6765  candidate */\n      dup3\n        /* \"contracts/Voting.sol\":6636:6779  CandidateVote(... */\n      dup2\n      mstore\n      pop\n        /* \"contracts/Voting.sol\":6620:6630  totalVotes */\n      dup4\n        /* \"contracts/Voting.sol\":6631:6632  i */\n      dup4\n        /* \"contracts/Voting.sol\":6620:6633  totalVotes[i] */\n      dup2\n      mload\n      dup2\n      lt\n      tag_231\n      jumpi\n      tag_232\n      tag_215\n      jump\t// in\n    tag_232:\n    tag_231:\n      0x20\n      mul\n      0x20\n      add\n      add\n        /* \"contracts/Voting.sol\":6620:6779  totalVotes[i] = CandidateVote(... */\n      dup2\n      swap1\n      mstore\n      pop\n        /* \"contracts/Voting.sol\":6546:6790  {... */\n      pop\n        /* \"contracts/Voting.sol\":6541:6544  i++ */\n      dup1\n      dup1\n      0x01\n      add\n      swap2\n      pop\n      pop\n        /* \"contracts/Voting.sol\":6494:6790  for (uint256 i = 0; i < candidatesData.length; i++) {... */\n      jump(tag_210)\n    tag_211:\n      pop\n        /* \"contracts/Voting.sol\":6807:6817  totalVotes */\n      dup1\n        /* \"contracts/Voting.sol\":6800:6817  return totalVotes */\n      swap2\n      pop\n      pop\n        /* \"contracts/Voting.sol\":6298:6824  function getCandidatesVotes() public view returns (CandidateVote[] memory) {... */\n      swap1\n      jump\t// out\n        /* \"contracts/Voting.sol\":4520:4831  function blockCandidate(address _address)... */\n    tag_72:\n        /* \"contracts/Voting.sol\":1188:1193  owner */\n      0x02\n      0x01\n      swap1\n      sload\n      swap1\n      0x0100\n      exp\n      swap1\n      div\n      0xffffffffffffffffffffffffffffffffffffffff\n      and\n        /* \"contracts/Voting.sol\":1174:1193  msg.sender == owner */\n      0xffffffffffffffffffffffffffffffffffffffff\n      and\n        /* \"contracts/Voting.sol\":1174:1184  msg.sender */\n      caller\n        /* \"contracts/Voting.sol\":1174:1193  msg.sender == owner */\n      0xffffffffffffffffffffffffffffffffffffffff\n      and\n      eq\n        /* \"contracts/Voting.sol\":1166:1235  require(msg.sender == owner, \"Only the owner can call this function\") */\n      tag_234\n      jumpi\n      mload(0x40)\n      0x08c379a000000000000000000000000000000000000000000000000000000000\n      dup2\n      mstore\n      0x04\n      add\n      tag_235\n      swap1\n      tag_94\n      jump\t// in\n    tag_235:\n      mload(0x40)\n      dup1\n      swap2\n      sub\n      swap1\n      revert\n    tag_234:\n        /* \"contracts/Voting.sol\":4622:4630  _address */\n      dup1\n        /* \"contracts/Voting.sol\":1856:1883  Candidate storage candidate */\n      0x00\n        /* \"contracts/Voting.sol\":1886:1896  candidates */\n      0x04\n        /* \"contracts/Voting.sol\":1886:1906  candidates[_address] */\n      0x00\n        /* \"contracts/Voting.sol\":1897:1905  _address */\n      dup4\n        /* \"contracts/Voting.sol\":1886:1906  candidates[_address] */\n      0xffffffffffffffffffffffffffffffffffffffff\n      and\n      0xffffffffffffffffffffffffffffffffffffffff\n      and\n      dup2\n      mstore\n      0x20\n      add\n      swap1\n      dup2\n      mstore\n      0x20\n      add\n      0x00\n      keccak256\n        /* \"contracts/Voting.sol\":1856:1906  Candidate storage candidate = candidates[_address] */\n      swap1\n      pop\n        /* \"contracts/Voting.sol\":1946:1954  _address */\n      dup2\n        /* \"contracts/Voting.sol\":1924:1954  candidate._address == _address */\n      0xffffffffffffffffffffffffffffffffffffffff\n      and\n        /* \"contracts/Voting.sol\":1924:1933  candidate */\n      dup2\n        /* \"contracts/Voting.sol\":1924:1942  candidate._address */\n      0x00\n      add\n      0x00\n      swap1\n      sload\n      swap1\n      0x0100\n      exp\n      swap1\n      div\n      0xffffffffffffffffffffffffffffffffffffffff\n      and\n        /* \"contracts/Voting.sol\":1924:1954  candidate._address == _address */\n      0xffffffffffffffffffffffffffffffffffffffff\n      and\n      eq\n        /* \"contracts/Voting.sol\":1916:1978  require(candidate._address == _address, \"Candidate not found\") */\n      tag_237\n      jumpi\n      mload(0x40)\n      0x08c379a000000000000000000000000000000000000000000000000000000000\n      dup2\n      mstore\n      0x04\n      add\n      tag_238\n      swap1\n      tag_98\n      jump\t// in\n    tag_238:\n      mload(0x40)\n      dup1\n      swap2\n      sub\n      swap1\n      revert\n    tag_237:\n        /* \"contracts/Voting.sol\":4646:4673  Candidate storage candidate */\n      0x00\n        /* \"contracts/Voting.sol\":4676:4686  candidates */\n      0x04\n        /* \"contracts/Voting.sol\":4676:4696  candidates[_address] */\n      0x00\n        /* \"contracts/Voting.sol\":4687:4695  _address */\n      dup6\n        /* \"contracts/Voting.sol\":4676:4696  candidates[_address] */\n      0xffffffffffffffffffffffffffffffffffffffff\n      and\n      0xffffffffffffffffffffffffffffffffffffffff\n      and\n      dup2\n      mstore\n      0x20\n      add\n      swap1\n      dup2\n      mstore\n      0x20\n      add\n      0x00\n      keccak256\n        /* \"contracts/Voting.sol\":4646:4696  Candidate storage candidate = candidates[_address] */\n      swap1\n      pop\n        /* \"contracts/Voting.sol\":4734:4755  CandidateStatus.BLOCK */\n      0x02\n        /* \"contracts/Voting.sol\":4714:4755  candidate.status != CandidateStatus.BLOCK */\n      dup1\n      dup2\n      gt\n      iszero\n      tag_240\n      jumpi\n      tag_241\n      tag_105\n      jump\t// in\n    tag_241:\n    tag_240:\n        /* \"contracts/Voting.sol\":4714:4723  candidate */\n      dup2\n        /* \"contracts/Voting.sol\":4714:4730  candidate.status */\n      0x03\n      add\n      0x00\n      swap1\n      sload\n      swap1\n      0x0100\n      exp\n      swap1\n      div\n      0xff\n      and\n        /* \"contracts/Voting.sol\":4714:4755  candidate.status != CandidateStatus.BLOCK */\n      0x02\n      dup2\n      gt\n      iszero\n      tag_242\n      jumpi\n      tag_243\n      tag_105\n      jump\t// in\n    tag_243:\n    tag_242:\n      sub\n        /* \"contracts/Voting.sol\":4706:4774  require(candidate.status != CandidateStatus.BLOCK, \"Already Block!\") */\n      tag_244\n      jumpi\n      mload(0x40)\n      0x08c379a000000000000000000000000000000000000000000000000000000000\n      dup2\n      mstore\n      0x04\n      add\n      tag_245\n      swap1\n      tag_246\n      jump\t// in\n    tag_245:\n      mload(0x40)\n      dup1\n      swap2\n      sub\n      swap1\n      revert\n    tag_244:\n        /* \"contracts/Voting.sol\":4803:4824  CandidateStatus.BLOCK */\n      0x02\n        /* \"contracts/Voting.sol\":4784:4793  candidate */\n      dup2\n        /* \"contracts/Voting.sol\":4784:4800  candidate.status */\n      0x03\n      add\n      0x00\n        /* \"contracts/Voting.sol\":4784:4824  candidate.status = CandidateStatus.BLOCK */\n      0x0100\n      exp\n      dup2\n      sload\n      dup2\n      0xff\n      mul\n      not\n      and\n      swap1\n      dup4\n      0x02\n      dup2\n      gt\n      iszero\n      tag_247\n      jumpi\n      tag_248\n      tag_105\n      jump\t// in\n    tag_248:\n    tag_247:\n      mul\n      or\n      swap1\n      sstore\n      pop\n        /* \"contracts/Voting.sol\":4636:4831  {... */\n      pop\n        /* \"contracts/Voting.sol\":1846:1996  {... */\n      pop\n        /* \"contracts/Voting.sol\":1245:1246  _ */\n      pop\n        /* \"contracts/Voting.sol\":4520:4831  function blockCandidate(address _address)... */\n      pop\n      jump\t// out\n        /* \"contracts/Voting.sol\":749:786  mapping(address => Vote) public votes */\n    tag_75:\n      mstore(0x20, 0x06)\n      dup1\n      0x00\n      mstore\n      keccak256(0x00, 0x40)\n      0x00\n      swap2\n      pop\n      swap1\n      pop\n      dup1\n      0x00\n      add\n      0x00\n      swap1\n      sload\n      swap1\n      0x0100\n      exp\n      swap1\n      div\n      0xffffffffffffffffffffffffffffffffffffffff\n      and\n      swap1\n      dup1\n      0x01\n      add\n      sload\n      swap1\n      pop\n      dup3\n      jump\t// out\n        /* \"contracts/Voting.sol\":2313:3294  function addCandidate(... */\n    tag_80:\n        /* \"contracts/Voting.sol\":1188:1193  owner */\n      0x02\n      0x01\n      swap1\n      sload\n      swap1\n      0x0100\n      exp\n      swap1\n      div\n      0xffffffffffffffffffffffffffffffffffffffff\n      and\n        /* \"contracts/Voting.sol\":1174:1193  msg.sender == owner */\n      0xffffffffffffffffffffffffffffffffffffffff\n      and\n        /* \"contracts/Voting.sol\":1174:1184  msg.sender */\n      caller\n        /* \"contracts/Voting.sol\":1174:1193  msg.sender == owner */\n      0xffffffffffffffffffffffffffffffffffffffff\n      and\n      eq\n        /* \"contracts/Voting.sol\":1166:1235  require(msg.sender == owner, \"Only the owner can call this function\") */\n      tag_250\n      jumpi\n      mload(0x40)\n      0x08c379a000000000000000000000000000000000000000000000000000000000\n      dup2\n      mstore\n      0x04\n      add\n      tag_251\n      swap1\n      tag_94\n      jump\t// in\n    tag_251:\n      mload(0x40)\n      dup1\n      swap2\n      sub\n      swap1\n      revert\n    tag_250:\n        /* \"contracts/Voting.sol\":2498:2508  msg.sender */\n      caller\n        /* \"contracts/Voting.sol\":2477:2508  _candidateAddress != msg.sender */\n      0xffffffffffffffffffffffffffffffffffffffff\n      and\n        /* \"contracts/Voting.sol\":2477:2494  _candidateAddress */\n      dup4\n        /* \"contracts/Voting.sol\":2477:2508  _candidateAddress != msg.sender */\n      0xffffffffffffffffffffffffffffffffffffffff\n      and\n      sub\n        /* \"contracts/Voting.sol\":2469:2540  require(_candidateAddress != msg.sender, \"Owner cannot be a candidate\") */\n      tag_253\n      jumpi\n      mload(0x40)\n      0x08c379a000000000000000000000000000000000000000000000000000000000\n      dup2\n      mstore\n      0x04\n      add\n      tag_254\n      swap1\n      tag_255\n      jump\t// in\n    tag_254:\n      mload(0x40)\n      dup1\n      swap2\n      sub\n      swap1\n      revert\n    tag_253:\n        /* \"contracts/Voting.sol\":2559:2567  isVoting */\n      0x02\n      0x00\n      swap1\n      sload\n      swap1\n      0x0100\n      exp\n      swap1\n      div\n      0xff\n      and\n        /* \"contracts/Voting.sol\":2558:2567  !isVoting */\n      iszero\n        /* \"contracts/Voting.sol\":2550:2618  require(!isVoting, \"Cannot add candidates after voting has started\") */\n      tag_256\n      jumpi\n      mload(0x40)\n      0x08c379a000000000000000000000000000000000000000000000000000000000\n      dup2\n      mstore\n      0x04\n      add\n      tag_257\n      swap1\n      tag_258\n      jump\t// in\n    tag_257:\n      mload(0x40)\n      dup1\n      swap2\n      sub\n      swap1\n      revert\n    tag_256:\n        /* \"contracts/Voting.sol\":2628:2655  Candidate storage candidate */\n      0x00\n        /* \"contracts/Voting.sol\":2658:2668  candidates */\n      0x04\n        /* \"contracts/Voting.sol\":2658:2687  candidates[_candidateAddress] */\n      0x00\n        /* \"contracts/Voting.sol\":2669:2686  _candidateAddress */\n      dup6\n        /* \"contracts/Voting.sol\":2658:2687  candidates[_candidateAddress] */\n      0xffffffffffffffffffffffffffffffffffffffff\n      and\n      0xffffffffffffffffffffffffffffffffffffffff\n      and\n      dup2\n      mstore\n      0x20\n      add\n      swap1\n      dup2\n      mstore\n      0x20\n      add\n      0x00\n      keccak256\n        /* \"contracts/Voting.sol\":2628:2687  Candidate storage candidate = candidates[_candidateAddress] */\n      swap1\n      pop\n        /* \"contracts/Voting.sol\":2740:2757  _candidateAddress */\n      dup4\n        /* \"contracts/Voting.sol\":2718:2757  candidate._address != _candidateAddress */\n      0xffffffffffffffffffffffffffffffffffffffff\n      and\n        /* \"contracts/Voting.sol\":2718:2727  candidate */\n      dup2\n        /* \"contracts/Voting.sol\":2718:2736  candidate._address */\n      0x00\n      add\n      0x00\n      swap1\n      sload\n      swap1\n      0x0100\n      exp\n      swap1\n      div\n      0xffffffffffffffffffffffffffffffffffffffff\n      and\n        /* \"contracts/Voting.sol\":2718:2757  candidate._address != _candidateAddress */\n      0xffffffffffffffffffffffffffffffffffffffff\n      and\n      sub\n        /* \"contracts/Voting.sol\":2697:2807  require(... */\n      tag_259\n      jumpi\n      mload(0x40)\n      0x08c379a000000000000000000000000000000000000000000000000000000000\n      dup2\n      mstore\n      0x04\n      add\n      tag_260\n      swap1\n      tag_261\n      jump\t// in\n    tag_260:\n      mload(0x40)\n      dup1\n      swap2\n      sub\n      swap1\n      revert\n    tag_259:\n        /* \"contracts/Voting.sol\":2850:2981  Candidate(... */\n      mload(0x40)\n      dup1\n      0x80\n      add\n      0x40\n      mstore\n      dup1\n        /* \"contracts/Voting.sol\":2873:2890  _candidateAddress */\n      dup6\n        /* \"contracts/Voting.sol\":2850:2981  Candidate(... */\n      0xffffffffffffffffffffffffffffffffffffffff\n      and\n      dup2\n      mstore\n      0x20\n      add\n        /* \"contracts/Voting.sol\":2904:2909  _name */\n      dup5\n        /* \"contracts/Voting.sol\":2850:2981  Candidate(... */\n      dup2\n      mstore\n      0x20\n      add\n        /* \"contracts/Voting.sol\":2923:2934  _profession */\n      dup4\n        /* \"contracts/Voting.sol\":2850:2981  Candidate(... */\n      dup2\n      mstore\n      0x20\n      add\n        /* \"contracts/Voting.sol\":2948:2971  CandidateStatus.PENDING */\n      0x01\n        /* \"contracts/Voting.sol\":2850:2981  Candidate(... */\n      0x02\n      dup2\n      gt\n      iszero\n      tag_262\n      jumpi\n      tag_263\n      tag_105\n      jump\t// in\n    tag_263:\n    tag_262:\n      dup2\n      mstore\n      pop\n        /* \"contracts/Voting.sol\":2818:2828  candidates */\n      0x04\n        /* \"contracts/Voting.sol\":2818:2847  candidates[_candidateAddress] */\n      0x00\n        /* \"contracts/Voting.sol\":2829:2846  _candidateAddress */\n      dup7\n        /* \"contracts/Voting.sol\":2818:2847  candidates[_candidateAddress] */\n      0xffffffffffffffffffffffffffffffffffffffff\n      and\n      0xffffffffffffffffffffffffffffffffffffffff\n      and\n      dup2\n      mstore\n      0x20\n      add\n      swap1\n      dup2\n      mstore\n      0x20\n      add\n      0x00\n      keccak256\n        /* \"contracts/Voting.sol\":2818:2981  candidates[_candidateAddress] = Candidate(... */\n      0x00\n      dup3\n      add\n      mload\n      dup2\n      0x00\n      add\n      exp(0x0100, 0x00)\n      dup2\n      sload\n      dup2\n      0xffffffffffffffffffffffffffffffffffffffff\n      mul\n      not\n      and\n      swap1\n      dup4\n      0xffffffffffffffffffffffffffffffffffffffff\n      and\n      mul\n      or\n      swap1\n      sstore\n      pop\n      0x20\n      dup3\n      add\n      mload\n      dup2\n      0x01\n      add\n      swap1\n      dup2\n      tag_264\n      swap2\n      swap1\n      tag_107\n      jump\t// in\n    tag_264:\n      pop\n      0x40\n      dup3\n      add\n      mload\n      dup2\n      0x02\n      add\n      swap1\n      dup2\n      tag_265\n      swap2\n      swap1\n      tag_107\n      jump\t// in\n    tag_265:\n      pop\n      0x60\n      dup3\n      add\n      mload\n      dup2\n      0x03\n      add\n      exp(0x0100, 0x00)\n      dup2\n      sload\n      dup2\n      0xff\n      mul\n      not\n      and\n      swap1\n      dup4\n      0x02\n      dup2\n      gt\n      iszero\n      tag_266\n      jumpi\n      tag_267\n      tag_105\n      jump\t// in\n    tag_267:\n    tag_266:\n      mul\n      or\n      swap1\n      sstore\n      pop\n      swap1\n      pop\n      pop\n        /* \"contracts/Voting.sol\":2991:3005  candidatesData */\n      0x03\n        /* \"contracts/Voting.sol\":3024:3175  Candidate(... */\n      mload(0x40)\n      dup1\n      0x80\n      add\n      0x40\n      mstore\n      dup1\n        /* \"contracts/Voting.sol\":3051:3068  _candidateAddress */\n      dup7\n        /* \"contracts/Voting.sol\":3024:3175  Candidate(... */\n      0xffffffffffffffffffffffffffffffffffffffff\n      and\n      dup2\n      mstore\n      0x20\n      add\n        /* \"contracts/Voting.sol\":3086:3091  _name */\n      dup6\n        /* \"contracts/Voting.sol\":3024:3175  Candidate(... */\n      dup2\n      mstore\n      0x20\n      add\n        /* \"contracts/Voting.sol\":3109:3120  _profession */\n      dup5\n        /* \"contracts/Voting.sol\":3024:3175  Candidate(... */\n      dup2\n      mstore\n      0x20\n      add\n        /* \"contracts/Voting.sol\":3138:3161  CandidateStatus.PENDING */\n      0x01\n        /* \"contracts/Voting.sol\":3024:3175  Candidate(... */\n      0x02\n      dup2\n      gt\n      iszero\n      tag_268\n      jumpi\n      tag_269\n      tag_105\n      jump\t// in\n    tag_269:\n    tag_268:\n      dup2\n      mstore\n      pop\n        /* \"contracts/Voting.sol\":2991:3185  candidatesData.push(... */\n      swap1\n      dup1\n      0x01\n      dup2\n      sload\n      add\n      dup1\n      dup3\n      sstore\n      dup1\n      swap2\n      pop\n      pop\n      0x01\n      swap1\n      sub\n      swap1\n      0x00\n      mstore\n      keccak256(0x00, 0x20)\n      swap1\n      0x04\n      mul\n      add\n      0x00\n      swap1\n      swap2\n      swap1\n      swap2\n      swap1\n      swap2\n      pop\n      0x00\n      dup3\n      add\n      mload\n      dup2\n      0x00\n      add\n      exp(0x0100, 0x00)\n      dup2\n      sload\n      dup2\n      0xffffffffffffffffffffffffffffffffffffffff\n      mul\n      not\n      and\n      swap1\n      dup4\n      0xffffffffffffffffffffffffffffffffffffffff\n      and\n      mul\n      or\n      swap1\n      sstore\n      pop\n      0x20\n      dup3\n      add\n      mload\n      dup2\n      0x01\n      add\n      swap1\n      dup2\n      tag_271\n      swap2\n      swap1\n      tag_107\n      jump\t// in\n    tag_271:\n      pop\n      0x40\n      dup3\n      add\n      mload\n      dup2\n      0x02\n      add\n      swap1\n      dup2\n      tag_272\n      swap2\n      swap1\n      tag_107\n      jump\t// in\n    tag_272:\n      pop\n      0x60\n      dup3\n      add\n      mload\n      dup2\n      0x03\n      add\n      exp(0x0100, 0x00)\n      dup2\n      sload\n      dup2\n      0xff\n      mul\n      not\n      and\n      swap1\n      dup4\n      0x02\n      dup2\n      gt\n      iszero\n      tag_273\n      jumpi\n      tag_274\n      tag_105\n      jump\t// in\n    tag_274:\n    tag_273:\n      mul\n      or\n      swap1\n      sstore\n      pop\n      pop\n      pop\n        /* \"contracts/Voting.sol\":3254:3287  CandidateAdded(_candidateAddress) */\n      0xaa38be308bdffe126c2b6be720070355eb22e0efc549ac39221b1ce71642ed40\n        /* \"contracts/Voting.sol\":3269:3286  _candidateAddress */\n      dup5\n        /* \"contracts/Voting.sol\":3254:3287  CandidateAdded(_candidateAddress) */\n      mload(0x40)\n      tag_275\n      swap2\n      swap1\n      tag_63\n      jump\t// in\n    tag_275:\n      mload(0x40)\n      dup1\n      swap2\n      sub\n      swap1\n      log1\n        /* \"contracts/Voting.sol\":2459:3294  {... */\n      pop\n        /* \"contracts/Voting.sol\":2313:3294  function addCandidate(... */\n      pop\n      pop\n      pop\n      jump\t// out\n        /* \"contracts/Voting.sol\":4160:4514  function pendingCandidate(address _address)... */\n    tag_83:\n        /* \"contracts/Voting.sol\":1188:1193  owner */\n      0x02\n      0x01\n      swap1\n      sload\n      swap1\n      0x0100\n      exp\n      swap1\n      div\n      0xffffffffffffffffffffffffffffffffffffffff\n      and\n        /* \"contracts/Voting.sol\":1174:1193  msg.sender == owner */\n      0xffffffffffffffffffffffffffffffffffffffff\n      and\n        /* \"contracts/Voting.sol\":1174:1184  msg.sender */\n      caller\n        /* \"contracts/Voting.sol\":1174:1193  msg.sender == owner */\n      0xffffffffffffffffffffffffffffffffffffffff\n      and\n      eq\n        /* \"contracts/Voting.sol\":1166:1235  require(msg.sender == owner, \"Only the owner can call this function\") */\n      tag_277\n      jumpi\n      mload(0x40)\n      0x08c379a000000000000000000000000000000000000000000000000000000000\n      dup2\n      mstore\n      0x04\n      add\n      tag_278\n      swap1\n      tag_94\n      jump\t// in\n    tag_278:\n      mload(0x40)\n      dup1\n      swap2\n      sub\n      swap1\n      revert\n    tag_277:\n        /* \"contracts/Voting.sol\":4264:4272  _address */\n      dup1\n        /* \"contracts/Voting.sol\":1856:1883  Candidate storage candidate */\n      0x00\n        /* \"contracts/Voting.sol\":1886:1896  candidates */\n      0x04\n        /* \"contracts/Voting.sol\":1886:1906  candidates[_address] */\n      0x00\n        /* \"contracts/Voting.sol\":1897:1905  _address */\n      dup4\n        /* \"contracts/Voting.sol\":1886:1906  candidates[_address] */\n      0xffffffffffffffffffffffffffffffffffffffff\n      and\n      0xffffffffffffffffffffffffffffffffffffffff\n      and\n      dup2\n      mstore\n      0x20\n      add\n      swap1\n      dup2\n      mstore\n      0x20\n      add\n      0x00\n      keccak256\n        /* \"contracts/Voting.sol\":1856:1906  Candidate storage candidate = candidates[_address] */\n      swap1\n      pop\n        /* \"contracts/Voting.sol\":1946:1954  _address */\n      dup2\n        /* \"contracts/Voting.sol\":1924:1954  candidate._address == _address */\n      0xffffffffffffffffffffffffffffffffffffffff\n      and\n        /* \"contracts/Voting.sol\":1924:1933  candidate */\n      dup2\n        /* \"contracts/Voting.sol\":1924:1942  candidate._address */\n      0x00\n      add\n      0x00\n      swap1\n      sload\n      swap1\n      0x0100\n      exp\n      swap1\n      div\n      0xffffffffffffffffffffffffffffffffffffffff\n      and\n        /* \"contracts/Voting.sol\":1924:1954  candidate._address == _address */\n      0xffffffffffffffffffffffffffffffffffffffff\n      and\n      eq\n        /* \"contracts/Voting.sol\":1916:1978  require(candidate._address == _address, \"Candidate not found\") */\n      tag_280\n      jumpi\n      mload(0x40)\n      0x08c379a000000000000000000000000000000000000000000000000000000000\n      dup2\n      mstore\n      0x04\n      add\n      tag_281\n      swap1\n      tag_98\n      jump\t// in\n    tag_281:\n      mload(0x40)\n      dup1\n      swap2\n      sub\n      swap1\n      revert\n    tag_280:\n        /* \"contracts/Voting.sol\":4288:4315  Candidate storage candidate */\n      0x00\n        /* \"contracts/Voting.sol\":4318:4328  candidates */\n      0x04\n        /* \"contracts/Voting.sol\":4318:4338  candidates[_address] */\n      0x00\n        /* \"contracts/Voting.sol\":4329:4337  _address */\n      dup6\n        /* \"contracts/Voting.sol\":4318:4338  candidates[_address] */\n      0xffffffffffffffffffffffffffffffffffffffff\n      and\n      0xffffffffffffffffffffffffffffffffffffffff\n      and\n      dup2\n      mstore\n      0x20\n      add\n      swap1\n      dup2\n      mstore\n      0x20\n      add\n      0x00\n      keccak256\n        /* \"contracts/Voting.sol\":4288:4338  Candidate storage candidate = candidates[_address] */\n      swap1\n      pop\n        /* \"contracts/Voting.sol\":4390:4413  CandidateStatus.PENDING */\n      0x01\n        /* \"contracts/Voting.sol\":4370:4413  candidate.status != CandidateStatus.PENDING */\n      0x02\n      dup2\n      gt\n      iszero\n      tag_283\n      jumpi\n      tag_284\n      tag_105\n      jump\t// in\n    tag_284:\n    tag_283:\n        /* \"contracts/Voting.sol\":4370:4379  candidate */\n      dup2\n        /* \"contracts/Voting.sol\":4370:4386  candidate.status */\n      0x03\n      add\n      0x00\n      swap1\n      sload\n      swap1\n      0x0100\n      exp\n      swap1\n      div\n      0xff\n      and\n        /* \"contracts/Voting.sol\":4370:4413  candidate.status != CandidateStatus.PENDING */\n      0x02\n      dup2\n      gt\n      iszero\n      tag_285\n      jumpi\n      tag_286\n      tag_105\n      jump\t// in\n    tag_286:\n    tag_285:\n      sub\n        /* \"contracts/Voting.sol\":4349:4455  require(... */\n      tag_287\n      jumpi\n      mload(0x40)\n      0x08c379a000000000000000000000000000000000000000000000000000000000\n      dup2\n      mstore\n      0x04\n      add\n      tag_288\n      swap1\n      tag_289\n      jump\t// in\n    tag_288:\n      mload(0x40)\n      dup1\n      swap2\n      sub\n      swap1\n      revert\n    tag_287:\n        /* \"contracts/Voting.sol\":4484:4507  CandidateStatus.PENDING */\n      0x01\n        /* \"contracts/Voting.sol\":4465:4474  candidate */\n      dup2\n        /* \"contracts/Voting.sol\":4465:4481  candidate.status */\n      0x03\n      add\n      0x00\n        /* \"contracts/Voting.sol\":4465:4507  candidate.status = CandidateStatus.PENDING */\n      0x0100\n      exp\n      dup2\n      sload\n      dup2\n      0xff\n      mul\n      not\n      and\n      swap1\n      dup4\n      0x02\n      dup2\n      gt\n      iszero\n      tag_290\n      jumpi\n      tag_291\n      tag_105\n      jump\t// in\n    tag_291:\n    tag_290:\n      mul\n      or\n      swap1\n      sstore\n      pop\n        /* \"contracts/Voting.sol\":4278:4514  {... */\n      pop\n        /* \"contracts/Voting.sol\":1846:1996  {... */\n      pop\n        /* \"contracts/Voting.sol\":1245:1246  _ */\n      pop\n        /* \"contracts/Voting.sol\":4160:4514  function pendingCandidate(address _address)... */\n      pop\n      jump\t// out\n        /* \"contracts/Voting.sol\":3800:4154  function activateCandidate(address _address)... */\n    tag_86:\n        /* \"contracts/Voting.sol\":1188:1193  owner */\n      0x02\n      0x01\n      swap1\n      sload\n      swap1\n      0x0100\n      exp\n      swap1\n      div\n      0xffffffffffffffffffffffffffffffffffffffff\n      and\n        /* \"contracts/Voting.sol\":1174:1193  msg.sender == owner */\n      0xffffffffffffffffffffffffffffffffffffffff\n      and\n        /* \"contracts/Voting.sol\":1174:1184  msg.sender */\n      caller\n        /* \"contracts/Voting.sol\":1174:1193  msg.sender == owner */\n      0xffffffffffffffffffffffffffffffffffffffff\n      and\n      eq\n        /* \"contracts/Voting.sol\":1166:1235  require(msg.sender == owner, \"Only the owner can call this function\") */\n      tag_293\n      jumpi\n      mload(0x40)\n      0x08c379a000000000000000000000000000000000000000000000000000000000\n      dup2\n      mstore\n      0x04\n      add\n      tag_294\n      swap1\n      tag_94\n      jump\t// in\n    tag_294:\n      mload(0x40)\n      dup1\n      swap2\n      sub\n      swap1\n      revert\n    tag_293:\n        /* \"contracts/Voting.sol\":3905:3913  _address */\n      dup1\n        /* \"contracts/Voting.sol\":1856:1883  Candidate storage candidate */\n      0x00\n        /* \"contracts/Voting.sol\":1886:1896  candidates */\n      0x04\n        /* \"contracts/Voting.sol\":1886:1906  candidates[_address] */\n      0x00\n        /* \"contracts/Voting.sol\":1897:1905  _address */\n      dup4\n        /* \"contracts/Voting.sol\":1886:1906  candidates[_address] */\n      0xffffffffffffffffffffffffffffffffffffffff\n      and\n      0xffffffffffffffffffffffffffffffffffffffff\n      and\n      dup2\n      mstore\n      0x20\n      add\n      swap1\n      dup2\n      mstore\n      0x20\n      add\n      0x00\n      keccak256\n        /* \"contracts/Voting.sol\":1856:1906  Candidate storage candidate = candidates[_address] */\n      swap1\n      pop\n        /* \"contracts/Voting.sol\":1946:1954  _address */\n      dup2\n        /* \"contracts/Voting.sol\":1924:1954  candidate._address == _address */\n      0xffffffffffffffffffffffffffffffffffffffff\n      and\n        /* \"contracts/Voting.sol\":1924:1933  candidate */\n      dup2\n        /* \"contracts/Voting.sol\":1924:1942  candidate._address */\n      0x00\n      add\n      0x00\n      swap1\n      sload\n      swap1\n      0x0100\n      exp\n      swap1\n      div\n      0xffffffffffffffffffffffffffffffffffffffff\n      and\n        /* \"contracts/Voting.sol\":1924:1954  candidate._address == _address */\n      0xffffffffffffffffffffffffffffffffffffffff\n      and\n      eq\n        /* \"contracts/Voting.sol\":1916:1978  require(candidate._address == _address, \"Candidate not found\") */\n      tag_296\n      jumpi\n      mload(0x40)\n      0x08c379a000000000000000000000000000000000000000000000000000000000\n      dup2\n      mstore\n      0x04\n      add\n      tag_297\n      swap1\n      tag_98\n      jump\t// in\n    tag_297:\n      mload(0x40)\n      dup1\n      swap2\n      sub\n      swap1\n      revert\n    tag_296:\n        /* \"contracts/Voting.sol\":3929:3956  Candidate storage candidate */\n      0x00\n        /* \"contracts/Voting.sol\":3959:3969  candidates */\n      0x04\n        /* \"contracts/Voting.sol\":3959:3979  candidates[_address] */\n      0x00\n        /* \"contracts/Voting.sol\":3970:3978  _address */\n      dup6\n        /* \"contracts/Voting.sol\":3959:3979  candidates[_address] */\n      0xffffffffffffffffffffffffffffffffffffffff\n      and\n      0xffffffffffffffffffffffffffffffffffffffff\n      and\n      dup2\n      mstore\n      0x20\n      add\n      swap1\n      dup2\n      mstore\n      0x20\n      add\n      0x00\n      keccak256\n        /* \"contracts/Voting.sol\":3929:3979  Candidate storage candidate = candidates[_address] */\n      swap1\n      pop\n        /* \"contracts/Voting.sol\":4030:4052  CandidateStatus.ACTIVE */\n      0x00\n        /* \"contracts/Voting.sol\":4010:4052  candidate.status != CandidateStatus.ACTIVE */\n      0x02\n      dup2\n      gt\n      iszero\n      tag_299\n      jumpi\n      tag_300\n      tag_105\n      jump\t// in\n    tag_300:\n    tag_299:\n        /* \"contracts/Voting.sol\":4010:4019  candidate */\n      dup2\n        /* \"contracts/Voting.sol\":4010:4026  candidate.status */\n      0x03\n      add\n      0x00\n      swap1\n      sload\n      swap1\n      0x0100\n      exp\n      swap1\n      div\n      0xff\n      and\n        /* \"contracts/Voting.sol\":4010:4052  candidate.status != CandidateStatus.ACTIVE */\n      0x02\n      dup2\n      gt\n      iszero\n      tag_301\n      jumpi\n      tag_302\n      tag_105\n      jump\t// in\n    tag_302:\n    tag_301:\n      sub\n        /* \"contracts/Voting.sol\":3989:4096  require(... */\n      tag_303\n      jumpi\n      mload(0x40)\n      0x08c379a000000000000000000000000000000000000000000000000000000000\n      dup2\n      mstore\n      0x04\n      add\n      tag_304\n      swap1\n      tag_305\n      jump\t// in\n    tag_304:\n      mload(0x40)\n      dup1\n      swap2\n      sub\n      swap1\n      revert\n    tag_303:\n        /* \"contracts/Voting.sol\":4125:4147  CandidateStatus.ACTIVE */\n      0x00\n        /* \"contracts/Voting.sol\":4106:4115  candidate */\n      dup2\n        /* \"contracts/Voting.sol\":4106:4122  candidate.status */\n      0x03\n      add\n      0x00\n        /* \"contracts/Voting.sol\":4106:4147  candidate.status = CandidateStatus.ACTIVE */\n      0x0100\n      exp\n      dup2\n      sload\n      dup2\n      0xff\n      mul\n      not\n      and\n      swap1\n      dup4\n      0x02\n      dup2\n      gt\n      iszero\n      tag_306\n      jumpi\n      tag_307\n      tag_105\n      jump\t// in\n    tag_307:\n    tag_306:\n      mul\n      or\n      swap1\n      sstore\n      pop\n        /* \"contracts/Voting.sol\":3919:4154  {... */\n      pop\n        /* \"contracts/Voting.sol\":1846:1996  {... */\n      pop\n        /* \"contracts/Voting.sol\":1245:1246  _ */\n      pop\n        /* \"contracts/Voting.sol\":3800:4154  function activateCandidate(address _address)... */\n      pop\n      jump\t// out\n        /* \"contracts/Voting.sol\":2002:2307  function setDate(uint256 _startingTime, uint256 _endingTime)... */\n    tag_90:\n        /* \"contracts/Voting.sol\":1188:1193  owner */\n      0x02\n      0x01\n      swap1\n      sload\n      swap1\n      0x0100\n      exp\n      swap1\n      div\n      0xffffffffffffffffffffffffffffffffffffffff\n      and\n        /* \"contracts/Voting.sol\":1174:1193  msg.sender == owner */\n      0xffffffffffffffffffffffffffffffffffffffff\n      and\n        /* \"contracts/Voting.sol\":1174:1184  msg.sender */\n      caller\n        /* \"contracts/Voting.sol\":1174:1193  msg.sender == owner */\n      0xffffffffffffffffffffffffffffffffffffffff\n      and\n      eq\n        /* \"contracts/Voting.sol\":1166:1235  require(msg.sender == owner, \"Only the owner can call this function\") */\n      tag_309\n      jumpi\n      mload(0x40)\n      0x08c379a000000000000000000000000000000000000000000000000000000000\n      dup2\n      mstore\n      0x04\n      add\n      tag_310\n      swap1\n      tag_94\n      jump\t// in\n    tag_310:\n      mload(0x40)\n      dup1\n      swap2\n      sub\n      swap1\n      revert\n    tag_309:\n        /* \"contracts/Voting.sol\":2147:2160  _startingTime */\n      dup2\n        /* \"contracts/Voting.sol\":2133:2144  _endingTime */\n      dup2\n        /* \"contracts/Voting.sol\":2133:2160  _endingTime > _startingTime */\n      gt\n        /* \"contracts/Voting.sol\":2112:2228  require(... */\n      tag_312\n      jumpi\n      mload(0x40)\n      0x08c379a000000000000000000000000000000000000000000000000000000000\n      dup2\n      mstore\n      0x04\n      add\n      tag_313\n      swap1\n      tag_314\n      jump\t// in\n    tag_313:\n      mload(0x40)\n      dup1\n      swap2\n      sub\n      swap1\n      revert\n    tag_312:\n        /* \"contracts/Voting.sol\":2253:2266  _startingTime */\n      dup2\n        /* \"contracts/Voting.sol\":2238:2250  startingTime */\n      0x00\n        /* \"contracts/Voting.sol\":2238:2266  startingTime = _startingTime */\n      dup2\n      swap1\n      sstore\n      pop\n        /* \"contracts/Voting.sol\":2289:2300  _endingTime */\n      dup1\n        /* \"contracts/Voting.sol\":2276:2286  endingTime */\n      0x01\n        /* \"contracts/Voting.sol\":2276:2300  endingTime = _endingTime */\n      dup2\n      swap1\n      sstore\n      pop\n        /* \"contracts/Voting.sol\":2002:2307  function setDate(uint256 _startingTime, uint256 _endingTime)... */\n      pop\n      pop\n      jump\t// out\n    tag_209:\n      mload(0x40)\n      dup1\n      0x60\n      add\n      0x40\n      mstore\n      dup1\n      and(0xffffffffffffffffffffffffffffffffffffffff, 0x00)\n      dup2\n      mstore\n      0x20\n      add\n      0x00\n      dup2\n      mstore\n      0x20\n      add\n      tag_315\n      tag_316\n      jump\t// in\n    tag_315:\n      dup2\n      mstore\n      pop\n      swap1\n      jump\t// out\n    tag_316:\n      mload(0x40)\n      dup1\n      0x80\n      add\n      0x40\n      mstore\n      dup1\n      and(0xffffffffffffffffffffffffffffffffffffffff, 0x00)\n      dup2\n      mstore\n      0x20\n      add\n      0x60\n      dup2\n      mstore\n      0x20\n      add\n      0x60\n      dup2\n      mstore\n      0x20\n      add\n      0x00\n      0x02\n      dup2\n      gt\n      iszero\n      tag_317\n      jumpi\n      tag_318\n      tag_105\n      jump\t// in\n    tag_318:\n    tag_317:\n      dup2\n      mstore\n      pop\n      swap1\n      jump\t// out\n        /* \"#utility.yul\":7:82   */\n    tag_319:\n        /* \"#utility.yul\":40:46   */\n      0x00\n        /* \"#utility.yul\":73:75   */\n      0x40\n        /* \"#utility.yul\":67:76   */\n      mload\n        /* \"#utility.yul\":57:76   */\n      swap1\n      pop\n        /* \"#utility.yul\":7:82   */\n      swap1\n      jump\t// out\n        /* \"#utility.yul\":88:205   */\n    tag_320:\n        /* \"#utility.yul\":197:198   */\n      0x00\n        /* \"#utility.yul\":194:195   */\n      dup1\n        /* \"#utility.yul\":187:199   */\n      revert\n        /* \"#utility.yul\":211:328   */\n    tag_321:\n        /* \"#utility.yul\":320:321   */\n      0x00\n        /* \"#utility.yul\":317:318   */\n      dup1\n        /* \"#utility.yul\":310:322   */\n      revert\n        /* \"#utility.yul\":334:460   */\n    tag_322:\n        /* \"#utility.yul\":371:378   */\n      0x00\n        /* \"#utility.yul\":411:453   */\n      0xffffffffffffffffffffffffffffffffffffffff\n        /* \"#utility.yul\":404:409   */\n      dup3\n        /* \"#utility.yul\":400:454   */\n      and\n        /* \"#utility.yul\":389:454   */\n      swap1\n      pop\n        /* \"#utility.yul\":334:460   */\n      swap2\n      swap1\n      pop\n      jump\t// out\n        /* \"#utility.yul\":466:562   */\n    tag_323:\n        /* \"#utility.yul\":503:510   */\n      0x00\n        /* \"#utility.yul\":532:556   */\n      tag_426\n        /* \"#utility.yul\":550:555   */\n      dup3\n        /* \"#utility.yul\":532:556   */\n      tag_322\n      jump\t// in\n    tag_426:\n        /* \"#utility.yul\":521:556   */\n      swap1\n      pop\n        /* \"#utility.yul\":466:562   */\n      swap2\n      swap1\n      pop\n      jump\t// out\n        /* \"#utility.yul\":568:690   */\n    tag_324:\n        /* \"#utility.yul\":641:665   */\n      tag_428\n        /* \"#utility.yul\":659:664   */\n      dup2\n        /* \"#utility.yul\":641:665   */\n      tag_323\n      jump\t// in\n    tag_428:\n        /* \"#utility.yul\":634:639   */\n      dup2\n        /* \"#utility.yul\":631:666   */\n      eq\n        /* \"#utility.yul\":621:684   */\n      tag_429\n      jumpi\n        /* \"#utility.yul\":680:681   */\n      0x00\n        /* \"#utility.yul\":677:678   */\n      dup1\n        /* \"#utility.yul\":670:682   */\n      revert\n        /* \"#utility.yul\":621:684   */\n    tag_429:\n        /* \"#utility.yul\":568:690   */\n      pop\n      jump\t// out\n        /* \"#utility.yul\":696:835   */\n    tag_325:\n        /* \"#utility.yul\":742:747   */\n      0x00\n        /* \"#utility.yul\":780:786   */\n      dup2\n        /* \"#utility.yul\":767:787   */\n      calldataload\n        /* \"#utility.yul\":758:787   */\n      swap1\n      pop\n        /* \"#utility.yul\":796:829   */\n      tag_431\n        /* \"#utility.yul\":823:828   */\n      dup2\n        /* \"#utility.yul\":796:829   */\n      tag_324\n      jump\t// in\n    tag_431:\n        /* \"#utility.yul\":696:835   */\n      swap3\n      swap2\n      pop\n      pop\n      jump\t// out\n        /* \"#utility.yul\":841:1170   */\n    tag_26:\n        /* \"#utility.yul\":900:906   */\n      0x00\n        /* \"#utility.yul\":949:951   */\n      0x20\n        /* \"#utility.yul\":937:946   */\n      dup3\n        /* \"#utility.yul\":928:935   */\n      dup5\n        /* \"#utility.yul\":924:947   */\n      sub\n        /* \"#utility.yul\":920:952   */\n      slt\n        /* \"#utility.yul\":917:1036   */\n      iszero\n      tag_433\n      jumpi\n        /* \"#utility.yul\":955:1034   */\n      tag_434\n      tag_320\n      jump\t// in\n    tag_434:\n        /* \"#utility.yul\":917:1036   */\n    tag_433:\n        /* \"#utility.yul\":1075:1076   */\n      0x00\n        /* \"#utility.yul\":1100:1153   */\n      tag_435\n        /* \"#utility.yul\":1145:1152   */\n      dup5\n        /* \"#utility.yul\":1136:1142   */\n      dup3\n        /* \"#utility.yul\":1125:1134   */\n      dup6\n        /* \"#utility.yul\":1121:1143   */\n      add\n        /* \"#utility.yul\":1100:1153   */\n      tag_325\n      jump\t// in\n    tag_435:\n        /* \"#utility.yul\":1090:1153   */\n      swap2\n      pop\n        /* \"#utility.yul\":1046:1163   */\n      pop\n        /* \"#utility.yul\":841:1170   */\n      swap3\n      swap2\n      pop\n      pop\n      jump\t// out\n        /* \"#utility.yul\":1176:1253   */\n    tag_326:\n        /* \"#utility.yul\":1213:1220   */\n      0x00\n        /* \"#utility.yul\":1242:1247   */\n      dup2\n        /* \"#utility.yul\":1231:1247   */\n      swap1\n      pop\n        /* \"#utility.yul\":1176:1253   */\n      swap2\n      swap1\n      pop\n      jump\t// out\n        /* \"#utility.yul\":1259:1377   */\n    tag_327:\n        /* \"#utility.yul\":1346:1370   */\n      tag_438\n        /* \"#utility.yul\":1364:1369   */\n      dup2\n        /* \"#utility.yul\":1346:1370   */\n      tag_326\n      jump\t// in\n    tag_438:\n        /* \"#utility.yul\":1341:1344   */\n      dup3\n        /* \"#utility.yul\":1334:1371   */\n      mstore\n        /* \"#utility.yul\":1259:1377   */\n      pop\n      pop\n      jump\t// out\n        /* \"#utility.yul\":1383:1605   */\n    tag_29:\n        /* \"#utility.yul\":1476:1480   */\n      0x00\n        /* \"#utility.yul\":1514:1516   */\n      0x20\n        /* \"#utility.yul\":1503:1512   */\n      dup3\n        /* \"#utility.yul\":1499:1517   */\n      add\n        /* \"#utility.yul\":1491:1517   */\n      swap1\n      pop\n        /* \"#utility.yul\":1527:1598   */\n      tag_440\n        /* \"#utility.yul\":1595:1596   */\n      0x00\n        /* \"#utility.yul\":1584:1593   */\n      dup4\n        /* \"#utility.yul\":1580:1597   */\n      add\n        /* \"#utility.yul\":1571:1577   */\n      dup5\n        /* \"#utility.yul\":1527:1598   */\n      tag_327\n      jump\t// in\n    tag_440:\n        /* \"#utility.yul\":1383:1605   */\n      swap3\n      swap2\n      pop\n      pop\n      jump\t// out\n        /* \"#utility.yul\":1611:1728   */\n    tag_328:\n        /* \"#utility.yul\":1720:1721   */\n      0x00\n        /* \"#utility.yul\":1717:1718   */\n      dup1\n        /* \"#utility.yul\":1710:1722   */\n      revert\n        /* \"#utility.yul\":1734:1851   */\n    tag_329:\n        /* \"#utility.yul\":1843:1844   */\n      0x00\n        /* \"#utility.yul\":1840:1841   */\n      dup1\n        /* \"#utility.yul\":1833:1845   */\n      revert\n        /* \"#utility.yul\":1857:1959   */\n    tag_330:\n        /* \"#utility.yul\":1898:1904   */\n      0x00\n        /* \"#utility.yul\":1949:1951   */\n      0x1f\n        /* \"#utility.yul\":1945:1952   */\n      not\n        /* \"#utility.yul\":1940:1942   */\n      0x1f\n        /* \"#utility.yul\":1933:1938   */\n      dup4\n        /* \"#utility.yul\":1929:1943   */\n      add\n        /* \"#utility.yul\":1925:1953   */\n      and\n        /* \"#utility.yul\":1915:1953   */\n      swap1\n      pop\n        /* \"#utility.yul\":1857:1959   */\n      swap2\n      swap1\n      pop\n      jump\t// out\n        /* \"#utility.yul\":1965:2145   */\n    tag_205:\n        /* \"#utility.yul\":2013:2090   */\n      0x4e487b7100000000000000000000000000000000000000000000000000000000\n        /* \"#utility.yul\":2010:2011   */\n      0x00\n        /* \"#utility.yul\":2003:2091   */\n      mstore\n        /* \"#utility.yul\":2110:2114   */\n      0x41\n        /* \"#utility.yul\":2107:2108   */\n      0x04\n        /* \"#utility.yul\":2100:2115   */\n      mstore\n        /* \"#utility.yul\":2134:2138   */\n      0x24\n        /* \"#utility.yul\":2131:2132   */\n      0x00\n        /* \"#utility.yul\":2124:2139   */\n      revert\n        /* \"#utility.yul\":2151:2432   */\n    tag_331:\n        /* \"#utility.yul\":2234:2261   */\n      tag_446\n        /* \"#utility.yul\":2256:2260   */\n      dup3\n        /* \"#utility.yul\":2234:2261   */\n      tag_330\n      jump\t// in\n    tag_446:\n        /* \"#utility.yul\":2226:2232   */\n      dup2\n        /* \"#utility.yul\":2222:2262   */\n      add\n        /* \"#utility.yul\":2364:2370   */\n      dup2\n        /* \"#utility.yul\":2352:2362   */\n      dup2\n        /* \"#utility.yul\":2349:2371   */\n      lt\n        /* \"#utility.yul\":2328:2346   */\n      0xffffffffffffffff\n        /* \"#utility.yul\":2316:2326   */\n      dup3\n        /* \"#utility.yul\":2313:2347   */\n      gt\n        /* \"#utility.yul\":2310:2372   */\n      or\n        /* \"#utility.yul\":2307:2395   */\n      iszero\n      tag_447\n      jumpi\n        /* \"#utility.yul\":2375:2393   */\n      tag_448\n      tag_205\n      jump\t// in\n    tag_448:\n        /* \"#utility.yul\":2307:2395   */\n    tag_447:\n        /* \"#utility.yul\":2415:2425   */\n      dup1\n        /* \"#utility.yul\":2411:2413   */\n      0x40\n        /* \"#utility.yul\":2404:2426   */\n      mstore\n        /* \"#utility.yul\":2194:2432   */\n      pop\n        /* \"#utility.yul\":2151:2432   */\n      pop\n      pop\n      jump\t// out\n        /* \"#utility.yul\":2438:2567   */\n    tag_332:\n        /* \"#utility.yul\":2472:2478   */\n      0x00\n        /* \"#utility.yul\":2499:2519   */\n      tag_450\n      tag_319\n      jump\t// in\n    tag_450:\n        /* \"#utility.yul\":2489:2519   */\n      swap1\n      pop\n        /* \"#utility.yul\":2528:2561   */\n      tag_451\n        /* \"#utility.yul\":2556:2560   */\n      dup3\n        /* \"#utility.yul\":2548:2554   */\n      dup3\n        /* \"#utility.yul\":2528:2561   */\n      tag_331\n      jump\t// in\n    tag_451:\n        /* \"#utility.yul\":2438:2567   */\n      swap2\n      swap1\n      pop\n      jump\t// out\n        /* \"#utility.yul\":2573:2881   */\n    tag_333:\n        /* \"#utility.yul\":2635:2639   */\n      0x00\n        /* \"#utility.yul\":2725:2743   */\n      0xffffffffffffffff\n        /* \"#utility.yul\":2717:2723   */\n      dup3\n        /* \"#utility.yul\":2714:2744   */\n      gt\n        /* \"#utility.yul\":2711:2767   */\n      iszero\n      tag_453\n      jumpi\n        /* \"#utility.yul\":2747:2765   */\n      tag_454\n      tag_205\n      jump\t// in\n    tag_454:\n        /* \"#utility.yul\":2711:2767   */\n    tag_453:\n        /* \"#utility.yul\":2785:2814   */\n      tag_455\n        /* \"#utility.yul\":2807:2813   */\n      dup3\n        /* \"#utility.yul\":2785:2814   */\n      tag_330\n      jump\t// in\n    tag_455:\n        /* \"#utility.yul\":2777:2814   */\n      swap1\n      pop\n        /* \"#utility.yul\":2869:2873   */\n      0x20\n        /* \"#utility.yul\":2863:2867   */\n      dup2\n        /* \"#utility.yul\":2859:2874   */\n      add\n        /* \"#utility.yul\":2851:2874   */\n      swap1\n      pop\n        /* \"#utility.yul\":2573:2881   */\n      swap2\n      swap1\n      pop\n      jump\t// out\n        /* \"#utility.yul\":2887:3035   */\n    tag_334:\n        /* \"#utility.yul\":2985:2991   */\n      dup3\n        /* \"#utility.yul\":2980:2983   */\n      dup2\n        /* \"#utility.yul\":2975:2978   */\n      dup4\n        /* \"#utility.yul\":2962:2992   */\n      calldatacopy\n        /* \"#utility.yul\":3026:3027   */\n      0x00\n        /* \"#utility.yul\":3017:3023   */\n      dup4\n        /* \"#utility.yul\":3012:3015   */\n      dup4\n        /* \"#utility.yul\":3008:3024   */\n      add\n        /* \"#utility.yul\":3001:3028   */\n      mstore\n        /* \"#utility.yul\":2887:3035   */\n      pop\n      pop\n      pop\n      jump\t// out\n        /* \"#utility.yul\":3041:3466   */\n    tag_335:\n        /* \"#utility.yul\":3119:3124   */\n      0x00\n        /* \"#utility.yul\":3144:3210   */\n      tag_458\n        /* \"#utility.yul\":3160:3209   */\n      tag_459\n        /* \"#utility.yul\":3202:3208   */\n      dup5\n        /* \"#utility.yul\":3160:3209   */\n      tag_333\n      jump\t// in\n    tag_459:\n        /* \"#utility.yul\":3144:3210   */\n      tag_332\n      jump\t// in\n    tag_458:\n        /* \"#utility.yul\":3135:3210   */\n      swap1\n      pop\n        /* \"#utility.yul\":3233:3239   */\n      dup3\n        /* \"#utility.yul\":3226:3231   */\n      dup2\n        /* \"#utility.yul\":3219:3240   */\n      mstore\n        /* \"#utility.yul\":3271:3275   */\n      0x20\n        /* \"#utility.yul\":3264:3269   */\n      dup2\n        /* \"#utility.yul\":3260:3276   */\n      add\n        /* \"#utility.yul\":3309:3312   */\n      dup5\n        /* \"#utility.yul\":3300:3306   */\n      dup5\n        /* \"#utility.yul\":3295:3298   */\n      dup5\n        /* \"#utility.yul\":3291:3307   */\n      add\n        /* \"#utility.yul\":3288:3313   */\n      gt\n        /* \"#utility.yul\":3285:3397   */\n      iszero\n      tag_460\n      jumpi\n        /* \"#utility.yul\":3316:3395   */\n      tag_461\n      tag_329\n      jump\t// in\n    tag_461:\n        /* \"#utility.yul\":3285:3397   */\n    tag_460:\n        /* \"#utility.yul\":3406:3460   */\n      tag_462\n        /* \"#utility.yul\":3453:3459   */\n      dup5\n        /* \"#utility.yul\":3448:3451   */\n      dup3\n        /* \"#utility.yul\":3443:3446   */\n      dup6\n        /* \"#utility.yul\":3406:3460   */\n      tag_334\n      jump\t// in\n    tag_462:\n        /* \"#utility.yul\":3125:3466   */\n      pop\n        /* \"#utility.yul\":3041:3466   */\n      swap4\n      swap3\n      pop\n      pop\n      pop\n      jump\t// out\n        /* \"#utility.yul\":3486:3826   */\n    tag_336:\n        /* \"#utility.yul\":3542:3547   */\n      0x00\n        /* \"#utility.yul\":3591:3594   */\n      dup3\n        /* \"#utility.yul\":3584:3588   */\n      0x1f\n        /* \"#utility.yul\":3576:3582   */\n      dup4\n        /* \"#utility.yul\":3572:3589   */\n      add\n        /* \"#utility.yul\":3568:3595   */\n      slt\n        /* \"#utility.yul\":3558:3680   */\n      tag_464\n      jumpi\n        /* \"#utility.yul\":3599:3678   */\n      tag_465\n      tag_328\n      jump\t// in\n    tag_465:\n        /* \"#utility.yul\":3558:3680   */\n    tag_464:\n        /* \"#utility.yul\":3716:3722   */\n      dup2\n        /* \"#utility.yul\":3703:3723   */\n      calldataload\n        /* \"#utility.yul\":3741:3820   */\n      tag_466\n        /* \"#utility.yul\":3816:3819   */\n      dup5\n        /* \"#utility.yul\":3808:3814   */\n      dup3\n        /* \"#utility.yul\":3801:3805   */\n      0x20\n        /* \"#utility.yul\":3793:3799   */\n      dup7\n        /* \"#utility.yul\":3789:3806   */\n      add\n        /* \"#utility.yul\":3741:3820   */\n      tag_335\n      jump\t// in\n    tag_466:\n        /* \"#utility.yul\":3732:3820   */\n      swap2\n      pop\n        /* \"#utility.yul\":3548:3826   */\n      pop\n        /* \"#utility.yul\":3486:3826   */\n      swap3\n      swap2\n      pop\n      pop\n      jump\t// out\n        /* \"#utility.yul\":3832:4811   */\n    tag_32:\n        /* \"#utility.yul\":3929:3935   */\n      0x00\n        /* \"#utility.yul\":3937:3943   */\n      dup1\n        /* \"#utility.yul\":3945:3951   */\n      0x00\n        /* \"#utility.yul\":3994:3996   */\n      0x60\n        /* \"#utility.yul\":3982:3991   */\n      dup5\n        /* \"#utility.yul\":3973:3980   */\n      dup7\n        /* \"#utility.yul\":3969:3992   */\n      sub\n        /* \"#utility.yul\":3965:3997   */\n      slt\n        /* \"#utility.yul\":3962:4081   */\n      iszero\n      tag_468\n      jumpi\n        /* \"#utility.yul\":4000:4079   */\n      tag_469\n      tag_320\n      jump\t// in\n    tag_469:\n        /* \"#utility.yul\":3962:4081   */\n    tag_468:\n        /* \"#utility.yul\":4120:4121   */\n      0x00\n        /* \"#utility.yul\":4145:4198   */\n      tag_470\n        /* \"#utility.yul\":4190:4197   */\n      dup7\n        /* \"#utility.yul\":4181:4187   */\n      dup3\n        /* \"#utility.yul\":4170:4179   */\n      dup8\n        /* \"#utility.yul\":4166:4188   */\n      add\n        /* \"#utility.yul\":4145:4198   */\n      tag_325\n      jump\t// in\n    tag_470:\n        /* \"#utility.yul\":4135:4198   */\n      swap4\n      pop\n        /* \"#utility.yul\":4091:4208   */\n      pop\n        /* \"#utility.yul\":4275:4277   */\n      0x20\n        /* \"#utility.yul\":4264:4273   */\n      dup5\n        /* \"#utility.yul\":4260:4278   */\n      add\n        /* \"#utility.yul\":4247:4279   */\n      calldataload\n        /* \"#utility.yul\":4306:4324   */\n      0xffffffffffffffff\n        /* \"#utility.yul\":4298:4304   */\n      dup2\n        /* \"#utility.yul\":4295:4325   */\n      gt\n        /* \"#utility.yul\":4292:4409   */\n      iszero\n      tag_471\n      jumpi\n        /* \"#utility.yul\":4328:4407   */\n      tag_472\n      tag_321\n      jump\t// in\n    tag_472:\n        /* \"#utility.yul\":4292:4409   */\n    tag_471:\n        /* \"#utility.yul\":4433:4496   */\n      tag_473\n        /* \"#utility.yul\":4488:4495   */\n      dup7\n        /* \"#utility.yul\":4479:4485   */\n      dup3\n        /* \"#utility.yul\":4468:4477   */\n      dup8\n        /* \"#utility.yul\":4464:4486   */\n      add\n        /* \"#utility.yul\":4433:4496   */\n      tag_336\n      jump\t// in\n    tag_473:\n        /* \"#utility.yul\":4423:4496   */\n      swap3\n      pop\n        /* \"#utility.yul\":4218:4506   */\n      pop\n        /* \"#utility.yul\":4573:4575   */\n      0x40\n        /* \"#utility.yul\":4562:4571   */\n      dup5\n        /* \"#utility.yul\":4558:4576   */\n      add\n        /* \"#utility.yul\":4545:4577   */\n      calldataload\n        /* \"#utility.yul\":4604:4622   */\n      0xffffffffffffffff\n        /* \"#utility.yul\":4596:4602   */\n      dup2\n        /* \"#utility.yul\":4593:4623   */\n      gt\n        /* \"#utility.yul\":4590:4707   */\n      iszero\n      tag_474\n      jumpi\n        /* \"#utility.yul\":4626:4705   */\n      tag_475\n      tag_321\n      jump\t// in\n    tag_475:\n        /* \"#utility.yul\":4590:4707   */\n    tag_474:\n        /* \"#utility.yul\":4731:4794   */\n      tag_476\n        /* \"#utility.yul\":4786:4793   */\n      dup7\n        /* \"#utility.yul\":4777:4783   */\n      dup3\n        /* \"#utility.yul\":4766:4775   */\n      dup8\n        /* \"#utility.yul\":4762:4784   */\n      add\n        /* \"#utility.yul\":4731:4794   */\n      tag_336\n      jump\t// in\n    tag_476:\n        /* \"#utility.yul\":4721:4794   */\n      swap2\n      pop\n        /* \"#utility.yul\":4516:4804   */\n      pop\n        /* \"#utility.yul\":3832:4811   */\n      swap3\n      pop\n      swap3\n      pop\n      swap3\n      jump\t// out\n        /* \"#utility.yul\":4817:4907   */\n    tag_337:\n        /* \"#utility.yul\":4851:4858   */\n      0x00\n        /* \"#utility.yul\":4894:4899   */\n      dup2\n        /* \"#utility.yul\":4887:4900   */\n      iszero\n        /* \"#utility.yul\":4880:4901   */\n      iszero\n        /* \"#utility.yul\":4869:4901   */\n      swap1\n      pop\n        /* \"#utility.yul\":4817:4907   */\n      swap2\n      swap1\n      pop\n      jump\t// out\n        /* \"#utility.yul\":4913:5022   */\n    tag_338:\n        /* \"#utility.yul\":4994:5015   */\n      tag_479\n        /* \"#utility.yul\":5009:5014   */\n      dup2\n        /* \"#utility.yul\":4994:5015   */\n      tag_337\n      jump\t// in\n    tag_479:\n        /* \"#utility.yul\":4989:4992   */\n      dup3\n        /* \"#utility.yul\":4982:5016   */\n      mstore\n        /* \"#utility.yul\":4913:5022   */\n      pop\n      pop\n      jump\t// out\n        /* \"#utility.yul\":5028:5238   */\n    tag_37:\n        /* \"#utility.yul\":5115:5119   */\n      0x00\n        /* \"#utility.yul\":5153:5155   */\n      0x20\n        /* \"#utility.yul\":5142:5151   */\n      dup3\n        /* \"#utility.yul\":5138:5156   */\n      add\n        /* \"#utility.yul\":5130:5156   */\n      swap1\n      pop\n        /* \"#utility.yul\":5166:5231   */\n      tag_481\n        /* \"#utility.yul\":5228:5229   */\n      0x00\n        /* \"#utility.yul\":5217:5226   */\n      dup4\n        /* \"#utility.yul\":5213:5230   */\n      add\n        /* \"#utility.yul\":5204:5210   */\n      dup5\n        /* \"#utility.yul\":5166:5231   */\n      tag_338\n      jump\t// in\n    tag_481:\n        /* \"#utility.yul\":5028:5238   */\n      swap3\n      swap2\n      pop\n      pop\n      jump\t// out\n        /* \"#utility.yul\":5244:5366   */\n    tag_339:\n        /* \"#utility.yul\":5317:5341   */\n      tag_483\n        /* \"#utility.yul\":5335:5340   */\n      dup2\n        /* \"#utility.yul\":5317:5341   */\n      tag_326\n      jump\t// in\n    tag_483:\n        /* \"#utility.yul\":5310:5315   */\n      dup2\n        /* \"#utility.yul\":5307:5342   */\n      eq\n        /* \"#utility.yul\":5297:5360   */\n      tag_484\n      jumpi\n        /* \"#utility.yul\":5356:5357   */\n      0x00\n        /* \"#utility.yul\":5353:5354   */\n      dup1\n        /* \"#utility.yul\":5346:5358   */\n      revert\n        /* \"#utility.yul\":5297:5360   */\n    tag_484:\n        /* \"#utility.yul\":5244:5366   */\n      pop\n      jump\t// out\n        /* \"#utility.yul\":5372:5511   */\n    tag_340:\n        /* \"#utility.yul\":5418:5423   */\n      0x00\n        /* \"#utility.yul\":5456:5462   */\n      dup2\n        /* \"#utility.yul\":5443:5463   */\n      calldataload\n        /* \"#utility.yul\":5434:5463   */\n      swap1\n      pop\n        /* \"#utility.yul\":5472:5505   */\n      tag_486\n        /* \"#utility.yul\":5499:5504   */\n      dup2\n        /* \"#utility.yul\":5472:5505   */\n      tag_339\n      jump\t// in\n    tag_486:\n        /* \"#utility.yul\":5372:5511   */\n      swap3\n      swap2\n      pop\n      pop\n      jump\t// out\n        /* \"#utility.yul\":5517:5846   */\n    tag_46:\n        /* \"#utility.yul\":5576:5582   */\n      0x00\n        /* \"#utility.yul\":5625:5627   */\n      0x20\n        /* \"#utility.yul\":5613:5622   */\n      dup3\n        /* \"#utility.yul\":5604:5611   */\n      dup5\n        /* \"#utility.yul\":5600:5623   */\n      sub\n        /* \"#utility.yul\":5596:5628   */\n      slt\n        /* \"#utility.yul\":5593:5712   */\n      iszero\n      tag_488\n      jumpi\n        /* \"#utility.yul\":5631:5710   */\n      tag_489\n      tag_320\n      jump\t// in\n    tag_489:\n        /* \"#utility.yul\":5593:5712   */\n    tag_488:\n        /* \"#utility.yul\":5751:5752   */\n      0x00\n        /* \"#utility.yul\":5776:5829   */\n      tag_490\n        /* \"#utility.yul\":5821:5828   */\n      dup5\n        /* \"#utility.yul\":5812:5818   */\n      dup3\n        /* \"#utility.yul\":5801:5810   */\n      dup6\n        /* \"#utility.yul\":5797:5819   */\n      add\n        /* \"#utility.yul\":5776:5829   */\n      tag_340\n      jump\t// in\n    tag_490:\n        /* \"#utility.yul\":5766:5829   */\n      swap2\n      pop\n        /* \"#utility.yul\":5722:5839   */\n      pop\n        /* \"#utility.yul\":5517:5846   */\n      swap3\n      swap2\n      pop\n      pop\n      jump\t// out\n        /* \"#utility.yul\":5852:5970   */\n    tag_341:\n        /* \"#utility.yul\":5939:5963   */\n      tag_492\n        /* \"#utility.yul\":5957:5962   */\n      dup2\n        /* \"#utility.yul\":5939:5963   */\n      tag_323\n      jump\t// in\n    tag_492:\n        /* \"#utility.yul\":5934:5937   */\n      dup3\n        /* \"#utility.yul\":5927:5964   */\n      mstore\n        /* \"#utility.yul\":5852:5970   */\n      pop\n      pop\n      jump\t// out\n        /* \"#utility.yul\":5976:6075   */\n    tag_342:\n        /* \"#utility.yul\":6028:6034   */\n      0x00\n        /* \"#utility.yul\":6062:6067   */\n      dup2\n        /* \"#utility.yul\":6056:6068   */\n      mload\n        /* \"#utility.yul\":6046:6068   */\n      swap1\n      pop\n        /* \"#utility.yul\":5976:6075   */\n      swap2\n      swap1\n      pop\n      jump\t// out\n        /* \"#utility.yul\":6081:6250   */\n    tag_343:\n        /* \"#utility.yul\":6165:6176   */\n      0x00\n        /* \"#utility.yul\":6199:6205   */\n      dup3\n        /* \"#utility.yul\":6194:6197   */\n      dup3\n        /* \"#utility.yul\":6187:6206   */\n      mstore\n        /* \"#utility.yul\":6239:6243   */\n      0x20\n        /* \"#utility.yul\":6234:6237   */\n      dup3\n        /* \"#utility.yul\":6230:6244   */\n      add\n        /* \"#utility.yul\":6215:6244   */\n      swap1\n      pop\n        /* \"#utility.yul\":6081:6250   */\n      swap3\n      swap2\n      pop\n      pop\n      jump\t// out\n        /* \"#utility.yul\":6256:6504   */\n    tag_344:\n        /* \"#utility.yul\":6338:6339   */\n      0x00\n        /* \"#utility.yul\":6348:6461   */\n    tag_496:\n        /* \"#utility.yul\":6362:6368   */\n      dup4\n        /* \"#utility.yul\":6359:6360   */\n      dup2\n        /* \"#utility.yul\":6356:6369   */\n      lt\n        /* \"#utility.yul\":6348:6461   */\n      iszero\n      tag_498\n      jumpi\n        /* \"#utility.yul\":6447:6448   */\n      dup1\n        /* \"#utility.yul\":6442:6445   */\n      dup3\n        /* \"#utility.yul\":6438:6449   */\n      add\n        /* \"#utility.yul\":6432:6450   */\n      mload\n        /* \"#utility.yul\":6428:6429   */\n      dup2\n        /* \"#utility.yul\":6423:6426   */\n      dup5\n        /* \"#utility.yul\":6419:6430   */\n      add\n        /* \"#utility.yul\":6412:6451   */\n      mstore\n        /* \"#utility.yul\":6384:6386   */\n      0x20\n        /* \"#utility.yul\":6381:6382   */\n      dup2\n        /* \"#utility.yul\":6377:6387   */\n      add\n        /* \"#utility.yul\":6372:6387   */\n      swap1\n      pop\n        /* \"#utility.yul\":6348:6461   */\n      jump(tag_496)\n    tag_498:\n        /* \"#utility.yul\":6495:6496   */\n      0x00\n        /* \"#utility.yul\":6486:6492   */\n      dup5\n        /* \"#utility.yul\":6481:6484   */\n      dup5\n        /* \"#utility.yul\":6477:6493   */\n      add\n        /* \"#utility.yul\":6470:6497   */\n      mstore\n        /* \"#utility.yul\":6318:6504   */\n      pop\n        /* \"#utility.yul\":6256:6504   */\n      pop\n      pop\n      pop\n      jump\t// out\n        /* \"#utility.yul\":6510:6887   */\n    tag_345:\n        /* \"#utility.yul\":6598:6601   */\n      0x00\n        /* \"#utility.yul\":6626:6665   */\n      tag_500\n        /* \"#utility.yul\":6659:6664   */\n      dup3\n        /* \"#utility.yul\":6626:6665   */\n      tag_342\n      jump\t// in\n    tag_500:\n        /* \"#utility.yul\":6681:6752   */\n      tag_501\n        /* \"#utility.yul\":6745:6751   */\n      dup2\n        /* \"#utility.yul\":6740:6743   */\n      dup6\n        /* \"#utility.yul\":6681:6752   */\n      tag_343\n      jump\t// in\n    tag_501:\n        /* \"#utility.yul\":6674:6752   */\n      swap4\n      pop\n        /* \"#utility.yul\":6761:6826   */\n      tag_502\n        /* \"#utility.yul\":6819:6825   */\n      dup2\n        /* \"#utility.yul\":6814:6817   */\n      dup6\n        /* \"#utility.yul\":6807:6811   */\n      0x20\n        /* \"#utility.yul\":6800:6805   */\n      dup7\n        /* \"#utility.yul\":6796:6812   */\n      add\n        /* \"#utility.yul\":6761:6826   */\n      tag_344\n      jump\t// in\n    tag_502:\n        /* \"#utility.yul\":6851:6880   */\n      tag_503\n        /* \"#utility.yul\":6873:6879   */\n      dup2\n        /* \"#utility.yul\":6851:6880   */\n      tag_330\n      jump\t// in\n    tag_503:\n        /* \"#utility.yul\":6846:6849   */\n      dup5\n        /* \"#utility.yul\":6842:6881   */\n      add\n        /* \"#utility.yul\":6835:6881   */\n      swap2\n      pop\n        /* \"#utility.yul\":6602:6887   */\n      pop\n        /* \"#utility.yul\":6510:6887   */\n      swap3\n      swap2\n      pop\n      pop\n      jump\t// out\n        /* \"#utility.yul\":6893:7073   */\n    tag_105:\n        /* \"#utility.yul\":6941:7018   */\n      0x4e487b7100000000000000000000000000000000000000000000000000000000\n        /* \"#utility.yul\":6938:6939   */\n      0x00\n        /* \"#utility.yul\":6931:7019   */\n      mstore\n        /* \"#utility.yul\":7038:7042   */\n      0x21\n        /* \"#utility.yul\":7035:7036   */\n      0x04\n        /* \"#utility.yul\":7028:7043   */\n      mstore\n        /* \"#utility.yul\":7062:7066   */\n      0x24\n        /* \"#utility.yul\":7059:7060   */\n      0x00\n        /* \"#utility.yul\":7052:7067   */\n      revert\n        /* \"#utility.yul\":7079:7201   */\n    tag_346:\n        /* \"#utility.yul\":7169:7170   */\n      0x03\n        /* \"#utility.yul\":7162:7167   */\n      dup2\n        /* \"#utility.yul\":7159:7171   */\n      lt\n        /* \"#utility.yul\":7149:7195   */\n      tag_506\n      jumpi\n        /* \"#utility.yul\":7175:7193   */\n      tag_507\n      tag_105\n      jump\t// in\n    tag_507:\n        /* \"#utility.yul\":7149:7195   */\n    tag_506:\n        /* \"#utility.yul\":7079:7201   */\n      pop\n      jump\t// out\n        /* \"#utility.yul\":7207:7352   */\n    tag_347:\n        /* \"#utility.yul\":7261:7268   */\n      0x00\n        /* \"#utility.yul\":7290:7295   */\n      dup2\n        /* \"#utility.yul\":7279:7295   */\n      swap1\n      pop\n        /* \"#utility.yul\":7296:7346   */\n      tag_509\n        /* \"#utility.yul\":7340:7345   */\n      dup3\n        /* \"#utility.yul\":7296:7346   */\n      tag_346\n      jump\t// in\n    tag_509:\n        /* \"#utility.yul\":7207:7352   */\n      swap2\n      swap1\n      pop\n      jump\t// out\n        /* \"#utility.yul\":7358:7503   */\n    tag_348:\n        /* \"#utility.yul\":7423:7432   */\n      0x00\n        /* \"#utility.yul\":7456:7497   */\n      tag_511\n        /* \"#utility.yul\":7491:7496   */\n      dup3\n        /* \"#utility.yul\":7456:7497   */\n      tag_347\n      jump\t// in\n    tag_511:\n        /* \"#utility.yul\":7443:7497   */\n      swap1\n      pop\n        /* \"#utility.yul\":7358:7503   */\n      swap2\n      swap1\n      pop\n      jump\t// out\n        /* \"#utility.yul\":7509:7670   */\n    tag_349:\n        /* \"#utility.yul\":7611:7663   */\n      tag_513\n        /* \"#utility.yul\":7657:7662   */\n      dup2\n        /* \"#utility.yul\":7611:7663   */\n      tag_348\n      jump\t// in\n    tag_513:\n        /* \"#utility.yul\":7606:7609   */\n      dup3\n        /* \"#utility.yul\":7599:7664   */\n      mstore\n        /* \"#utility.yul\":7509:7670   */\n      pop\n      pop\n      jump\t// out\n        /* \"#utility.yul\":7676:8441   */\n    tag_49:\n        /* \"#utility.yul\":7908:7912   */\n      0x00\n        /* \"#utility.yul\":7946:7949   */\n      0x80\n        /* \"#utility.yul\":7935:7944   */\n      dup3\n        /* \"#utility.yul\":7931:7950   */\n      add\n        /* \"#utility.yul\":7923:7950   */\n      swap1\n      pop\n        /* \"#utility.yul\":7960:8031   */\n      tag_515\n        /* \"#utility.yul\":8028:8029   */\n      0x00\n        /* \"#utility.yul\":8017:8026   */\n      dup4\n        /* \"#utility.yul\":8013:8030   */\n      add\n        /* \"#utility.yul\":8004:8010   */\n      dup8\n        /* \"#utility.yul\":7960:8031   */\n      tag_341\n      jump\t// in\n    tag_515:\n        /* \"#utility.yul\":8078:8087   */\n      dup2\n        /* \"#utility.yul\":8072:8076   */\n      dup2\n        /* \"#utility.yul\":8068:8088   */\n      sub\n        /* \"#utility.yul\":8063:8065   */\n      0x20\n        /* \"#utility.yul\":8052:8061   */\n      dup4\n        /* \"#utility.yul\":8048:8066   */\n      add\n        /* \"#utility.yul\":8041:8089   */\n      mstore\n        /* \"#utility.yul\":8106:8184   */\n      tag_516\n        /* \"#utility.yul\":8179:8183   */\n      dup2\n        /* \"#utility.yul\":8170:8176   */\n      dup7\n        /* \"#utility.yul\":8106:8184   */\n      tag_345\n      jump\t// in\n    tag_516:\n        /* \"#utility.yul\":8098:8184   */\n      swap1\n      pop\n        /* \"#utility.yul\":8231:8240   */\n      dup2\n        /* \"#utility.yul\":8225:8229   */\n      dup2\n        /* \"#utility.yul\":8221:8241   */\n      sub\n        /* \"#utility.yul\":8216:8218   */\n      0x40\n        /* \"#utility.yul\":8205:8214   */\n      dup4\n        /* \"#utility.yul\":8201:8219   */\n      add\n        /* \"#utility.yul\":8194:8242   */\n      mstore\n        /* \"#utility.yul\":8259:8337   */\n      tag_517\n        /* \"#utility.yul\":8332:8336   */\n      dup2\n        /* \"#utility.yul\":8323:8329   */\n      dup6\n        /* \"#utility.yul\":8259:8337   */\n      tag_345\n      jump\t// in\n    tag_517:\n        /* \"#utility.yul\":8251:8337   */\n      swap1\n      pop\n        /* \"#utility.yul\":8347:8434   */\n      tag_518\n        /* \"#utility.yul\":8430:8432   */\n      0x60\n        /* \"#utility.yul\":8419:8428   */\n      dup4\n        /* \"#utility.yul\":8415:8433   */\n      add\n        /* \"#utility.yul\":8406:8412   */\n      dup5\n        /* \"#utility.yul\":8347:8434   */\n      tag_349\n      jump\t// in\n    tag_518:\n        /* \"#utility.yul\":7676:8441   */\n      swap6\n      swap5\n      pop\n      pop\n      pop\n      pop\n      pop\n      jump\t// out\n        /* \"#utility.yul\":8447:8669   */\n    tag_63:\n        /* \"#utility.yul\":8540:8544   */\n      0x00\n        /* \"#utility.yul\":8578:8580   */\n      0x20\n        /* \"#utility.yul\":8567:8576   */\n      dup3\n        /* \"#utility.yul\":8563:8581   */\n      add\n        /* \"#utility.yul\":8555:8581   */\n      swap1\n      pop\n        /* \"#utility.yul\":8591:8662   */\n      tag_520\n        /* \"#utility.yul\":8659:8660   */\n      0x00\n        /* \"#utility.yul\":8648:8657   */\n      dup4\n        /* \"#utility.yul\":8644:8661   */\n      add\n        /* \"#utility.yul\":8635:8641   */\n      dup5\n        /* \"#utility.yul\":8591:8662   */\n      tag_341\n      jump\t// in\n    tag_520:\n        /* \"#utility.yul\":8447:8669   */\n      swap3\n      swap2\n      pop\n      pop\n      jump\t// out\n        /* \"#utility.yul\":8675:8818   */\n    tag_350:\n        /* \"#utility.yul\":8771:8777   */\n      0x00\n        /* \"#utility.yul\":8805:8810   */\n      dup2\n        /* \"#utility.yul\":8799:8811   */\n      mload\n        /* \"#utility.yul\":8789:8811   */\n      swap1\n      pop\n        /* \"#utility.yul\":8675:8818   */\n      swap2\n      swap1\n      pop\n      jump\t// out\n        /* \"#utility.yul\":8824:9037   */\n    tag_351:\n        /* \"#utility.yul\":8952:8963   */\n      0x00\n        /* \"#utility.yul\":8986:8992   */\n      dup3\n        /* \"#utility.yul\":8981:8984   */\n      dup3\n        /* \"#utility.yul\":8974:8993   */\n      mstore\n        /* \"#utility.yul\":9026:9030   */\n      0x20\n        /* \"#utility.yul\":9021:9024   */\n      dup3\n        /* \"#utility.yul\":9017:9031   */\n      add\n        /* \"#utility.yul\":9002:9031   */\n      swap1\n      pop\n        /* \"#utility.yul\":8824:9037   */\n      swap3\n      swap2\n      pop\n      pop\n      jump\t// out\n        /* \"#utility.yul\":9043:9204   */\n    tag_352:\n        /* \"#utility.yul\":9139:9143   */\n      0x00\n        /* \"#utility.yul\":9162:9165   */\n      dup2\n        /* \"#utility.yul\":9154:9165   */\n      swap1\n      pop\n        /* \"#utility.yul\":9192:9196   */\n      0x20\n        /* \"#utility.yul\":9187:9190   */\n      dup3\n        /* \"#utility.yul\":9183:9197   */\n      add\n        /* \"#utility.yul\":9175:9197   */\n      swap1\n      pop\n        /* \"#utility.yul\":9043:9204   */\n      swap2\n      swap1\n      pop\n      jump\t// out\n        /* \"#utility.yul\":9210:9318   */\n    tag_353:\n        /* \"#utility.yul\":9287:9311   */\n      tag_525\n        /* \"#utility.yul\":9305:9310   */\n      dup2\n        /* \"#utility.yul\":9287:9311   */\n      tag_323\n      jump\t// in\n    tag_525:\n        /* \"#utility.yul\":9282:9285   */\n      dup3\n        /* \"#utility.yul\":9275:9312   */\n      mstore\n        /* \"#utility.yul\":9210:9318   */\n      pop\n      pop\n      jump\t// out\n        /* \"#utility.yul\":9324:9432   */\n    tag_354:\n        /* \"#utility.yul\":9401:9425   */\n      tag_527\n        /* \"#utility.yul\":9419:9424   */\n      dup2\n        /* \"#utility.yul\":9401:9425   */\n      tag_326\n      jump\t// in\n    tag_527:\n        /* \"#utility.yul\":9396:9399   */\n      dup3\n        /* \"#utility.yul\":9389:9426   */\n      mstore\n        /* \"#utility.yul\":9324:9432   */\n      pop\n      pop\n      jump\t// out\n        /* \"#utility.yul\":9438:9597   */\n    tag_355:\n        /* \"#utility.yul\":9512:9523   */\n      0x00\n        /* \"#utility.yul\":9546:9552   */\n      dup3\n        /* \"#utility.yul\":9541:9544   */\n      dup3\n        /* \"#utility.yul\":9534:9553   */\n      mstore\n        /* \"#utility.yul\":9586:9590   */\n      0x20\n        /* \"#utility.yul\":9581:9584   */\n      dup3\n        /* \"#utility.yul\":9577:9591   */\n      add\n        /* \"#utility.yul\":9562:9591   */\n      swap1\n      pop\n        /* \"#utility.yul\":9438:9597   */\n      swap3\n      swap2\n      pop\n      pop\n      jump\t// out\n        /* \"#utility.yul\":9603:9960   */\n    tag_356:\n        /* \"#utility.yul\":9681:9684   */\n      0x00\n        /* \"#utility.yul\":9709:9748   */\n      tag_530\n        /* \"#utility.yul\":9742:9747   */\n      dup3\n        /* \"#utility.yul\":9709:9748   */\n      tag_342\n      jump\t// in\n    tag_530:\n        /* \"#utility.yul\":9764:9825   */\n      tag_531\n        /* \"#utility.yul\":9818:9824   */\n      dup2\n        /* \"#utility.yul\":9813:9816   */\n      dup6\n        /* \"#utility.yul\":9764:9825   */\n      tag_355\n      jump\t// in\n    tag_531:\n        /* \"#utility.yul\":9757:9825   */\n      swap4\n      pop\n        /* \"#utility.yul\":9834:9899   */\n      tag_532\n        /* \"#utility.yul\":9892:9898   */\n      dup2\n        /* \"#utility.yul\":9887:9890   */\n      dup6\n        /* \"#utility.yul\":9880:9884   */\n      0x20\n        /* \"#utility.yul\":9873:9878   */\n      dup7\n        /* \"#utility.yul\":9869:9885   */\n      add\n        /* \"#utility.yul\":9834:9899   */\n      tag_344\n      jump\t// in\n    tag_532:\n        /* \"#utility.yul\":9924:9953   */\n      tag_533\n        /* \"#utility.yul\":9946:9952   */\n      dup2\n        /* \"#utility.yul\":9924:9953   */\n      tag_330\n      jump\t// in\n    tag_533:\n        /* \"#utility.yul\":9919:9922   */\n      dup5\n        /* \"#utility.yul\":9915:9954   */\n      add\n        /* \"#utility.yul\":9908:9954   */\n      swap2\n      pop\n        /* \"#utility.yul\":9685:9960   */\n      pop\n        /* \"#utility.yul\":9603:9960   */\n      swap3\n      swap2\n      pop\n      pop\n      jump\t// out\n        /* \"#utility.yul\":9966:10117   */\n    tag_357:\n        /* \"#utility.yul\":10058:10110   */\n      tag_535\n        /* \"#utility.yul\":10104:10109   */\n      dup2\n        /* \"#utility.yul\":10058:10110   */\n      tag_348\n      jump\t// in\n    tag_535:\n        /* \"#utility.yul\":10053:10056   */\n      dup3\n        /* \"#utility.yul\":10046:10111   */\n      mstore\n        /* \"#utility.yul\":9966:10117   */\n      pop\n      pop\n      jump\t// out\n        /* \"#utility.yul\":10181:11223   */\n    tag_358:\n        /* \"#utility.yul\":10290:10293   */\n      0x00\n        /* \"#utility.yul\":10326:10330   */\n      0x80\n        /* \"#utility.yul\":10321:10324   */\n      dup4\n        /* \"#utility.yul\":10317:10331   */\n      add\n        /* \"#utility.yul\":10417:10421   */\n      0x00\n        /* \"#utility.yul\":10410:10415   */\n      dup4\n        /* \"#utility.yul\":10406:10422   */\n      add\n        /* \"#utility.yul\":10400:10423   */\n      mload\n        /* \"#utility.yul\":10436:10499   */\n      tag_537\n        /* \"#utility.yul\":10493:10497   */\n      0x00\n        /* \"#utility.yul\":10488:10491   */\n      dup7\n        /* \"#utility.yul\":10484:10498   */\n      add\n        /* \"#utility.yul\":10470:10482   */\n      dup3\n        /* \"#utility.yul\":10436:10499   */\n      tag_353\n      jump\t// in\n    tag_537:\n        /* \"#utility.yul\":10341:10509   */\n      pop\n        /* \"#utility.yul\":10591:10595   */\n      0x20\n        /* \"#utility.yul\":10584:10589   */\n      dup4\n        /* \"#utility.yul\":10580:10596   */\n      add\n        /* \"#utility.yul\":10574:10597   */\n      mload\n        /* \"#utility.yul\":10644:10647   */\n      dup5\n        /* \"#utility.yul\":10638:10642   */\n      dup3\n        /* \"#utility.yul\":10634:10648   */\n      sub\n        /* \"#utility.yul\":10627:10631   */\n      0x20\n        /* \"#utility.yul\":10622:10625   */\n      dup7\n        /* \"#utility.yul\":10618:10632   */\n      add\n        /* \"#utility.yul\":10611:10649   */\n      mstore\n        /* \"#utility.yul\":10670:10743   */\n      tag_538\n        /* \"#utility.yul\":10738:10742   */\n      dup3\n        /* \"#utility.yul\":10724:10736   */\n      dup3\n        /* \"#utility.yul\":10670:10743   */\n      tag_356\n      jump\t// in\n    tag_538:\n        /* \"#utility.yul\":10662:10743   */\n      swap2\n      pop\n        /* \"#utility.yul\":10519:10754   */\n      pop\n        /* \"#utility.yul\":10842:10846   */\n      0x40\n        /* \"#utility.yul\":10835:10840   */\n      dup4\n        /* \"#utility.yul\":10831:10847   */\n      add\n        /* \"#utility.yul\":10825:10848   */\n      mload\n        /* \"#utility.yul\":10895:10898   */\n      dup5\n        /* \"#utility.yul\":10889:10893   */\n      dup3\n        /* \"#utility.yul\":10885:10899   */\n      sub\n        /* \"#utility.yul\":10878:10882   */\n      0x40\n        /* \"#utility.yul\":10873:10876   */\n      dup7\n        /* \"#utility.yul\":10869:10883   */\n      add\n        /* \"#utility.yul\":10862:10900   */\n      mstore\n        /* \"#utility.yul\":10921:10994   */\n      tag_539\n        /* \"#utility.yul\":10989:10993   */\n      dup3\n        /* \"#utility.yul\":10975:10987   */\n      dup3\n        /* \"#utility.yul\":10921:10994   */\n      tag_356\n      jump\t// in\n    tag_539:\n        /* \"#utility.yul\":10913:10994   */\n      swap2\n      pop\n        /* \"#utility.yul\":10764:11005   */\n      pop\n        /* \"#utility.yul\":11089:11093   */\n      0x60\n        /* \"#utility.yul\":11082:11087   */\n      dup4\n        /* \"#utility.yul\":11078:11094   */\n      add\n        /* \"#utility.yul\":11072:11095   */\n      mload\n        /* \"#utility.yul\":11108:11186   */\n      tag_540\n        /* \"#utility.yul\":11180:11184   */\n      0x60\n        /* \"#utility.yul\":11175:11178   */\n      dup7\n        /* \"#utility.yul\":11171:11185   */\n      add\n        /* \"#utility.yul\":11157:11169   */\n      dup3\n        /* \"#utility.yul\":11108:11186   */\n      tag_357\n      jump\t// in\n    tag_540:\n        /* \"#utility.yul\":11015:11196   */\n      pop\n        /* \"#utility.yul\":11213:11217   */\n      dup1\n        /* \"#utility.yul\":11206:11217   */\n      swap2\n      pop\n        /* \"#utility.yul\":10295:11223   */\n      pop\n        /* \"#utility.yul\":10181:11223   */\n      swap3\n      swap2\n      pop\n      pop\n      jump\t// out\n        /* \"#utility.yul\":11295:12116   */\n    tag_359:\n        /* \"#utility.yul\":11412:11415   */\n      0x00\n        /* \"#utility.yul\":11448:11452   */\n      0x60\n        /* \"#utility.yul\":11443:11446   */\n      dup4\n        /* \"#utility.yul\":11439:11453   */\n      add\n        /* \"#utility.yul\":11539:11543   */\n      0x00\n        /* \"#utility.yul\":11532:11537   */\n      dup4\n        /* \"#utility.yul\":11528:11544   */\n      add\n        /* \"#utility.yul\":11522:11545   */\n      mload\n        /* \"#utility.yul\":11558:11621   */\n      tag_542\n        /* \"#utility.yul\":11615:11619   */\n      0x00\n        /* \"#utility.yul\":11610:11613   */\n      dup7\n        /* \"#utility.yul\":11606:11620   */\n      add\n        /* \"#utility.yul\":11592:11604   */\n      dup3\n        /* \"#utility.yul\":11558:11621   */\n      tag_353\n      jump\t// in\n    tag_542:\n        /* \"#utility.yul\":11463:11631   */\n      pop\n        /* \"#utility.yul\":11719:11723   */\n      0x20\n        /* \"#utility.yul\":11712:11717   */\n      dup4\n        /* \"#utility.yul\":11708:11724   */\n      add\n        /* \"#utility.yul\":11702:11725   */\n      mload\n        /* \"#utility.yul\":11738:11801   */\n      tag_543\n        /* \"#utility.yul\":11795:11799   */\n      0x20\n        /* \"#utility.yul\":11790:11793   */\n      dup7\n        /* \"#utility.yul\":11786:11800   */\n      add\n        /* \"#utility.yul\":11772:11784   */\n      dup3\n        /* \"#utility.yul\":11738:11801   */\n      tag_354\n      jump\t// in\n    tag_543:\n        /* \"#utility.yul\":11641:11811   */\n      pop\n        /* \"#utility.yul\":11896:11900   */\n      0x40\n        /* \"#utility.yul\":11889:11894   */\n      dup4\n        /* \"#utility.yul\":11885:11901   */\n      add\n        /* \"#utility.yul\":11879:11902   */\n      mload\n        /* \"#utility.yul\":11949:11952   */\n      dup5\n        /* \"#utility.yul\":11943:11947   */\n      dup3\n        /* \"#utility.yul\":11939:11953   */\n      sub\n        /* \"#utility.yul\":11932:11936   */\n      0x40\n        /* \"#utility.yul\":11927:11930   */\n      dup7\n        /* \"#utility.yul\":11923:11937   */\n      add\n        /* \"#utility.yul\":11916:11954   */\n      mstore\n        /* \"#utility.yul\":11975:12078   */\n      tag_544\n        /* \"#utility.yul\":12073:12077   */\n      dup3\n        /* \"#utility.yul\":12059:12071   */\n      dup3\n        /* \"#utility.yul\":11975:12078   */\n      tag_358\n      jump\t// in\n    tag_544:\n        /* \"#utility.yul\":11967:12078   */\n      swap2\n      pop\n        /* \"#utility.yul\":11821:12089   */\n      pop\n        /* \"#utility.yul\":12106:12110   */\n      dup1\n        /* \"#utility.yul\":12099:12110   */\n      swap2\n      pop\n        /* \"#utility.yul\":11417:12116   */\n      pop\n        /* \"#utility.yul\":11295:12116   */\n      swap3\n      swap2\n      pop\n      pop\n      jump\t// out\n        /* \"#utility.yul\":12122:12394   */\n    tag_360:\n        /* \"#utility.yul\":12249:12259   */\n      0x00\n        /* \"#utility.yul\":12284:12388   */\n      tag_546\n        /* \"#utility.yul\":12384:12387   */\n      dup4\n        /* \"#utility.yul\":12376:12382   */\n      dup4\n        /* \"#utility.yul\":12284:12388   */\n      tag_359\n      jump\t// in\n    tag_546:\n        /* \"#utility.yul\":12270:12388   */\n      swap1\n      pop\n        /* \"#utility.yul\":12122:12394   */\n      swap3\n      swap2\n      pop\n      pop\n      jump\t// out\n        /* \"#utility.yul\":12400:12542   */\n    tag_361:\n        /* \"#utility.yul\":12499:12503   */\n      0x00\n        /* \"#utility.yul\":12531:12535   */\n      0x20\n        /* \"#utility.yul\":12526:12529   */\n      dup3\n        /* \"#utility.yul\":12522:12536   */\n      add\n        /* \"#utility.yul\":12514:12536   */\n      swap1\n      pop\n        /* \"#utility.yul\":12400:12542   */\n      swap2\n      swap1\n      pop\n      jump\t// out\n        /* \"#utility.yul\":12618:13761   */\n    tag_362:\n        /* \"#utility.yul\":12795:12798   */\n      0x00\n        /* \"#utility.yul\":12824:12907   */\n      tag_549\n        /* \"#utility.yul\":12901:12906   */\n      dup3\n        /* \"#utility.yul\":12824:12907   */\n      tag_350\n      jump\t// in\n    tag_549:\n        /* \"#utility.yul\":12923:13038   */\n      tag_550\n        /* \"#utility.yul\":13031:13037   */\n      dup2\n        /* \"#utility.yul\":13026:13029   */\n      dup6\n        /* \"#utility.yul\":12923:13038   */\n      tag_351\n      jump\t// in\n    tag_550:\n        /* \"#utility.yul\":12916:13038   */\n      swap4\n      pop\n        /* \"#utility.yul\":13064:13067   */\n      dup4\n        /* \"#utility.yul\":13109:13113   */\n      0x20\n        /* \"#utility.yul\":13101:13107   */\n      dup3\n        /* \"#utility.yul\":13097:13114   */\n      mul\n        /* \"#utility.yul\":13092:13095   */\n      dup6\n        /* \"#utility.yul\":13088:13115   */\n      add\n        /* \"#utility.yul\":13139:13224   */\n      tag_551\n        /* \"#utility.yul\":13218:13223   */\n      dup6\n        /* \"#utility.yul\":13139:13224   */\n      tag_352\n      jump\t// in\n    tag_551:\n        /* \"#utility.yul\":13247:13254   */\n      dup1\n        /* \"#utility.yul\":13278:13279   */\n      0x00\n        /* \"#utility.yul\":13263:13716   */\n    tag_552:\n        /* \"#utility.yul\":13288:13294   */\n      dup6\n        /* \"#utility.yul\":13285:13286   */\n      dup2\n        /* \"#utility.yul\":13282:13295   */\n      lt\n        /* \"#utility.yul\":13263:13716   */\n      iszero\n      tag_554\n      jumpi\n        /* \"#utility.yul\":13359:13368   */\n      dup5\n        /* \"#utility.yul\":13353:13357   */\n      dup5\n        /* \"#utility.yul\":13349:13369   */\n      sub\n        /* \"#utility.yul\":13344:13347   */\n      dup10\n        /* \"#utility.yul\":13337:13370   */\n      mstore\n        /* \"#utility.yul\":13410:13416   */\n      dup2\n        /* \"#utility.yul\":13404:13417   */\n      mload\n        /* \"#utility.yul\":13438:13560   */\n      tag_555\n        /* \"#utility.yul\":13555:13559   */\n      dup6\n        /* \"#utility.yul\":13540:13553   */\n      dup3\n        /* \"#utility.yul\":13438:13560   */\n      tag_360\n      jump\t// in\n    tag_555:\n        /* \"#utility.yul\":13430:13560   */\n      swap5\n      pop\n        /* \"#utility.yul\":13583:13672   */\n      tag_556\n        /* \"#utility.yul\":13665:13671   */\n      dup4\n        /* \"#utility.yul\":13583:13672   */\n      tag_361\n      jump\t// in\n    tag_556:\n        /* \"#utility.yul\":13573:13672   */\n      swap3\n      pop\n        /* \"#utility.yul\":13701:13705   */\n      0x20\n        /* \"#utility.yul\":13696:13699   */\n      dup11\n        /* \"#utility.yul\":13692:13706   */\n      add\n        /* \"#utility.yul\":13685:13706   */\n      swap10\n      pop\n        /* \"#utility.yul\":13323:13716   */\n      pop\n        /* \"#utility.yul\":13310:13311   */\n      0x01\n        /* \"#utility.yul\":13307:13308   */\n      dup2\n        /* \"#utility.yul\":13303:13312   */\n      add\n        /* \"#utility.yul\":13298:13312   */\n      swap1\n      pop\n        /* \"#utility.yul\":13263:13716   */\n      jump(tag_552)\n    tag_554:\n        /* \"#utility.yul\":13267:13281   */\n      pop\n        /* \"#utility.yul\":13732:13736   */\n      dup3\n        /* \"#utility.yul\":13725:13736   */\n      swap8\n      pop\n        /* \"#utility.yul\":13752:13755   */\n      dup8\n        /* \"#utility.yul\":13745:13755   */\n      swap6\n      pop\n        /* \"#utility.yul\":12800:13761   */\n      pop\n      pop\n      pop\n      pop\n      pop\n        /* \"#utility.yul\":12618:13761   */\n      swap3\n      swap2\n      pop\n      pop\n      jump\t// out\n        /* \"#utility.yul\":13767:14256   */\n    tag_69:\n        /* \"#utility.yul\":13968:13972   */\n      0x00\n        /* \"#utility.yul\":14006:14008   */\n      0x20\n        /* \"#utility.yul\":13995:14004   */\n      dup3\n        /* \"#utility.yul\":13991:14009   */\n      add\n        /* \"#utility.yul\":13983:14009   */\n      swap1\n      pop\n        /* \"#utility.yul\":14055:14064   */\n      dup2\n        /* \"#utility.yul\":14049:14053   */\n      dup2\n        /* \"#utility.yul\":14045:14065   */\n      sub\n        /* \"#utility.yul\":14041:14042   */\n      0x00\n        /* \"#utility.yul\":14030:14039   */\n      dup4\n        /* \"#utility.yul\":14026:14043   */\n      add\n        /* \"#utility.yul\":14019:14066   */\n      mstore\n        /* \"#utility.yul\":14083:14249   */\n      tag_558\n        /* \"#utility.yul\":14244:14248   */\n      dup2\n        /* \"#utility.yul\":14235:14241   */\n      dup5\n        /* \"#utility.yul\":14083:14249   */\n      tag_362\n      jump\t// in\n    tag_558:\n        /* \"#utility.yul\":14075:14249   */\n      swap1\n      pop\n        /* \"#utility.yul\":13767:14256   */\n      swap3\n      swap2\n      pop\n      pop\n      jump\t// out\n        /* \"#utility.yul\":14262:14594   */\n    tag_77:\n        /* \"#utility.yul\":14383:14387   */\n      0x00\n        /* \"#utility.yul\":14421:14423   */\n      0x40\n        /* \"#utility.yul\":14410:14419   */\n      dup3\n        /* \"#utility.yul\":14406:14424   */\n      add\n        /* \"#utility.yul\":14398:14424   */\n      swap1\n      pop\n        /* \"#utility.yul\":14434:14505   */\n      tag_560\n        /* \"#utility.yul\":14502:14503   */\n      0x00\n        /* \"#utility.yul\":14491:14500   */\n      dup4\n        /* \"#utility.yul\":14487:14504   */\n      add\n        /* \"#utility.yul\":14478:14484   */\n      dup6\n        /* \"#utility.yul\":14434:14505   */\n      tag_341\n      jump\t// in\n    tag_560:\n        /* \"#utility.yul\":14515:14587   */\n      tag_561\n        /* \"#utility.yul\":14583:14585   */\n      0x20\n        /* \"#utility.yul\":14572:14581   */\n      dup4\n        /* \"#utility.yul\":14568:14586   */\n      add\n        /* \"#utility.yul\":14559:14565   */\n      dup5\n        /* \"#utility.yul\":14515:14587   */\n      tag_327\n      jump\t// in\n    tag_561:\n        /* \"#utility.yul\":14262:14594   */\n      swap4\n      swap3\n      pop\n      pop\n      pop\n      jump\t// out\n        /* \"#utility.yul\":14600:15074   */\n    tag_89:\n        /* \"#utility.yul\":14668:14674   */\n      0x00\n        /* \"#utility.yul\":14676:14682   */\n      dup1\n        /* \"#utility.yul\":14725:14727   */\n      0x40\n        /* \"#utility.yul\":14713:14722   */\n      dup4\n        /* \"#utility.yul\":14704:14711   */\n      dup6\n        /* \"#utility.yul\":14700:14723   */\n      sub\n        /* \"#utility.yul\":14696:14728   */\n      slt\n        /* \"#utility.yul\":14693:14812   */\n      iszero\n      tag_563\n      jumpi\n        /* \"#utility.yul\":14731:14810   */\n      tag_564\n      tag_320\n      jump\t// in\n    tag_564:\n        /* \"#utility.yul\":14693:14812   */\n    tag_563:\n        /* \"#utility.yul\":14851:14852   */\n      0x00\n        /* \"#utility.yul\":14876:14929   */\n      tag_565\n        /* \"#utility.yul\":14921:14928   */\n      dup6\n        /* \"#utility.yul\":14912:14918   */\n      dup3\n        /* \"#utility.yul\":14901:14910   */\n      dup7\n        /* \"#utility.yul\":14897:14919   */\n      add\n        /* \"#utility.yul\":14876:14929   */\n      tag_340\n      jump\t// in\n    tag_565:\n        /* \"#utility.yul\":14866:14929   */\n      swap3\n      pop\n        /* \"#utility.yul\":14822:14939   */\n      pop\n        /* \"#utility.yul\":14978:14980   */\n      0x20\n        /* \"#utility.yul\":15004:15057   */\n      tag_566\n        /* \"#utility.yul\":15049:15056   */\n      dup6\n        /* \"#utility.yul\":15040:15046   */\n      dup3\n        /* \"#utility.yul\":15029:15038   */\n      dup7\n        /* \"#utility.yul\":15025:15047   */\n      add\n        /* \"#utility.yul\":15004:15057   */\n      tag_340\n      jump\t// in\n    tag_566:\n        /* \"#utility.yul\":14994:15057   */\n      swap2\n      pop\n        /* \"#utility.yul\":14949:15067   */\n      pop\n        /* \"#utility.yul\":14600:15074   */\n      swap3\n      pop\n      swap3\n      swap1\n      pop\n      jump\t// out\n        /* \"#utility.yul\":15080:15304   */\n    tag_363:\n        /* \"#utility.yul\":15220:15254   */\n      0x4f6e6c7920746865206f776e65722063616e2063616c6c20746869732066756e\n        /* \"#utility.yul\":15216:15217   */\n      0x00\n        /* \"#utility.yul\":15208:15214   */\n      dup3\n        /* \"#utility.yul\":15204:15218   */\n      add\n        /* \"#utility.yul\":15197:15255   */\n      mstore\n        /* \"#utility.yul\":15289:15296   */\n      0x6374696f6e000000000000000000000000000000000000000000000000000000\n        /* \"#utility.yul\":15284:15286   */\n      0x20\n        /* \"#utility.yul\":15276:15282   */\n      dup3\n        /* \"#utility.yul\":15272:15287   */\n      add\n        /* \"#utility.yul\":15265:15297   */\n      mstore\n        /* \"#utility.yul\":15080:15304   */\n      pop\n      jump\t// out\n        /* \"#utility.yul\":15310:15676   */\n    tag_364:\n        /* \"#utility.yul\":15452:15455   */\n      0x00\n        /* \"#utility.yul\":15473:15540   */\n      tag_569\n        /* \"#utility.yul\":15537:15539   */\n      0x25\n        /* \"#utility.yul\":15532:15535   */\n      dup4\n        /* \"#utility.yul\":15473:15540   */\n      tag_343\n      jump\t// in\n    tag_569:\n        /* \"#utility.yul\":15466:15540   */\n      swap2\n      pop\n        /* \"#utility.yul\":15549:15642   */\n      tag_570\n        /* \"#utility.yul\":15638:15641   */\n      dup3\n        /* \"#utility.yul\":15549:15642   */\n      tag_363\n      jump\t// in\n    tag_570:\n        /* \"#utility.yul\":15667:15669   */\n      0x40\n        /* \"#utility.yul\":15662:15665   */\n      dup3\n        /* \"#utility.yul\":15658:15670   */\n      add\n        /* \"#utility.yul\":15651:15670   */\n      swap1\n      pop\n        /* \"#utility.yul\":15310:15676   */\n      swap2\n      swap1\n      pop\n      jump\t// out\n        /* \"#utility.yul\":15682:16101   */\n    tag_94:\n        /* \"#utility.yul\":15848:15852   */\n      0x00\n        /* \"#utility.yul\":15886:15888   */\n      0x20\n        /* \"#utility.yul\":15875:15884   */\n      dup3\n        /* \"#utility.yul\":15871:15889   */\n      add\n        /* \"#utility.yul\":15863:15889   */\n      swap1\n      pop\n        /* \"#utility.yul\":15935:15944   */\n      dup2\n        /* \"#utility.yul\":15929:15933   */\n      dup2\n        /* \"#utility.yul\":15925:15945   */\n      sub\n        /* \"#utility.yul\":15921:15922   */\n      0x00\n        /* \"#utility.yul\":15910:15919   */\n      dup4\n        /* \"#utility.yul\":15906:15923   */\n      add\n        /* \"#utility.yul\":15899:15946   */\n      mstore\n        /* \"#utility.yul\":15963:16094   */\n      tag_572\n        /* \"#utility.yul\":16089:16093   */\n      dup2\n        /* \"#utility.yul\":15963:16094   */\n      tag_364\n      jump\t// in\n    tag_572:\n        /* \"#utility.yul\":15955:16094   */\n      swap1\n      pop\n        /* \"#utility.yul\":15682:16101   */\n      swap2\n      swap1\n      pop\n      jump\t// out\n        /* \"#utility.yul\":16107:16276   */\n    tag_365:\n        /* \"#utility.yul\":16247:16268   */\n      0x43616e646964617465206e6f7420666f756e6400000000000000000000000000\n        /* \"#utility.yul\":16243:16244   */\n      0x00\n        /* \"#utility.yul\":16235:16241   */\n      dup3\n        /* \"#utility.yul\":16231:16245   */\n      add\n        /* \"#utility.yul\":16224:16269   */\n      mstore\n        /* \"#utility.yul\":16107:16276   */\n      pop\n      jump\t// out\n        /* \"#utility.yul\":16282:16648   */\n    tag_366:\n        /* \"#utility.yul\":16424:16427   */\n      0x00\n        /* \"#utility.yul\":16445:16512   */\n      tag_575\n        /* \"#utility.yul\":16509:16511   */\n      0x13\n        /* \"#utility.yul\":16504:16507   */\n      dup4\n        /* \"#utility.yul\":16445:16512   */\n      tag_343\n      jump\t// in\n    tag_575:\n        /* \"#utility.yul\":16438:16512   */\n      swap2\n      pop\n        /* \"#utility.yul\":16521:16614   */\n      tag_576\n        /* \"#utility.yul\":16610:16613   */\n      dup3\n        /* \"#utility.yul\":16521:16614   */\n      tag_365\n      jump\t// in\n    tag_576:\n        /* \"#utility.yul\":16639:16641   */\n      0x20\n        /* \"#utility.yul\":16634:16637   */\n      dup3\n        /* \"#utility.yul\":16630:16642   */\n      add\n        /* \"#utility.yul\":16623:16642   */\n      swap1\n      pop\n        /* \"#utility.yul\":16282:16648   */\n      swap2\n      swap1\n      pop\n      jump\t// out\n        /* \"#utility.yul\":16654:17073   */\n    tag_98:\n        /* \"#utility.yul\":16820:16824   */\n      0x00\n        /* \"#utility.yul\":16858:16860   */\n      0x20\n        /* \"#utility.yul\":16847:16856   */\n      dup3\n        /* \"#utility.yul\":16843:16861   */\n      add\n        /* \"#utility.yul\":16835:16861   */\n      swap1\n      pop\n        /* \"#utility.yul\":16907:16916   */\n      dup2\n        /* \"#utility.yul\":16901:16905   */\n      dup2\n        /* \"#utility.yul\":16897:16917   */\n      sub\n        /* \"#utility.yul\":16893:16894   */\n      0x00\n        /* \"#utility.yul\":16882:16891   */\n      dup4\n        /* \"#utility.yul\":16878:16895   */\n      add\n        /* \"#utility.yul\":16871:16918   */\n      mstore\n        /* \"#utility.yul\":16935:17066   */\n      tag_578\n        /* \"#utility.yul\":17061:17065   */\n      dup2\n        /* \"#utility.yul\":16935:17066   */\n      tag_366\n      jump\t// in\n    tag_578:\n        /* \"#utility.yul\":16927:17066   */\n      swap1\n      pop\n        /* \"#utility.yul\":16654:17073   */\n      swap2\n      swap1\n      pop\n      jump\t// out\n        /* \"#utility.yul\":17079:17315   */\n    tag_367:\n        /* \"#utility.yul\":17219:17253   */\n      0x43616e6e6f74207570646174652063616e646964617465732061667465722076\n        /* \"#utility.yul\":17215:17216   */\n      0x00\n        /* \"#utility.yul\":17207:17213   */\n      dup3\n        /* \"#utility.yul\":17203:17217   */\n      add\n        /* \"#utility.yul\":17196:17254   */\n      mstore\n        /* \"#utility.yul\":17288:17307   */\n      0x6f74696e67206861732073746172746564000000000000000000000000000000\n        /* \"#utility.yul\":17283:17285   */\n      0x20\n        /* \"#utility.yul\":17275:17281   */\n      dup3\n        /* \"#utility.yul\":17271:17286   */\n      add\n        /* \"#utility.yul\":17264:17308   */\n      mstore\n        /* \"#utility.yul\":17079:17315   */\n      pop\n      jump\t// out\n        /* \"#utility.yul\":17321:17687   */\n    tag_368:\n        /* \"#utility.yul\":17463:17466   */\n      0x00\n        /* \"#utility.yul\":17484:17551   */\n      tag_581\n        /* \"#utility.yul\":17548:17550   */\n      0x31\n        /* \"#utility.yul\":17543:17546   */\n      dup4\n        /* \"#utility.yul\":17484:17551   */\n      tag_343\n      jump\t// in\n    tag_581:\n        /* \"#utility.yul\":17477:17551   */\n      swap2\n      pop\n        /* \"#utility.yul\":17560:17653   */\n      tag_582\n        /* \"#utility.yul\":17649:17652   */\n      dup3\n        /* \"#utility.yul\":17560:17653   */\n      tag_367\n      jump\t// in\n    tag_582:\n        /* \"#utility.yul\":17678:17680   */\n      0x40\n        /* \"#utility.yul\":17673:17676   */\n      dup3\n        /* \"#utility.yul\":17669:17681   */\n      add\n        /* \"#utility.yul\":17662:17681   */\n      swap1\n      pop\n        /* \"#utility.yul\":17321:17687   */\n      swap2\n      swap1\n      pop\n      jump\t// out\n        /* \"#utility.yul\":17693:18112   */\n    tag_102:\n        /* \"#utility.yul\":17859:17863   */\n      0x00\n        /* \"#utility.yul\":17897:17899   */\n      0x20\n        /* \"#utility.yul\":17886:17895   */\n      dup3\n        /* \"#utility.yul\":17882:17900   */\n      add\n        /* \"#utility.yul\":17874:17900   */\n      swap1\n      pop\n        /* \"#utility.yul\":17946:17955   */\n      dup2\n        /* \"#utility.yul\":17940:17944   */\n      dup2\n        /* \"#utility.yul\":17936:17956   */\n      sub\n        /* \"#utility.yul\":17932:17933   */\n      0x00\n        /* \"#utility.yul\":17921:17930   */\n      dup4\n        /* \"#utility.yul\":17917:17934   */\n      add\n        /* \"#utility.yul\":17910:17957   */\n      mstore\n        /* \"#utility.yul\":17974:18105   */\n      tag_584\n        /* \"#utility.yul\":18100:18104   */\n      dup2\n        /* \"#utility.yul\":17974:18105   */\n      tag_368\n      jump\t// in\n    tag_584:\n        /* \"#utility.yul\":17966:18105   */\n      swap1\n      pop\n        /* \"#utility.yul\":17693:18112   */\n      swap2\n      swap1\n      pop\n      jump\t// out\n        /* \"#utility.yul\":18118:18298   */\n    tag_369:\n        /* \"#utility.yul\":18166:18243   */\n      0x4e487b7100000000000000000000000000000000000000000000000000000000\n        /* \"#utility.yul\":18163:18164   */\n      0x00\n        /* \"#utility.yul\":18156:18244   */\n      mstore\n        /* \"#utility.yul\":18263:18267   */\n      0x22\n        /* \"#utility.yul\":18260:18261   */\n      0x04\n        /* \"#utility.yul\":18253:18268   */\n      mstore\n        /* \"#utility.yul\":18287:18291   */\n      0x24\n        /* \"#utility.yul\":18284:18285   */\n      0x00\n        /* \"#utility.yul\":18277:18292   */\n      revert\n        /* \"#utility.yul\":18304:18624   */\n    tag_136:\n        /* \"#utility.yul\":18348:18354   */\n      0x00\n        /* \"#utility.yul\":18385:18386   */\n      0x02\n        /* \"#utility.yul\":18379:18383   */\n      dup3\n        /* \"#utility.yul\":18375:18387   */\n      div\n        /* \"#utility.yul\":18365:18387   */\n      swap1\n      pop\n        /* \"#utility.yul\":18432:18433   */\n      0x01\n        /* \"#utility.yul\":18426:18430   */\n      dup3\n        /* \"#utility.yul\":18422:18434   */\n      and\n        /* \"#utility.yul\":18453:18471   */\n      dup1\n        /* \"#utility.yul\":18443:18524   */\n      tag_587\n      jumpi\n        /* \"#utility.yul\":18509:18513   */\n      0x7f\n        /* \"#utility.yul\":18501:18507   */\n      dup3\n        /* \"#utility.yul\":18497:18514   */\n      and\n        /* \"#utility.yul\":18487:18514   */\n      swap2\n      pop\n        /* \"#utility.yul\":18443:18524   */\n    tag_587:\n        /* \"#utility.yul\":18571:18573   */\n      0x20\n        /* \"#utility.yul\":18563:18569   */\n      dup3\n        /* \"#utility.yul\":18560:18574   */\n      lt\n        /* \"#utility.yul\":18540:18558   */\n      dup2\n        /* \"#utility.yul\":18537:18575   */\n      sub\n        /* \"#utility.yul\":18534:18618   */\n      tag_588\n      jumpi\n        /* \"#utility.yul\":18590:18608   */\n      tag_589\n      tag_369\n      jump\t// in\n    tag_589:\n        /* \"#utility.yul\":18534:18618   */\n    tag_588:\n        /* \"#utility.yul\":18355:18624   */\n      pop\n        /* \"#utility.yul\":18304:18624   */\n      swap2\n      swap1\n      pop\n      jump\t// out\n        /* \"#utility.yul\":18630:18771   */\n    tag_370:\n        /* \"#utility.yul\":18679:18683   */\n      0x00\n        /* \"#utility.yul\":18702:18705   */\n      dup2\n        /* \"#utility.yul\":18694:18705   */\n      swap1\n      pop\n        /* \"#utility.yul\":18725:18728   */\n      dup2\n        /* \"#utility.yul\":18722:18723   */\n      0x00\n        /* \"#utility.yul\":18715:18729   */\n      mstore\n        /* \"#utility.yul\":18759:18763   */\n      0x20\n        /* \"#utility.yul\":18756:18757   */\n      0x00\n        /* \"#utility.yul\":18746:18764   */\n      keccak256\n        /* \"#utility.yul\":18738:18764   */\n      swap1\n      pop\n        /* \"#utility.yul\":18630:18771   */\n      swap2\n      swap1\n      pop\n      jump\t// out\n        /* \"#utility.yul\":18777:18870   */\n    tag_371:\n        /* \"#utility.yul\":18814:18820   */\n      0x00\n        /* \"#utility.yul\":18861:18863   */\n      0x20\n        /* \"#utility.yul\":18856:18858   */\n      0x1f\n        /* \"#utility.yul\":18849:18854   */\n      dup4\n        /* \"#utility.yul\":18845:18859   */\n      add\n        /* \"#utility.yul\":18841:18864   */\n      div\n        /* \"#utility.yul\":18831:18864   */\n      swap1\n      pop\n        /* \"#utility.yul\":18777:18870   */\n      swap2\n      swap1\n      pop\n      jump\t// out\n        /* \"#utility.yul\":18876:18983   */\n    tag_372:\n        /* \"#utility.yul\":18920:18928   */\n      0x00\n        /* \"#utility.yul\":18970:18975   */\n      dup3\n        /* \"#utility.yul\":18964:18968   */\n      dup3\n        /* \"#utility.yul\":18960:18976   */\n      shl\n        /* \"#utility.yul\":18939:18976   */\n      swap1\n      pop\n        /* \"#utility.yul\":18876:18983   */\n      swap3\n      swap2\n      pop\n      pop\n      jump\t// out\n        /* \"#utility.yul\":18989:19382   */\n    tag_373:\n        /* \"#utility.yul\":19058:19064   */\n      0x00\n        /* \"#utility.yul\":19108:19109   */\n      0x08\n        /* \"#utility.yul\":19096:19106   */\n      dup4\n        /* \"#utility.yul\":19092:19110   */\n      mul\n        /* \"#utility.yul\":19131:19228   */\n      tag_594\n        /* \"#utility.yul\":19161:19227   */\n      0xffffffffffffffffffffffffffffffffffffffffffffffffffffffffffffffff\n        /* \"#utility.yul\":19150:19159   */\n      dup3\n        /* \"#utility.yul\":19131:19228   */\n      tag_372\n      jump\t// in\n    tag_594:\n        /* \"#utility.yul\":19249:19288   */\n      tag_595\n        /* \"#utility.yul\":19279:19287   */\n      dup7\n        /* \"#utility.yul\":19268:19277   */\n      dup4\n        /* \"#utility.yul\":19249:19288   */\n      tag_372\n      jump\t// in\n    tag_595:\n        /* \"#utility.yul\":19237:19288   */\n      swap6\n      pop\n        /* \"#utility.yul\":19321:19325   */\n      dup1\n        /* \"#utility.yul\":19317:19326   */\n      not\n        /* \"#utility.yul\":19310:19315   */\n      dup5\n        /* \"#utility.yul\":19306:19327   */\n      and\n        /* \"#utility.yul\":19297:19327   */\n      swap4\n      pop\n        /* \"#utility.yul\":19370:19374   */\n      dup1\n        /* \"#utility.yul\":19360:19368   */\n      dup7\n        /* \"#utility.yul\":19356:19375   */\n      and\n        /* \"#utility.yul\":19349:19354   */\n      dup5\n        /* \"#utility.yul\":19346:19376   */\n      or\n        /* \"#utility.yul\":19336:19376   */\n      swap3\n      pop\n        /* \"#utility.yul\":19065:19382   */\n      pop\n      pop\n        /* \"#utility.yul\":18989:19382   */\n      swap4\n      swap3\n      pop\n      pop\n      pop\n      jump\t// out\n        /* \"#utility.yul\":19388:19448   */\n    tag_374:\n        /* \"#utility.yul\":19416:19419   */\n      0x00\n        /* \"#utility.yul\":19437:19442   */\n      dup2\n        /* \"#utility.yul\":19430:19442   */\n      swap1\n      pop\n        /* \"#utility.yul\":19388:19448   */\n      swap2\n      swap1\n      pop\n      jump\t// out\n        /* \"#utility.yul\":19454:19596   */\n    tag_375:\n        /* \"#utility.yul\":19504:19513   */\n      0x00\n        /* \"#utility.yul\":19537:19590   */\n      tag_598\n        /* \"#utility.yul\":19555:19589   */\n      tag_599\n        /* \"#utility.yul\":19564:19588   */\n      tag_600\n        /* \"#utility.yul\":19582:19587   */\n      dup5\n        /* \"#utility.yul\":19564:19588   */\n      tag_326\n      jump\t// in\n    tag_600:\n        /* \"#utility.yul\":19555:19589   */\n      tag_374\n      jump\t// in\n    tag_599:\n        /* \"#utility.yul\":19537:19590   */\n      tag_326\n      jump\t// in\n    tag_598:\n        /* \"#utility.yul\":19524:19590   */\n      swap1\n      pop\n        /* \"#utility.yul\":19454:19596   */\n      swap2\n      swap1\n      pop\n      jump\t// out\n        /* \"#utility.yul\":19602:19677   */\n    tag_376:\n        /* \"#utility.yul\":19645:19648   */\n      0x00\n        /* \"#utility.yul\":19666:19671   */\n      dup2\n        /* \"#utility.yul\":19659:19671   */\n      swap1\n      pop\n        /* \"#utility.yul\":19602:19677   */\n      swap2\n      swap1\n      pop\n      jump\t// out\n        /* \"#utility.yul\":19683:19952   */\n    tag_377:\n        /* \"#utility.yul\":19793:19832   */\n      tag_603\n        /* \"#utility.yul\":19824:19831   */\n      dup4\n        /* \"#utility.yul\":19793:19832   */\n      tag_375\n      jump\t// in\n    tag_603:\n        /* \"#utility.yul\":19854:19945   */\n      tag_604\n        /* \"#utility.yul\":19903:19944   */\n      tag_605\n        /* \"#utility.yul\":19927:19943   */\n      dup3\n        /* \"#utility.yul\":19903:19944   */\n      tag_376\n      jump\t// in\n    tag_605:\n        /* \"#utility.yul\":19895:19901   */\n      dup5\n        /* \"#utility.yul\":19888:19892   */\n      dup5\n        /* \"#utility.yul\":19882:19893   */\n      sload\n        /* \"#utility.yul\":19854:19945   */\n      tag_373\n      jump\t// in\n    tag_604:\n        /* \"#utility.yul\":19848:19852   */\n      dup3\n        /* \"#utility.yul\":19841:19946   */\n      sstore\n        /* \"#utility.yul\":19759:19952   */\n      pop\n        /* \"#utility.yul\":19683:19952   */\n      pop\n      pop\n      pop\n      jump\t// out\n        /* \"#utility.yul\":19958:20031   */\n    tag_378:\n        /* \"#utility.yul\":20003:20006   */\n      0x00\n        /* \"#utility.yul\":19958:20031   */\n      swap1\n      jump\t// out\n        /* \"#utility.yul\":20037:20226   */\n    tag_379:\n        /* \"#utility.yul\":20114:20146   */\n      tag_608\n      tag_378\n      jump\t// in\n    tag_608:\n        /* \"#utility.yul\":20155:20220   */\n      tag_609\n        /* \"#utility.yul\":20213:20219   */\n      dup2\n        /* \"#utility.yul\":20205:20211   */\n      dup5\n        /* \"#utility.yul\":20199:20203   */\n      dup5\n        /* \"#utility.yul\":20155:20220   */\n      tag_377\n      jump\t// in\n    tag_609:\n        /* \"#utility.yul\":20090:20226   */\n      pop\n        /* \"#utility.yul\":20037:20226   */\n      pop\n      pop\n      jump\t// out\n        /* \"#utility.yul\":20232:20418   */\n    tag_380:\n        /* \"#utility.yul\":20292:20412   */\n    tag_611:\n        /* \"#utility.yul\":20309:20312   */\n      dup2\n        /* \"#utility.yul\":20302:20307   */\n      dup2\n        /* \"#utility.yul\":20299:20313   */\n      lt\n        /* \"#utility.yul\":20292:20412   */\n      iszero\n      tag_613\n      jumpi\n        /* \"#utility.yul\":20363:20402   */\n      tag_614\n        /* \"#utility.yul\":20400:20401   */\n      0x00\n        /* \"#utility.yul\":20393:20398   */\n      dup3\n        /* \"#utility.yul\":20363:20402   */\n      tag_379\n      jump\t// in\n    tag_614:\n        /* \"#utility.yul\":20336:20337   */\n      0x01\n        /* \"#utility.yul\":20329:20334   */\n      dup2\n        /* \"#utility.yul\":20325:20338   */\n      add\n        /* \"#utility.yul\":20316:20338   */\n      swap1\n      pop\n        /* \"#utility.yul\":20292:20412   */\n      jump(tag_611)\n    tag_613:\n        /* \"#utility.yul\":20232:20418   */\n      pop\n      pop\n      jump\t// out\n        /* \"#utility.yul\":20424:20967   */\n    tag_381:\n        /* \"#utility.yul\":20525:20527   */\n      0x1f\n        /* \"#utility.yul\":20520:20523   */\n      dup3\n        /* \"#utility.yul\":20517:20528   */\n      gt\n        /* \"#utility.yul\":20514:20960   */\n      iszero\n      tag_616\n      jumpi\n        /* \"#utility.yul\":20559:20597   */\n      tag_617\n        /* \"#utility.yul\":20591:20596   */\n      dup2\n        /* \"#utility.yul\":20559:20597   */\n      tag_370\n      jump\t// in\n    tag_617:\n        /* \"#utility.yul\":20643:20672   */\n      tag_618\n        /* \"#utility.yul\":20661:20671   */\n      dup5\n        /* \"#utility.yul\":20643:20672   */\n      tag_371\n      jump\t// in\n    tag_618:\n        /* \"#utility.yul\":20633:20641   */\n      dup2\n        /* \"#utility.yul\":20629:20673   */\n      add\n        /* \"#utility.yul\":20826:20828   */\n      0x20\n        /* \"#utility.yul\":20814:20824   */\n      dup6\n        /* \"#utility.yul\":20811:20829   */\n      lt\n        /* \"#utility.yul\":20808:20857   */\n      iszero\n      tag_619\n      jumpi\n        /* \"#utility.yul\":20847:20855   */\n      dup2\n        /* \"#utility.yul\":20832:20855   */\n      swap1\n      pop\n        /* \"#utility.yul\":20808:20857   */\n    tag_619:\n        /* \"#utility.yul\":20870:20950   */\n      tag_620\n        /* \"#utility.yul\":20926:20948   */\n      tag_621\n        /* \"#utility.yul\":20944:20947   */\n      dup6\n        /* \"#utility.yul\":20926:20948   */\n      tag_371\n      jump\t// in\n    tag_621:\n        /* \"#utility.yul\":20916:20924   */\n      dup4\n        /* \"#utility.yul\":20912:20949   */\n      add\n        /* \"#utility.yul\":20899:20910   */\n      dup3\n        /* \"#utility.yul\":20870:20950   */\n      tag_380\n      jump\t// in\n    tag_620:\n        /* \"#utility.yul\":20529:20960   */\n      pop\n      pop\n        /* \"#utility.yul\":20514:20960   */\n    tag_616:\n        /* \"#utility.yul\":20424:20967   */\n      pop\n      pop\n      pop\n      jump\t// out\n        /* \"#utility.yul\":20973:21090   */\n    tag_382:\n        /* \"#utility.yul\":21027:21035   */\n      0x00\n        /* \"#utility.yul\":21077:21082   */\n      dup3\n        /* \"#utility.yul\":21071:21075   */\n      dup3\n        /* \"#utility.yul\":21067:21083   */\n      shr\n        /* \"#utility.yul\":21046:21083   */\n      swap1\n      pop\n        /* \"#utility.yul\":20973:21090   */\n      swap3\n      swap2\n      pop\n      pop\n      jump\t// out\n        /* \"#utility.yul\":21096:21265   */\n    tag_383:\n        /* \"#utility.yul\":21140:21146   */\n      0x00\n        /* \"#utility.yul\":21173:21224   */\n      tag_624\n        /* \"#utility.yul\":21221:21222   */\n      0x00\n        /* \"#utility.yul\":21217:21223   */\n      not\n        /* \"#utility.yul\":21209:21214   */\n      dup5\n        /* \"#utility.yul\":21206:21207   */\n      0x08\n        /* \"#utility.yul\":21202:21215   */\n      mul\n        /* \"#utility.yul\":21173:21224   */\n      tag_382\n      jump\t// in\n    tag_624:\n        /* \"#utility.yul\":21169:21225   */\n      not\n        /* \"#utility.yul\":21254:21258   */\n      dup1\n        /* \"#utility.yul\":21248:21252   */\n      dup4\n        /* \"#utility.yul\":21244:21259   */\n      and\n        /* \"#utility.yul\":21234:21259   */\n      swap2\n      pop\n        /* \"#utility.yul\":21147:21265   */\n      pop\n        /* \"#utility.yul\":21096:21265   */\n      swap3\n      swap2\n      pop\n      pop\n      jump\t// out\n        /* \"#utility.yul\":21270:21565   */\n    tag_384:\n        /* \"#utility.yul\":21346:21350   */\n      0x00\n        /* \"#utility.yul\":21492:21521   */\n      tag_626\n        /* \"#utility.yul\":21517:21520   */\n      dup4\n        /* \"#utility.yul\":21511:21515   */\n      dup4\n        /* \"#utility.yul\":21492:21521   */\n      tag_383\n      jump\t// in\n    tag_626:\n        /* \"#utility.yul\":21484:21521   */\n      swap2\n      pop\n        /* \"#utility.yul\":21554:21557   */\n      dup3\n        /* \"#utility.yul\":21551:21552   */\n      0x02\n        /* \"#utility.yul\":21547:21558   */\n      mul\n        /* \"#utility.yul\":21541:21545   */\n      dup3\n        /* \"#utility.yul\":21538:21559   */\n      or\n        /* \"#utility.yul\":21530:21559   */\n      swap1\n      pop\n        /* \"#utility.yul\":21270:21565   */\n      swap3\n      swap2\n      pop\n      pop\n      jump\t// out\n        /* \"#utility.yul\":21570:22965   */\n    tag_107:\n        /* \"#utility.yul\":21687:21724   */\n      tag_628\n        /* \"#utility.yul\":21720:21723   */\n      dup3\n        /* \"#utility.yul\":21687:21724   */\n      tag_342\n      jump\t// in\n    tag_628:\n        /* \"#utility.yul\":21789:21807   */\n      0xffffffffffffffff\n        /* \"#utility.yul\":21781:21787   */\n      dup2\n        /* \"#utility.yul\":21778:21808   */\n      gt\n        /* \"#utility.yul\":21775:21831   */\n      iszero\n      tag_629\n      jumpi\n        /* \"#utility.yul\":21811:21829   */\n      tag_630\n      tag_205\n      jump\t// in\n    tag_630:\n        /* \"#utility.yul\":21775:21831   */\n    tag_629:\n        /* \"#utility.yul\":21855:21893   */\n      tag_631\n        /* \"#utility.yul\":21887:21891   */\n      dup3\n        /* \"#utility.yul\":21881:21892   */\n      sload\n        /* \"#utility.yul\":21855:21893   */\n      tag_136\n      jump\t// in\n    tag_631:\n        /* \"#utility.yul\":21940:22007   */\n      tag_632\n        /* \"#utility.yul\":22000:22006   */\n      dup3\n        /* \"#utility.yul\":21992:21998   */\n      dup3\n        /* \"#utility.yul\":21986:21990   */\n      dup6\n        /* \"#utility.yul\":21940:22007   */\n      tag_381\n      jump\t// in\n    tag_632:\n        /* \"#utility.yul\":22034:22035   */\n      0x00\n        /* \"#utility.yul\":22058:22062   */\n      0x20\n        /* \"#utility.yul\":22045:22062   */\n      swap1\n      pop\n        /* \"#utility.yul\":22090:22092   */\n      0x1f\n        /* \"#utility.yul\":22082:22088   */\n      dup4\n        /* \"#utility.yul\":22079:22093   */\n      gt\n        /* \"#utility.yul\":22107:22108   */\n      0x01\n        /* \"#utility.yul\":22102:22720   */\n      dup2\n      eq\n      tag_634\n      jumpi\n        /* \"#utility.yul\":22764:22765   */\n      0x00\n        /* \"#utility.yul\":22781:22787   */\n      dup5\n        /* \"#utility.yul\":22778:22855   */\n      iszero\n      tag_635\n      jumpi\n        /* \"#utility.yul\":22830:22839   */\n      dup3\n        /* \"#utility.yul\":22825:22828   */\n      dup8\n        /* \"#utility.yul\":22821:22840   */\n      add\n        /* \"#utility.yul\":22815:22841   */\n      mload\n        /* \"#utility.yul\":22806:22841   */\n      swap1\n      pop\n        /* \"#utility.yul\":22778:22855   */\n    tag_635:\n        /* \"#utility.yul\":22881:22948   */\n      tag_636\n        /* \"#utility.yul\":22941:22947   */\n      dup6\n        /* \"#utility.yul\":22934:22939   */\n      dup3\n        /* \"#utility.yul\":22881:22948   */\n      tag_384\n      jump\t// in\n    tag_636:\n        /* \"#utility.yul\":22875:22879   */\n      dup7\n        /* \"#utility.yul\":22868:22949   */\n      sstore\n        /* \"#utility.yul\":22737:22959   */\n      pop\n        /* \"#utility.yul\":22072:22959   */\n      jump(tag_633)\n        /* \"#utility.yul\":22102:22720   */\n    tag_634:\n        /* \"#utility.yul\":22154:22158   */\n      0x1f\n        /* \"#utility.yul\":22150:22159   */\n      not\n        /* \"#utility.yul\":22142:22148   */\n      dup5\n        /* \"#utility.yul\":22138:22160   */\n      and\n        /* \"#utility.yul\":22188:22225   */\n      tag_637\n        /* \"#utility.yul\":22220:22224   */\n      dup7\n        /* \"#utility.yul\":22188:22225   */\n      tag_370\n      jump\t// in\n    tag_637:\n        /* \"#utility.yul\":22247:22248   */\n      0x00\n        /* \"#utility.yul\":22261:22469   */\n    tag_638:\n        /* \"#utility.yul\":22275:22282   */\n      dup3\n        /* \"#utility.yul\":22272:22273   */\n      dup2\n        /* \"#utility.yul\":22269:22283   */\n      lt\n        /* \"#utility.yul\":22261:22469   */\n      iszero\n      tag_640\n      jumpi\n        /* \"#utility.yul\":22354:22363   */\n      dup5\n        /* \"#utility.yul\":22349:22352   */\n      dup10\n        /* \"#utility.yul\":22345:22364   */\n      add\n        /* \"#utility.yul\":22339:22365   */\n      mload\n        /* \"#utility.yul\":22331:22337   */\n      dup3\n        /* \"#utility.yul\":22324:22366   */\n      sstore\n        /* \"#utility.yul\":22405:22406   */\n      0x01\n        /* \"#utility.yul\":22397:22403   */\n      dup3\n        /* \"#utility.yul\":22393:22407   */\n      add\n        /* \"#utility.yul\":22383:22407   */\n      swap2\n      pop\n        /* \"#utility.yul\":22452:22454   */\n      0x20\n        /* \"#utility.yul\":22441:22450   */\n      dup6\n        /* \"#utility.yul\":22437:22455   */\n      add\n        /* \"#utility.yul\":22424:22455   */\n      swap5\n      pop\n        /* \"#utility.yul\":22298:22302   */\n      0x20\n        /* \"#utility.yul\":22295:22296   */\n      dup2\n        /* \"#utility.yul\":22291:22303   */\n      add\n        /* \"#utility.yul\":22286:22303   */\n      swap1\n      pop\n        /* \"#utility.yul\":22261:22469   */\n      jump(tag_638)\n    tag_640:\n        /* \"#utility.yul\":22497:22503   */\n      dup7\n        /* \"#utility.yul\":22488:22495   */\n      dup4\n        /* \"#utility.yul\":22485:22504   */\n      lt\n        /* \"#utility.yul\":22482:22661   */\n      iszero\n      tag_641\n      jumpi\n        /* \"#utility.yul\":22555:22564   */\n      dup5\n        /* \"#utility.yul\":22550:22553   */\n      dup10\n        /* \"#utility.yul\":22546:22565   */\n      add\n        /* \"#utility.yul\":22540:22566   */\n      mload\n        /* \"#utility.yul\":22598:22646   */\n      tag_642\n        /* \"#utility.yul\":22640:22644   */\n      0x1f\n        /* \"#utility.yul\":22632:22638   */\n      dup10\n        /* \"#utility.yul\":22628:22645   */\n      and\n        /* \"#utility.yul\":22617:22626   */\n      dup3\n        /* \"#utility.yul\":22598:22646   */\n      tag_383\n      jump\t// in\n    tag_642:\n        /* \"#utility.yul\":22590:22596   */\n      dup4\n        /* \"#utility.yul\":22583:22647   */\n      sstore\n        /* \"#utility.yul\":22505:22661   */\n      pop\n        /* \"#utility.yul\":22482:22661   */\n    tag_641:\n        /* \"#utility.yul\":22707:22708   */\n      0x01\n        /* \"#utility.yul\":22703:22704   */\n      0x02\n        /* \"#utility.yul\":22695:22701   */\n      dup9\n        /* \"#utility.yul\":22691:22705   */\n      mul\n        /* \"#utility.yul\":22687:22709   */\n      add\n        /* \"#utility.yul\":22681:22685   */\n      dup9\n        /* \"#utility.yul\":22674:22710   */\n      sstore\n        /* \"#utility.yul\":22109:22720   */\n      pop\n      pop\n      pop\n        /* \"#utility.yul\":22072:22959   */\n    tag_633:\n      pop\n        /* \"#utility.yul\":21662:22965   */\n      pop\n      pop\n      pop\n        /* \"#utility.yul\":21570:22965   */\n      pop\n      pop\n      jump\t// out\n        /* \"#utility.yul\":22971:23141   */\n    tag_385:\n        /* \"#utility.yul\":23111:23133   */\n      0x566f74696e67206973206e6f7420616374697665000000000000000000000000\n        /* \"#utility.yul\":23107:23108   */\n      0x00\n        /* \"#utility.yul\":23099:23105   */\n      dup3\n        /* \"#utility.yul\":23095:23109   */\n      add\n        /* \"#utility.yul\":23088:23134   */\n      mstore\n        /* \"#utility.yul\":22971:23141   */\n      pop\n      jump\t// out\n        /* \"#utility.yul\":23147:23513   */\n    tag_386:\n        /* \"#utility.yul\":23289:23292   */\n      0x00\n        /* \"#utility.yul\":23310:23377   */\n      tag_645\n        /* \"#utility.yul\":23374:23376   */\n      0x14\n        /* \"#utility.yul\":23369:23372   */\n      dup4\n        /* \"#utility.yul\":23310:23377   */\n      tag_343\n      jump\t// in\n    tag_645:\n        /* \"#utility.yul\":23303:23377   */\n      swap2\n      pop\n        /* \"#utility.yul\":23386:23479   */\n      tag_646\n        /* \"#utility.yul\":23475:23478   */\n      dup3\n        /* \"#utility.yul\":23386:23479   */\n      tag_385\n      jump\t// in\n    tag_646:\n        /* \"#utility.yul\":23504:23506   */\n      0x20\n        /* \"#utility.yul\":23499:23502   */\n      dup3\n        /* \"#utility.yul\":23495:23507   */\n      add\n        /* \"#utility.yul\":23488:23507   */\n      swap1\n      pop\n        /* \"#utility.yul\":23147:23513   */\n      swap2\n      swap1\n      pop\n      jump\t// out\n        /* \"#utility.yul\":23519:23938   */\n    tag_118:\n        /* \"#utility.yul\":23685:23689   */\n      0x00\n        /* \"#utility.yul\":23723:23725   */\n      0x20\n        /* \"#utility.yul\":23712:23721   */\n      dup3\n        /* \"#utility.yul\":23708:23726   */\n      add\n        /* \"#utility.yul\":23700:23726   */\n      swap1\n      pop\n        /* \"#utility.yul\":23772:23781   */\n      dup2\n        /* \"#utility.yul\":23766:23770   */\n      dup2\n        /* \"#utility.yul\":23762:23782   */\n      sub\n        /* \"#utility.yul\":23758:23759   */\n      0x00\n        /* \"#utility.yul\":23747:23756   */\n      dup4\n        /* \"#utility.yul\":23743:23760   */\n      add\n        /* \"#utility.yul\":23736:23783   */\n      mstore\n        /* \"#utility.yul\":23800:23931   */\n      tag_648\n        /* \"#utility.yul\":23926:23930   */\n      dup2\n        /* \"#utility.yul\":23800:23931   */\n      tag_386\n      jump\t// in\n    tag_648:\n        /* \"#utility.yul\":23792:23931   */\n      swap1\n      pop\n        /* \"#utility.yul\":23519:23938   */\n      swap2\n      swap1\n      pop\n      jump\t// out\n        /* \"#utility.yul\":23944:24120   */\n    tag_387:\n        /* \"#utility.yul\":24084:24112   */\n      0x566f74696e6720686173206e6f74207374617274656420796574000000000000\n        /* \"#utility.yul\":24080:24081   */\n      0x00\n        /* \"#utility.yul\":24072:24078   */\n      dup3\n        /* \"#utility.yul\":24068:24082   */\n      add\n        /* \"#utility.yul\":24061:24113   */\n      mstore\n        /* \"#utility.yul\":23944:24120   */\n      pop\n      jump\t// out\n        /* \"#utility.yul\":24126:24492   */\n    tag_388:\n        /* \"#utility.yul\":24268:24271   */\n      0x00\n        /* \"#utility.yul\":24289:24356   */\n      tag_651\n        /* \"#utility.yul\":24353:24355   */\n      0x1a\n        /* \"#utility.yul\":24348:24351   */\n      dup4\n        /* \"#utility.yul\":24289:24356   */\n      tag_343\n      jump\t// in\n    tag_651:\n        /* \"#utility.yul\":24282:24356   */\n      swap2\n      pop\n        /* \"#utility.yul\":24365:24458   */\n      tag_652\n        /* \"#utility.yul\":24454:24457   */\n      dup3\n        /* \"#utility.yul\":24365:24458   */\n      tag_387\n      jump\t// in\n    tag_652:\n        /* \"#utility.yul\":24483:24485   */\n      0x20\n        /* \"#utility.yul\":24478:24481   */\n      dup3\n        /* \"#utility.yul\":24474:24486   */\n      add\n        /* \"#utility.yul\":24467:24486   */\n      swap1\n      pop\n        /* \"#utility.yul\":24126:24492   */\n      swap2\n      swap1\n      pop\n      jump\t// out\n        /* \"#utility.yul\":24498:24917   */\n    tag_122:\n        /* \"#utility.yul\":24664:24668   */\n      0x00\n        /* \"#utility.yul\":24702:24704   */\n      0x20\n        /* \"#utility.yul\":24691:24700   */\n      dup3\n        /* \"#utility.yul\":24687:24705   */\n      add\n        /* \"#utility.yul\":24679:24705   */\n      swap1\n      pop\n        /* \"#utility.yul\":24751:24760   */\n      dup2\n        /* \"#utility.yul\":24745:24749   */\n      dup2\n        /* \"#utility.yul\":24741:24761   */\n      sub\n        /* \"#utility.yul\":24737:24738   */\n      0x00\n        /* \"#utility.yul\":24726:24735   */\n      dup4\n        /* \"#utility.yul\":24722:24739   */\n      add\n        /* \"#utility.yul\":24715:24762   */\n      mstore\n        /* \"#utility.yul\":24779:24910   */\n      tag_654\n        /* \"#utility.yul\":24905:24909   */\n      dup2\n        /* \"#utility.yul\":24779:24910   */\n      tag_388\n      jump\t// in\n    tag_654:\n        /* \"#utility.yul\":24771:24910   */\n      swap1\n      pop\n        /* \"#utility.yul\":24498:24917   */\n      swap2\n      swap1\n      pop\n      jump\t// out\n        /* \"#utility.yul\":24923:25089   */\n    tag_389:\n        /* \"#utility.yul\":25063:25081   */\n      0x566f74696e672068617320656e64656400000000000000000000000000000000\n        /* \"#utility.yul\":25059:25060   */\n      0x00\n        /* \"#utility.yul\":25051:25057   */\n      dup3\n        /* \"#utility.yul\":25047:25061   */\n      add\n        /* \"#utility.yul\":25040:25082   */\n      mstore\n        /* \"#utility.yul\":24923:25089   */\n      pop\n      jump\t// out\n        /* \"#utility.yul\":25095:25461   */\n    tag_390:\n        /* \"#utility.yul\":25237:25240   */\n      0x00\n        /* \"#utility.yul\":25258:25325   */\n      tag_657\n        /* \"#utility.yul\":25322:25324   */\n      0x10\n        /* \"#utility.yul\":25317:25320   */\n      dup4\n        /* \"#utility.yul\":25258:25325   */\n      tag_343\n      jump\t// in\n    tag_657:\n        /* \"#utility.yul\":25251:25325   */\n      swap2\n      pop\n        /* \"#utility.yul\":25334:25427   */\n      tag_658\n        /* \"#utility.yul\":25423:25426   */\n      dup3\n        /* \"#utility.yul\":25334:25427   */\n      tag_389\n      jump\t// in\n    tag_658:\n        /* \"#utility.yul\":25452:25454   */\n      0x20\n        /* \"#utility.yul\":25447:25450   */\n      dup3\n        /* \"#utility.yul\":25443:25455   */\n      add\n        /* \"#utility.yul\":25436:25455   */\n      swap1\n      pop\n        /* \"#utility.yul\":25095:25461   */\n      swap2\n      swap1\n      pop\n      jump\t// out\n        /* \"#utility.yul\":25467:25886   */\n    tag_125:\n        /* \"#utility.yul\":25633:25637   */\n      0x00\n        /* \"#utility.yul\":25671:25673   */\n      0x20\n        /* \"#utility.yul\":25660:25669   */\n      dup3\n        /* \"#utility.yul\":25656:25674   */\n      add\n        /* \"#utility.yul\":25648:25674   */\n      swap1\n      pop\n        /* \"#utility.yul\":25720:25729   */\n      dup2\n        /* \"#utility.yul\":25714:25718   */\n      dup2\n        /* \"#utility.yul\":25710:25730   */\n      sub\n        /* \"#utility.yul\":25706:25707   */\n      0x00\n        /* \"#utility.yul\":25695:25704   */\n      dup4\n        /* \"#utility.yul\":25691:25708   */\n      add\n        /* \"#utility.yul\":25684:25731   */\n      mstore\n        /* \"#utility.yul\":25748:25879   */\n      tag_660\n        /* \"#utility.yul\":25874:25878   */\n      dup2\n        /* \"#utility.yul\":25748:25879   */\n      tag_390\n      jump\t// in\n    tag_660:\n        /* \"#utility.yul\":25740:25879   */\n      swap1\n      pop\n        /* \"#utility.yul\":25467:25886   */\n      swap2\n      swap1\n      pop\n      jump\t// out\n        /* \"#utility.yul\":25892:26059   */\n    tag_391:\n        /* \"#utility.yul\":26032:26051   */\n      0x4e6f20766f746520746f2072656d6f7665000000000000000000000000000000\n        /* \"#utility.yul\":26028:26029   */\n      0x00\n        /* \"#utility.yul\":26020:26026   */\n      dup3\n        /* \"#utility.yul\":26016:26030   */\n      add\n        /* \"#utility.yul\":26009:26052   */\n      mstore\n        /* \"#utility.yul\":25892:26059   */\n      pop\n      jump\t// out\n        /* \"#utility.yul\":26065:26431   */\n    tag_392:\n        /* \"#utility.yul\":26207:26210   */\n      0x00\n        /* \"#utility.yul\":26228:26295   */\n      tag_663\n        /* \"#utility.yul\":26292:26294   */\n      0x11\n        /* \"#utility.yul\":26287:26290   */\n      dup4\n        /* \"#utility.yul\":26228:26295   */\n      tag_343\n      jump\t// in\n    tag_663:\n        /* \"#utility.yul\":26221:26295   */\n      swap2\n      pop\n        /* \"#utility.yul\":26304:26397   */\n      tag_664\n        /* \"#utility.yul\":26393:26396   */\n      dup3\n        /* \"#utility.yul\":26304:26397   */\n      tag_391\n      jump\t// in\n    tag_664:\n        /* \"#utility.yul\":26422:26424   */\n      0x20\n        /* \"#utility.yul\":26417:26420   */\n      dup3\n        /* \"#utility.yul\":26413:26425   */\n      add\n        /* \"#utility.yul\":26406:26425   */\n      swap1\n      pop\n        /* \"#utility.yul\":26065:26431   */\n      swap2\n      swap1\n      pop\n      jump\t// out\n        /* \"#utility.yul\":26437:26856   */\n    tag_129:\n        /* \"#utility.yul\":26603:26607   */\n      0x00\n        /* \"#utility.yul\":26641:26643   */\n      0x20\n        /* \"#utility.yul\":26630:26639   */\n      dup3\n        /* \"#utility.yul\":26626:26644   */\n      add\n        /* \"#utility.yul\":26618:26644   */\n      swap1\n      pop\n        /* \"#utility.yul\":26690:26699   */\n      dup2\n        /* \"#utility.yul\":26684:26688   */\n      dup2\n        /* \"#utility.yul\":26680:26700   */\n      sub\n        /* \"#utility.yul\":26676:26677   */\n      0x00\n        /* \"#utility.yul\":26665:26674   */\n      dup4\n        /* \"#utility.yul\":26661:26678   */\n      add\n        /* \"#utility.yul\":26654:26701   */\n      mstore\n        /* \"#utility.yul\":26718:26849   */\n      tag_666\n        /* \"#utility.yul\":26844:26848   */\n      dup2\n        /* \"#utility.yul\":26718:26849   */\n      tag_392\n      jump\t// in\n    tag_666:\n        /* \"#utility.yul\":26710:26849   */\n      swap1\n      pop\n        /* \"#utility.yul\":26437:26856   */\n      swap2\n      swap1\n      pop\n      jump\t// out\n        /* \"#utility.yul\":26862:27042   */\n    tag_393:\n        /* \"#utility.yul\":26910:26987   */\n      0x4e487b7100000000000000000000000000000000000000000000000000000000\n        /* \"#utility.yul\":26907:26908   */\n      0x00\n        /* \"#utility.yul\":26900:26988   */\n      mstore\n        /* \"#utility.yul\":27007:27011   */\n      0x11\n        /* \"#utility.yul\":27004:27005   */\n      0x04\n        /* \"#utility.yul\":26997:27012   */\n      mstore\n        /* \"#utility.yul\":27031:27035   */\n      0x24\n        /* \"#utility.yul\":27028:27029   */\n      0x00\n        /* \"#utility.yul\":27021:27036   */\n      revert\n        /* \"#utility.yul\":27048:27242   */\n    tag_131:\n        /* \"#utility.yul\":27088:27092   */\n      0x00\n        /* \"#utility.yul\":27108:27128   */\n      tag_669\n        /* \"#utility.yul\":27126:27127   */\n      dup3\n        /* \"#utility.yul\":27108:27128   */\n      tag_326\n      jump\t// in\n    tag_669:\n        /* \"#utility.yul\":27103:27128   */\n      swap2\n      pop\n        /* \"#utility.yul\":27142:27162   */\n      tag_670\n        /* \"#utility.yul\":27160:27161   */\n      dup4\n        /* \"#utility.yul\":27142:27162   */\n      tag_326\n      jump\t// in\n    tag_670:\n        /* \"#utility.yul\":27137:27162   */\n      swap3\n      pop\n        /* \"#utility.yul\":27186:27187   */\n      dup3\n        /* \"#utility.yul\":27183:27184   */\n      dup3\n        /* \"#utility.yul\":27179:27188   */\n      sub\n        /* \"#utility.yul\":27171:27188   */\n      swap1\n      pop\n        /* \"#utility.yul\":27210:27211   */\n      dup2\n        /* \"#utility.yul\":27204:27208   */\n      dup2\n        /* \"#utility.yul\":27201:27212   */\n      gt\n        /* \"#utility.yul\":27198:27235   */\n      iszero\n      tag_671\n      jumpi\n        /* \"#utility.yul\":27215:27233   */\n      tag_672\n      tag_393\n      jump\t// in\n    tag_672:\n        /* \"#utility.yul\":27198:27235   */\n    tag_671:\n        /* \"#utility.yul\":27048:27242   */\n      swap3\n      swap2\n      pop\n      pop\n      jump\t// out\n        /* \"#utility.yul\":27248:27415   */\n    tag_394:\n        /* \"#utility.yul\":27388:27407   */\n      0x566f746520616c72656164792063617374000000000000000000000000000000\n        /* \"#utility.yul\":27384:27385   */\n      0x00\n        /* \"#utility.yul\":27376:27382   */\n      dup3\n        /* \"#utility.yul\":27372:27386   */\n      add\n        /* \"#utility.yul\":27365:27408   */\n      mstore\n        /* \"#utility.yul\":27248:27415   */\n      pop\n      jump\t// out\n        /* \"#utility.yul\":27421:27787   */\n    tag_395:\n        /* \"#utility.yul\":27563:27566   */\n      0x00\n        /* \"#utility.yul\":27584:27651   */\n      tag_675\n        /* \"#utility.yul\":27648:27650   */\n      0x11\n        /* \"#utility.yul\":27643:27646   */\n      dup4\n        /* \"#utility.yul\":27584:27651   */\n      tag_343\n      jump\t// in\n    tag_675:\n        /* \"#utility.yul\":27577:27651   */\n      swap2\n      pop\n        /* \"#utility.yul\":27660:27753   */\n      tag_676\n        /* \"#utility.yul\":27749:27752   */\n      dup3\n        /* \"#utility.yul\":27660:27753   */\n      tag_394\n      jump\t// in\n    tag_676:\n        /* \"#utility.yul\":27778:27780   */\n      0x20\n        /* \"#utility.yul\":27773:27776   */\n      dup3\n        /* \"#utility.yul\":27769:27781   */\n      add\n        /* \"#utility.yul\":27762:27781   */\n      swap1\n      pop\n        /* \"#utility.yul\":27421:27787   */\n      swap2\n      swap1\n      pop\n      jump\t// out\n        /* \"#utility.yul\":27793:28212   */\n    tag_160:\n        /* \"#utility.yul\":27959:27963   */\n      0x00\n        /* \"#utility.yul\":27997:27999   */\n      0x20\n        /* \"#utility.yul\":27986:27995   */\n      dup3\n        /* \"#utility.yul\":27982:28000   */\n      add\n        /* \"#utility.yul\":27974:28000   */\n      swap1\n      pop\n        /* \"#utility.yul\":28046:28055   */\n      dup2\n        /* \"#utility.yul\":28040:28044   */\n      dup2\n        /* \"#utility.yul\":28036:28056   */\n      sub\n        /* \"#utility.yul\":28032:28033   */\n      0x00\n        /* \"#utility.yul\":28021:28030   */\n      dup4\n        /* \"#utility.yul\":28017:28034   */\n      add\n        /* \"#utility.yul\":28010:28057   */\n      mstore\n        /* \"#utility.yul\":28074:28205   */\n      tag_678\n        /* \"#utility.yul\":28200:28204   */\n      dup2\n        /* \"#utility.yul\":28074:28205   */\n      tag_395\n      jump\t// in\n    tag_678:\n        /* \"#utility.yul\":28066:28205   */\n      swap1\n      pop\n        /* \"#utility.yul\":27793:28212   */\n      swap2\n      swap1\n      pop\n      jump\t// out\n        /* \"#utility.yul\":28218:28391   */\n    tag_396:\n        /* \"#utility.yul\":28358:28383   */\n      0x43616e646964617465206973206e6f7420616374697665000000000000000000\n        /* \"#utility.yul\":28354:28355   */\n      0x00\n        /* \"#utility.yul\":28346:28352   */\n      dup3\n        /* \"#utility.yul\":28342:28356   */\n      add\n        /* \"#utility.yul\":28335:28384   */\n      mstore\n        /* \"#utility.yul\":28218:28391   */\n      pop\n      jump\t// out\n        /* \"#utility.yul\":28397:28763   */\n    tag_397:\n        /* \"#utility.yul\":28539:28542   */\n      0x00\n        /* \"#utility.yul\":28560:28627   */\n      tag_681\n        /* \"#utility.yul\":28624:28626   */\n      0x17\n        /* \"#utility.yul\":28619:28622   */\n      dup4\n        /* \"#utility.yul\":28560:28627   */\n      tag_343\n      jump\t// in\n    tag_681:\n        /* \"#utility.yul\":28553:28627   */\n      swap2\n      pop\n        /* \"#utility.yul\":28636:28729   */\n      tag_682\n        /* \"#utility.yul\":28725:28728   */\n      dup3\n        /* \"#utility.yul\":28636:28729   */\n      tag_396\n      jump\t// in\n    tag_682:\n        /* \"#utility.yul\":28754:28756   */\n      0x20\n        /* \"#utility.yul\":28749:28752   */\n      dup3\n        /* \"#utility.yul\":28745:28757   */\n      add\n        /* \"#utility.yul\":28738:28757   */\n      swap1\n      pop\n        /* \"#utility.yul\":28397:28763   */\n      swap2\n      swap1\n      pop\n      jump\t// out\n        /* \"#utility.yul\":28769:29188   */\n    tag_167:\n        /* \"#utility.yul\":28935:28939   */\n      0x00\n        /* \"#utility.yul\":28973:28975   */\n      0x20\n        /* \"#utility.yul\":28962:28971   */\n      dup3\n        /* \"#utility.yul\":28958:28976   */\n      add\n        /* \"#utility.yul\":28950:28976   */\n      swap1\n      pop\n        /* \"#utility.yul\":29022:29031   */\n      dup2\n        /* \"#utility.yul\":29016:29020   */\n      dup2\n        /* \"#utility.yul\":29012:29032   */\n      sub\n        /* \"#utility.yul\":29008:29009   */\n      0x00\n        /* \"#utility.yul\":28997:29006   */\n      dup4\n        /* \"#utility.yul\":28993:29010   */\n      add\n        /* \"#utility.yul\":28986:29033   */\n      mstore\n        /* \"#utility.yul\":29050:29181   */\n      tag_684\n        /* \"#utility.yul\":29176:29180   */\n      dup2\n        /* \"#utility.yul\":29050:29181   */\n      tag_397\n      jump\t// in\n    tag_684:\n        /* \"#utility.yul\":29042:29181   */\n      swap1\n      pop\n        /* \"#utility.yul\":28769:29188   */\n      swap2\n      swap1\n      pop\n      jump\t// out\n        /* \"#utility.yul\":29194:29385   */\n    tag_169:\n        /* \"#utility.yul\":29234:29237   */\n      0x00\n        /* \"#utility.yul\":29253:29273   */\n      tag_686\n        /* \"#utility.yul\":29271:29272   */\n      dup3\n        /* \"#utility.yul\":29253:29273   */\n      tag_326\n      jump\t// in\n    tag_686:\n        /* \"#utility.yul\":29248:29273   */\n      swap2\n      pop\n        /* \"#utility.yul\":29287:29307   */\n      tag_687\n        /* \"#utility.yul\":29305:29306   */\n      dup4\n        /* \"#utility.yul\":29287:29307   */\n      tag_326\n      jump\t// in\n    tag_687:\n        /* \"#utility.yul\":29282:29307   */\n      swap3\n      pop\n        /* \"#utility.yul\":29330:29331   */\n      dup3\n        /* \"#utility.yul\":29327:29328   */\n      dup3\n        /* \"#utility.yul\":29323:29332   */\n      add\n        /* \"#utility.yul\":29316:29332   */\n      swap1\n      pop\n        /* \"#utility.yul\":29351:29354   */\n      dup1\n        /* \"#utility.yul\":29348:29349   */\n      dup3\n        /* \"#utility.yul\":29345:29355   */\n      gt\n        /* \"#utility.yul\":29342:29378   */\n      iszero\n      tag_688\n      jumpi\n        /* \"#utility.yul\":29358:29376   */\n      tag_689\n      tag_393\n      jump\t// in\n    tag_689:\n        /* \"#utility.yul\":29342:29378   */\n    tag_688:\n        /* \"#utility.yul\":29194:29385   */\n      swap3\n      swap2\n      pop\n      pop\n      jump\t// out\n        /* \"#utility.yul\":29391:29567   */\n    tag_398:\n        /* \"#utility.yul\":29531:29559   */\n      0x5374617274696e672074696d6520697320726571756972656421000000000000\n        /* \"#utility.yul\":29527:29528   */\n      0x00\n        /* \"#utility.yul\":29519:29525   */\n      dup3\n        /* \"#utility.yul\":29515:29529   */\n      add\n        /* \"#utility.yul\":29508:29560   */\n      mstore\n        /* \"#utility.yul\":29391:29567   */\n      pop\n      jump\t// out\n        /* \"#utility.yul\":29573:29939   */\n    tag_399:\n        /* \"#utility.yul\":29715:29718   */\n      0x00\n        /* \"#utility.yul\":29736:29803   */\n      tag_692\n        /* \"#utility.yul\":29800:29802   */\n      0x1a\n        /* \"#utility.yul\":29795:29798   */\n      dup4\n        /* \"#utility.yul\":29736:29803   */\n      tag_343\n      jump\t// in\n    tag_692:\n        /* \"#utility.yul\":29729:29803   */\n      swap2\n      pop\n        /* \"#utility.yul\":29812:29905   */\n      tag_693\n        /* \"#utility.yul\":29901:29904   */\n      dup3\n        /* \"#utility.yul\":29812:29905   */\n      tag_398\n      jump\t// in\n    tag_693:\n        /* \"#utility.yul\":29930:29932   */\n      0x20\n        /* \"#utility.yul\":29925:29928   */\n      dup3\n        /* \"#utility.yul\":29921:29933   */\n      add\n        /* \"#utility.yul\":29914:29933   */\n      swap1\n      pop\n        /* \"#utility.yul\":29573:29939   */\n      swap2\n      swap1\n      pop\n      jump\t// out\n        /* \"#utility.yul\":29945:30364   */\n    tag_187:\n        /* \"#utility.yul\":30111:30115   */\n      0x00\n        /* \"#utility.yul\":30149:30151   */\n      0x20\n        /* \"#utility.yul\":30138:30147   */\n      dup3\n        /* \"#utility.yul\":30134:30152   */\n      add\n        /* \"#utility.yul\":30126:30152   */\n      swap1\n      pop\n        /* \"#utility.yul\":30198:30207   */\n      dup2\n        /* \"#utility.yul\":30192:30196   */\n      dup2\n        /* \"#utility.yul\":30188:30208   */\n      sub\n        /* \"#utility.yul\":30184:30185   */\n      0x00\n        /* \"#utility.yul\":30173:30182   */\n      dup4\n        /* \"#utility.yul\":30169:30186   */\n      add\n        /* \"#utility.yul\":30162:30209   */\n      mstore\n        /* \"#utility.yul\":30226:30357   */\n      tag_695\n        /* \"#utility.yul\":30352:30356   */\n      dup2\n        /* \"#utility.yul\":30226:30357   */\n      tag_399\n      jump\t// in\n    tag_695:\n        /* \"#utility.yul\":30218:30357   */\n      swap1\n      pop\n        /* \"#utility.yul\":29945:30364   */\n      swap2\n      swap1\n      pop\n      jump\t// out\n        /* \"#utility.yul\":30370:30544   */\n    tag_400:\n        /* \"#utility.yul\":30510:30536   */\n      0x456e64696e672074696d65206973207265717569726564210000000000000000\n        /* \"#utility.yul\":30506:30507   */\n      0x00\n        /* \"#utility.yul\":30498:30504   */\n      dup3\n        /* \"#utility.yul\":30494:30508   */\n      add\n        /* \"#utility.yul\":30487:30537   */\n      mstore\n        /* \"#utility.yul\":30370:30544   */\n      pop\n      jump\t// out\n        /* \"#utility.yul\":30550:30916   */\n    tag_401:\n        /* \"#utility.yul\":30692:30695   */\n      0x00\n        /* \"#utility.yul\":30713:30780   */\n      tag_698\n        /* \"#utility.yul\":30777:30779   */\n      0x18\n        /* \"#utility.yul\":30772:30775   */\n      dup4\n        /* \"#utility.yul\":30713:30780   */\n      tag_343\n      jump\t// in\n    tag_698:\n        /* \"#utility.yul\":30706:30780   */\n      swap2\n      pop\n        /* \"#utility.yul\":30789:30882   */\n      tag_699\n        /* \"#utility.yul\":30878:30881   */\n      dup3\n        /* \"#utility.yul\":30789:30882   */\n      tag_400\n      jump\t// in\n    tag_699:\n        /* \"#utility.yul\":30907:30909   */\n      0x20\n        /* \"#utility.yul\":30902:30905   */\n      dup3\n        /* \"#utility.yul\":30898:30910   */\n      add\n        /* \"#utility.yul\":30891:30910   */\n      swap1\n      pop\n        /* \"#utility.yul\":30550:30916   */\n      swap2\n      swap1\n      pop\n      jump\t// out\n        /* \"#utility.yul\":30922:31341   */\n    tag_190:\n        /* \"#utility.yul\":31088:31092   */\n      0x00\n        /* \"#utility.yul\":31126:31128   */\n      0x20\n        /* \"#utility.yul\":31115:31124   */\n      dup3\n        /* \"#utility.yul\":31111:31129   */\n      add\n        /* \"#utility.yul\":31103:31129   */\n      swap1\n      pop\n        /* \"#utility.yul\":31175:31184   */\n      dup2\n        /* \"#utility.yul\":31169:31173   */\n      dup2\n        /* \"#utility.yul\":31165:31185   */\n      sub\n        /* \"#utility.yul\":31161:31162   */\n      0x00\n        /* \"#utility.yul\":31150:31159   */\n      dup4\n        /* \"#utility.yul\":31146:31163   */\n      add\n        /* \"#utility.yul\":31139:31186   */\n      mstore\n        /* \"#utility.yul\":31203:31334   */\n      tag_701\n        /* \"#utility.yul\":31329:31333   */\n      dup2\n        /* \"#utility.yul\":31203:31334   */\n      tag_401\n      jump\t// in\n    tag_701:\n        /* \"#utility.yul\":31195:31334   */\n      swap1\n      pop\n        /* \"#utility.yul\":30922:31341   */\n      swap2\n      swap1\n      pop\n      jump\t// out\n        /* \"#utility.yul\":31347:31517   */\n    tag_402:\n        /* \"#utility.yul\":31487:31509   */\n      0x566f74696e672074696d6520697320656e646564000000000000000000000000\n        /* \"#utility.yul\":31483:31484   */\n      0x00\n        /* \"#utility.yul\":31475:31481   */\n      dup3\n        /* \"#utility.yul\":31471:31485   */\n      add\n        /* \"#utility.yul\":31464:31510   */\n      mstore\n        /* \"#utility.yul\":31347:31517   */\n      pop\n      jump\t// out\n        /* \"#utility.yul\":31523:31889   */\n    tag_403:\n        /* \"#utility.yul\":31665:31668   */\n      0x00\n        /* \"#utility.yul\":31686:31753   */\n      tag_704\n        /* \"#utility.yul\":31750:31752   */\n      0x14\n        /* \"#utility.yul\":31745:31748   */\n      dup4\n        /* \"#utility.yul\":31686:31753   */\n      tag_343\n      jump\t// in\n    tag_704:\n        /* \"#utility.yul\":31679:31753   */\n      swap2\n      pop\n        /* \"#utility.yul\":31762:31855   */\n      tag_705\n        /* \"#utility.yul\":31851:31854   */\n      dup3\n        /* \"#utility.yul\":31762:31855   */\n      tag_402\n      jump\t// in\n    tag_705:\n        /* \"#utility.yul\":31880:31882   */\n      0x20\n        /* \"#utility.yul\":31875:31878   */\n      dup3\n        /* \"#utility.yul\":31871:31883   */\n      add\n        /* \"#utility.yul\":31864:31883   */\n      swap1\n      pop\n        /* \"#utility.yul\":31523:31889   */\n      swap2\n      swap1\n      pop\n      jump\t// out\n        /* \"#utility.yul\":31895:32314   */\n    tag_193:\n        /* \"#utility.yul\":32061:32065   */\n      0x00\n        /* \"#utility.yul\":32099:32101   */\n      0x20\n        /* \"#utility.yul\":32088:32097   */\n      dup3\n        /* \"#utility.yul\":32084:32102   */\n      add\n        /* \"#utility.yul\":32076:32102   */\n      swap1\n      pop\n        /* \"#utility.yul\":32148:32157   */\n      dup2\n        /* \"#utility.yul\":32142:32146   */\n      dup2\n        /* \"#utility.yul\":32138:32158   */\n      sub\n        /* \"#utility.yul\":32134:32135   */\n      0x00\n        /* \"#utility.yul\":32123:32132   */\n      dup4\n        /* \"#utility.yul\":32119:32136   */\n      add\n        /* \"#utility.yul\":32112:32159   */\n      mstore\n        /* \"#utility.yul\":32176:32307   */\n      tag_707\n        /* \"#utility.yul\":32302:32306   */\n      dup2\n        /* \"#utility.yul\":32176:32307   */\n      tag_403\n      jump\t// in\n    tag_707:\n        /* \"#utility.yul\":32168:32307   */\n      swap1\n      pop\n        /* \"#utility.yul\":31895:32314   */\n      swap2\n      swap1\n      pop\n      jump\t// out\n        /* \"#utility.yul\":32320:32495   */\n    tag_404:\n        /* \"#utility.yul\":32460:32487   */\n      0x546f6f206561726c7920746f20737461727420766f74696e6700000000000000\n        /* \"#utility.yul\":32456:32457   */\n      0x00\n        /* \"#utility.yul\":32448:32454   */\n      dup3\n        /* \"#utility.yul\":32444:32458   */\n      add\n        /* \"#utility.yul\":32437:32488   */\n      mstore\n        /* \"#utility.yul\":32320:32495   */\n      pop\n      jump\t// out\n        /* \"#utility.yul\":32501:32867   */\n    tag_405:\n        /* \"#utility.yul\":32643:32646   */\n      0x00\n        /* \"#utility.yul\":32664:32731   */\n      tag_710\n        /* \"#utility.yul\":32728:32730   */\n      0x19\n        /* \"#utility.yul\":32723:32726   */\n      dup4\n        /* \"#utility.yul\":32664:32731   */\n      tag_343\n      jump\t// in\n    tag_710:\n        /* \"#utility.yul\":32657:32731   */\n      swap2\n      pop\n        /* \"#utility.yul\":32740:32833   */\n      tag_711\n        /* \"#utility.yul\":32829:32832   */\n      dup3\n        /* \"#utility.yul\":32740:32833   */\n      tag_404\n      jump\t// in\n    tag_711:\n        /* \"#utility.yul\":32858:32860   */\n      0x20\n        /* \"#utility.yul\":32853:32856   */\n      dup3\n        /* \"#utility.yul\":32849:32861   */\n      add\n        /* \"#utility.yul\":32842:32861   */\n      swap1\n      pop\n        /* \"#utility.yul\":32501:32867   */\n      swap2\n      swap1\n      pop\n      jump\t// out\n        /* \"#utility.yul\":32873:33292   */\n    tag_198:\n        /* \"#utility.yul\":33039:33043   */\n      0x00\n        /* \"#utility.yul\":33077:33079   */\n      0x20\n        /* \"#utility.yul\":33066:33075   */\n      dup3\n        /* \"#utility.yul\":33062:33080   */\n      add\n        /* \"#utility.yul\":33054:33080   */\n      swap1\n      pop\n        /* \"#utility.yul\":33126:33135   */\n      dup2\n        /* \"#utility.yul\":33120:33124   */\n      dup2\n        /* \"#utility.yul\":33116:33136   */\n      sub\n        /* \"#utility.yul\":33112:33113   */\n      0x00\n        /* \"#utility.yul\":33101:33110   */\n      dup4\n        /* \"#utility.yul\":33097:33114   */\n      add\n        /* \"#utility.yul\":33090:33137   */\n      mstore\n        /* \"#utility.yul\":33154:33285   */\n      tag_713\n        /* \"#utility.yul\":33280:33284   */\n      dup2\n        /* \"#utility.yul\":33154:33285   */\n      tag_405\n      jump\t// in\n    tag_713:\n        /* \"#utility.yul\":33146:33285   */\n      swap1\n      pop\n        /* \"#utility.yul\":32873:33292   */\n      swap2\n      swap1\n      pop\n      jump\t// out\n        /* \"#utility.yul\":33298:33618   */\n    tag_201:\n        /* \"#utility.yul\":33413:33417   */\n      0x00\n        /* \"#utility.yul\":33451:33453   */\n      0x40\n        /* \"#utility.yul\":33440:33449   */\n      dup3\n        /* \"#utility.yul\":33436:33454   */\n      add\n        /* \"#utility.yul\":33428:33454   */\n      swap1\n      pop\n        /* \"#utility.yul\":33464:33529   */\n      tag_715\n        /* \"#utility.yul\":33526:33527   */\n      0x00\n        /* \"#utility.yul\":33515:33524   */\n      dup4\n        /* \"#utility.yul\":33511:33528   */\n      add\n        /* \"#utility.yul\":33502:33508   */\n      dup6\n        /* \"#utility.yul\":33464:33529   */\n      tag_338\n      jump\t// in\n    tag_715:\n        /* \"#utility.yul\":33539:33611   */\n      tag_716\n        /* \"#utility.yul\":33607:33609   */\n      0x20\n        /* \"#utility.yul\":33596:33605   */\n      dup4\n        /* \"#utility.yul\":33592:33610   */\n      add\n        /* \"#utility.yul\":33583:33589   */\n      dup5\n        /* \"#utility.yul\":33539:33611   */\n      tag_341\n      jump\t// in\n    tag_716:\n        /* \"#utility.yul\":33298:33618   */\n      swap4\n      swap3\n      pop\n      pop\n      pop\n      jump\t// out\n        /* \"#utility.yul\":33624:33804   */\n    tag_215:\n        /* \"#utility.yul\":33672:33749   */\n      0x4e487b7100000000000000000000000000000000000000000000000000000000\n        /* \"#utility.yul\":33669:33670   */\n      0x00\n        /* \"#utility.yul\":33662:33750   */\n      mstore\n        /* \"#utility.yul\":33769:33773   */\n      0x32\n        /* \"#utility.yul\":33766:33767   */\n      0x04\n        /* \"#utility.yul\":33759:33774   */\n      mstore\n        /* \"#utility.yul\":33793:33797   */\n      0x24\n        /* \"#utility.yul\":33790:33791   */\n      0x00\n        /* \"#utility.yul\":33783:33798   */\n      revert\n        /* \"#utility.yul\":33810:33974   */\n    tag_406:\n        /* \"#utility.yul\":33950:33966   */\n      0x416c726561647920426c6f636b21000000000000000000000000000000000000\n        /* \"#utility.yul\":33946:33947   */\n      0x00\n        /* \"#utility.yul\":33938:33944   */\n      dup3\n        /* \"#utility.yul\":33934:33948   */\n      add\n        /* \"#utility.yul\":33927:33967   */\n      mstore\n        /* \"#utility.yul\":33810:33974   */\n      pop\n      jump\t// out\n        /* \"#utility.yul\":33980:34346   */\n    tag_407:\n        /* \"#utility.yul\":34122:34125   */\n      0x00\n        /* \"#utility.yul\":34143:34210   */\n      tag_720\n        /* \"#utility.yul\":34207:34209   */\n      0x0e\n        /* \"#utility.yul\":34202:34205   */\n      dup4\n        /* \"#utility.yul\":34143:34210   */\n      tag_343\n      jump\t// in\n    tag_720:\n        /* \"#utility.yul\":34136:34210   */\n      swap2\n      pop\n        /* \"#utility.yul\":34219:34312   */\n      tag_721\n        /* \"#utility.yul\":34308:34311   */\n      dup3\n        /* \"#utility.yul\":34219:34312   */\n      tag_406\n      jump\t// in\n    tag_721:\n        /* \"#utility.yul\":34337:34339   */\n      0x20\n        /* \"#utility.yul\":34332:34335   */\n      dup3\n        /* \"#utility.yul\":34328:34340   */\n      add\n        /* \"#utility.yul\":34321:34340   */\n      swap1\n      pop\n        /* \"#utility.yul\":33980:34346   */\n      swap2\n      swap1\n      pop\n      jump\t// out\n        /* \"#utility.yul\":34352:34771   */\n    tag_246:\n        /* \"#utility.yul\":34518:34522   */\n      0x00\n        /* \"#utility.yul\":34556:34558   */\n      0x20\n        /* \"#utility.yul\":34545:34554   */\n      dup3\n        /* \"#utility.yul\":34541:34559   */\n      add\n        /* \"#utility.yul\":34533:34559   */\n      swap1\n      pop\n        /* \"#utility.yul\":34605:34614   */\n      dup2\n        /* \"#utility.yul\":34599:34603   */\n      dup2\n        /* \"#utility.yul\":34595:34615   */\n      sub\n        /* \"#utility.yul\":34591:34592   */\n      0x00\n        /* \"#utility.yul\":34580:34589   */\n      dup4\n        /* \"#utility.yul\":34576:34593   */\n      add\n        /* \"#utility.yul\":34569:34616   */\n      mstore\n        /* \"#utility.yul\":34633:34764   */\n      tag_723\n        /* \"#utility.yul\":34759:34763   */\n      dup2\n        /* \"#utility.yul\":34633:34764   */\n      tag_407\n      jump\t// in\n    tag_723:\n        /* \"#utility.yul\":34625:34764   */\n      swap1\n      pop\n        /* \"#utility.yul\":34352:34771   */\n      swap2\n      swap1\n      pop\n      jump\t// out\n        /* \"#utility.yul\":34777:34954   */\n    tag_408:\n        /* \"#utility.yul\":34917:34946   */\n      0x4f776e65722063616e6e6f7420626520612063616e6469646174650000000000\n        /* \"#utility.yul\":34913:34914   */\n      0x00\n        /* \"#utility.yul\":34905:34911   */\n      dup3\n        /* \"#utility.yul\":34901:34915   */\n      add\n        /* \"#utility.yul\":34894:34947   */\n      mstore\n        /* \"#utility.yul\":34777:34954   */\n      pop\n      jump\t// out\n        /* \"#utility.yul\":34960:35326   */\n    tag_409:\n        /* \"#utility.yul\":35102:35105   */\n      0x00\n        /* \"#utility.yul\":35123:35190   */\n      tag_726\n        /* \"#utility.yul\":35187:35189   */\n      0x1b\n        /* \"#utility.yul\":35182:35185   */\n      dup4\n        /* \"#utility.yul\":35123:35190   */\n      tag_343\n      jump\t// in\n    tag_726:\n        /* \"#utility.yul\":35116:35190   */\n      swap2\n      pop\n        /* \"#utility.yul\":35199:35292   */\n      tag_727\n        /* \"#utility.yul\":35288:35291   */\n      dup3\n        /* \"#utility.yul\":35199:35292   */\n      tag_408\n      jump\t// in\n    tag_727:\n        /* \"#utility.yul\":35317:35319   */\n      0x20\n        /* \"#utility.yul\":35312:35315   */\n      dup3\n        /* \"#utility.yul\":35308:35320   */\n      add\n        /* \"#utility.yul\":35301:35320   */\n      swap1\n      pop\n        /* \"#utility.yul\":34960:35326   */\n      swap2\n      swap1\n      pop\n      jump\t// out\n        /* \"#utility.yul\":35332:35751   */\n    tag_255:\n        /* \"#utility.yul\":35498:35502   */\n      0x00\n        /* \"#utility.yul\":35536:35538   */\n      0x20\n        /* \"#utility.yul\":35525:35534   */\n      dup3\n        /* \"#utility.yul\":35521:35539   */\n      add\n        /* \"#utility.yul\":35513:35539   */\n      swap1\n      pop\n        /* \"#utility.yul\":35585:35594   */\n      dup2\n        /* \"#utility.yul\":35579:35583   */\n      dup2\n        /* \"#utility.yul\":35575:35595   */\n      sub\n        /* \"#utility.yul\":35571:35572   */\n      0x00\n        /* \"#utility.yul\":35560:35569   */\n      dup4\n        /* \"#utility.yul\":35556:35573   */\n      add\n        /* \"#utility.yul\":35549:35596   */\n      mstore\n        /* \"#utility.yul\":35613:35744   */\n      tag_729\n        /* \"#utility.yul\":35739:35743   */\n      dup2\n        /* \"#utility.yul\":35613:35744   */\n      tag_409\n      jump\t// in\n    tag_729:\n        /* \"#utility.yul\":35605:35744   */\n      swap1\n      pop\n        /* \"#utility.yul\":35332:35751   */\n      swap2\n      swap1\n      pop\n      jump\t// out\n        /* \"#utility.yul\":35757:35990   */\n    tag_410:\n        /* \"#utility.yul\":35897:35931   */\n      0x43616e6e6f74206164642063616e6469646174657320616674657220766f7469\n        /* \"#utility.yul\":35893:35894   */\n      0x00\n        /* \"#utility.yul\":35885:35891   */\n      dup3\n        /* \"#utility.yul\":35881:35895   */\n      add\n        /* \"#utility.yul\":35874:35932   */\n      mstore\n        /* \"#utility.yul\":35966:35982   */\n      0x6e67206861732073746172746564000000000000000000000000000000000000\n        /* \"#utility.yul\":35961:35963   */\n      0x20\n        /* \"#utility.yul\":35953:35959   */\n      dup3\n        /* \"#utility.yul\":35949:35964   */\n      add\n        /* \"#utility.yul\":35942:35983   */\n      mstore\n        /* \"#utility.yul\":35757:35990   */\n      pop\n      jump\t// out\n        /* \"#utility.yul\":35996:36362   */\n    tag_411:\n        /* \"#utility.yul\":36138:36141   */\n      0x00\n        /* \"#utility.yul\":36159:36226   */\n      tag_732\n        /* \"#utility.yul\":36223:36225   */\n      0x2e\n        /* \"#utility.yul\":36218:36221   */\n      dup4\n        /* \"#utility.yul\":36159:36226   */\n      tag_343\n      jump\t// in\n    tag_732:\n        /* \"#utility.yul\":36152:36226   */\n      swap2\n      pop\n        /* \"#utility.yul\":36235:36328   */\n      tag_733\n        /* \"#utility.yul\":36324:36327   */\n      dup3\n        /* \"#utility.yul\":36235:36328   */\n      tag_410\n      jump\t// in\n    tag_733:\n        /* \"#utility.yul\":36353:36355   */\n      0x40\n        /* \"#utility.yul\":36348:36351   */\n      dup3\n        /* \"#utility.yul\":36344:36356   */\n      add\n        /* \"#utility.yul\":36337:36356   */\n      swap1\n      pop\n        /* \"#utility.yul\":35996:36362   */\n      swap2\n      swap1\n      pop\n      jump\t// out\n        /* \"#utility.yul\":36368:36787   */\n    tag_258:\n        /* \"#utility.yul\":36534:36538   */\n      0x00\n        /* \"#utility.yul\":36572:36574   */\n      0x20\n        /* \"#utility.yul\":36561:36570   */\n      dup3\n        /* \"#utility.yul\":36557:36575   */\n      add\n        /* \"#utility.yul\":36549:36575   */\n      swap1\n      pop\n        /* \"#utility.yul\":36621:36630   */\n      dup2\n        /* \"#utility.yul\":36615:36619   */\n      dup2\n        /* \"#utility.yul\":36611:36631   */\n      sub\n        /* \"#utility.yul\":36607:36608   */\n      0x00\n        /* \"#utility.yul\":36596:36605   */\n      dup4\n        /* \"#utility.yul\":36592:36609   */\n      add\n        /* \"#utility.yul\":36585:36632   */\n      mstore\n        /* \"#utility.yul\":36649:36780   */\n      tag_735\n        /* \"#utility.yul\":36775:36779   */\n      dup2\n        /* \"#utility.yul\":36649:36780   */\n      tag_411\n      jump\t// in\n    tag_735:\n        /* \"#utility.yul\":36641:36780   */\n      swap1\n      pop\n        /* \"#utility.yul\":36368:36787   */\n      swap2\n      swap1\n      pop\n      jump\t// out\n        /* \"#utility.yul\":36793:36967   */\n    tag_412:\n        /* \"#utility.yul\":36933:36959   */\n      0x43616e64696461746520616c7265616479206578697374730000000000000000\n        /* \"#utility.yul\":36929:36930   */\n      0x00\n        /* \"#utility.yul\":36921:36927   */\n      dup3\n        /* \"#utility.yul\":36917:36931   */\n      add\n        /* \"#utility.yul\":36910:36960   */\n      mstore\n        /* \"#utility.yul\":36793:36967   */\n      pop\n      jump\t// out\n        /* \"#utility.yul\":36973:37339   */\n    tag_413:\n        /* \"#utility.yul\":37115:37118   */\n      0x00\n        /* \"#utility.yul\":37136:37203   */\n      tag_738\n        /* \"#utility.yul\":37200:37202   */\n      0x18\n        /* \"#utility.yul\":37195:37198   */\n      dup4\n        /* \"#utility.yul\":37136:37203   */\n      tag_343\n      jump\t// in\n    tag_738:\n        /* \"#utility.yul\":37129:37203   */\n      swap2\n      pop\n        /* \"#utility.yul\":37212:37305   */\n      tag_739\n        /* \"#utility.yul\":37301:37304   */\n      dup3\n        /* \"#utility.yul\":37212:37305   */\n      tag_412\n      jump\t// in\n    tag_739:\n        /* \"#utility.yul\":37330:37332   */\n      0x20\n        /* \"#utility.yul\":37325:37328   */\n      dup3\n        /* \"#utility.yul\":37321:37333   */\n      add\n        /* \"#utility.yul\":37314:37333   */\n      swap1\n      pop\n        /* \"#utility.yul\":36973:37339   */\n      swap2\n      swap1\n      pop\n      jump\t// out\n        /* \"#utility.yul\":37345:37764   */\n    tag_261:\n        /* \"#utility.yul\":37511:37515   */\n      0x00\n        /* \"#utility.yul\":37549:37551   */\n      0x20\n        /* \"#utility.yul\":37538:37547   */\n      dup3\n        /* \"#utility.yul\":37534:37552   */\n      add\n        /* \"#utility.yul\":37526:37552   */\n      swap1\n      pop\n        /* \"#utility.yul\":37598:37607   */\n      dup2\n        /* \"#utility.yul\":37592:37596   */\n      dup2\n        /* \"#utility.yul\":37588:37608   */\n      sub\n        /* \"#utility.yul\":37584:37585   */\n      0x00\n        /* \"#utility.yul\":37573:37582   */\n      dup4\n        /* \"#utility.yul\":37569:37586   */\n      add\n        /* \"#utility.yul\":37562:37609   */\n      mstore\n        /* \"#utility.yul\":37626:37757   */\n      tag_741\n        /* \"#utility.yul\":37752:37756   */\n      dup2\n        /* \"#utility.yul\":37626:37757   */\n      tag_413\n      jump\t// in\n    tag_741:\n        /* \"#utility.yul\":37618:37757   */\n      swap1\n      pop\n        /* \"#utility.yul\":37345:37764   */\n      swap2\n      swap1\n      pop\n      jump\t// out\n        /* \"#utility.yul\":37770:37936   */\n    tag_414:\n        /* \"#utility.yul\":37910:37928   */\n      0x416c72656164792050656e64696e672100000000000000000000000000000000\n        /* \"#utility.yul\":37906:37907   */\n      0x00\n        /* \"#utility.yul\":37898:37904   */\n      dup3\n        /* \"#utility.yul\":37894:37908   */\n      add\n        /* \"#utility.yul\":37887:37929   */\n      mstore\n        /* \"#utility.yul\":37770:37936   */\n      pop\n      jump\t// out\n        /* \"#utility.yul\":37942:38308   */\n    tag_415:\n        /* \"#utility.yul\":38084:38087   */\n      0x00\n        /* \"#utility.yul\":38105:38172   */\n      tag_744\n        /* \"#utility.yul\":38169:38171   */\n      0x10\n        /* \"#utility.yul\":38164:38167   */\n      dup4\n        /* \"#utility.yul\":38105:38172   */\n      tag_343\n      jump\t// in\n    tag_744:\n        /* \"#utility.yul\":38098:38172   */\n      swap2\n      pop\n        /* \"#utility.yul\":38181:38274   */\n      tag_745\n        /* \"#utility.yul\":38270:38273   */\n      dup3\n        /* \"#utility.yul\":38181:38274   */\n      tag_414\n      jump\t// in\n    tag_745:\n        /* \"#utility.yul\":38299:38301   */\n      0x20\n        /* \"#utility.yul\":38294:38297   */\n      dup3\n        /* \"#utility.yul\":38290:38302   */\n      add\n        /* \"#utility.yul\":38283:38302   */\n      swap1\n      pop\n        /* \"#utility.yul\":37942:38308   */\n      swap2\n      swap1\n      pop\n      jump\t// out\n        /* \"#utility.yul\":38314:38733   */\n    tag_289:\n        /* \"#utility.yul\":38480:38484   */\n      0x00\n        /* \"#utility.yul\":38518:38520   */\n      0x20\n        /* \"#utility.yul\":38507:38516   */\n      dup3\n        /* \"#utility.yul\":38503:38521   */\n      add\n        /* \"#utility.yul\":38495:38521   */\n      swap1\n      pop\n        /* \"#utility.yul\":38567:38576   */\n      dup2\n        /* \"#utility.yul\":38561:38565   */\n      dup2\n        /* \"#utility.yul\":38557:38577   */\n      sub\n        /* \"#utility.yul\":38553:38554   */\n      0x00\n        /* \"#utility.yul\":38542:38551   */\n      dup4\n        /* \"#utility.yul\":38538:38555   */\n      add\n        /* \"#utility.yul\":38531:38578   */\n      mstore\n        /* \"#utility.yul\":38595:38726   */\n      tag_747\n        /* \"#utility.yul\":38721:38725   */\n      dup2\n        /* \"#utility.yul\":38595:38726   */\n      tag_415\n      jump\t// in\n    tag_747:\n        /* \"#utility.yul\":38587:38726   */\n      swap1\n      pop\n        /* \"#utility.yul\":38314:38733   */\n      swap2\n      swap1\n      pop\n      jump\t// out\n        /* \"#utility.yul\":38739:38907   */\n    tag_416:\n        /* \"#utility.yul\":38879:38899   */\n      0x416c726561647920416374697661746564210000000000000000000000000000\n        /* \"#utility.yul\":38875:38876   */\n      0x00\n        /* \"#utility.yul\":38867:38873   */\n      dup3\n        /* \"#utility.yul\":38863:38877   */\n      add\n        /* \"#utility.yul\":38856:38900   */\n      mstore\n        /* \"#utility.yul\":38739:38907   */\n      pop\n      jump\t// out\n        /* \"#utility.yul\":38913:39279   */\n    tag_417:\n        /* \"#utility.yul\":39055:39058   */\n      0x00\n        /* \"#utility.yul\":39076:39143   */\n      tag_750\n        /* \"#utility.yul\":39140:39142   */\n      0x12\n        /* \"#utility.yul\":39135:39138   */\n      dup4\n        /* \"#utility.yul\":39076:39143   */\n      tag_343\n      jump\t// in\n    tag_750:\n        /* \"#utility.yul\":39069:39143   */\n      swap2\n      pop\n        /* \"#utility.yul\":39152:39245   */\n      tag_751\n        /* \"#utility.yul\":39241:39244   */\n      dup3\n        /* \"#utility.yul\":39152:39245   */\n      tag_416\n      jump\t// in\n    tag_751:\n        /* \"#utility.yul\":39270:39272   */\n      0x20\n        /* \"#utility.yul\":39265:39268   */\n      dup3\n        /* \"#utility.yul\":39261:39273   */\n      add\n        /* \"#utility.yul\":39254:39273   */\n      swap1\n      pop\n        /* \"#utility.yul\":38913:39279   */\n      swap2\n      swap1\n      pop\n      jump\t// out\n        /* \"#utility.yul\":39285:39704   */\n    tag_305:\n        /* \"#utility.yul\":39451:39455   */\n      0x00\n        /* \"#utility.yul\":39489:39491   */\n      0x20\n        /* \"#utility.yul\":39478:39487   */\n      dup3\n        /* \"#utility.yul\":39474:39492   */\n      add\n        /* \"#utility.yul\":39466:39492   */\n      swap1\n      pop\n        /* \"#utility.yul\":39538:39547   */\n      dup2\n        /* \"#utility.yul\":39532:39536   */\n      dup2\n        /* \"#utility.yul\":39528:39548   */\n      sub\n        /* \"#utility.yul\":39524:39525   */\n      0x00\n        /* \"#utility.yul\":39513:39522   */\n      dup4\n        /* \"#utility.yul\":39509:39526   */\n      add\n        /* \"#utility.yul\":39502:39549   */\n      mstore\n        /* \"#utility.yul\":39566:39697   */\n      tag_753\n        /* \"#utility.yul\":39692:39696   */\n      dup2\n        /* \"#utility.yul\":39566:39697   */\n      tag_417\n      jump\t// in\n    tag_753:\n        /* \"#utility.yul\":39558:39697   */\n      swap1\n      pop\n        /* \"#utility.yul\":39285:39704   */\n      swap2\n      swap1\n      pop\n      jump\t// out\n        /* \"#utility.yul\":39710:39939   */\n    tag_418:\n        /* \"#utility.yul\":39850:39884   */\n      0x456e642054696d652073686f756c642062652067726561746572207468616e20\n        /* \"#utility.yul\":39846:39847   */\n      0x00\n        /* \"#utility.yul\":39838:39844   */\n      dup3\n        /* \"#utility.yul\":39834:39848   */\n      add\n        /* \"#utility.yul\":39827:39885   */\n      mstore\n        /* \"#utility.yul\":39919:39931   */\n      0x53746172742054696d6500000000000000000000000000000000000000000000\n        /* \"#utility.yul\":39914:39916   */\n      0x20\n        /* \"#utility.yul\":39906:39912   */\n      dup3\n        /* \"#utility.yul\":39902:39917   */\n      add\n        /* \"#utility.yul\":39895:39932   */\n      mstore\n        /* \"#utility.yul\":39710:39939   */\n      pop\n      jump\t// out\n        /* \"#utility.yul\":39945:40311   */\n    tag_419:\n        /* \"#utility.yul\":40087:40090   */\n      0x00\n        /* \"#utility.yul\":40108:40175   */\n      tag_756\n        /* \"#utility.yul\":40172:40174   */\n      0x2a\n        /* \"#utility.yul\":40167:40170   */\n      dup4\n        /* \"#utility.yul\":40108:40175   */\n      tag_343\n      jump\t// in\n    tag_756:\n        /* \"#utility.yul\":40101:40175   */\n      swap2\n      pop\n        /* \"#utility.yul\":40184:40277   */\n      tag_757\n        /* \"#utility.yul\":40273:40276   */\n      dup3\n        /* \"#utility.yul\":40184:40277   */\n      tag_418\n      jump\t// in\n    tag_757:\n        /* \"#utility.yul\":40302:40304   */\n      0x40\n        /* \"#utility.yul\":40297:40300   */\n      dup3\n        /* \"#utility.yul\":40293:40305   */\n      add\n        /* \"#utility.yul\":40286:40305   */\n      swap1\n      pop\n        /* \"#utility.yul\":39945:40311   */\n      swap2\n      swap1\n      pop\n      jump\t// out\n        /* \"#utility.yul\":40317:40736   */\n    tag_314:\n        /* \"#utility.yul\":40483:40487   */\n      0x00\n        /* \"#utility.yul\":40521:40523   */\n      0x20\n        /* \"#utility.yul\":40510:40519   */\n      dup3\n        /* \"#utility.yul\":40506:40524   */\n      add\n        /* \"#utility.yul\":40498:40524   */\n      swap1\n      pop\n        /* \"#utility.yul\":40570:40579   */\n      dup2\n        /* \"#utility.yul\":40564:40568   */\n      dup2\n        /* \"#utility.yul\":40560:40580   */\n      sub\n        /* \"#utility.yul\":40556:40557   */\n      0x00\n        /* \"#utility.yul\":40545:40554   */\n      dup4\n        /* \"#utility.yul\":40541:40558   */\n      add\n        /* \"#utility.yul\":40534:40581   */\n      mstore\n        /* \"#utility.yul\":40598:40729   */\n      tag_759\n        /* \"#utility.yul\":40724:40728   */\n      dup2\n        /* \"#utility.yul\":40598:40729   */\n      tag_419\n      jump\t// in\n    tag_759:\n        /* \"#utility.yul\":40590:40729   */\n      swap1\n      pop\n        /* \"#utility.yul\":40317:40736   */\n      swap2\n      swap1\n      pop\n      jump\t// out\n\n    auxdata: 0xa26469706673582212202c4960ea45753468b92eef73971aa577c952efa4469494c62efde9954e65c29c64736f6c634300081c0033\n}\n",
				"bytecode": {
					"linkReferences": {},
					"object": "6080604052348015600f57600080fd5b5033600260016101000a81548173ffffffffffffffffffffffffffffffffffffffff021916908373ffffffffffffffffffffffffffffffffffffffff1602179055506138a0806100606000396000f3fe608060405234801561001057600080fd5b50600436106101155760003560e01c80638da5cb5b116100a2578063d8bff5a511610071578063d8bff5a5146102c0578063e22a6231146102f1578063e3888e9a1461030d578063ef6bdade14610329578063f3587e461461034557610115565b80638da5cb5b1461025e578063aae3bd471461027c578063b21e338714610286578063bced38ed146102a457610115565b80633ccc1f53116100e95780633ccc1f53146101a25780634f1c7762146101be57806353358fc4146101f15780636c47a6c31461020d5780638ab66a901461022b57610115565b8062b170fd1461011a5780630ddf0c411461014a5780631bbef3991461016657806339518b5e14610184575b600080fd5b610134600480360381019061012f91906124e3565b610361565b6040516101419190612529565b60405180910390f35b610164600480360381019061015f919061268a565b610379565b005b61016e61069c565b60405161017b9190612730565b60405180910390f35b61018c6106af565b6040516101999190612529565b60405180910390f35b6101bc60048036038101906101b791906124e3565b6106b5565b005b6101d860048036038101906101d39190612777565b610a1b565b6040516101e894939291906128a9565b60405180910390f35b61020b600480360381019061020691906124e3565b610b98565b005b610215611042565b6040516102229190612529565b60405180910390f35b610245600480360381019061024091906124e3565b611048565b60405161025594939291906128a9565b60405180910390f35b6102666111b5565b60405161027391906128fc565b60405180910390f35b6102846111db565b005b61028e611417565b60405161029b9190612b0a565b60405180910390f35b6102be60048036038101906102b991906124e3565b611718565b005b6102da60048036038101906102d591906124e3565b61196b565b6040516102e8929190612b2c565b60405180910390f35b61030b6004803603810190610306919061268a565b6119af565b005b610327600480360381019061032291906124e3565b611e58565b005b610343600480360381019061033e91906124e3565b6120ac565b005b61035f600480360381019061035a9190612b55565b612300565b005b60076020528060005260406000206000915090505481565b600260019054906101000a900473ffffffffffffffffffffffffffffffffffffffff1673ffffffffffffffffffffffffffffffffffffffff163373ffffffffffffffffffffffffffffffffffffffff1614610409576040517f08c379a000000000000000000000000000000000000000000000000000000000815260040161040090612c07565b60405180910390fd5b826000600460008373ffffffffffffffffffffffffffffffffffffffff1673ffffffffffffffffffffffffffffffffffffffff16815260200190815260200160002090508173ffffffffffffffffffffffffffffffffffffffff168160000160009054906101000a900473ffffffffffffffffffffffffffffffffffffffff1673ffffffffffffffffffffffffffffffffffffffff16146104df576040517f08c379a00000000000000000000000000000000000000000000000000000000081526004016104d690612c73565b60405180910390fd5b600260009054906101000a900460ff161561052f576040517f08c379a000000000000000000000000000000000000000000000000000000000815260040161052690612d05565b60405180910390fd5b60405180608001604052808673ffffffffffffffffffffffffffffffffffffffff1681526020018581526020018481526020016001600281111561057657610575612832565b5b815250600460008773ffffffffffffffffffffffffffffffffffffffff1673ffffffffffffffffffffffffffffffffffffffff16815260200190815260200160002060008201518160000160006101000a81548173ffffffffffffffffffffffffffffffffffffffff021916908373ffffffffffffffffffffffffffffffffffffffff16021790555060208201518160010190816106149190612f31565b50604082015181600201908161062a9190612f31565b5060608201518160030160006101000a81548160ff0219169083600281111561065657610655612832565b5b02179055509050507faa38be308bdffe126c2b6be720070355eb22e0efc549ac39221b1ce71642ed408560405161068d91906128fc565b60405180910390a15050505050565b600260009054906101000a900460ff1681565b60005481565b600260019054906101000a900473ffffffffffffffffffffffffffffffffffffffff1673ffffffffffffffffffffffffffffffffffffffff163373ffffffffffffffffffffffffffffffffffffffff1614610745576040517f08c379a000000000000000000000000000000000000000000000000000000000815260040161073c90612c07565b60405180910390fd5b600260009054906101000a900460ff16610794576040517f08c379a000000000000000000000000000000000000000000000000000000000815260040161078b9061304f565b60405180910390fd5b6000544210156107d9576040517f08c379a00000000000000000000000000000000000000000000000000000000081526004016107d0906130bb565b60405180910390fd5b60015442111561081e576040517f08c379a000000000000000000000000000000000000000000000000000000000815260040161081590613127565b60405180910390fd5b6000600660008373ffffffffffffffffffffffffffffffffffffffff1673ffffffffffffffffffffffffffffffffffffffff1681526020019081526020016000209050600073ffffffffffffffffffffffffffffffffffffffff168160000160009054906101000a900473ffffffffffffffffffffffffffffffffffffffff1673ffffffffffffffffffffffffffffffffffffffff16036108f4576040517f08c379a00000000000000000000000000000000000000000000000000000000081526004016108eb90613193565b60405180910390fd5b6001600760008360000160009054906101000a900473ffffffffffffffffffffffffffffffffffffffff1673ffffffffffffffffffffffffffffffffffffffff1673ffffffffffffffffffffffffffffffffffffffff168152602001908152602001600020600082825461096891906131e2565b92505081905550600660008373ffffffffffffffffffffffffffffffffffffffff1673ffffffffffffffffffffffffffffffffffffffff168152602001908152602001600020600080820160006101000a81549073ffffffffffffffffffffffffffffffffffffffff0219169055600182016000905550507f5b5c1d8abb8598f40cb2c7a7f57935ec6e1a778efc4ceef46e664ca271d0ef2782604051610a0f91906128fc565b60405180910390a15050565b60038181548110610a2b57600080fd5b90600052602060002090600402016000915090508060000160009054906101000a900473ffffffffffffffffffffffffffffffffffffffff1690806001018054610a7490612d54565b80601f0160208091040260200160405190810160405280929190818152602001828054610aa090612d54565b8015610aed5780601f10610ac257610100808354040283529160200191610aed565b820191906000526020600020905b815481529060010190602001808311610ad057829003601f168201915b505050505090806002018054610b0290612d54565b80601f0160208091040260200160405190810160405280929190818152602001828054610b2e90612d54565b8015610b7b5780601f10610b5057610100808354040283529160200191610b7b565b820191906000526020600020905b815481529060010190602001808311610b5e57829003601f168201915b5050505050908060030160009054906101000a900460ff16905084565b600260009054906101000a900460ff16610be7576040517f08c379a0000000000000000000000000000000000000000000000000000000008152600401610bde9061304f565b60405180910390fd5b600054421015610c2c576040517f08c379a0000000000000000000000000000000000000000000000000000000008152600401610c23906130bb565b60405180910390fd5b600154421115610c71576040517f08c379a0000000000000000000000000000000000000000000000000000000008152600401610c6890613127565b60405180910390fd5b806000600460008373ffffffffffffffffffffffffffffffffffffffff1673ffffffffffffffffffffffffffffffffffffffff16815260200190815260200160002090508173ffffffffffffffffffffffffffffffffffffffff168160000160009054906101000a900473ffffffffffffffffffffffffffffffffffffffff1673ffffffffffffffffffffffffffffffffffffffff1614610d47576040517f08c379a0000000000000000000000000000000000000000000000000000000008152600401610d3e90612c73565b60405180910390fd5b6000600460008573ffffffffffffffffffffffffffffffffffffffff1673ffffffffffffffffffffffffffffffffffffffff16815260200190815260200160002090506000600660003373ffffffffffffffffffffffffffffffffffffffff1673ffffffffffffffffffffffffffffffffffffffff1681526020019081526020016000209050600073ffffffffffffffffffffffffffffffffffffffff168160000160009054906101000a900473ffffffffffffffffffffffffffffffffffffffff1673ffffffffffffffffffffffffffffffffffffffff1614610e60576040517f08c379a0000000000000000000000000000000000000000000000000000000008152600401610e5790613262565b60405180910390fd5b60006002811115610e7457610e73612832565b5b8260030160009054906101000a900460ff166002811115610e9857610e97612832565b5b14610ed8576040517f08c379a0000000000000000000000000000000000000000000000000000000008152600401610ecf906132ce565b60405180910390fd5b8160000160009054906101000a900473ffffffffffffffffffffffffffffffffffffffff168160000160006101000a81548173ffffffffffffffffffffffffffffffffffffffff021916908373ffffffffffffffffffffffffffffffffffffffff1602179055504281600101819055506001600760008460000160009054906101000a900473ffffffffffffffffffffffffffffffffffffffff1673ffffffffffffffffffffffffffffffffffffffff1673ffffffffffffffffffffffffffffffffffffffff1681526020019081526020016000206000828254610fbc91906132ee565b925050819055503373ffffffffffffffffffffffffffffffffffffffff167f484413c33463e7d976e3ded2a85b0c31610d0906977df2cd9cbd6d12a6872a848360000160009054906101000a900473ffffffffffffffffffffffffffffffffffffffff168360010154604051611033929190612b2c565b60405180910390a25050505050565b60015481565b60046020528060005260406000206000915090508060000160009054906101000a900473ffffffffffffffffffffffffffffffffffffffff169080600101805461109190612d54565b80601f01602080910402602001604051908101604052809291908181526020018280546110bd90612d54565b801561110a5780601f106110df5761010080835404028352916020019161110a565b820191906000526020600020905b8154815290600101906020018083116110ed57829003601f168201915b50505050509080600201805461111f90612d54565b80601f016020809104026020016040519081016040528092919081815260200182805461114b90612d54565b80156111985780601f1061116d57610100808354040283529160200191611198565b820191906000526020600020905b81548152906001019060200180831161117b57829003601f168201915b5050505050908060030160009054906101000a900460ff16905084565b600260019054906101000a900473ffffffffffffffffffffffffffffffffffffffff1681565b600260019054906101000a900473ffffffffffffffffffffffffffffffffffffffff1673ffffffffffffffffffffffffffffffffffffffff163373ffffffffffffffffffffffffffffffffffffffff161461126b576040517f08c379a000000000000000000000000000000000000000000000000000000000815260040161126290612c07565b60405180910390fd5b60008054116112af576040517f08c379a00000000000000000000000000000000000000000000000000000000081526004016112a69061336e565b60405180910390fd5b6000600154116112f4576040517f08c379a00000000000000000000000000000000000000000000000000000000081526004016112eb906133da565b60405180910390fd5b4260015411611338576040517f08c379a000000000000000000000000000000000000000000000000000000000815260040161132f90613446565b60405180910390fd5b600260009054906101000a900460ff166113b157600054421015611391576040517f08c379a0000000000000000000000000000000000000000000000000000000008152600401611388906134b2565b60405180910390fd5b6001600260006101000a81548160ff0219169083151502179055506113cd565b6000600260006101000a81548160ff0219169083151502179055505b7fba8599342b44e2c0b69a45b40b47f660e309d28ec3d9ce8262d4a783355e65a4600260009054906101000a900460ff163360405161140d9291906134d2565b60405180910390a1565b6060600060038054905067ffffffffffffffff81111561143a5761143961255f565b5b60405190808252806020026020018201604052801561147357816020015b6114606123e4565b8152602001906001900390816114585790505b50905060005b6003805490508110156117105760006003828154811061149c5761149b6134fb565b5b90600052602060002090600402016040518060800160405290816000820160009054906101000a900473ffffffffffffffffffffffffffffffffffffffff1673ffffffffffffffffffffffffffffffffffffffff1673ffffffffffffffffffffffffffffffffffffffff16815260200160018201805461151b90612d54565b80601f016020809104026020016040519081016040528092919081815260200182805461154790612d54565b80156115945780601f1061156957610100808354040283529160200191611594565b820191906000526020600020905b81548152906001019060200180831161157757829003601f168201915b505050505081526020016002820180546115ad90612d54565b80601f01602080910402602001604051908101604052809291908181526020018280546115d990612d54565b80156116265780601f106115fb57610100808354040283529160200191611626565b820191906000526020600020905b81548152906001019060200180831161160957829003601f168201915b505050505081526020016003820160009054906101000a900460ff16600281111561165457611653612832565b5b600281111561166657611665612832565b5b8152505090506040518060600160405280826000015173ffffffffffffffffffffffffffffffffffffffff16815260200160076000846000015173ffffffffffffffffffffffffffffffffffffffff1673ffffffffffffffffffffffffffffffffffffffff168152602001908152602001600020548152602001828152508383815181106116f7576116f66134fb565b5b6020026020010181905250508080600101915050611479565b508091505090565b600260019054906101000a900473ffffffffffffffffffffffffffffffffffffffff1673ffffffffffffffffffffffffffffffffffffffff163373ffffffffffffffffffffffffffffffffffffffff16146117a8576040517f08c379a000000000000000000000000000000000000000000000000000000000815260040161179f90612c07565b60405180910390fd5b806000600460008373ffffffffffffffffffffffffffffffffffffffff1673ffffffffffffffffffffffffffffffffffffffff16815260200190815260200160002090508173ffffffffffffffffffffffffffffffffffffffff168160000160009054906101000a900473ffffffffffffffffffffffffffffffffffffffff1673ffffffffffffffffffffffffffffffffffffffff161461187e576040517f08c379a000000000000000000000000000000000000000000000000000000000815260040161187590612c73565b60405180910390fd5b6000600460008573ffffffffffffffffffffffffffffffffffffffff1673ffffffffffffffffffffffffffffffffffffffff16815260200190815260200160002090506002808111156118d4576118d3612832565b5b8160030160009054906101000a900460ff1660028111156118f8576118f7612832565b5b03611938576040517f08c379a000000000000000000000000000000000000000000000000000000000815260040161192f90613576565b60405180910390fd5b60028160030160006101000a81548160ff021916908360028111156119605761195f612832565b5b021790555050505050565b60066020528060005260406000206000915090508060000160009054906101000a900473ffffffffffffffffffffffffffffffffffffffff16908060010154905082565b600260019054906101000a900473ffffffffffffffffffffffffffffffffffffffff1673ffffffffffffffffffffffffffffffffffffffff163373ffffffffffffffffffffffffffffffffffffffff1614611a3f576040517f08c379a0000000000000000000000000000000000000000000000000000000008152600401611a3690612c07565b60405180910390fd5b3373ffffffffffffffffffffffffffffffffffffffff168373ffffffffffffffffffffffffffffffffffffffff1603611aad576040517f08c379a0000000000000000000000000000000000000000000000000000000008152600401611aa4906135e2565b60405180910390fd5b600260009054906101000a900460ff1615611afd576040517f08c379a0000000000000000000000000000000000000000000000000000000008152600401611af490613674565b60405180910390fd5b6000600460008573ffffffffffffffffffffffffffffffffffffffff1673ffffffffffffffffffffffffffffffffffffffff16815260200190815260200160002090508373ffffffffffffffffffffffffffffffffffffffff168160000160009054906101000a900473ffffffffffffffffffffffffffffffffffffffff1673ffffffffffffffffffffffffffffffffffffffff1603611bd2576040517f08c379a0000000000000000000000000000000000000000000000000000000008152600401611bc9906136e0565b60405180910390fd5b60405180608001604052808573ffffffffffffffffffffffffffffffffffffffff16815260200184815260200183815260200160016002811115611c1957611c18612832565b5b815250600460008673ffffffffffffffffffffffffffffffffffffffff1673ffffffffffffffffffffffffffffffffffffffff16815260200190815260200160002060008201518160000160006101000a81548173ffffffffffffffffffffffffffffffffffffffff021916908373ffffffffffffffffffffffffffffffffffffffff1602179055506020820151816001019081611cb79190612f31565b506040820151816002019081611ccd9190612f31565b5060608201518160030160006101000a81548160ff02191690836002811115611cf957611cf8612832565b5b0217905550905050600360405180608001604052808673ffffffffffffffffffffffffffffffffffffffff16815260200185815260200184815260200160016002811115611d4a57611d49612832565b5b815250908060018154018082558091505060019003906000526020600020906004020160009091909190915060008201518160000160006101000a81548173ffffffffffffffffffffffffffffffffffffffff021916908373ffffffffffffffffffffffffffffffffffffffff1602179055506020820151816001019081611dd29190612f31565b506040820151816002019081611de89190612f31565b5060608201518160030160006101000a81548160ff02191690836002811115611e1457611e13612832565b5b021790555050507faa38be308bdffe126c2b6be720070355eb22e0efc549ac39221b1ce71642ed4084604051611e4a91906128fc565b60405180910390a150505050565b600260019054906101000a900473ffffffffffffffffffffffffffffffffffffffff1673ffffffffffffffffffffffffffffffffffffffff163373ffffffffffffffffffffffffffffffffffffffff1614611ee8576040517f08c379a0000000000000000000000000000000000000000000000000000000008152600401611edf90612c07565b60405180910390fd5b806000600460008373ffffffffffffffffffffffffffffffffffffffff1673ffffffffffffffffffffffffffffffffffffffff16815260200190815260200160002090508173ffffffffffffffffffffffffffffffffffffffff168160000160009054906101000a900473ffffffffffffffffffffffffffffffffffffffff1673ffffffffffffffffffffffffffffffffffffffff1614611fbe576040517f08c379a0000000000000000000000000000000000000000000000000000000008152600401611fb590612c73565b60405180910390fd5b6000600460008573ffffffffffffffffffffffffffffffffffffffff1673ffffffffffffffffffffffffffffffffffffffff16815260200190815260200160002090506001600281111561201557612014612832565b5b8160030160009054906101000a900460ff16600281111561203957612038612832565b5b03612079576040517f08c379a00000000000000000000000000000000000000000000000000000000081526004016120709061374c565b60405180910390fd5b60018160030160006101000a81548160ff021916908360028111156120a1576120a0612832565b5b021790555050505050565b600260019054906101000a900473ffffffffffffffffffffffffffffffffffffffff1673ffffffffffffffffffffffffffffffffffffffff163373ffffffffffffffffffffffffffffffffffffffff161461213c576040517f08c379a000000000000000000000000000000000000000000000000000000000815260040161213390612c07565b60405180910390fd5b806000600460008373ffffffffffffffffffffffffffffffffffffffff1673ffffffffffffffffffffffffffffffffffffffff16815260200190815260200160002090508173ffffffffffffffffffffffffffffffffffffffff168160000160009054906101000a900473ffffffffffffffffffffffffffffffffffffffff1673ffffffffffffffffffffffffffffffffffffffff1614612212576040517f08c379a000000000000000000000000000000000000000000000000000000000815260040161220990612c73565b60405180910390fd5b6000600460008573ffffffffffffffffffffffffffffffffffffffff1673ffffffffffffffffffffffffffffffffffffffff16815260200190815260200160002090506000600281111561226957612268612832565b5b8160030160009054906101000a900460ff16600281111561228d5761228c612832565b5b036122cd576040517f08c379a00000000000000000000000000000000000000000000000000000000081526004016122c4906137b8565b60405180910390fd5b60008160030160006101000a81548160ff021916908360028111156122f5576122f4612832565b5b021790555050505050565b600260019054906101000a900473ffffffffffffffffffffffffffffffffffffffff1673ffffffffffffffffffffffffffffffffffffffff163373ffffffffffffffffffffffffffffffffffffffff1614612390576040517f08c379a000000000000000000000000000000000000000000000000000000000815260040161238790612c07565b60405180910390fd5b8181116123d2576040517f08c379a00000000000000000000000000000000000000000000000000000000081526004016123c99061384a565b60405180910390fd5b81600081905550806001819055505050565b6040518060600160405280600073ffffffffffffffffffffffffffffffffffffffff1681526020016000815260200161241b612421565b81525090565b6040518060800160405280600073ffffffffffffffffffffffffffffffffffffffff16815260200160608152602001606081526020016000600281111561246b5761246a612832565b5b81525090565b6000604051905090565b600080fd5b600080fd5b600073ffffffffffffffffffffffffffffffffffffffff82169050919050565b60006124b082612485565b9050919050565b6124c0816124a5565b81146124cb57600080fd5b50565b6000813590506124dd816124b7565b92915050565b6000602082840312156124f9576124f861247b565b5b6000612507848285016124ce565b91505092915050565b6000819050919050565b61252381612510565b82525050565b600060208201905061253e600083018461251a565b92915050565b600080fd5b600080fd5b6000601f19601f8301169050919050565b7f4e487b7100000000000000000000000000000000000000000000000000000000600052604160045260246000fd5b6125978261254e565b810181811067ffffffffffffffff821117156125b6576125b561255f565b5b80604052505050565b60006125c9612471565b90506125d5828261258e565b919050565b600067ffffffffffffffff8211156125f5576125f461255f565b5b6125fe8261254e565b9050602081019050919050565b82818337600083830152505050565b600061262d612628846125da565b6125bf565b90508281526020810184848401111561264957612648612549565b5b61265484828561260b565b509392505050565b600082601f83011261267157612670612544565b5b813561268184826020860161261a565b91505092915050565b6000806000606084860312156126a3576126a261247b565b5b60006126b1868287016124ce565b935050602084013567ffffffffffffffff8111156126d2576126d1612480565b5b6126de8682870161265c565b925050604084013567ffffffffffffffff8111156126ff576126fe612480565b5b61270b8682870161265c565b9150509250925092565b60008115159050919050565b61272a81612715565b82525050565b60006020820190506127456000830184612721565b92915050565b61275481612510565b811461275f57600080fd5b50565b6000813590506127718161274b565b92915050565b60006020828403121561278d5761278c61247b565b5b600061279b84828501612762565b91505092915050565b6127ad816124a5565b82525050565b600081519050919050565b600082825260208201905092915050565b60005b838110156127ed5780820151818401526020810190506127d2565b60008484015250505050565b6000612804826127b3565b61280e81856127be565b935061281e8185602086016127cf565b6128278161254e565b840191505092915050565b7f4e487b7100000000000000000000000000000000000000000000000000000000600052602160045260246000fd5b6003811061287257612871612832565b5b50565b600081905061288382612861565b919050565b600061289382612875565b9050919050565b6128a381612888565b82525050565b60006080820190506128be60008301876127a4565b81810360208301526128d081866127f9565b905081810360408301526128e481856127f9565b90506128f3606083018461289a565b95945050505050565b600060208201905061291160008301846127a4565b92915050565b600081519050919050565b600082825260208201905092915050565b6000819050602082019050919050565b61294c816124a5565b82525050565b61295b81612510565b82525050565b600082825260208201905092915050565b600061297d826127b3565b6129878185612961565b93506129978185602086016127cf565b6129a08161254e565b840191505092915050565b6129b481612888565b82525050565b60006080830160008301516129d26000860182612943565b50602083015184820360208601526129ea8282612972565b91505060408301518482036040860152612a048282612972565b9150506060830151612a1960608601826129ab565b508091505092915050565b6000606083016000830151612a3c6000860182612943565b506020830151612a4f6020860182612952565b5060408301518482036040860152612a6782826129ba565b9150508091505092915050565b6000612a808383612a24565b905092915050565b6000602082019050919050565b6000612aa082612917565b612aaa8185612922565b935083602082028501612abc85612933565b8060005b85811015612af85784840389528151612ad98582612a74565b9450612ae483612a88565b925060208a01995050600181019050612ac0565b50829750879550505050505092915050565b60006020820190508181036000830152612b248184612a95565b905092915050565b6000604082019050612b4160008301856127a4565b612b4e602083018461251a565b9392505050565b60008060408385031215612b6c57612b6b61247b565b5b6000612b7a85828601612762565b9250506020612b8b85828601612762565b9150509250929050565b7f4f6e6c7920746865206f776e65722063616e2063616c6c20746869732066756e60008201527f6374696f6e000000000000000000000000000000000000000000000000000000602082015250565b6000612bf16025836127be565b9150612bfc82612b95565b604082019050919050565b60006020820190508181036000830152612c2081612be4565b9050919050565b7f43616e646964617465206e6f7420666f756e6400000000000000000000000000600082015250565b6000612c5d6013836127be565b9150612c6882612c27565b602082019050919050565b60006020820190508181036000830152612c8c81612c50565b9050919050565b7f43616e6e6f74207570646174652063616e64696461746573206166746572207660008201527f6f74696e67206861732073746172746564000000000000000000000000000000602082015250565b6000612cef6031836127be565b9150612cfa82612c93565b604082019050919050565b60006020820190508181036000830152612d1e81612ce2565b9050919050565b7f4e487b7100000000000000000000000000000000000000000000000000000000600052602260045260246000fd5b60006002820490506001821680612d6c57607f821691505b602082108103612d7f57612d7e612d25565b5b50919050565b60008190508160005260206000209050919050565b60006020601f8301049050919050565b600082821b905092915050565b600060088302612de77fffffffffffffffffffffffffffffffffffffffffffffffffffffffffffffffff82612daa565b612df18683612daa565b95508019841693508086168417925050509392505050565b6000819050919050565b6000612e2e612e29612e2484612510565b612e09565b612510565b9050919050565b6000819050919050565b612e4883612e13565b612e5c612e5482612e35565b848454612db7565b825550505050565b600090565b612e71612e64565b612e7c818484612e3f565b505050565b5b81811015612ea057612e95600082612e69565b600181019050612e82565b5050565b601f821115612ee557612eb681612d85565b612ebf84612d9a565b81016020851015612ece578190505b612ee2612eda85612d9a565b830182612e81565b50505b505050565b600082821c905092915050565b6000612f0860001984600802612eea565b1980831691505092915050565b6000612f218383612ef7565b9150826002028217905092915050565b612f3a826127b3565b67ffffffffffffffff811115612f5357612f5261255f565b5b612f5d8254612d54565b612f68828285612ea4565b600060209050601f831160018114612f9b5760008415612f89578287015190505b612f938582612f15565b865550612ffb565b601f198416612fa986612d85565b60005b82811015612fd157848901518255600182019150602085019450602081019050612fac565b86831015612fee5784890151612fea601f891682612ef7565b8355505b6001600288020188555050505b505050505050565b7f566f74696e67206973206e6f7420616374697665000000000000000000000000600082015250565b60006130396014836127be565b915061304482613003565b602082019050919050565b600060208201905081810360008301526130688161302c565b9050919050565b7f566f74696e6720686173206e6f74207374617274656420796574000000000000600082015250565b60006130a5601a836127be565b91506130b08261306f565b602082019050919050565b600060208201905081810360008301526130d481613098565b9050919050565b7f566f74696e672068617320656e64656400000000000000000000000000000000600082015250565b60006131116010836127be565b915061311c826130db565b602082019050919050565b6000602082019050818103600083015261314081613104565b9050919050565b7f4e6f20766f746520746f2072656d6f7665000000000000000000000000000000600082015250565b600061317d6011836127be565b915061318882613147565b602082019050919050565b600060208201905081810360008301526131ac81613170565b9050919050565b7f4e487b7100000000000000000000000000000000000000000000000000000000600052601160045260246000fd5b60006131ed82612510565b91506131f883612510565b92508282039050818111156132105761320f6131b3565b5b92915050565b7f566f746520616c72656164792063617374000000000000000000000000000000600082015250565b600061324c6011836127be565b915061325782613216565b602082019050919050565b6000602082019050818103600083015261327b8161323f565b9050919050565b7f43616e646964617465206973206e6f7420616374697665000000000000000000600082015250565b60006132b86017836127be565b91506132c382613282565b602082019050919050565b600060208201905081810360008301526132e7816132ab565b9050919050565b60006132f982612510565b915061330483612510565b925082820190508082111561331c5761331b6131b3565b5b92915050565b7f5374617274696e672074696d6520697320726571756972656421000000000000600082015250565b6000613358601a836127be565b915061336382613322565b602082019050919050565b600060208201905081810360008301526133878161334b565b9050919050565b7f456e64696e672074696d65206973207265717569726564210000000000000000600082015250565b60006133c46018836127be565b91506133cf8261338e565b602082019050919050565b600060208201905081810360008301526133f3816133b7565b9050919050565b7f566f74696e672074696d6520697320656e646564000000000000000000000000600082015250565b60006134306014836127be565b915061343b826133fa565b602082019050919050565b6000602082019050818103600083015261345f81613423565b9050919050565b7f546f6f206561726c7920746f20737461727420766f74696e6700000000000000600082015250565b600061349c6019836127be565b91506134a782613466565b602082019050919050565b600060208201905081810360008301526134cb8161348f565b9050919050565b60006040820190506134e76000830185612721565b6134f460208301846127a4565b9392505050565b7f4e487b7100000000000000000000000000000000000000000000000000000000600052603260045260246000fd5b7f416c726561647920426c6f636b21000000000000000000000000000000000000600082015250565b6000613560600e836127be565b915061356b8261352a565b602082019050919050565b6000602082019050818103600083015261358f81613553565b9050919050565b7f4f776e65722063616e6e6f7420626520612063616e6469646174650000000000600082015250565b60006135cc601b836127be565b91506135d782613596565b602082019050919050565b600060208201905081810360008301526135fb816135bf565b9050919050565b7f43616e6e6f74206164642063616e6469646174657320616674657220766f746960008201527f6e67206861732073746172746564000000000000000000000000000000000000602082015250565b600061365e602e836127be565b915061366982613602565b604082019050919050565b6000602082019050818103600083015261368d81613651565b9050919050565b7f43616e64696461746520616c7265616479206578697374730000000000000000600082015250565b60006136ca6018836127be565b91506136d582613694565b602082019050919050565b600060208201905081810360008301526136f9816136bd565b9050919050565b7f416c72656164792050656e64696e672100000000000000000000000000000000600082015250565b60006137366010836127be565b915061374182613700565b602082019050919050565b6000602082019050818103600083015261376581613729565b9050919050565b7f416c726561647920416374697661746564210000000000000000000000000000600082015250565b60006137a26012836127be565b91506137ad8261376c565b602082019050919050565b600060208201905081810360008301526137d181613795565b9050919050565b7f456e642054696d652073686f756c642062652067726561746572207468616e2060008201527f53746172742054696d6500000000000000000000000000000000000000000000602082015250565b6000613834602a836127be565b915061383f826137d8565b604082019050919050565b6000602082019050818103600083015261386381613827565b905091905056fea26469706673582212202c4960ea45753468b92eef73971aa577c952efa4469494c62efde9954e65c29c64736f6c634300081c0033",
					"opcodes": "PUSH1 0x80 PUSH1 0x40 MSTORE CALLVALUE DUP1 ISZERO PUSH1 0xF JUMPI PUSH1 0x0 DUP1 REVERT JUMPDEST POP CALLER PUSH1 0x2 PUSH1 0x1 PUSH2 0x100 EXP DUP2 SLOAD DUP2 PUSH20 0xFFFFFFFFFFFFFFFFFFFFFFFFFFFFFFFFFFFFFFFF MUL NOT AND SWAP1 DUP4 PUSH20 0xFFFFFFFFFFFFFFFFFFFFFFFFFFFFFFFFFFFFFFFF AND MUL OR SWAP1 SSTORE POP PUSH2 0x38A0 DUP1 PUSH2 0x60 PUSH1 0x0 CODECOPY PUSH1 0x0 RETURN INVALID PUSH1 0x80 PUSH1 0x40 MSTORE CALLVALUE DUP1 ISZERO PUSH2 0x10 JUMPI PUSH1 0x0 DUP1 REVERT JUMPDEST POP PUSH1 0x4 CALLDATASIZE LT PUSH2 0x115 JUMPI PUSH1 0x0 CALLDATALOAD PUSH1 0xE0 SHR DUP1 PUSH4 0x8DA5CB5B GT PUSH2 0xA2 JUMPI DUP1 PUSH4 0xD8BFF5A5 GT PUSH2 0x71 JUMPI DUP1 PUSH4 0xD8BFF5A5 EQ PUSH2 0x2C0 JUMPI DUP1 PUSH4 0xE22A6231 EQ PUSH2 0x2F1 JUMPI DUP1 PUSH4 0xE3888E9A EQ PUSH2 0x30D JUMPI DUP1 PUSH4 0xEF6BDADE EQ PUSH2 0x329 JUMPI DUP1 PUSH4 0xF3587E46 EQ PUSH2 0x345 JUMPI PUSH2 0x115 JUMP JUMPDEST DUP1 PUSH4 0x8DA5CB5B EQ PUSH2 0x25E JUMPI DUP1 PUSH4 0xAAE3BD47 EQ PUSH2 0x27C JUMPI DUP1 PUSH4 0xB21E3387 EQ PUSH2 0x286 JUMPI DUP1 PUSH4 0xBCED38ED EQ PUSH2 0x2A4 JUMPI PUSH2 0x115 JUMP JUMPDEST DUP1 PUSH4 0x3CCC1F53 GT PUSH2 0xE9 JUMPI DUP1 PUSH4 0x3CCC1F53 EQ PUSH2 0x1A2 JUMPI DUP1 PUSH4 0x4F1C7762 EQ PUSH2 0x1BE JUMPI DUP1 PUSH4 0x53358FC4 EQ PUSH2 0x1F1 JUMPI DUP1 PUSH4 0x6C47A6C3 EQ PUSH2 0x20D JUMPI DUP1 PUSH4 0x8AB66A90 EQ PUSH2 0x22B JUMPI PUSH2 0x115 JUMP JUMPDEST DUP1 PUSH3 0xB170FD EQ PUSH2 0x11A JUMPI DUP1 PUSH4 0xDDF0C41 EQ PUSH2 0x14A JUMPI DUP1 PUSH4 0x1BBEF399 EQ PUSH2 0x166 JUMPI DUP1 PUSH4 0x39518B5E EQ PUSH2 0x184 JUMPI JUMPDEST PUSH1 0x0 DUP1 REVERT JUMPDEST PUSH2 0x134 PUSH1 0x4 DUP1 CALLDATASIZE SUB DUP2 ADD SWAP1 PUSH2 0x12F SWAP2 SWAP1 PUSH2 0x24E3 JUMP JUMPDEST PUSH2 0x361 JUMP JUMPDEST PUSH1 0x40 MLOAD PUSH2 0x141 SWAP2 SWAP1 PUSH2 0x2529 JUMP JUMPDEST PUSH1 0x40 MLOAD DUP1 SWAP2 SUB SWAP1 RETURN JUMPDEST PUSH2 0x164 PUSH1 0x4 DUP1 CALLDATASIZE SUB DUP2 ADD SWAP1 PUSH2 0x15F SWAP2 SWAP1 PUSH2 0x268A JUMP JUMPDEST PUSH2 0x379 JUMP JUMPDEST STOP JUMPDEST PUSH2 0x16E PUSH2 0x69C JUMP JUMPDEST PUSH1 0x40 MLOAD PUSH2 0x17B SWAP2 SWAP1 PUSH2 0x2730 JUMP JUMPDEST PUSH1 0x40 MLOAD DUP1 SWAP2 SUB SWAP1 RETURN JUMPDEST PUSH2 0x18C PUSH2 0x6AF JUMP JUMPDEST PUSH1 0x40 MLOAD PUSH2 0x199 SWAP2 SWAP1 PUSH2 0x2529 JUMP JUMPDEST PUSH1 0x40 MLOAD DUP1 SWAP2 SUB SWAP1 RETURN JUMPDEST PUSH2 0x1BC PUSH1 0x4 DUP1 CALLDATASIZE SUB DUP2 ADD SWAP1 PUSH2 0x1B7 SWAP2 SWAP1 PUSH2 0x24E3 JUMP JUMPDEST PUSH2 0x6B5 JUMP JUMPDEST STOP JUMPDEST PUSH2 0x1D8 PUSH1 0x4 DUP1 CALLDATASIZE SUB DUP2 ADD SWAP1 PUSH2 0x1D3 SWAP2 SWAP1 PUSH2 0x2777 JUMP JUMPDEST PUSH2 0xA1B JUMP JUMPDEST PUSH1 0x40 MLOAD PUSH2 0x1E8 SWAP5 SWAP4 SWAP3 SWAP2 SWAP1 PUSH2 0x28A9 JUMP JUMPDEST PUSH1 0x40 MLOAD DUP1 SWAP2 SUB SWAP1 RETURN JUMPDEST PUSH2 0x20B PUSH1 0x4 DUP1 CALLDATASIZE SUB DUP2 ADD SWAP1 PUSH2 0x206 SWAP2 SWAP1 PUSH2 0x24E3 JUMP JUMPDEST PUSH2 0xB98 JUMP JUMPDEST STOP JUMPDEST PUSH2 0x215 PUSH2 0x1042 JUMP JUMPDEST PUSH1 0x40 MLOAD PUSH2 0x222 SWAP2 SWAP1 PUSH2 0x2529 JUMP JUMPDEST PUSH1 0x40 MLOAD DUP1 SWAP2 SUB SWAP1 RETURN JUMPDEST PUSH2 0x245 PUSH1 0x4 DUP1 CALLDATASIZE SUB DUP2 ADD SWAP1 PUSH2 0x240 SWAP2 SWAP1 PUSH2 0x24E3 JUMP JUMPDEST PUSH2 0x1048 JUMP JUMPDEST PUSH1 0x40 MLOAD PUSH2 0x255 SWAP5 SWAP4 SWAP3 SWAP2 SWAP1 PUSH2 0x28A9 JUMP JUMPDEST PUSH1 0x40 MLOAD DUP1 SWAP2 SUB SWAP1 RETURN JUMPDEST PUSH2 0x266 PUSH2 0x11B5 JUMP JUMPDEST PUSH1 0x40 MLOAD PUSH2 0x273 SWAP2 SWAP1 PUSH2 0x28FC JUMP JUMPDEST PUSH1 0x40 MLOAD DUP1 SWAP2 SUB SWAP1 RETURN JUMPDEST PUSH2 0x284 PUSH2 0x11DB JUMP JUMPDEST STOP JUMPDEST PUSH2 0x28E PUSH2 0x1417 JUMP JUMPDEST PUSH1 0x40 MLOAD PUSH2 0x29B SWAP2 SWAP1 PUSH2 0x2B0A JUMP JUMPDEST PUSH1 0x40 MLOAD DUP1 SWAP2 SUB SWAP1 RETURN JUMPDEST PUSH2 0x2BE PUSH1 0x4 DUP1 CALLDATASIZE SUB DUP2 ADD SWAP1 PUSH2 0x2B9 SWAP2 SWAP1 PUSH2 0x24E3 JUMP JUMPDEST PUSH2 0x1718 JUMP JUMPDEST STOP JUMPDEST PUSH2 0x2DA PUSH1 0x4 DUP1 CALLDATASIZE SUB DUP2 ADD SWAP1 PUSH2 0x2D5 SWAP2 SWAP1 PUSH2 0x24E3 JUMP JUMPDEST PUSH2 0x196B JUMP JUMPDEST PUSH1 0x40 MLOAD PUSH2 0x2E8 SWAP3 SWAP2 SWAP1 PUSH2 0x2B2C JUMP JUMPDEST PUSH1 0x40 MLOAD DUP1 SWAP2 SUB SWAP1 RETURN JUMPDEST PUSH2 0x30B PUSH1 0x4 DUP1 CALLDATASIZE SUB DUP2 ADD SWAP1 PUSH2 0x306 SWAP2 SWAP1 PUSH2 0x268A JUMP JUMPDEST PUSH2 0x19AF JUMP JUMPDEST STOP JUMPDEST PUSH2 0x327 PUSH1 0x4 DUP1 CALLDATASIZE SUB DUP2 ADD SWAP1 PUSH2 0x322 SWAP2 SWAP1 PUSH2 0x24E3 JUMP JUMPDEST PUSH2 0x1E58 JUMP JUMPDEST STOP JUMPDEST PUSH2 0x343 PUSH1 0x4 DUP1 CALLDATASIZE SUB DUP2 ADD SWAP1 PUSH2 0x33E SWAP2 SWAP1 PUSH2 0x24E3 JUMP JUMPDEST PUSH2 0x20AC JUMP JUMPDEST STOP JUMPDEST PUSH2 0x35F PUSH1 0x4 DUP1 CALLDATASIZE SUB DUP2 ADD SWAP1 PUSH2 0x35A SWAP2 SWAP1 PUSH2 0x2B55 JUMP JUMPDEST PUSH2 0x2300 JUMP JUMPDEST STOP JUMPDEST PUSH1 0x7 PUSH1 0x20 MSTORE DUP1 PUSH1 0x0 MSTORE PUSH1 0x40 PUSH1 0x0 KECCAK256 PUSH1 0x0 SWAP2 POP SWAP1 POP SLOAD DUP2 JUMP JUMPDEST PUSH1 0x2 PUSH1 0x1 SWAP1 SLOAD SWAP1 PUSH2 0x100 EXP SWAP1 DIV PUSH20 0xFFFFFFFFFFFFFFFFFFFFFFFFFFFFFFFFFFFFFFFF AND PUSH20 0xFFFFFFFFFFFFFFFFFFFFFFFFFFFFFFFFFFFFFFFF AND CALLER PUSH20 0xFFFFFFFFFFFFFFFFFFFFFFFFFFFFFFFFFFFFFFFF AND EQ PUSH2 0x409 JUMPI PUSH1 0x40 MLOAD PUSH32 0x8C379A000000000000000000000000000000000000000000000000000000000 DUP2 MSTORE PUSH1 0x4 ADD PUSH2 0x400 SWAP1 PUSH2 0x2C07 JUMP JUMPDEST PUSH1 0x40 MLOAD DUP1 SWAP2 SUB SWAP1 REVERT JUMPDEST DUP3 PUSH1 0x0 PUSH1 0x4 PUSH1 0x0 DUP4 PUSH20 0xFFFFFFFFFFFFFFFFFFFFFFFFFFFFFFFFFFFFFFFF AND PUSH20 0xFFFFFFFFFFFFFFFFFFFFFFFFFFFFFFFFFFFFFFFF AND DUP2 MSTORE PUSH1 0x20 ADD SWAP1 DUP2 MSTORE PUSH1 0x20 ADD PUSH1 0x0 KECCAK256 SWAP1 POP DUP2 PUSH20 0xFFFFFFFFFFFFFFFFFFFFFFFFFFFFFFFFFFFFFFFF AND DUP2 PUSH1 0x0 ADD PUSH1 0x0 SWAP1 SLOAD SWAP1 PUSH2 0x100 EXP SWAP1 DIV PUSH20 0xFFFFFFFFFFFFFFFFFFFFFFFFFFFFFFFFFFFFFFFF AND PUSH20 0xFFFFFFFFFFFFFFFFFFFFFFFFFFFFFFFFFFFFFFFF AND EQ PUSH2 0x4DF JUMPI PUSH1 0x40 MLOAD PUSH32 0x8C379A000000000000000000000000000000000000000000000000000000000 DUP2 MSTORE PUSH1 0x4 ADD PUSH2 0x4D6 SWAP1 PUSH2 0x2C73 JUMP JUMPDEST PUSH1 0x40 MLOAD DUP1 SWAP2 SUB SWAP1 REVERT JUMPDEST PUSH1 0x2 PUSH1 0x0 SWAP1 SLOAD SWAP1 PUSH2 0x100 EXP SWAP1 DIV PUSH1 0xFF AND ISZERO PUSH2 0x52F JUMPI PUSH1 0x40 MLOAD PUSH32 0x8C379A000000000000000000000000000000000000000000000000000000000 DUP2 MSTORE PUSH1 0x4 ADD PUSH2 0x526 SWAP1 PUSH2 0x2D05 JUMP JUMPDEST PUSH1 0x40 MLOAD DUP1 SWAP2 SUB SWAP1 REVERT JUMPDEST PUSH1 0x40 MLOAD DUP1 PUSH1 0x80 ADD PUSH1 0x40 MSTORE DUP1 DUP7 PUSH20 0xFFFFFFFFFFFFFFFFFFFFFFFFFFFFFFFFFFFFFFFF AND DUP2 MSTORE PUSH1 0x20 ADD DUP6 DUP2 MSTORE PUSH1 0x20 ADD DUP5 DUP2 MSTORE PUSH1 0x20 ADD PUSH1 0x1 PUSH1 0x2 DUP2 GT ISZERO PUSH2 0x576 JUMPI PUSH2 0x575 PUSH2 0x2832 JUMP JUMPDEST JUMPDEST DUP2 MSTORE POP PUSH1 0x4 PUSH1 0x0 DUP8 PUSH20 0xFFFFFFFFFFFFFFFFFFFFFFFFFFFFFFFFFFFFFFFF AND PUSH20 0xFFFFFFFFFFFFFFFFFFFFFFFFFFFFFFFFFFFFFFFF AND DUP2 MSTORE PUSH1 0x20 ADD SWAP1 DUP2 MSTORE PUSH1 0x20 ADD PUSH1 0x0 KECCAK256 PUSH1 0x0 DUP3 ADD MLOAD DUP2 PUSH1 0x0 ADD PUSH1 0x0 PUSH2 0x100 EXP DUP2 SLOAD DUP2 PUSH20 0xFFFFFFFFFFFFFFFFFFFFFFFFFFFFFFFFFFFFFFFF MUL NOT AND SWAP1 DUP4 PUSH20 0xFFFFFFFFFFFFFFFFFFFFFFFFFFFFFFFFFFFFFFFF AND MUL OR SWAP1 SSTORE POP PUSH1 0x20 DUP3 ADD MLOAD DUP2 PUSH1 0x1 ADD SWAP1 DUP2 PUSH2 0x614 SWAP2 SWAP1 PUSH2 0x2F31 JUMP JUMPDEST POP PUSH1 0x40 DUP3 ADD MLOAD DUP2 PUSH1 0x2 ADD SWAP1 DUP2 PUSH2 0x62A SWAP2 SWAP1 PUSH2 0x2F31 JUMP JUMPDEST POP PUSH1 0x60 DUP3 ADD MLOAD DUP2 PUSH1 0x3 ADD PUSH1 0x0 PUSH2 0x100 EXP DUP2 SLOAD DUP2 PUSH1 0xFF MUL NOT AND SWAP1 DUP4 PUSH1 0x2 DUP2 GT ISZERO PUSH2 0x656 JUMPI PUSH2 0x655 PUSH2 0x2832 JUMP JUMPDEST JUMPDEST MUL OR SWAP1 SSTORE POP SWAP1 POP POP PUSH32 0xAA38BE308BDFFE126C2B6BE720070355EB22E0EFC549AC39221B1CE71642ED40 DUP6 PUSH1 0x40 MLOAD PUSH2 0x68D SWAP2 SWAP1 PUSH2 0x28FC JUMP JUMPDEST PUSH1 0x40 MLOAD DUP1 SWAP2 SUB SWAP1 LOG1 POP POP POP POP POP JUMP JUMPDEST PUSH1 0x2 PUSH1 0x0 SWAP1 SLOAD SWAP1 PUSH2 0x100 EXP SWAP1 DIV PUSH1 0xFF AND DUP2 JUMP JUMPDEST PUSH1 0x0 SLOAD DUP2 JUMP JUMPDEST PUSH1 0x2 PUSH1 0x1 SWAP1 SLOAD SWAP1 PUSH2 0x100 EXP SWAP1 DIV PUSH20 0xFFFFFFFFFFFFFFFFFFFFFFFFFFFFFFFFFFFFFFFF AND PUSH20 0xFFFFFFFFFFFFFFFFFFFFFFFFFFFFFFFFFFFFFFFF AND CALLER PUSH20 0xFFFFFFFFFFFFFFFFFFFFFFFFFFFFFFFFFFFFFFFF AND EQ PUSH2 0x745 JUMPI PUSH1 0x40 MLOAD PUSH32 0x8C379A000000000000000000000000000000000000000000000000000000000 DUP2 MSTORE PUSH1 0x4 ADD PUSH2 0x73C SWAP1 PUSH2 0x2C07 JUMP JUMPDEST PUSH1 0x40 MLOAD DUP1 SWAP2 SUB SWAP1 REVERT JUMPDEST PUSH1 0x2 PUSH1 0x0 SWAP1 SLOAD SWAP1 PUSH2 0x100 EXP SWAP1 DIV PUSH1 0xFF AND PUSH2 0x794 JUMPI PUSH1 0x40 MLOAD PUSH32 0x8C379A000000000000000000000000000000000000000000000000000000000 DUP2 MSTORE PUSH1 0x4 ADD PUSH2 0x78B SWAP1 PUSH2 0x304F JUMP JUMPDEST PUSH1 0x40 MLOAD DUP1 SWAP2 SUB SWAP1 REVERT JUMPDEST PUSH1 0x0 SLOAD TIMESTAMP LT ISZERO PUSH2 0x7D9 JUMPI PUSH1 0x40 MLOAD PUSH32 0x8C379A000000000000000000000000000000000000000000000000000000000 DUP2 MSTORE PUSH1 0x4 ADD PUSH2 0x7D0 SWAP1 PUSH2 0x30BB JUMP JUMPDEST PUSH1 0x40 MLOAD DUP1 SWAP2 SUB SWAP1 REVERT JUMPDEST PUSH1 0x1 SLOAD TIMESTAMP GT ISZERO PUSH2 0x81E JUMPI PUSH1 0x40 MLOAD PUSH32 0x8C379A000000000000000000000000000000000000000000000000000000000 DUP2 MSTORE PUSH1 0x4 ADD PUSH2 0x815 SWAP1 PUSH2 0x3127 JUMP JUMPDEST PUSH1 0x40 MLOAD DUP1 SWAP2 SUB SWAP1 REVERT JUMPDEST PUSH1 0x0 PUSH1 0x6 PUSH1 0x0 DUP4 PUSH20 0xFFFFFFFFFFFFFFFFFFFFFFFFFFFFFFFFFFFFFFFF AND PUSH20 0xFFFFFFFFFFFFFFFFFFFFFFFFFFFFFFFFFFFFFFFF AND DUP2 MSTORE PUSH1 0x20 ADD SWAP1 DUP2 MSTORE PUSH1 0x20 ADD PUSH1 0x0 KECCAK256 SWAP1 POP PUSH1 0x0 PUSH20 0xFFFFFFFFFFFFFFFFFFFFFFFFFFFFFFFFFFFFFFFF AND DUP2 PUSH1 0x0 ADD PUSH1 0x0 SWAP1 SLOAD SWAP1 PUSH2 0x100 EXP SWAP1 DIV PUSH20 0xFFFFFFFFFFFFFFFFFFFFFFFFFFFFFFFFFFFFFFFF AND PUSH20 0xFFFFFFFFFFFFFFFFFFFFFFFFFFFFFFFFFFFFFFFF AND SUB PUSH2 0x8F4 JUMPI PUSH1 0x40 MLOAD PUSH32 0x8C379A000000000000000000000000000000000000000000000000000000000 DUP2 MSTORE PUSH1 0x4 ADD PUSH2 0x8EB SWAP1 PUSH2 0x3193 JUMP JUMPDEST PUSH1 0x40 MLOAD DUP1 SWAP2 SUB SWAP1 REVERT JUMPDEST PUSH1 0x1 PUSH1 0x7 PUSH1 0x0 DUP4 PUSH1 0x0 ADD PUSH1 0x0 SWAP1 SLOAD SWAP1 PUSH2 0x100 EXP SWAP1 DIV PUSH20 0xFFFFFFFFFFFFFFFFFFFFFFFFFFFFFFFFFFFFFFFF AND PUSH20 0xFFFFFFFFFFFFFFFFFFFFFFFFFFFFFFFFFFFFFFFF AND PUSH20 0xFFFFFFFFFFFFFFFFFFFFFFFFFFFFFFFFFFFFFFFF AND DUP2 MSTORE PUSH1 0x20 ADD SWAP1 DUP2 MSTORE PUSH1 0x20 ADD PUSH1 0x0 KECCAK256 PUSH1 0x0 DUP3 DUP3 SLOAD PUSH2 0x968 SWAP2 SWAP1 PUSH2 0x31E2 JUMP JUMPDEST SWAP3 POP POP DUP2 SWAP1 SSTORE POP PUSH1 0x6 PUSH1 0x0 DUP4 PUSH20 0xFFFFFFFFFFFFFFFFFFFFFFFFFFFFFFFFFFFFFFFF AND PUSH20 0xFFFFFFFFFFFFFFFFFFFFFFFFFFFFFFFFFFFFFFFF AND DUP2 MSTORE PUSH1 0x20 ADD SWAP1 DUP2 MSTORE PUSH1 0x20 ADD PUSH1 0x0 KECCAK256 PUSH1 0x0 DUP1 DUP3 ADD PUSH1 0x0 PUSH2 0x100 EXP DUP2 SLOAD SWAP1 PUSH20 0xFFFFFFFFFFFFFFFFFFFFFFFFFFFFFFFFFFFFFFFF MUL NOT AND SWAP1 SSTORE PUSH1 0x1 DUP3 ADD PUSH1 0x0 SWAP1 SSTORE POP POP PUSH32 0x5B5C1D8ABB8598F40CB2C7A7F57935EC6E1A778EFC4CEEF46E664CA271D0EF27 DUP3 PUSH1 0x40 MLOAD PUSH2 0xA0F SWAP2 SWAP1 PUSH2 0x28FC JUMP JUMPDEST PUSH1 0x40 MLOAD DUP1 SWAP2 SUB SWAP1 LOG1 POP POP JUMP JUMPDEST PUSH1 0x3 DUP2 DUP2 SLOAD DUP2 LT PUSH2 0xA2B JUMPI PUSH1 0x0 DUP1 REVERT JUMPDEST SWAP1 PUSH1 0x0 MSTORE PUSH1 0x20 PUSH1 0x0 KECCAK256 SWAP1 PUSH1 0x4 MUL ADD PUSH1 0x0 SWAP2 POP SWAP1 POP DUP1 PUSH1 0x0 ADD PUSH1 0x0 SWAP1 SLOAD SWAP1 PUSH2 0x100 EXP SWAP1 DIV PUSH20 0xFFFFFFFFFFFFFFFFFFFFFFFFFFFFFFFFFFFFFFFF AND SWAP1 DUP1 PUSH1 0x1 ADD DUP1 SLOAD PUSH2 0xA74 SWAP1 PUSH2 0x2D54 JUMP JUMPDEST DUP1 PUSH1 0x1F ADD PUSH1 0x20 DUP1 SWAP2 DIV MUL PUSH1 0x20 ADD PUSH1 0x40 MLOAD SWAP1 DUP2 ADD PUSH1 0x40 MSTORE DUP1 SWAP3 SWAP2 SWAP1 DUP2 DUP2 MSTORE PUSH1 0x20 ADD DUP3 DUP1 SLOAD PUSH2 0xAA0 SWAP1 PUSH2 0x2D54 JUMP JUMPDEST DUP1 ISZERO PUSH2 0xAED JUMPI DUP1 PUSH1 0x1F LT PUSH2 0xAC2 JUMPI PUSH2 0x100 DUP1 DUP4 SLOAD DIV MUL DUP4 MSTORE SWAP2 PUSH1 0x20 ADD SWAP2 PUSH2 0xAED JUMP JUMPDEST DUP3 ADD SWAP2 SWAP1 PUSH1 0x0 MSTORE PUSH1 0x20 PUSH1 0x0 KECCAK256 SWAP1 JUMPDEST DUP2 SLOAD DUP2 MSTORE SWAP1 PUSH1 0x1 ADD SWAP1 PUSH1 0x20 ADD DUP1 DUP4 GT PUSH2 0xAD0 JUMPI DUP3 SWAP1 SUB PUSH1 0x1F AND DUP3 ADD SWAP2 JUMPDEST POP POP POP POP POP SWAP1 DUP1 PUSH1 0x2 ADD DUP1 SLOAD PUSH2 0xB02 SWAP1 PUSH2 0x2D54 JUMP JUMPDEST DUP1 PUSH1 0x1F ADD PUSH1 0x20 DUP1 SWAP2 DIV MUL PUSH1 0x20 ADD PUSH1 0x40 MLOAD SWAP1 DUP2 ADD PUSH1 0x40 MSTORE DUP1 SWAP3 SWAP2 SWAP1 DUP2 DUP2 MSTORE PUSH1 0x20 ADD DUP3 DUP1 SLOAD PUSH2 0xB2E SWAP1 PUSH2 0x2D54 JUMP JUMPDEST DUP1 ISZERO PUSH2 0xB7B JUMPI DUP1 PUSH1 0x1F LT PUSH2 0xB50 JUMPI PUSH2 0x100 DUP1 DUP4 SLOAD DIV MUL DUP4 MSTORE SWAP2 PUSH1 0x20 ADD SWAP2 PUSH2 0xB7B JUMP JUMPDEST DUP3 ADD SWAP2 SWAP1 PUSH1 0x0 MSTORE PUSH1 0x20 PUSH1 0x0 KECCAK256 SWAP1 JUMPDEST DUP2 SLOAD DUP2 MSTORE SWAP1 PUSH1 0x1 ADD SWAP1 PUSH1 0x20 ADD DUP1 DUP4 GT PUSH2 0xB5E JUMPI DUP3 SWAP1 SUB PUSH1 0x1F AND DUP3 ADD SWAP2 JUMPDEST POP POP POP POP POP SWAP1 DUP1 PUSH1 0x3 ADD PUSH1 0x0 SWAP1 SLOAD SWAP1 PUSH2 0x100 EXP SWAP1 DIV PUSH1 0xFF AND SWAP1 POP DUP5 JUMP JUMPDEST PUSH1 0x2 PUSH1 0x0 SWAP1 SLOAD SWAP1 PUSH2 0x100 EXP SWAP1 DIV PUSH1 0xFF AND PUSH2 0xBE7 JUMPI PUSH1 0x40 MLOAD PUSH32 0x8C379A000000000000000000000000000000000000000000000000000000000 DUP2 MSTORE PUSH1 0x4 ADD PUSH2 0xBDE SWAP1 PUSH2 0x304F JUMP JUMPDEST PUSH1 0x40 MLOAD DUP1 SWAP2 SUB SWAP1 REVERT JUMPDEST PUSH1 0x0 SLOAD TIMESTAMP LT ISZERO PUSH2 0xC2C JUMPI PUSH1 0x40 MLOAD PUSH32 0x8C379A000000000000000000000000000000000000000000000000000000000 DUP2 MSTORE PUSH1 0x4 ADD PUSH2 0xC23 SWAP1 PUSH2 0x30BB JUMP JUMPDEST PUSH1 0x40 MLOAD DUP1 SWAP2 SUB SWAP1 REVERT JUMPDEST PUSH1 0x1 SLOAD TIMESTAMP GT ISZERO PUSH2 0xC71 JUMPI PUSH1 0x40 MLOAD PUSH32 0x8C379A000000000000000000000000000000000000000000000000000000000 DUP2 MSTORE PUSH1 0x4 ADD PUSH2 0xC68 SWAP1 PUSH2 0x3127 JUMP JUMPDEST PUSH1 0x40 MLOAD DUP1 SWAP2 SUB SWAP1 REVERT JUMPDEST DUP1 PUSH1 0x0 PUSH1 0x4 PUSH1 0x0 DUP4 PUSH20 0xFFFFFFFFFFFFFFFFFFFFFFFFFFFFFFFFFFFFFFFF AND PUSH20 0xFFFFFFFFFFFFFFFFFFFFFFFFFFFFFFFFFFFFFFFF AND DUP2 MSTORE PUSH1 0x20 ADD SWAP1 DUP2 MSTORE PUSH1 0x20 ADD PUSH1 0x0 KECCAK256 SWAP1 POP DUP2 PUSH20 0xFFFFFFFFFFFFFFFFFFFFFFFFFFFFFFFFFFFFFFFF AND DUP2 PUSH1 0x0 ADD PUSH1 0x0 SWAP1 SLOAD SWAP1 PUSH2 0x100 EXP SWAP1 DIV PUSH20 0xFFFFFFFFFFFFFFFFFFFFFFFFFFFFFFFFFFFFFFFF AND PUSH20 0xFFFFFFFFFFFFFFFFFFFFFFFFFFFFFFFFFFFFFFFF AND EQ PUSH2 0xD47 JUMPI PUSH1 0x40 MLOAD PUSH32 0x8C379A000000000000000000000000000000000000000000000000000000000 DUP2 MSTORE PUSH1 0x4 ADD PUSH2 0xD3E SWAP1 PUSH2 0x2C73 JUMP JUMPDEST PUSH1 0x40 MLOAD DUP1 SWAP2 SUB SWAP1 REVERT JUMPDEST PUSH1 0x0 PUSH1 0x4 PUSH1 0x0 DUP6 PUSH20 0xFFFFFFFFFFFFFFFFFFFFFFFFFFFFFFFFFFFFFFFF AND PUSH20 0xFFFFFFFFFFFFFFFFFFFFFFFFFFFFFFFFFFFFFFFF AND DUP2 MSTORE PUSH1 0x20 ADD SWAP1 DUP2 MSTORE PUSH1 0x20 ADD PUSH1 0x0 KECCAK256 SWAP1 POP PUSH1 0x0 PUSH1 0x6 PUSH1 0x0 CALLER PUSH20 0xFFFFFFFFFFFFFFFFFFFFFFFFFFFFFFFFFFFFFFFF AND PUSH20 0xFFFFFFFFFFFFFFFFFFFFFFFFFFFFFFFFFFFFFFFF AND DUP2 MSTORE PUSH1 0x20 ADD SWAP1 DUP2 MSTORE PUSH1 0x20 ADD PUSH1 0x0 KECCAK256 SWAP1 POP PUSH1 0x0 PUSH20 0xFFFFFFFFFFFFFFFFFFFFFFFFFFFFFFFFFFFFFFFF AND DUP2 PUSH1 0x0 ADD PUSH1 0x0 SWAP1 SLOAD SWAP1 PUSH2 0x100 EXP SWAP1 DIV PUSH20 0xFFFFFFFFFFFFFFFFFFFFFFFFFFFFFFFFFFFFFFFF AND PUSH20 0xFFFFFFFFFFFFFFFFFFFFFFFFFFFFFFFFFFFFFFFF AND EQ PUSH2 0xE60 JUMPI PUSH1 0x40 MLOAD PUSH32 0x8C379A000000000000000000000000000000000000000000000000000000000 DUP2 MSTORE PUSH1 0x4 ADD PUSH2 0xE57 SWAP1 PUSH2 0x3262 JUMP JUMPDEST PUSH1 0x40 MLOAD DUP1 SWAP2 SUB SWAP1 REVERT JUMPDEST PUSH1 0x0 PUSH1 0x2 DUP2 GT ISZERO PUSH2 0xE74 JUMPI PUSH2 0xE73 PUSH2 0x2832 JUMP JUMPDEST JUMPDEST DUP3 PUSH1 0x3 ADD PUSH1 0x0 SWAP1 SLOAD SWAP1 PUSH2 0x100 EXP SWAP1 DIV PUSH1 0xFF AND PUSH1 0x2 DUP2 GT ISZERO PUSH2 0xE98 JUMPI PUSH2 0xE97 PUSH2 0x2832 JUMP JUMPDEST JUMPDEST EQ PUSH2 0xED8 JUMPI PUSH1 0x40 MLOAD PUSH32 0x8C379A000000000000000000000000000000000000000000000000000000000 DUP2 MSTORE PUSH1 0x4 ADD PUSH2 0xECF SWAP1 PUSH2 0x32CE JUMP JUMPDEST PUSH1 0x40 MLOAD DUP1 SWAP2 SUB SWAP1 REVERT JUMPDEST DUP2 PUSH1 0x0 ADD PUSH1 0x0 SWAP1 SLOAD SWAP1 PUSH2 0x100 EXP SWAP1 DIV PUSH20 0xFFFFFFFFFFFFFFFFFFFFFFFFFFFFFFFFFFFFFFFF AND DUP2 PUSH1 0x0 ADD PUSH1 0x0 PUSH2 0x100 EXP DUP2 SLOAD DUP2 PUSH20 0xFFFFFFFFFFFFFFFFFFFFFFFFFFFFFFFFFFFFFFFF MUL NOT AND SWAP1 DUP4 PUSH20 0xFFFFFFFFFFFFFFFFFFFFFFFFFFFFFFFFFFFFFFFF AND MUL OR SWAP1 SSTORE POP TIMESTAMP DUP2 PUSH1 0x1 ADD DUP2 SWAP1 SSTORE POP PUSH1 0x1 PUSH1 0x7 PUSH1 0x0 DUP5 PUSH1 0x0 ADD PUSH1 0x0 SWAP1 SLOAD SWAP1 PUSH2 0x100 EXP SWAP1 DIV PUSH20 0xFFFFFFFFFFFFFFFFFFFFFFFFFFFFFFFFFFFFFFFF AND PUSH20 0xFFFFFFFFFFFFFFFFFFFFFFFFFFFFFFFFFFFFFFFF AND PUSH20 0xFFFFFFFFFFFFFFFFFFFFFFFFFFFFFFFFFFFFFFFF AND DUP2 MSTORE PUSH1 0x20 ADD SWAP1 DUP2 MSTORE PUSH1 0x20 ADD PUSH1 0x0 KECCAK256 PUSH1 0x0 DUP3 DUP3 SLOAD PUSH2 0xFBC SWAP2 SWAP1 PUSH2 0x32EE JUMP JUMPDEST SWAP3 POP POP DUP2 SWAP1 SSTORE POP CALLER PUSH20 0xFFFFFFFFFFFFFFFFFFFFFFFFFFFFFFFFFFFFFFFF AND PUSH32 0x484413C33463E7D976E3DED2A85B0C31610D0906977DF2CD9CBD6D12A6872A84 DUP4 PUSH1 0x0 ADD PUSH1 0x0 SWAP1 SLOAD SWAP1 PUSH2 0x100 EXP SWAP1 DIV PUSH20 0xFFFFFFFFFFFFFFFFFFFFFFFFFFFFFFFFFFFFFFFF AND DUP4 PUSH1 0x1 ADD SLOAD PUSH1 0x40 MLOAD PUSH2 0x1033 SWAP3 SWAP2 SWAP1 PUSH2 0x2B2C JUMP JUMPDEST PUSH1 0x40 MLOAD DUP1 SWAP2 SUB SWAP1 LOG2 POP POP POP POP POP JUMP JUMPDEST PUSH1 0x1 SLOAD DUP2 JUMP JUMPDEST PUSH1 0x4 PUSH1 0x20 MSTORE DUP1 PUSH1 0x0 MSTORE PUSH1 0x40 PUSH1 0x0 KECCAK256 PUSH1 0x0 SWAP2 POP SWAP1 POP DUP1 PUSH1 0x0 ADD PUSH1 0x0 SWAP1 SLOAD SWAP1 PUSH2 0x100 EXP SWAP1 DIV PUSH20 0xFFFFFFFFFFFFFFFFFFFFFFFFFFFFFFFFFFFFFFFF AND SWAP1 DUP1 PUSH1 0x1 ADD DUP1 SLOAD PUSH2 0x1091 SWAP1 PUSH2 0x2D54 JUMP JUMPDEST DUP1 PUSH1 0x1F ADD PUSH1 0x20 DUP1 SWAP2 DIV MUL PUSH1 0x20 ADD PUSH1 0x40 MLOAD SWAP1 DUP2 ADD PUSH1 0x40 MSTORE DUP1 SWAP3 SWAP2 SWAP1 DUP2 DUP2 MSTORE PUSH1 0x20 ADD DUP3 DUP1 SLOAD PUSH2 0x10BD SWAP1 PUSH2 0x2D54 JUMP JUMPDEST DUP1 ISZERO PUSH2 0x110A JUMPI DUP1 PUSH1 0x1F LT PUSH2 0x10DF JUMPI PUSH2 0x100 DUP1 DUP4 SLOAD DIV MUL DUP4 MSTORE SWAP2 PUSH1 0x20 ADD SWAP2 PUSH2 0x110A JUMP JUMPDEST DUP3 ADD SWAP2 SWAP1 PUSH1 0x0 MSTORE PUSH1 0x20 PUSH1 0x0 KECCAK256 SWAP1 JUMPDEST DUP2 SLOAD DUP2 MSTORE SWAP1 PUSH1 0x1 ADD SWAP1 PUSH1 0x20 ADD DUP1 DUP4 GT PUSH2 0x10ED JUMPI DUP3 SWAP1 SUB PUSH1 0x1F AND DUP3 ADD SWAP2 JUMPDEST POP POP POP POP POP SWAP1 DUP1 PUSH1 0x2 ADD DUP1 SLOAD PUSH2 0x111F SWAP1 PUSH2 0x2D54 JUMP JUMPDEST DUP1 PUSH1 0x1F ADD PUSH1 0x20 DUP1 SWAP2 DIV MUL PUSH1 0x20 ADD PUSH1 0x40 MLOAD SWAP1 DUP2 ADD PUSH1 0x40 MSTORE DUP1 SWAP3 SWAP2 SWAP1 DUP2 DUP2 MSTORE PUSH1 0x20 ADD DUP3 DUP1 SLOAD PUSH2 0x114B SWAP1 PUSH2 0x2D54 JUMP JUMPDEST DUP1 ISZERO PUSH2 0x1198 JUMPI DUP1 PUSH1 0x1F LT PUSH2 0x116D JUMPI PUSH2 0x100 DUP1 DUP4 SLOAD DIV MUL DUP4 MSTORE SWAP2 PUSH1 0x20 ADD SWAP2 PUSH2 0x1198 JUMP JUMPDEST DUP3 ADD SWAP2 SWAP1 PUSH1 0x0 MSTORE PUSH1 0x20 PUSH1 0x0 KECCAK256 SWAP1 JUMPDEST DUP2 SLOAD DUP2 MSTORE SWAP1 PUSH1 0x1 ADD SWAP1 PUSH1 0x20 ADD DUP1 DUP4 GT PUSH2 0x117B JUMPI DUP3 SWAP1 SUB PUSH1 0x1F AND DUP3 ADD SWAP2 JUMPDEST POP POP POP POP POP SWAP1 DUP1 PUSH1 0x3 ADD PUSH1 0x0 SWAP1 SLOAD SWAP1 PUSH2 0x100 EXP SWAP1 DIV PUSH1 0xFF AND SWAP1 POP DUP5 JUMP JUMPDEST PUSH1 0x2 PUSH1 0x1 SWAP1 SLOAD SWAP1 PUSH2 0x100 EXP SWAP1 DIV PUSH20 0xFFFFFFFFFFFFFFFFFFFFFFFFFFFFFFFFFFFFFFFF AND DUP2 JUMP JUMPDEST PUSH1 0x2 PUSH1 0x1 SWAP1 SLOAD SWAP1 PUSH2 0x100 EXP SWAP1 DIV PUSH20 0xFFFFFFFFFFFFFFFFFFFFFFFFFFFFFFFFFFFFFFFF AND PUSH20 0xFFFFFFFFFFFFFFFFFFFFFFFFFFFFFFFFFFFFFFFF AND CALLER PUSH20 0xFFFFFFFFFFFFFFFFFFFFFFFFFFFFFFFFFFFFFFFF AND EQ PUSH2 0x126B JUMPI PUSH1 0x40 MLOAD PUSH32 0x8C379A000000000000000000000000000000000000000000000000000000000 DUP2 MSTORE PUSH1 0x4 ADD PUSH2 0x1262 SWAP1 PUSH2 0x2C07 JUMP JUMPDEST PUSH1 0x40 MLOAD DUP1 SWAP2 SUB SWAP1 REVERT JUMPDEST PUSH1 0x0 DUP1 SLOAD GT PUSH2 0x12AF JUMPI PUSH1 0x40 MLOAD PUSH32 0x8C379A000000000000000000000000000000000000000000000000000000000 DUP2 MSTORE PUSH1 0x4 ADD PUSH2 0x12A6 SWAP1 PUSH2 0x336E JUMP JUMPDEST PUSH1 0x40 MLOAD DUP1 SWAP2 SUB SWAP1 REVERT JUMPDEST PUSH1 0x0 PUSH1 0x1 SLOAD GT PUSH2 0x12F4 JUMPI PUSH1 0x40 MLOAD PUSH32 0x8C379A000000000000000000000000000000000000000000000000000000000 DUP2 MSTORE PUSH1 0x4 ADD PUSH2 0x12EB SWAP1 PUSH2 0x33DA JUMP JUMPDEST PUSH1 0x40 MLOAD DUP1 SWAP2 SUB SWAP1 REVERT JUMPDEST TIMESTAMP PUSH1 0x1 SLOAD GT PUSH2 0x1338 JUMPI PUSH1 0x40 MLOAD PUSH32 0x8C379A000000000000000000000000000000000000000000000000000000000 DUP2 MSTORE PUSH1 0x4 ADD PUSH2 0x132F SWAP1 PUSH2 0x3446 JUMP JUMPDEST PUSH1 0x40 MLOAD DUP1 SWAP2 SUB SWAP1 REVERT JUMPDEST PUSH1 0x2 PUSH1 0x0 SWAP1 SLOAD SWAP1 PUSH2 0x100 EXP SWAP1 DIV PUSH1 0xFF AND PUSH2 0x13B1 JUMPI PUSH1 0x0 SLOAD TIMESTAMP LT ISZERO PUSH2 0x1391 JUMPI PUSH1 0x40 MLOAD PUSH32 0x8C379A000000000000000000000000000000000000000000000000000000000 DUP2 MSTORE PUSH1 0x4 ADD PUSH2 0x1388 SWAP1 PUSH2 0x34B2 JUMP JUMPDEST PUSH1 0x40 MLOAD DUP1 SWAP2 SUB SWAP1 REVERT JUMPDEST PUSH1 0x1 PUSH1 0x2 PUSH1 0x0 PUSH2 0x100 EXP DUP2 SLOAD DUP2 PUSH1 0xFF MUL NOT AND SWAP1 DUP4 ISZERO ISZERO MUL OR SWAP1 SSTORE POP PUSH2 0x13CD JUMP JUMPDEST PUSH1 0x0 PUSH1 0x2 PUSH1 0x0 PUSH2 0x100 EXP DUP2 SLOAD DUP2 PUSH1 0xFF MUL NOT AND SWAP1 DUP4 ISZERO ISZERO MUL OR SWAP1 SSTORE POP JUMPDEST PUSH32 0xBA8599342B44E2C0B69A45B40B47F660E309D28EC3D9CE8262D4A783355E65A4 PUSH1 0x2 PUSH1 0x0 SWAP1 SLOAD SWAP1 PUSH2 0x100 EXP SWAP1 DIV PUSH1 0xFF AND CALLER PUSH1 0x40 MLOAD PUSH2 0x140D SWAP3 SWAP2 SWAP1 PUSH2 0x34D2 JUMP JUMPDEST PUSH1 0x40 MLOAD DUP1 SWAP2 SUB SWAP1 LOG1 JUMP JUMPDEST PUSH1 0x60 PUSH1 0x0 PUSH1 0x3 DUP1 SLOAD SWAP1 POP PUSH8 0xFFFFFFFFFFFFFFFF DUP2 GT ISZERO PUSH2 0x143A JUMPI PUSH2 0x1439 PUSH2 0x255F JUMP JUMPDEST JUMPDEST PUSH1 0x40 MLOAD SWAP1 DUP1 DUP3 MSTORE DUP1 PUSH1 0x20 MUL PUSH1 0x20 ADD DUP3 ADD PUSH1 0x40 MSTORE DUP1 ISZERO PUSH2 0x1473 JUMPI DUP2 PUSH1 0x20 ADD JUMPDEST PUSH2 0x1460 PUSH2 0x23E4 JUMP JUMPDEST DUP2 MSTORE PUSH1 0x20 ADD SWAP1 PUSH1 0x1 SWAP1 SUB SWAP1 DUP2 PUSH2 0x1458 JUMPI SWAP1 POP JUMPDEST POP SWAP1 POP PUSH1 0x0 JUMPDEST PUSH1 0x3 DUP1 SLOAD SWAP1 POP DUP2 LT ISZERO PUSH2 0x1710 JUMPI PUSH1 0x0 PUSH1 0x3 DUP3 DUP2 SLOAD DUP2 LT PUSH2 0x149C JUMPI PUSH2 0x149B PUSH2 0x34FB JUMP JUMPDEST JUMPDEST SWAP1 PUSH1 0x0 MSTORE PUSH1 0x20 PUSH1 0x0 KECCAK256 SWAP1 PUSH1 0x4 MUL ADD PUSH1 0x40 MLOAD DUP1 PUSH1 0x80 ADD PUSH1 0x40 MSTORE SWAP1 DUP2 PUSH1 0x0 DUP3 ADD PUSH1 0x0 SWAP1 SLOAD SWAP1 PUSH2 0x100 EXP SWAP1 DIV PUSH20 0xFFFFFFFFFFFFFFFFFFFFFFFFFFFFFFFFFFFFFFFF AND PUSH20 0xFFFFFFFFFFFFFFFFFFFFFFFFFFFFFFFFFFFFFFFF AND PUSH20 0xFFFFFFFFFFFFFFFFFFFFFFFFFFFFFFFFFFFFFFFF AND DUP2 MSTORE PUSH1 0x20 ADD PUSH1 0x1 DUP3 ADD DUP1 SLOAD PUSH2 0x151B SWAP1 PUSH2 0x2D54 JUMP JUMPDEST DUP1 PUSH1 0x1F ADD PUSH1 0x20 DUP1 SWAP2 DIV MUL PUSH1 0x20 ADD PUSH1 0x40 MLOAD SWAP1 DUP2 ADD PUSH1 0x40 MSTORE DUP1 SWAP3 SWAP2 SWAP1 DUP2 DUP2 MSTORE PUSH1 0x20 ADD DUP3 DUP1 SLOAD PUSH2 0x1547 SWAP1 PUSH2 0x2D54 JUMP JUMPDEST DUP1 ISZERO PUSH2 0x1594 JUMPI DUP1 PUSH1 0x1F LT PUSH2 0x1569 JUMPI PUSH2 0x100 DUP1 DUP4 SLOAD DIV MUL DUP4 MSTORE SWAP2 PUSH1 0x20 ADD SWAP2 PUSH2 0x1594 JUMP JUMPDEST DUP3 ADD SWAP2 SWAP1 PUSH1 0x0 MSTORE PUSH1 0x20 PUSH1 0x0 KECCAK256 SWAP1 JUMPDEST DUP2 SLOAD DUP2 MSTORE SWAP1 PUSH1 0x1 ADD SWAP1 PUSH1 0x20 ADD DUP1 DUP4 GT PUSH2 0x1577 JUMPI DUP3 SWAP1 SUB PUSH1 0x1F AND DUP3 ADD SWAP2 JUMPDEST POP POP POP POP POP DUP2 MSTORE PUSH1 0x20 ADD PUSH1 0x2 DUP3 ADD DUP1 SLOAD PUSH2 0x15AD SWAP1 PUSH2 0x2D54 JUMP JUMPDEST DUP1 PUSH1 0x1F ADD PUSH1 0x20 DUP1 SWAP2 DIV MUL PUSH1 0x20 ADD PUSH1 0x40 MLOAD SWAP1 DUP2 ADD PUSH1 0x40 MSTORE DUP1 SWAP3 SWAP2 SWAP1 DUP2 DUP2 MSTORE PUSH1 0x20 ADD DUP3 DUP1 SLOAD PUSH2 0x15D9 SWAP1 PUSH2 0x2D54 JUMP JUMPDEST DUP1 ISZERO PUSH2 0x1626 JUMPI DUP1 PUSH1 0x1F LT PUSH2 0x15FB JUMPI PUSH2 0x100 DUP1 DUP4 SLOAD DIV MUL DUP4 MSTORE SWAP2 PUSH1 0x20 ADD SWAP2 PUSH2 0x1626 JUMP JUMPDEST DUP3 ADD SWAP2 SWAP1 PUSH1 0x0 MSTORE PUSH1 0x20 PUSH1 0x0 KECCAK256 SWAP1 JUMPDEST DUP2 SLOAD DUP2 MSTORE SWAP1 PUSH1 0x1 ADD SWAP1 PUSH1 0x20 ADD DUP1 DUP4 GT PUSH2 0x1609 JUMPI DUP3 SWAP1 SUB PUSH1 0x1F AND DUP3 ADD SWAP2 JUMPDEST POP POP POP POP POP DUP2 MSTORE PUSH1 0x20 ADD PUSH1 0x3 DUP3 ADD PUSH1 0x0 SWAP1 SLOAD SWAP1 PUSH2 0x100 EXP SWAP1 DIV PUSH1 0xFF AND PUSH1 0x2 DUP2 GT ISZERO PUSH2 0x1654 JUMPI PUSH2 0x1653 PUSH2 0x2832 JUMP JUMPDEST JUMPDEST PUSH1 0x2 DUP2 GT ISZERO PUSH2 0x1666 JUMPI PUSH2 0x1665 PUSH2 0x2832 JUMP JUMPDEST JUMPDEST DUP2 MSTORE POP POP SWAP1 POP PUSH1 0x40 MLOAD DUP1 PUSH1 0x60 ADD PUSH1 0x40 MSTORE DUP1 DUP3 PUSH1 0x0 ADD MLOAD PUSH20 0xFFFFFFFFFFFFFFFFFFFFFFFFFFFFFFFFFFFFFFFF AND DUP2 MSTORE PUSH1 0x20 ADD PUSH1 0x7 PUSH1 0x0 DUP5 PUSH1 0x0 ADD MLOAD PUSH20 0xFFFFFFFFFFFFFFFFFFFFFFFFFFFFFFFFFFFFFFFF AND PUSH20 0xFFFFFFFFFFFFFFFFFFFFFFFFFFFFFFFFFFFFFFFF AND DUP2 MSTORE PUSH1 0x20 ADD SWAP1 DUP2 MSTORE PUSH1 0x20 ADD PUSH1 0x0 KECCAK256 SLOAD DUP2 MSTORE PUSH1 0x20 ADD DUP3 DUP2 MSTORE POP DUP4 DUP4 DUP2 MLOAD DUP2 LT PUSH2 0x16F7 JUMPI PUSH2 0x16F6 PUSH2 0x34FB JUMP JUMPDEST JUMPDEST PUSH1 0x20 MUL PUSH1 0x20 ADD ADD DUP2 SWAP1 MSTORE POP POP DUP1 DUP1 PUSH1 0x1 ADD SWAP2 POP POP PUSH2 0x1479 JUMP JUMPDEST POP DUP1 SWAP2 POP POP SWAP1 JUMP JUMPDEST PUSH1 0x2 PUSH1 0x1 SWAP1 SLOAD SWAP1 PUSH2 0x100 EXP SWAP1 DIV PUSH20 0xFFFFFFFFFFFFFFFFFFFFFFFFFFFFFFFFFFFFFFFF AND PUSH20 0xFFFFFFFFFFFFFFFFFFFFFFFFFFFFFFFFFFFFFFFF AND CALLER PUSH20 0xFFFFFFFFFFFFFFFFFFFFFFFFFFFFFFFFFFFFFFFF AND EQ PUSH2 0x17A8 JUMPI PUSH1 0x40 MLOAD PUSH32 0x8C379A000000000000000000000000000000000000000000000000000000000 DUP2 MSTORE PUSH1 0x4 ADD PUSH2 0x179F SWAP1 PUSH2 0x2C07 JUMP JUMPDEST PUSH1 0x40 MLOAD DUP1 SWAP2 SUB SWAP1 REVERT JUMPDEST DUP1 PUSH1 0x0 PUSH1 0x4 PUSH1 0x0 DUP4 PUSH20 0xFFFFFFFFFFFFFFFFFFFFFFFFFFFFFFFFFFFFFFFF AND PUSH20 0xFFFFFFFFFFFFFFFFFFFFFFFFFFFFFFFFFFFFFFFF AND DUP2 MSTORE PUSH1 0x20 ADD SWAP1 DUP2 MSTORE PUSH1 0x20 ADD PUSH1 0x0 KECCAK256 SWAP1 POP DUP2 PUSH20 0xFFFFFFFFFFFFFFFFFFFFFFFFFFFFFFFFFFFFFFFF AND DUP2 PUSH1 0x0 ADD PUSH1 0x0 SWAP1 SLOAD SWAP1 PUSH2 0x100 EXP SWAP1 DIV PUSH20 0xFFFFFFFFFFFFFFFFFFFFFFFFFFFFFFFFFFFFFFFF AND PUSH20 0xFFFFFFFFFFFFFFFFFFFFFFFFFFFFFFFFFFFFFFFF AND EQ PUSH2 0x187E JUMPI PUSH1 0x40 MLOAD PUSH32 0x8C379A000000000000000000000000000000000000000000000000000000000 DUP2 MSTORE PUSH1 0x4 ADD PUSH2 0x1875 SWAP1 PUSH2 0x2C73 JUMP JUMPDEST PUSH1 0x40 MLOAD DUP1 SWAP2 SUB SWAP1 REVERT JUMPDEST PUSH1 0x0 PUSH1 0x4 PUSH1 0x0 DUP6 PUSH20 0xFFFFFFFFFFFFFFFFFFFFFFFFFFFFFFFFFFFFFFFF AND PUSH20 0xFFFFFFFFFFFFFFFFFFFFFFFFFFFFFFFFFFFFFFFF AND DUP2 MSTORE PUSH1 0x20 ADD SWAP1 DUP2 MSTORE PUSH1 0x20 ADD PUSH1 0x0 KECCAK256 SWAP1 POP PUSH1 0x2 DUP1 DUP2 GT ISZERO PUSH2 0x18D4 JUMPI PUSH2 0x18D3 PUSH2 0x2832 JUMP JUMPDEST JUMPDEST DUP2 PUSH1 0x3 ADD PUSH1 0x0 SWAP1 SLOAD SWAP1 PUSH2 0x100 EXP SWAP1 DIV PUSH1 0xFF AND PUSH1 0x2 DUP2 GT ISZERO PUSH2 0x18F8 JUMPI PUSH2 0x18F7 PUSH2 0x2832 JUMP JUMPDEST JUMPDEST SUB PUSH2 0x1938 JUMPI PUSH1 0x40 MLOAD PUSH32 0x8C379A000000000000000000000000000000000000000000000000000000000 DUP2 MSTORE PUSH1 0x4 ADD PUSH2 0x192F SWAP1 PUSH2 0x3576 JUMP JUMPDEST PUSH1 0x40 MLOAD DUP1 SWAP2 SUB SWAP1 REVERT JUMPDEST PUSH1 0x2 DUP2 PUSH1 0x3 ADD PUSH1 0x0 PUSH2 0x100 EXP DUP2 SLOAD DUP2 PUSH1 0xFF MUL NOT AND SWAP1 DUP4 PUSH1 0x2 DUP2 GT ISZERO PUSH2 0x1960 JUMPI PUSH2 0x195F PUSH2 0x2832 JUMP JUMPDEST JUMPDEST MUL OR SWAP1 SSTORE POP POP POP POP POP JUMP JUMPDEST PUSH1 0x6 PUSH1 0x20 MSTORE DUP1 PUSH1 0x0 MSTORE PUSH1 0x40 PUSH1 0x0 KECCAK256 PUSH1 0x0 SWAP2 POP SWAP1 POP DUP1 PUSH1 0x0 ADD PUSH1 0x0 SWAP1 SLOAD SWAP1 PUSH2 0x100 EXP SWAP1 DIV PUSH20 0xFFFFFFFFFFFFFFFFFFFFFFFFFFFFFFFFFFFFFFFF AND SWAP1 DUP1 PUSH1 0x1 ADD SLOAD SWAP1 POP DUP3 JUMP JUMPDEST PUSH1 0x2 PUSH1 0x1 SWAP1 SLOAD SWAP1 PUSH2 0x100 EXP SWAP1 DIV PUSH20 0xFFFFFFFFFFFFFFFFFFFFFFFFFFFFFFFFFFFFFFFF AND PUSH20 0xFFFFFFFFFFFFFFFFFFFFFFFFFFFFFFFFFFFFFFFF AND CALLER PUSH20 0xFFFFFFFFFFFFFFFFFFFFFFFFFFFFFFFFFFFFFFFF AND EQ PUSH2 0x1A3F JUMPI PUSH1 0x40 MLOAD PUSH32 0x8C379A000000000000000000000000000000000000000000000000000000000 DUP2 MSTORE PUSH1 0x4 ADD PUSH2 0x1A36 SWAP1 PUSH2 0x2C07 JUMP JUMPDEST PUSH1 0x40 MLOAD DUP1 SWAP2 SUB SWAP1 REVERT JUMPDEST CALLER PUSH20 0xFFFFFFFFFFFFFFFFFFFFFFFFFFFFFFFFFFFFFFFF AND DUP4 PUSH20 0xFFFFFFFFFFFFFFFFFFFFFFFFFFFFFFFFFFFFFFFF AND SUB PUSH2 0x1AAD JUMPI PUSH1 0x40 MLOAD PUSH32 0x8C379A000000000000000000000000000000000000000000000000000000000 DUP2 MSTORE PUSH1 0x4 ADD PUSH2 0x1AA4 SWAP1 PUSH2 0x35E2 JUMP JUMPDEST PUSH1 0x40 MLOAD DUP1 SWAP2 SUB SWAP1 REVERT JUMPDEST PUSH1 0x2 PUSH1 0x0 SWAP1 SLOAD SWAP1 PUSH2 0x100 EXP SWAP1 DIV PUSH1 0xFF AND ISZERO PUSH2 0x1AFD JUMPI PUSH1 0x40 MLOAD PUSH32 0x8C379A000000000000000000000000000000000000000000000000000000000 DUP2 MSTORE PUSH1 0x4 ADD PUSH2 0x1AF4 SWAP1 PUSH2 0x3674 JUMP JUMPDEST PUSH1 0x40 MLOAD DUP1 SWAP2 SUB SWAP1 REVERT JUMPDEST PUSH1 0x0 PUSH1 0x4 PUSH1 0x0 DUP6 PUSH20 0xFFFFFFFFFFFFFFFFFFFFFFFFFFFFFFFFFFFFFFFF AND PUSH20 0xFFFFFFFFFFFFFFFFFFFFFFFFFFFFFFFFFFFFFFFF AND DUP2 MSTORE PUSH1 0x20 ADD SWAP1 DUP2 MSTORE PUSH1 0x20 ADD PUSH1 0x0 KECCAK256 SWAP1 POP DUP4 PUSH20 0xFFFFFFFFFFFFFFFFFFFFFFFFFFFFFFFFFFFFFFFF AND DUP2 PUSH1 0x0 ADD PUSH1 0x0 SWAP1 SLOAD SWAP1 PUSH2 0x100 EXP SWAP1 DIV PUSH20 0xFFFFFFFFFFFFFFFFFFFFFFFFFFFFFFFFFFFFFFFF AND PUSH20 0xFFFFFFFFFFFFFFFFFFFFFFFFFFFFFFFFFFFFFFFF AND SUB PUSH2 0x1BD2 JUMPI PUSH1 0x40 MLOAD PUSH32 0x8C379A000000000000000000000000000000000000000000000000000000000 DUP2 MSTORE PUSH1 0x4 ADD PUSH2 0x1BC9 SWAP1 PUSH2 0x36E0 JUMP JUMPDEST PUSH1 0x40 MLOAD DUP1 SWAP2 SUB SWAP1 REVERT JUMPDEST PUSH1 0x40 MLOAD DUP1 PUSH1 0x80 ADD PUSH1 0x40 MSTORE DUP1 DUP6 PUSH20 0xFFFFFFFFFFFFFFFFFFFFFFFFFFFFFFFFFFFFFFFF AND DUP2 MSTORE PUSH1 0x20 ADD DUP5 DUP2 MSTORE PUSH1 0x20 ADD DUP4 DUP2 MSTORE PUSH1 0x20 ADD PUSH1 0x1 PUSH1 0x2 DUP2 GT ISZERO PUSH2 0x1C19 JUMPI PUSH2 0x1C18 PUSH2 0x2832 JUMP JUMPDEST JUMPDEST DUP2 MSTORE POP PUSH1 0x4 PUSH1 0x0 DUP7 PUSH20 0xFFFFFFFFFFFFFFFFFFFFFFFFFFFFFFFFFFFFFFFF AND PUSH20 0xFFFFFFFFFFFFFFFFFFFFFFFFFFFFFFFFFFFFFFFF AND DUP2 MSTORE PUSH1 0x20 ADD SWAP1 DUP2 MSTORE PUSH1 0x20 ADD PUSH1 0x0 KECCAK256 PUSH1 0x0 DUP3 ADD MLOAD DUP2 PUSH1 0x0 ADD PUSH1 0x0 PUSH2 0x100 EXP DUP2 SLOAD DUP2 PUSH20 0xFFFFFFFFFFFFFFFFFFFFFFFFFFFFFFFFFFFFFFFF MUL NOT AND SWAP1 DUP4 PUSH20 0xFFFFFFFFFFFFFFFFFFFFFFFFFFFFFFFFFFFFFFFF AND MUL OR SWAP1 SSTORE POP PUSH1 0x20 DUP3 ADD MLOAD DUP2 PUSH1 0x1 ADD SWAP1 DUP2 PUSH2 0x1CB7 SWAP2 SWAP1 PUSH2 0x2F31 JUMP JUMPDEST POP PUSH1 0x40 DUP3 ADD MLOAD DUP2 PUSH1 0x2 ADD SWAP1 DUP2 PUSH2 0x1CCD SWAP2 SWAP1 PUSH2 0x2F31 JUMP JUMPDEST POP PUSH1 0x60 DUP3 ADD MLOAD DUP2 PUSH1 0x3 ADD PUSH1 0x0 PUSH2 0x100 EXP DUP2 SLOAD DUP2 PUSH1 0xFF MUL NOT AND SWAP1 DUP4 PUSH1 0x2 DUP2 GT ISZERO PUSH2 0x1CF9 JUMPI PUSH2 0x1CF8 PUSH2 0x2832 JUMP JUMPDEST JUMPDEST MUL OR SWAP1 SSTORE POP SWAP1 POP POP PUSH1 0x3 PUSH1 0x40 MLOAD DUP1 PUSH1 0x80 ADD PUSH1 0x40 MSTORE DUP1 DUP7 PUSH20 0xFFFFFFFFFFFFFFFFFFFFFFFFFFFFFFFFFFFFFFFF AND DUP2 MSTORE PUSH1 0x20 ADD DUP6 DUP2 MSTORE PUSH1 0x20 ADD DUP5 DUP2 MSTORE PUSH1 0x20 ADD PUSH1 0x1 PUSH1 0x2 DUP2 GT ISZERO PUSH2 0x1D4A JUMPI PUSH2 0x1D49 PUSH2 0x2832 JUMP JUMPDEST JUMPDEST DUP2 MSTORE POP SWAP1 DUP1 PUSH1 0x1 DUP2 SLOAD ADD DUP1 DUP3 SSTORE DUP1 SWAP2 POP POP PUSH1 0x1 SWAP1 SUB SWAP1 PUSH1 0x0 MSTORE PUSH1 0x20 PUSH1 0x0 KECCAK256 SWAP1 PUSH1 0x4 MUL ADD PUSH1 0x0 SWAP1 SWAP2 SWAP1 SWAP2 SWAP1 SWAP2 POP PUSH1 0x0 DUP3 ADD MLOAD DUP2 PUSH1 0x0 ADD PUSH1 0x0 PUSH2 0x100 EXP DUP2 SLOAD DUP2 PUSH20 0xFFFFFFFFFFFFFFFFFFFFFFFFFFFFFFFFFFFFFFFF MUL NOT AND SWAP1 DUP4 PUSH20 0xFFFFFFFFFFFFFFFFFFFFFFFFFFFFFFFFFFFFFFFF AND MUL OR SWAP1 SSTORE POP PUSH1 0x20 DUP3 ADD MLOAD DUP2 PUSH1 0x1 ADD SWAP1 DUP2 PUSH2 0x1DD2 SWAP2 SWAP1 PUSH2 0x2F31 JUMP JUMPDEST POP PUSH1 0x40 DUP3 ADD MLOAD DUP2 PUSH1 0x2 ADD SWAP1 DUP2 PUSH2 0x1DE8 SWAP2 SWAP1 PUSH2 0x2F31 JUMP JUMPDEST POP PUSH1 0x60 DUP3 ADD MLOAD DUP2 PUSH1 0x3 ADD PUSH1 0x0 PUSH2 0x100 EXP DUP2 SLOAD DUP2 PUSH1 0xFF MUL NOT AND SWAP1 DUP4 PUSH1 0x2 DUP2 GT ISZERO PUSH2 0x1E14 JUMPI PUSH2 0x1E13 PUSH2 0x2832 JUMP JUMPDEST JUMPDEST MUL OR SWAP1 SSTORE POP POP POP PUSH32 0xAA38BE308BDFFE126C2B6BE720070355EB22E0EFC549AC39221B1CE71642ED40 DUP5 PUSH1 0x40 MLOAD PUSH2 0x1E4A SWAP2 SWAP1 PUSH2 0x28FC JUMP JUMPDEST PUSH1 0x40 MLOAD DUP1 SWAP2 SUB SWAP1 LOG1 POP POP POP POP JUMP JUMPDEST PUSH1 0x2 PUSH1 0x1 SWAP1 SLOAD SWAP1 PUSH2 0x100 EXP SWAP1 DIV PUSH20 0xFFFFFFFFFFFFFFFFFFFFFFFFFFFFFFFFFFFFFFFF AND PUSH20 0xFFFFFFFFFFFFFFFFFFFFFFFFFFFFFFFFFFFFFFFF AND CALLER PUSH20 0xFFFFFFFFFFFFFFFFFFFFFFFFFFFFFFFFFFFFFFFF AND EQ PUSH2 0x1EE8 JUMPI PUSH1 0x40 MLOAD PUSH32 0x8C379A000000000000000000000000000000000000000000000000000000000 DUP2 MSTORE PUSH1 0x4 ADD PUSH2 0x1EDF SWAP1 PUSH2 0x2C07 JUMP JUMPDEST PUSH1 0x40 MLOAD DUP1 SWAP2 SUB SWAP1 REVERT JUMPDEST DUP1 PUSH1 0x0 PUSH1 0x4 PUSH1 0x0 DUP4 PUSH20 0xFFFFFFFFFFFFFFFFFFFFFFFFFFFFFFFFFFFFFFFF AND PUSH20 0xFFFFFFFFFFFFFFFFFFFFFFFFFFFFFFFFFFFFFFFF AND DUP2 MSTORE PUSH1 0x20 ADD SWAP1 DUP2 MSTORE PUSH1 0x20 ADD PUSH1 0x0 KECCAK256 SWAP1 POP DUP2 PUSH20 0xFFFFFFFFFFFFFFFFFFFFFFFFFFFFFFFFFFFFFFFF AND DUP2 PUSH1 0x0 ADD PUSH1 0x0 SWAP1 SLOAD SWAP1 PUSH2 0x100 EXP SWAP1 DIV PUSH20 0xFFFFFFFFFFFFFFFFFFFFFFFFFFFFFFFFFFFFFFFF AND PUSH20 0xFFFFFFFFFFFFFFFFFFFFFFFFFFFFFFFFFFFFFFFF AND EQ PUSH2 0x1FBE JUMPI PUSH1 0x40 MLOAD PUSH32 0x8C379A000000000000000000000000000000000000000000000000000000000 DUP2 MSTORE PUSH1 0x4 ADD PUSH2 0x1FB5 SWAP1 PUSH2 0x2C73 JUMP JUMPDEST PUSH1 0x40 MLOAD DUP1 SWAP2 SUB SWAP1 REVERT JUMPDEST PUSH1 0x0 PUSH1 0x4 PUSH1 0x0 DUP6 PUSH20 0xFFFFFFFFFFFFFFFFFFFFFFFFFFFFFFFFFFFFFFFF AND PUSH20 0xFFFFFFFFFFFFFFFFFFFFFFFFFFFFFFFFFFFFFFFF AND DUP2 MSTORE PUSH1 0x20 ADD SWAP1 DUP2 MSTORE PUSH1 0x20 ADD PUSH1 0x0 KECCAK256 SWAP1 POP PUSH1 0x1 PUSH1 0x2 DUP2 GT ISZERO PUSH2 0x2015 JUMPI PUSH2 0x2014 PUSH2 0x2832 JUMP JUMPDEST JUMPDEST DUP2 PUSH1 0x3 ADD PUSH1 0x0 SWAP1 SLOAD SWAP1 PUSH2 0x100 EXP SWAP1 DIV PUSH1 0xFF AND PUSH1 0x2 DUP2 GT ISZERO PUSH2 0x2039 JUMPI PUSH2 0x2038 PUSH2 0x2832 JUMP JUMPDEST JUMPDEST SUB PUSH2 0x2079 JUMPI PUSH1 0x40 MLOAD PUSH32 0x8C379A000000000000000000000000000000000000000000000000000000000 DUP2 MSTORE PUSH1 0x4 ADD PUSH2 0x2070 SWAP1 PUSH2 0x374C JUMP JUMPDEST PUSH1 0x40 MLOAD DUP1 SWAP2 SUB SWAP1 REVERT JUMPDEST PUSH1 0x1 DUP2 PUSH1 0x3 ADD PUSH1 0x0 PUSH2 0x100 EXP DUP2 SLOAD DUP2 PUSH1 0xFF MUL NOT AND SWAP1 DUP4 PUSH1 0x2 DUP2 GT ISZERO PUSH2 0x20A1 JUMPI PUSH2 0x20A0 PUSH2 0x2832 JUMP JUMPDEST JUMPDEST MUL OR SWAP1 SSTORE POP POP POP POP POP JUMP JUMPDEST PUSH1 0x2 PUSH1 0x1 SWAP1 SLOAD SWAP1 PUSH2 0x100 EXP SWAP1 DIV PUSH20 0xFFFFFFFFFFFFFFFFFFFFFFFFFFFFFFFFFFFFFFFF AND PUSH20 0xFFFFFFFFFFFFFFFFFFFFFFFFFFFFFFFFFFFFFFFF AND CALLER PUSH20 0xFFFFFFFFFFFFFFFFFFFFFFFFFFFFFFFFFFFFFFFF AND EQ PUSH2 0x213C JUMPI PUSH1 0x40 MLOAD PUSH32 0x8C379A000000000000000000000000000000000000000000000000000000000 DUP2 MSTORE PUSH1 0x4 ADD PUSH2 0x2133 SWAP1 PUSH2 0x2C07 JUMP JUMPDEST PUSH1 0x40 MLOAD DUP1 SWAP2 SUB SWAP1 REVERT JUMPDEST DUP1 PUSH1 0x0 PUSH1 0x4 PUSH1 0x0 DUP4 PUSH20 0xFFFFFFFFFFFFFFFFFFFFFFFFFFFFFFFFFFFFFFFF AND PUSH20 0xFFFFFFFFFFFFFFFFFFFFFFFFFFFFFFFFFFFFFFFF AND DUP2 MSTORE PUSH1 0x20 ADD SWAP1 DUP2 MSTORE PUSH1 0x20 ADD PUSH1 0x0 KECCAK256 SWAP1 POP DUP2 PUSH20 0xFFFFFFFFFFFFFFFFFFFFFFFFFFFFFFFFFFFFFFFF AND DUP2 PUSH1 0x0 ADD PUSH1 0x0 SWAP1 SLOAD SWAP1 PUSH2 0x100 EXP SWAP1 DIV PUSH20 0xFFFFFFFFFFFFFFFFFFFFFFFFFFFFFFFFFFFFFFFF AND PUSH20 0xFFFFFFFFFFFFFFFFFFFFFFFFFFFFFFFFFFFFFFFF AND EQ PUSH2 0x2212 JUMPI PUSH1 0x40 MLOAD PUSH32 0x8C379A000000000000000000000000000000000000000000000000000000000 DUP2 MSTORE PUSH1 0x4 ADD PUSH2 0x2209 SWAP1 PUSH2 0x2C73 JUMP JUMPDEST PUSH1 0x40 MLOAD DUP1 SWAP2 SUB SWAP1 REVERT JUMPDEST PUSH1 0x0 PUSH1 0x4 PUSH1 0x0 DUP6 PUSH20 0xFFFFFFFFFFFFFFFFFFFFFFFFFFFFFFFFFFFFFFFF AND PUSH20 0xFFFFFFFFFFFFFFFFFFFFFFFFFFFFFFFFFFFFFFFF AND DUP2 MSTORE PUSH1 0x20 ADD SWAP1 DUP2 MSTORE PUSH1 0x20 ADD PUSH1 0x0 KECCAK256 SWAP1 POP PUSH1 0x0 PUSH1 0x2 DUP2 GT ISZERO PUSH2 0x2269 JUMPI PUSH2 0x2268 PUSH2 0x2832 JUMP JUMPDEST JUMPDEST DUP2 PUSH1 0x3 ADD PUSH1 0x0 SWAP1 SLOAD SWAP1 PUSH2 0x100 EXP SWAP1 DIV PUSH1 0xFF AND PUSH1 0x2 DUP2 GT ISZERO PUSH2 0x228D JUMPI PUSH2 0x228C PUSH2 0x2832 JUMP JUMPDEST JUMPDEST SUB PUSH2 0x22CD JUMPI PUSH1 0x40 MLOAD PUSH32 0x8C379A000000000000000000000000000000000000000000000000000000000 DUP2 MSTORE PUSH1 0x4 ADD PUSH2 0x22C4 SWAP1 PUSH2 0x37B8 JUMP JUMPDEST PUSH1 0x40 MLOAD DUP1 SWAP2 SUB SWAP1 REVERT JUMPDEST PUSH1 0x0 DUP2 PUSH1 0x3 ADD PUSH1 0x0 PUSH2 0x100 EXP DUP2 SLOAD DUP2 PUSH1 0xFF MUL NOT AND SWAP1 DUP4 PUSH1 0x2 DUP2 GT ISZERO PUSH2 0x22F5 JUMPI PUSH2 0x22F4 PUSH2 0x2832 JUMP JUMPDEST JUMPDEST MUL OR SWAP1 SSTORE POP POP POP POP POP JUMP JUMPDEST PUSH1 0x2 PUSH1 0x1 SWAP1 SLOAD SWAP1 PUSH2 0x100 EXP SWAP1 DIV PUSH20 0xFFFFFFFFFFFFFFFFFFFFFFFFFFFFFFFFFFFFFFFF AND PUSH20 0xFFFFFFFFFFFFFFFFFFFFFFFFFFFFFFFFFFFFFFFF AND CALLER PUSH20 0xFFFFFFFFFFFFFFFFFFFFFFFFFFFFFFFFFFFFFFFF AND EQ PUSH2 0x2390 JUMPI PUSH1 0x40 MLOAD PUSH32 0x8C379A000000000000000000000000000000000000000000000000000000000 DUP2 MSTORE PUSH1 0x4 ADD PUSH2 0x2387 SWAP1 PUSH2 0x2C07 JUMP JUMPDEST PUSH1 0x40 MLOAD DUP1 SWAP2 SUB SWAP1 REVERT JUMPDEST DUP2 DUP2 GT PUSH2 0x23D2 JUMPI PUSH1 0x40 MLOAD PUSH32 0x8C379A000000000000000000000000000000000000000000000000000000000 DUP2 MSTORE PUSH1 0x4 ADD PUSH2 0x23C9 SWAP1 PUSH2 0x384A JUMP JUMPDEST PUSH1 0x40 MLOAD DUP1 SWAP2 SUB SWAP1 REVERT JUMPDEST DUP2 PUSH1 0x0 DUP2 SWAP1 SSTORE POP DUP1 PUSH1 0x1 DUP2 SWAP1 SSTORE POP POP POP JUMP JUMPDEST PUSH1 0x40 MLOAD DUP1 PUSH1 0x60 ADD PUSH1 0x40 MSTORE DUP1 PUSH1 0x0 PUSH20 0xFFFFFFFFFFFFFFFFFFFFFFFFFFFFFFFFFFFFFFFF AND DUP2 MSTORE PUSH1 0x20 ADD PUSH1 0x0 DUP2 MSTORE PUSH1 0x20 ADD PUSH2 0x241B PUSH2 0x2421 JUMP JUMPDEST DUP2 MSTORE POP SWAP1 JUMP JUMPDEST PUSH1 0x40 MLOAD DUP1 PUSH1 0x80 ADD PUSH1 0x40 MSTORE DUP1 PUSH1 0x0 PUSH20 0xFFFFFFFFFFFFFFFFFFFFFFFFFFFFFFFFFFFFFFFF AND DUP2 MSTORE PUSH1 0x20 ADD PUSH1 0x60 DUP2 MSTORE PUSH1 0x20 ADD PUSH1 0x60 DUP2 MSTORE PUSH1 0x20 ADD PUSH1 0x0 PUSH1 0x2 DUP2 GT ISZERO PUSH2 0x246B JUMPI PUSH2 0x246A PUSH2 0x2832 JUMP JUMPDEST JUMPDEST DUP2 MSTORE POP SWAP1 JUMP JUMPDEST PUSH1 0x0 PUSH1 0x40 MLOAD SWAP1 POP SWAP1 JUMP JUMPDEST PUSH1 0x0 DUP1 REVERT JUMPDEST PUSH1 0x0 DUP1 REVERT JUMPDEST PUSH1 0x0 PUSH20 0xFFFFFFFFFFFFFFFFFFFFFFFFFFFFFFFFFFFFFFFF DUP3 AND SWAP1 POP SWAP2 SWAP1 POP JUMP JUMPDEST PUSH1 0x0 PUSH2 0x24B0 DUP3 PUSH2 0x2485 JUMP JUMPDEST SWAP1 POP SWAP2 SWAP1 POP JUMP JUMPDEST PUSH2 0x24C0 DUP2 PUSH2 0x24A5 JUMP JUMPDEST DUP2 EQ PUSH2 0x24CB JUMPI PUSH1 0x0 DUP1 REVERT JUMPDEST POP JUMP JUMPDEST PUSH1 0x0 DUP2 CALLDATALOAD SWAP1 POP PUSH2 0x24DD DUP2 PUSH2 0x24B7 JUMP JUMPDEST SWAP3 SWAP2 POP POP JUMP JUMPDEST PUSH1 0x0 PUSH1 0x20 DUP3 DUP5 SUB SLT ISZERO PUSH2 0x24F9 JUMPI PUSH2 0x24F8 PUSH2 0x247B JUMP JUMPDEST JUMPDEST PUSH1 0x0 PUSH2 0x2507 DUP5 DUP3 DUP6 ADD PUSH2 0x24CE JUMP JUMPDEST SWAP2 POP POP SWAP3 SWAP2 POP POP JUMP JUMPDEST PUSH1 0x0 DUP2 SWAP1 POP SWAP2 SWAP1 POP JUMP JUMPDEST PUSH2 0x2523 DUP2 PUSH2 0x2510 JUMP JUMPDEST DUP3 MSTORE POP POP JUMP JUMPDEST PUSH1 0x0 PUSH1 0x20 DUP3 ADD SWAP1 POP PUSH2 0x253E PUSH1 0x0 DUP4 ADD DUP5 PUSH2 0x251A JUMP JUMPDEST SWAP3 SWAP2 POP POP JUMP JUMPDEST PUSH1 0x0 DUP1 REVERT JUMPDEST PUSH1 0x0 DUP1 REVERT JUMPDEST PUSH1 0x0 PUSH1 0x1F NOT PUSH1 0x1F DUP4 ADD AND SWAP1 POP SWAP2 SWAP1 POP JUMP JUMPDEST PUSH32 0x4E487B7100000000000000000000000000000000000000000000000000000000 PUSH1 0x0 MSTORE PUSH1 0x41 PUSH1 0x4 MSTORE PUSH1 0x24 PUSH1 0x0 REVERT JUMPDEST PUSH2 0x2597 DUP3 PUSH2 0x254E JUMP JUMPDEST DUP2 ADD DUP2 DUP2 LT PUSH8 0xFFFFFFFFFFFFFFFF DUP3 GT OR ISZERO PUSH2 0x25B6 JUMPI PUSH2 0x25B5 PUSH2 0x255F JUMP JUMPDEST JUMPDEST DUP1 PUSH1 0x40 MSTORE POP POP POP JUMP JUMPDEST PUSH1 0x0 PUSH2 0x25C9 PUSH2 0x2471 JUMP JUMPDEST SWAP1 POP PUSH2 0x25D5 DUP3 DUP3 PUSH2 0x258E JUMP JUMPDEST SWAP2 SWAP1 POP JUMP JUMPDEST PUSH1 0x0 PUSH8 0xFFFFFFFFFFFFFFFF DUP3 GT ISZERO PUSH2 0x25F5 JUMPI PUSH2 0x25F4 PUSH2 0x255F JUMP JUMPDEST JUMPDEST PUSH2 0x25FE DUP3 PUSH2 0x254E JUMP JUMPDEST SWAP1 POP PUSH1 0x20 DUP2 ADD SWAP1 POP SWAP2 SWAP1 POP JUMP JUMPDEST DUP3 DUP2 DUP4 CALLDATACOPY PUSH1 0x0 DUP4 DUP4 ADD MSTORE POP POP POP JUMP JUMPDEST PUSH1 0x0 PUSH2 0x262D PUSH2 0x2628 DUP5 PUSH2 0x25DA JUMP JUMPDEST PUSH2 0x25BF JUMP JUMPDEST SWAP1 POP DUP3 DUP2 MSTORE PUSH1 0x20 DUP2 ADD DUP5 DUP5 DUP5 ADD GT ISZERO PUSH2 0x2649 JUMPI PUSH2 0x2648 PUSH2 0x2549 JUMP JUMPDEST JUMPDEST PUSH2 0x2654 DUP5 DUP3 DUP6 PUSH2 0x260B JUMP JUMPDEST POP SWAP4 SWAP3 POP POP POP JUMP JUMPDEST PUSH1 0x0 DUP3 PUSH1 0x1F DUP4 ADD SLT PUSH2 0x2671 JUMPI PUSH2 0x2670 PUSH2 0x2544 JUMP JUMPDEST JUMPDEST DUP2 CALLDATALOAD PUSH2 0x2681 DUP5 DUP3 PUSH1 0x20 DUP7 ADD PUSH2 0x261A JUMP JUMPDEST SWAP2 POP POP SWAP3 SWAP2 POP POP JUMP JUMPDEST PUSH1 0x0 DUP1 PUSH1 0x0 PUSH1 0x60 DUP5 DUP7 SUB SLT ISZERO PUSH2 0x26A3 JUMPI PUSH2 0x26A2 PUSH2 0x247B JUMP JUMPDEST JUMPDEST PUSH1 0x0 PUSH2 0x26B1 DUP7 DUP3 DUP8 ADD PUSH2 0x24CE JUMP JUMPDEST SWAP4 POP POP PUSH1 0x20 DUP5 ADD CALLDATALOAD PUSH8 0xFFFFFFFFFFFFFFFF DUP2 GT ISZERO PUSH2 0x26D2 JUMPI PUSH2 0x26D1 PUSH2 0x2480 JUMP JUMPDEST JUMPDEST PUSH2 0x26DE DUP7 DUP3 DUP8 ADD PUSH2 0x265C JUMP JUMPDEST SWAP3 POP POP PUSH1 0x40 DUP5 ADD CALLDATALOAD PUSH8 0xFFFFFFFFFFFFFFFF DUP2 GT ISZERO PUSH2 0x26FF JUMPI PUSH2 0x26FE PUSH2 0x2480 JUMP JUMPDEST JUMPDEST PUSH2 0x270B DUP7 DUP3 DUP8 ADD PUSH2 0x265C JUMP JUMPDEST SWAP2 POP POP SWAP3 POP SWAP3 POP SWAP3 JUMP JUMPDEST PUSH1 0x0 DUP2 ISZERO ISZERO SWAP1 POP SWAP2 SWAP1 POP JUMP JUMPDEST PUSH2 0x272A DUP2 PUSH2 0x2715 JUMP JUMPDEST DUP3 MSTORE POP POP JUMP JUMPDEST PUSH1 0x0 PUSH1 0x20 DUP3 ADD SWAP1 POP PUSH2 0x2745 PUSH1 0x0 DUP4 ADD DUP5 PUSH2 0x2721 JUMP JUMPDEST SWAP3 SWAP2 POP POP JUMP JUMPDEST PUSH2 0x2754 DUP2 PUSH2 0x2510 JUMP JUMPDEST DUP2 EQ PUSH2 0x275F JUMPI PUSH1 0x0 DUP1 REVERT JUMPDEST POP JUMP JUMPDEST PUSH1 0x0 DUP2 CALLDATALOAD SWAP1 POP PUSH2 0x2771 DUP2 PUSH2 0x274B JUMP JUMPDEST SWAP3 SWAP2 POP POP JUMP JUMPDEST PUSH1 0x0 PUSH1 0x20 DUP3 DUP5 SUB SLT ISZERO PUSH2 0x278D JUMPI PUSH2 0x278C PUSH2 0x247B JUMP JUMPDEST JUMPDEST PUSH1 0x0 PUSH2 0x279B DUP5 DUP3 DUP6 ADD PUSH2 0x2762 JUMP JUMPDEST SWAP2 POP POP SWAP3 SWAP2 POP POP JUMP JUMPDEST PUSH2 0x27AD DUP2 PUSH2 0x24A5 JUMP JUMPDEST DUP3 MSTORE POP POP JUMP JUMPDEST PUSH1 0x0 DUP2 MLOAD SWAP1 POP SWAP2 SWAP1 POP JUMP JUMPDEST PUSH1 0x0 DUP3 DUP3 MSTORE PUSH1 0x20 DUP3 ADD SWAP1 POP SWAP3 SWAP2 POP POP JUMP JUMPDEST PUSH1 0x0 JUMPDEST DUP4 DUP2 LT ISZERO PUSH2 0x27ED JUMPI DUP1 DUP3 ADD MLOAD DUP2 DUP5 ADD MSTORE PUSH1 0x20 DUP2 ADD SWAP1 POP PUSH2 0x27D2 JUMP JUMPDEST PUSH1 0x0 DUP5 DUP5 ADD MSTORE POP POP POP POP JUMP JUMPDEST PUSH1 0x0 PUSH2 0x2804 DUP3 PUSH2 0x27B3 JUMP JUMPDEST PUSH2 0x280E DUP2 DUP6 PUSH2 0x27BE JUMP JUMPDEST SWAP4 POP PUSH2 0x281E DUP2 DUP6 PUSH1 0x20 DUP7 ADD PUSH2 0x27CF JUMP JUMPDEST PUSH2 0x2827 DUP2 PUSH2 0x254E JUMP JUMPDEST DUP5 ADD SWAP2 POP POP SWAP3 SWAP2 POP POP JUMP JUMPDEST PUSH32 0x4E487B7100000000000000000000000000000000000000000000000000000000 PUSH1 0x0 MSTORE PUSH1 0x21 PUSH1 0x4 MSTORE PUSH1 0x24 PUSH1 0x0 REVERT JUMPDEST PUSH1 0x3 DUP2 LT PUSH2 0x2872 JUMPI PUSH2 0x2871 PUSH2 0x2832 JUMP JUMPDEST JUMPDEST POP JUMP JUMPDEST PUSH1 0x0 DUP2 SWAP1 POP PUSH2 0x2883 DUP3 PUSH2 0x2861 JUMP JUMPDEST SWAP2 SWAP1 POP JUMP JUMPDEST PUSH1 0x0 PUSH2 0x2893 DUP3 PUSH2 0x2875 JUMP JUMPDEST SWAP1 POP SWAP2 SWAP1 POP JUMP JUMPDEST PUSH2 0x28A3 DUP2 PUSH2 0x2888 JUMP JUMPDEST DUP3 MSTORE POP POP JUMP JUMPDEST PUSH1 0x0 PUSH1 0x80 DUP3 ADD SWAP1 POP PUSH2 0x28BE PUSH1 0x0 DUP4 ADD DUP8 PUSH2 0x27A4 JUMP JUMPDEST DUP2 DUP2 SUB PUSH1 0x20 DUP4 ADD MSTORE PUSH2 0x28D0 DUP2 DUP7 PUSH2 0x27F9 JUMP JUMPDEST SWAP1 POP DUP2 DUP2 SUB PUSH1 0x40 DUP4 ADD MSTORE PUSH2 0x28E4 DUP2 DUP6 PUSH2 0x27F9 JUMP JUMPDEST SWAP1 POP PUSH2 0x28F3 PUSH1 0x60 DUP4 ADD DUP5 PUSH2 0x289A JUMP JUMPDEST SWAP6 SWAP5 POP POP POP POP POP JUMP JUMPDEST PUSH1 0x0 PUSH1 0x20 DUP3 ADD SWAP1 POP PUSH2 0x2911 PUSH1 0x0 DUP4 ADD DUP5 PUSH2 0x27A4 JUMP JUMPDEST SWAP3 SWAP2 POP POP JUMP JUMPDEST PUSH1 0x0 DUP2 MLOAD SWAP1 POP SWAP2 SWAP1 POP JUMP JUMPDEST PUSH1 0x0 DUP3 DUP3 MSTORE PUSH1 0x20 DUP3 ADD SWAP1 POP SWAP3 SWAP2 POP POP JUMP JUMPDEST PUSH1 0x0 DUP2 SWAP1 POP PUSH1 0x20 DUP3 ADD SWAP1 POP SWAP2 SWAP1 POP JUMP JUMPDEST PUSH2 0x294C DUP2 PUSH2 0x24A5 JUMP JUMPDEST DUP3 MSTORE POP POP JUMP JUMPDEST PUSH2 0x295B DUP2 PUSH2 0x2510 JUMP JUMPDEST DUP3 MSTORE POP POP JUMP JUMPDEST PUSH1 0x0 DUP3 DUP3 MSTORE PUSH1 0x20 DUP3 ADD SWAP1 POP SWAP3 SWAP2 POP POP JUMP JUMPDEST PUSH1 0x0 PUSH2 0x297D DUP3 PUSH2 0x27B3 JUMP JUMPDEST PUSH2 0x2987 DUP2 DUP6 PUSH2 0x2961 JUMP JUMPDEST SWAP4 POP PUSH2 0x2997 DUP2 DUP6 PUSH1 0x20 DUP7 ADD PUSH2 0x27CF JUMP JUMPDEST PUSH2 0x29A0 DUP2 PUSH2 0x254E JUMP JUMPDEST DUP5 ADD SWAP2 POP POP SWAP3 SWAP2 POP POP JUMP JUMPDEST PUSH2 0x29B4 DUP2 PUSH2 0x2888 JUMP JUMPDEST DUP3 MSTORE POP POP JUMP JUMPDEST PUSH1 0x0 PUSH1 0x80 DUP4 ADD PUSH1 0x0 DUP4 ADD MLOAD PUSH2 0x29D2 PUSH1 0x0 DUP7 ADD DUP3 PUSH2 0x2943 JUMP JUMPDEST POP PUSH1 0x20 DUP4 ADD MLOAD DUP5 DUP3 SUB PUSH1 0x20 DUP7 ADD MSTORE PUSH2 0x29EA DUP3 DUP3 PUSH2 0x2972 JUMP JUMPDEST SWAP2 POP POP PUSH1 0x40 DUP4 ADD MLOAD DUP5 DUP3 SUB PUSH1 0x40 DUP7 ADD MSTORE PUSH2 0x2A04 DUP3 DUP3 PUSH2 0x2972 JUMP JUMPDEST SWAP2 POP POP PUSH1 0x60 DUP4 ADD MLOAD PUSH2 0x2A19 PUSH1 0x60 DUP7 ADD DUP3 PUSH2 0x29AB JUMP JUMPDEST POP DUP1 SWAP2 POP POP SWAP3 SWAP2 POP POP JUMP JUMPDEST PUSH1 0x0 PUSH1 0x60 DUP4 ADD PUSH1 0x0 DUP4 ADD MLOAD PUSH2 0x2A3C PUSH1 0x0 DUP7 ADD DUP3 PUSH2 0x2943 JUMP JUMPDEST POP PUSH1 0x20 DUP4 ADD MLOAD PUSH2 0x2A4F PUSH1 0x20 DUP7 ADD DUP3 PUSH2 0x2952 JUMP JUMPDEST POP PUSH1 0x40 DUP4 ADD MLOAD DUP5 DUP3 SUB PUSH1 0x40 DUP7 ADD MSTORE PUSH2 0x2A67 DUP3 DUP3 PUSH2 0x29BA JUMP JUMPDEST SWAP2 POP POP DUP1 SWAP2 POP POP SWAP3 SWAP2 POP POP JUMP JUMPDEST PUSH1 0x0 PUSH2 0x2A80 DUP4 DUP4 PUSH2 0x2A24 JUMP JUMPDEST SWAP1 POP SWAP3 SWAP2 POP POP JUMP JUMPDEST PUSH1 0x0 PUSH1 0x20 DUP3 ADD SWAP1 POP SWAP2 SWAP1 POP JUMP JUMPDEST PUSH1 0x0 PUSH2 0x2AA0 DUP3 PUSH2 0x2917 JUMP JUMPDEST PUSH2 0x2AAA DUP2 DUP6 PUSH2 0x2922 JUMP JUMPDEST SWAP4 POP DUP4 PUSH1 0x20 DUP3 MUL DUP6 ADD PUSH2 0x2ABC DUP6 PUSH2 0x2933 JUMP JUMPDEST DUP1 PUSH1 0x0 JUMPDEST DUP6 DUP2 LT ISZERO PUSH2 0x2AF8 JUMPI DUP5 DUP5 SUB DUP10 MSTORE DUP2 MLOAD PUSH2 0x2AD9 DUP6 DUP3 PUSH2 0x2A74 JUMP JUMPDEST SWAP5 POP PUSH2 0x2AE4 DUP4 PUSH2 0x2A88 JUMP JUMPDEST SWAP3 POP PUSH1 0x20 DUP11 ADD SWAP10 POP POP PUSH1 0x1 DUP2 ADD SWAP1 POP PUSH2 0x2AC0 JUMP JUMPDEST POP DUP3 SWAP8 POP DUP8 SWAP6 POP POP POP POP POP POP SWAP3 SWAP2 POP POP JUMP JUMPDEST PUSH1 0x0 PUSH1 0x20 DUP3 ADD SWAP1 POP DUP2 DUP2 SUB PUSH1 0x0 DUP4 ADD MSTORE PUSH2 0x2B24 DUP2 DUP5 PUSH2 0x2A95 JUMP JUMPDEST SWAP1 POP SWAP3 SWAP2 POP POP JUMP JUMPDEST PUSH1 0x0 PUSH1 0x40 DUP3 ADD SWAP1 POP PUSH2 0x2B41 PUSH1 0x0 DUP4 ADD DUP6 PUSH2 0x27A4 JUMP JUMPDEST PUSH2 0x2B4E PUSH1 0x20 DUP4 ADD DUP5 PUSH2 0x251A JUMP JUMPDEST SWAP4 SWAP3 POP POP POP JUMP JUMPDEST PUSH1 0x0 DUP1 PUSH1 0x40 DUP4 DUP6 SUB SLT ISZERO PUSH2 0x2B6C JUMPI PUSH2 0x2B6B PUSH2 0x247B JUMP JUMPDEST JUMPDEST PUSH1 0x0 PUSH2 0x2B7A DUP6 DUP3 DUP7 ADD PUSH2 0x2762 JUMP JUMPDEST SWAP3 POP POP PUSH1 0x20 PUSH2 0x2B8B DUP6 DUP3 DUP7 ADD PUSH2 0x2762 JUMP JUMPDEST SWAP2 POP POP SWAP3 POP SWAP3 SWAP1 POP JUMP JUMPDEST PUSH32 0x4F6E6C7920746865206F776E65722063616E2063616C6C20746869732066756E PUSH1 0x0 DUP3 ADD MSTORE PUSH32 0x6374696F6E000000000000000000000000000000000000000000000000000000 PUSH1 0x20 DUP3 ADD MSTORE POP JUMP JUMPDEST PUSH1 0x0 PUSH2 0x2BF1 PUSH1 0x25 DUP4 PUSH2 0x27BE JUMP JUMPDEST SWAP2 POP PUSH2 0x2BFC DUP3 PUSH2 0x2B95 JUMP JUMPDEST PUSH1 0x40 DUP3 ADD SWAP1 POP SWAP2 SWAP1 POP JUMP JUMPDEST PUSH1 0x0 PUSH1 0x20 DUP3 ADD SWAP1 POP DUP2 DUP2 SUB PUSH1 0x0 DUP4 ADD MSTORE PUSH2 0x2C20 DUP2 PUSH2 0x2BE4 JUMP JUMPDEST SWAP1 POP SWAP2 SWAP1 POP JUMP JUMPDEST PUSH32 0x43616E646964617465206E6F7420666F756E6400000000000000000000000000 PUSH1 0x0 DUP3 ADD MSTORE POP JUMP JUMPDEST PUSH1 0x0 PUSH2 0x2C5D PUSH1 0x13 DUP4 PUSH2 0x27BE JUMP JUMPDEST SWAP2 POP PUSH2 0x2C68 DUP3 PUSH2 0x2C27 JUMP JUMPDEST PUSH1 0x20 DUP3 ADD SWAP1 POP SWAP2 SWAP1 POP JUMP JUMPDEST PUSH1 0x0 PUSH1 0x20 DUP3 ADD SWAP1 POP DUP2 DUP2 SUB PUSH1 0x0 DUP4 ADD MSTORE PUSH2 0x2C8C DUP2 PUSH2 0x2C50 JUMP JUMPDEST SWAP1 POP SWAP2 SWAP1 POP JUMP JUMPDEST PUSH32 0x43616E6E6F74207570646174652063616E646964617465732061667465722076 PUSH1 0x0 DUP3 ADD MSTORE PUSH32 0x6F74696E67206861732073746172746564000000000000000000000000000000 PUSH1 0x20 DUP3 ADD MSTORE POP JUMP JUMPDEST PUSH1 0x0 PUSH2 0x2CEF PUSH1 0x31 DUP4 PUSH2 0x27BE JUMP JUMPDEST SWAP2 POP PUSH2 0x2CFA DUP3 PUSH2 0x2C93 JUMP JUMPDEST PUSH1 0x40 DUP3 ADD SWAP1 POP SWAP2 SWAP1 POP JUMP JUMPDEST PUSH1 0x0 PUSH1 0x20 DUP3 ADD SWAP1 POP DUP2 DUP2 SUB PUSH1 0x0 DUP4 ADD MSTORE PUSH2 0x2D1E DUP2 PUSH2 0x2CE2 JUMP JUMPDEST SWAP1 POP SWAP2 SWAP1 POP JUMP JUMPDEST PUSH32 0x4E487B7100000000000000000000000000000000000000000000000000000000 PUSH1 0x0 MSTORE PUSH1 0x22 PUSH1 0x4 MSTORE PUSH1 0x24 PUSH1 0x0 REVERT JUMPDEST PUSH1 0x0 PUSH1 0x2 DUP3 DIV SWAP1 POP PUSH1 0x1 DUP3 AND DUP1 PUSH2 0x2D6C JUMPI PUSH1 0x7F DUP3 AND SWAP2 POP JUMPDEST PUSH1 0x20 DUP3 LT DUP2 SUB PUSH2 0x2D7F JUMPI PUSH2 0x2D7E PUSH2 0x2D25 JUMP JUMPDEST JUMPDEST POP SWAP2 SWAP1 POP JUMP JUMPDEST PUSH1 0x0 DUP2 SWAP1 POP DUP2 PUSH1 0x0 MSTORE PUSH1 0x20 PUSH1 0x0 KECCAK256 SWAP1 POP SWAP2 SWAP1 POP JUMP JUMPDEST PUSH1 0x0 PUSH1 0x20 PUSH1 0x1F DUP4 ADD DIV SWAP1 POP SWAP2 SWAP1 POP JUMP JUMPDEST PUSH1 0x0 DUP3 DUP3 SHL SWAP1 POP SWAP3 SWAP2 POP POP JUMP JUMPDEST PUSH1 0x0 PUSH1 0x8 DUP4 MUL PUSH2 0x2DE7 PUSH32 0xFFFFFFFFFFFFFFFFFFFFFFFFFFFFFFFFFFFFFFFFFFFFFFFFFFFFFFFFFFFFFFFF DUP3 PUSH2 0x2DAA JUMP JUMPDEST PUSH2 0x2DF1 DUP7 DUP4 PUSH2 0x2DAA JUMP JUMPDEST SWAP6 POP DUP1 NOT DUP5 AND SWAP4 POP DUP1 DUP7 AND DUP5 OR SWAP3 POP POP POP SWAP4 SWAP3 POP POP POP JUMP JUMPDEST PUSH1 0x0 DUP2 SWAP1 POP SWAP2 SWAP1 POP JUMP JUMPDEST PUSH1 0x0 PUSH2 0x2E2E PUSH2 0x2E29 PUSH2 0x2E24 DUP5 PUSH2 0x2510 JUMP JUMPDEST PUSH2 0x2E09 JUMP JUMPDEST PUSH2 0x2510 JUMP JUMPDEST SWAP1 POP SWAP2 SWAP1 POP JUMP JUMPDEST PUSH1 0x0 DUP2 SWAP1 POP SWAP2 SWAP1 POP JUMP JUMPDEST PUSH2 0x2E48 DUP4 PUSH2 0x2E13 JUMP JUMPDEST PUSH2 0x2E5C PUSH2 0x2E54 DUP3 PUSH2 0x2E35 JUMP JUMPDEST DUP5 DUP5 SLOAD PUSH2 0x2DB7 JUMP JUMPDEST DUP3 SSTORE POP POP POP POP JUMP JUMPDEST PUSH1 0x0 SWAP1 JUMP JUMPDEST PUSH2 0x2E71 PUSH2 0x2E64 JUMP JUMPDEST PUSH2 0x2E7C DUP2 DUP5 DUP5 PUSH2 0x2E3F JUMP JUMPDEST POP POP POP JUMP JUMPDEST JUMPDEST DUP2 DUP2 LT ISZERO PUSH2 0x2EA0 JUMPI PUSH2 0x2E95 PUSH1 0x0 DUP3 PUSH2 0x2E69 JUMP JUMPDEST PUSH1 0x1 DUP2 ADD SWAP1 POP PUSH2 0x2E82 JUMP JUMPDEST POP POP JUMP JUMPDEST PUSH1 0x1F DUP3 GT ISZERO PUSH2 0x2EE5 JUMPI PUSH2 0x2EB6 DUP2 PUSH2 0x2D85 JUMP JUMPDEST PUSH2 0x2EBF DUP5 PUSH2 0x2D9A JUMP JUMPDEST DUP2 ADD PUSH1 0x20 DUP6 LT ISZERO PUSH2 0x2ECE JUMPI DUP2 SWAP1 POP JUMPDEST PUSH2 0x2EE2 PUSH2 0x2EDA DUP6 PUSH2 0x2D9A JUMP JUMPDEST DUP4 ADD DUP3 PUSH2 0x2E81 JUMP JUMPDEST POP POP JUMPDEST POP POP POP JUMP JUMPDEST PUSH1 0x0 DUP3 DUP3 SHR SWAP1 POP SWAP3 SWAP2 POP POP JUMP JUMPDEST PUSH1 0x0 PUSH2 0x2F08 PUSH1 0x0 NOT DUP5 PUSH1 0x8 MUL PUSH2 0x2EEA JUMP JUMPDEST NOT DUP1 DUP4 AND SWAP2 POP POP SWAP3 SWAP2 POP POP JUMP JUMPDEST PUSH1 0x0 PUSH2 0x2F21 DUP4 DUP4 PUSH2 0x2EF7 JUMP JUMPDEST SWAP2 POP DUP3 PUSH1 0x2 MUL DUP3 OR SWAP1 POP SWAP3 SWAP2 POP POP JUMP JUMPDEST PUSH2 0x2F3A DUP3 PUSH2 0x27B3 JUMP JUMPDEST PUSH8 0xFFFFFFFFFFFFFFFF DUP2 GT ISZERO PUSH2 0x2F53 JUMPI PUSH2 0x2F52 PUSH2 0x255F JUMP JUMPDEST JUMPDEST PUSH2 0x2F5D DUP3 SLOAD PUSH2 0x2D54 JUMP JUMPDEST PUSH2 0x2F68 DUP3 DUP3 DUP6 PUSH2 0x2EA4 JUMP JUMPDEST PUSH1 0x0 PUSH1 0x20 SWAP1 POP PUSH1 0x1F DUP4 GT PUSH1 0x1 DUP2 EQ PUSH2 0x2F9B JUMPI PUSH1 0x0 DUP5 ISZERO PUSH2 0x2F89 JUMPI DUP3 DUP8 ADD MLOAD SWAP1 POP JUMPDEST PUSH2 0x2F93 DUP6 DUP3 PUSH2 0x2F15 JUMP JUMPDEST DUP7 SSTORE POP PUSH2 0x2FFB JUMP JUMPDEST PUSH1 0x1F NOT DUP5 AND PUSH2 0x2FA9 DUP7 PUSH2 0x2D85 JUMP JUMPDEST PUSH1 0x0 JUMPDEST DUP3 DUP2 LT ISZERO PUSH2 0x2FD1 JUMPI DUP5 DUP10 ADD MLOAD DUP3 SSTORE PUSH1 0x1 DUP3 ADD SWAP2 POP PUSH1 0x20 DUP6 ADD SWAP5 POP PUSH1 0x20 DUP2 ADD SWAP1 POP PUSH2 0x2FAC JUMP JUMPDEST DUP7 DUP4 LT ISZERO PUSH2 0x2FEE JUMPI DUP5 DUP10 ADD MLOAD PUSH2 0x2FEA PUSH1 0x1F DUP10 AND DUP3 PUSH2 0x2EF7 JUMP JUMPDEST DUP4 SSTORE POP JUMPDEST PUSH1 0x1 PUSH1 0x2 DUP9 MUL ADD DUP9 SSTORE POP POP POP JUMPDEST POP POP POP POP POP POP JUMP JUMPDEST PUSH32 0x566F74696E67206973206E6F7420616374697665000000000000000000000000 PUSH1 0x0 DUP3 ADD MSTORE POP JUMP JUMPDEST PUSH1 0x0 PUSH2 0x3039 PUSH1 0x14 DUP4 PUSH2 0x27BE JUMP JUMPDEST SWAP2 POP PUSH2 0x3044 DUP3 PUSH2 0x3003 JUMP JUMPDEST PUSH1 0x20 DUP3 ADD SWAP1 POP SWAP2 SWAP1 POP JUMP JUMPDEST PUSH1 0x0 PUSH1 0x20 DUP3 ADD SWAP1 POP DUP2 DUP2 SUB PUSH1 0x0 DUP4 ADD MSTORE PUSH2 0x3068 DUP2 PUSH2 0x302C JUMP JUMPDEST SWAP1 POP SWAP2 SWAP1 POP JUMP JUMPDEST PUSH32 0x566F74696E6720686173206E6F74207374617274656420796574000000000000 PUSH1 0x0 DUP3 ADD MSTORE POP JUMP JUMPDEST PUSH1 0x0 PUSH2 0x30A5 PUSH1 0x1A DUP4 PUSH2 0x27BE JUMP JUMPDEST SWAP2 POP PUSH2 0x30B0 DUP3 PUSH2 0x306F JUMP JUMPDEST PUSH1 0x20 DUP3 ADD SWAP1 POP SWAP2 SWAP1 POP JUMP JUMPDEST PUSH1 0x0 PUSH1 0x20 DUP3 ADD SWAP1 POP DUP2 DUP2 SUB PUSH1 0x0 DUP4 ADD MSTORE PUSH2 0x30D4 DUP2 PUSH2 0x3098 JUMP JUMPDEST SWAP1 POP SWAP2 SWAP1 POP JUMP JUMPDEST PUSH32 0x566F74696E672068617320656E64656400000000000000000000000000000000 PUSH1 0x0 DUP3 ADD MSTORE POP JUMP JUMPDEST PUSH1 0x0 PUSH2 0x3111 PUSH1 0x10 DUP4 PUSH2 0x27BE JUMP JUMPDEST SWAP2 POP PUSH2 0x311C DUP3 PUSH2 0x30DB JUMP JUMPDEST PUSH1 0x20 DUP3 ADD SWAP1 POP SWAP2 SWAP1 POP JUMP JUMPDEST PUSH1 0x0 PUSH1 0x20 DUP3 ADD SWAP1 POP DUP2 DUP2 SUB PUSH1 0x0 DUP4 ADD MSTORE PUSH2 0x3140 DUP2 PUSH2 0x3104 JUMP JUMPDEST SWAP1 POP SWAP2 SWAP1 POP JUMP JUMPDEST PUSH32 0x4E6F20766F746520746F2072656D6F7665000000000000000000000000000000 PUSH1 0x0 DUP3 ADD MSTORE POP JUMP JUMPDEST PUSH1 0x0 PUSH2 0x317D PUSH1 0x11 DUP4 PUSH2 0x27BE JUMP JUMPDEST SWAP2 POP PUSH2 0x3188 DUP3 PUSH2 0x3147 JUMP JUMPDEST PUSH1 0x20 DUP3 ADD SWAP1 POP SWAP2 SWAP1 POP JUMP JUMPDEST PUSH1 0x0 PUSH1 0x20 DUP3 ADD SWAP1 POP DUP2 DUP2 SUB PUSH1 0x0 DUP4 ADD MSTORE PUSH2 0x31AC DUP2 PUSH2 0x3170 JUMP JUMPDEST SWAP1 POP SWAP2 SWAP1 POP JUMP JUMPDEST PUSH32 0x4E487B7100000000000000000000000000000000000000000000000000000000 PUSH1 0x0 MSTORE PUSH1 0x11 PUSH1 0x4 MSTORE PUSH1 0x24 PUSH1 0x0 REVERT JUMPDEST PUSH1 0x0 PUSH2 0x31ED DUP3 PUSH2 0x2510 JUMP JUMPDEST SWAP2 POP PUSH2 0x31F8 DUP4 PUSH2 0x2510 JUMP JUMPDEST SWAP3 POP DUP3 DUP3 SUB SWAP1 POP DUP2 DUP2 GT ISZERO PUSH2 0x3210 JUMPI PUSH2 0x320F PUSH2 0x31B3 JUMP JUMPDEST JUMPDEST SWAP3 SWAP2 POP POP JUMP JUMPDEST PUSH32 0x566F746520616C72656164792063617374000000000000000000000000000000 PUSH1 0x0 DUP3 ADD MSTORE POP JUMP JUMPDEST PUSH1 0x0 PUSH2 0x324C PUSH1 0x11 DUP4 PUSH2 0x27BE JUMP JUMPDEST SWAP2 POP PUSH2 0x3257 DUP3 PUSH2 0x3216 JUMP JUMPDEST PUSH1 0x20 DUP3 ADD SWAP1 POP SWAP2 SWAP1 POP JUMP JUMPDEST PUSH1 0x0 PUSH1 0x20 DUP3 ADD SWAP1 POP DUP2 DUP2 SUB PUSH1 0x0 DUP4 ADD MSTORE PUSH2 0x327B DUP2 PUSH2 0x323F JUMP JUMPDEST SWAP1 POP SWAP2 SWAP1 POP JUMP JUMPDEST PUSH32 0x43616E646964617465206973206E6F7420616374697665000000000000000000 PUSH1 0x0 DUP3 ADD MSTORE POP JUMP JUMPDEST PUSH1 0x0 PUSH2 0x32B8 PUSH1 0x17 DUP4 PUSH2 0x27BE JUMP JUMPDEST SWAP2 POP PUSH2 0x32C3 DUP3 PUSH2 0x3282 JUMP JUMPDEST PUSH1 0x20 DUP3 ADD SWAP1 POP SWAP2 SWAP1 POP JUMP JUMPDEST PUSH1 0x0 PUSH1 0x20 DUP3 ADD SWAP1 POP DUP2 DUP2 SUB PUSH1 0x0 DUP4 ADD MSTORE PUSH2 0x32E7 DUP2 PUSH2 0x32AB JUMP JUMPDEST SWAP1 POP SWAP2 SWAP1 POP JUMP JUMPDEST PUSH1 0x0 PUSH2 0x32F9 DUP3 PUSH2 0x2510 JUMP JUMPDEST SWAP2 POP PUSH2 0x3304 DUP4 PUSH2 0x2510 JUMP JUMPDEST SWAP3 POP DUP3 DUP3 ADD SWAP1 POP DUP1 DUP3 GT ISZERO PUSH2 0x331C JUMPI PUSH2 0x331B PUSH2 0x31B3 JUMP JUMPDEST JUMPDEST SWAP3 SWAP2 POP POP JUMP JUMPDEST PUSH32 0x5374617274696E672074696D6520697320726571756972656421000000000000 PUSH1 0x0 DUP3 ADD MSTORE POP JUMP JUMPDEST PUSH1 0x0 PUSH2 0x3358 PUSH1 0x1A DUP4 PUSH2 0x27BE JUMP JUMPDEST SWAP2 POP PUSH2 0x3363 DUP3 PUSH2 0x3322 JUMP JUMPDEST PUSH1 0x20 DUP3 ADD SWAP1 POP SWAP2 SWAP1 POP JUMP JUMPDEST PUSH1 0x0 PUSH1 0x20 DUP3 ADD SWAP1 POP DUP2 DUP2 SUB PUSH1 0x0 DUP4 ADD MSTORE PUSH2 0x3387 DUP2 PUSH2 0x334B JUMP JUMPDEST SWAP1 POP SWAP2 SWAP1 POP JUMP JUMPDEST PUSH32 0x456E64696E672074696D65206973207265717569726564210000000000000000 PUSH1 0x0 DUP3 ADD MSTORE POP JUMP JUMPDEST PUSH1 0x0 PUSH2 0x33C4 PUSH1 0x18 DUP4 PUSH2 0x27BE JUMP JUMPDEST SWAP2 POP PUSH2 0x33CF DUP3 PUSH2 0x338E JUMP JUMPDEST PUSH1 0x20 DUP3 ADD SWAP1 POP SWAP2 SWAP1 POP JUMP JUMPDEST PUSH1 0x0 PUSH1 0x20 DUP3 ADD SWAP1 POP DUP2 DUP2 SUB PUSH1 0x0 DUP4 ADD MSTORE PUSH2 0x33F3 DUP2 PUSH2 0x33B7 JUMP JUMPDEST SWAP1 POP SWAP2 SWAP1 POP JUMP JUMPDEST PUSH32 0x566F74696E672074696D6520697320656E646564000000000000000000000000 PUSH1 0x0 DUP3 ADD MSTORE POP JUMP JUMPDEST PUSH1 0x0 PUSH2 0x3430 PUSH1 0x14 DUP4 PUSH2 0x27BE JUMP JUMPDEST SWAP2 POP PUSH2 0x343B DUP3 PUSH2 0x33FA JUMP JUMPDEST PUSH1 0x20 DUP3 ADD SWAP1 POP SWAP2 SWAP1 POP JUMP JUMPDEST PUSH1 0x0 PUSH1 0x20 DUP3 ADD SWAP1 POP DUP2 DUP2 SUB PUSH1 0x0 DUP4 ADD MSTORE PUSH2 0x345F DUP2 PUSH2 0x3423 JUMP JUMPDEST SWAP1 POP SWAP2 SWAP1 POP JUMP JUMPDEST PUSH32 0x546F6F206561726C7920746F20737461727420766F74696E6700000000000000 PUSH1 0x0 DUP3 ADD MSTORE POP JUMP JUMPDEST PUSH1 0x0 PUSH2 0x349C PUSH1 0x19 DUP4 PUSH2 0x27BE JUMP JUMPDEST SWAP2 POP PUSH2 0x34A7 DUP3 PUSH2 0x3466 JUMP JUMPDEST PUSH1 0x20 DUP3 ADD SWAP1 POP SWAP2 SWAP1 POP JUMP JUMPDEST PUSH1 0x0 PUSH1 0x20 DUP3 ADD SWAP1 POP DUP2 DUP2 SUB PUSH1 0x0 DUP4 ADD MSTORE PUSH2 0x34CB DUP2 PUSH2 0x348F JUMP JUMPDEST SWAP1 POP SWAP2 SWAP1 POP JUMP JUMPDEST PUSH1 0x0 PUSH1 0x40 DUP3 ADD SWAP1 POP PUSH2 0x34E7 PUSH1 0x0 DUP4 ADD DUP6 PUSH2 0x2721 JUMP JUMPDEST PUSH2 0x34F4 PUSH1 0x20 DUP4 ADD DUP5 PUSH2 0x27A4 JUMP JUMPDEST SWAP4 SWAP3 POP POP POP JUMP JUMPDEST PUSH32 0x4E487B7100000000000000000000000000000000000000000000000000000000 PUSH1 0x0 MSTORE PUSH1 0x32 PUSH1 0x4 MSTORE PUSH1 0x24 PUSH1 0x0 REVERT JUMPDEST PUSH32 0x416C726561647920426C6F636B21000000000000000000000000000000000000 PUSH1 0x0 DUP3 ADD MSTORE POP JUMP JUMPDEST PUSH1 0x0 PUSH2 0x3560 PUSH1 0xE DUP4 PUSH2 0x27BE JUMP JUMPDEST SWAP2 POP PUSH2 0x356B DUP3 PUSH2 0x352A JUMP JUMPDEST PUSH1 0x20 DUP3 ADD SWAP1 POP SWAP2 SWAP1 POP JUMP JUMPDEST PUSH1 0x0 PUSH1 0x20 DUP3 ADD SWAP1 POP DUP2 DUP2 SUB PUSH1 0x0 DUP4 ADD MSTORE PUSH2 0x358F DUP2 PUSH2 0x3553 JUMP JUMPDEST SWAP1 POP SWAP2 SWAP1 POP JUMP JUMPDEST PUSH32 0x4F776E65722063616E6E6F7420626520612063616E6469646174650000000000 PUSH1 0x0 DUP3 ADD MSTORE POP JUMP JUMPDEST PUSH1 0x0 PUSH2 0x35CC PUSH1 0x1B DUP4 PUSH2 0x27BE JUMP JUMPDEST SWAP2 POP PUSH2 0x35D7 DUP3 PUSH2 0x3596 JUMP JUMPDEST PUSH1 0x20 DUP3 ADD SWAP1 POP SWAP2 SWAP1 POP JUMP JUMPDEST PUSH1 0x0 PUSH1 0x20 DUP3 ADD SWAP1 POP DUP2 DUP2 SUB PUSH1 0x0 DUP4 ADD MSTORE PUSH2 0x35FB DUP2 PUSH2 0x35BF JUMP JUMPDEST SWAP1 POP SWAP2 SWAP1 POP JUMP JUMPDEST PUSH32 0x43616E6E6F74206164642063616E6469646174657320616674657220766F7469 PUSH1 0x0 DUP3 ADD MSTORE PUSH32 0x6E67206861732073746172746564000000000000000000000000000000000000 PUSH1 0x20 DUP3 ADD MSTORE POP JUMP JUMPDEST PUSH1 0x0 PUSH2 0x365E PUSH1 0x2E DUP4 PUSH2 0x27BE JUMP JUMPDEST SWAP2 POP PUSH2 0x3669 DUP3 PUSH2 0x3602 JUMP JUMPDEST PUSH1 0x40 DUP3 ADD SWAP1 POP SWAP2 SWAP1 POP JUMP JUMPDEST PUSH1 0x0 PUSH1 0x20 DUP3 ADD SWAP1 POP DUP2 DUP2 SUB PUSH1 0x0 DUP4 ADD MSTORE PUSH2 0x368D DUP2 PUSH2 0x3651 JUMP JUMPDEST SWAP1 POP SWAP2 SWAP1 POP JUMP JUMPDEST PUSH32 0x43616E64696461746520616C7265616479206578697374730000000000000000 PUSH1 0x0 DUP3 ADD MSTORE POP JUMP JUMPDEST PUSH1 0x0 PUSH2 0x36CA PUSH1 0x18 DUP4 PUSH2 0x27BE JUMP JUMPDEST SWAP2 POP PUSH2 0x36D5 DUP3 PUSH2 0x3694 JUMP JUMPDEST PUSH1 0x20 DUP3 ADD SWAP1 POP SWAP2 SWAP1 POP JUMP JUMPDEST PUSH1 0x0 PUSH1 0x20 DUP3 ADD SWAP1 POP DUP2 DUP2 SUB PUSH1 0x0 DUP4 ADD MSTORE PUSH2 0x36F9 DUP2 PUSH2 0x36BD JUMP JUMPDEST SWAP1 POP SWAP2 SWAP1 POP JUMP JUMPDEST PUSH32 0x416C72656164792050656E64696E672100000000000000000000000000000000 PUSH1 0x0 DUP3 ADD MSTORE POP JUMP JUMPDEST PUSH1 0x0 PUSH2 0x3736 PUSH1 0x10 DUP4 PUSH2 0x27BE JUMP JUMPDEST SWAP2 POP PUSH2 0x3741 DUP3 PUSH2 0x3700 JUMP JUMPDEST PUSH1 0x20 DUP3 ADD SWAP1 POP SWAP2 SWAP1 POP JUMP JUMPDEST PUSH1 0x0 PUSH1 0x20 DUP3 ADD SWAP1 POP DUP2 DUP2 SUB PUSH1 0x0 DUP4 ADD MSTORE PUSH2 0x3765 DUP2 PUSH2 0x3729 JUMP JUMPDEST SWAP1 POP SWAP2 SWAP1 POP JUMP JUMPDEST PUSH32 0x416C726561647920416374697661746564210000000000000000000000000000 PUSH1 0x0 DUP3 ADD MSTORE POP JUMP JUMPDEST PUSH1 0x0 PUSH2 0x37A2 PUSH1 0x12 DUP4 PUSH2 0x27BE JUMP JUMPDEST SWAP2 POP PUSH2 0x37AD DUP3 PUSH2 0x376C JUMP JUMPDEST PUSH1 0x20 DUP3 ADD SWAP1 POP SWAP2 SWAP1 POP JUMP JUMPDEST PUSH1 0x0 PUSH1 0x20 DUP3 ADD SWAP1 POP DUP2 DUP2 SUB PUSH1 0x0 DUP4 ADD MSTORE PUSH2 0x37D1 DUP2 PUSH2 0x3795 JUMP JUMPDEST SWAP1 POP SWAP2 SWAP1 POP JUMP JUMPDEST PUSH32 0x456E642054696D652073686F756C642062652067726561746572207468616E20 PUSH1 0x0 DUP3 ADD MSTORE PUSH32 0x53746172742054696D6500000000000000000000000000000000000000000000 PUSH1 0x20 DUP3 ADD MSTORE POP JUMP JUMPDEST PUSH1 0x0 PUSH2 0x3834 PUSH1 0x2A DUP4 PUSH2 0x27BE JUMP JUMPDEST SWAP2 POP PUSH2 0x383F DUP3 PUSH2 0x37D8 JUMP JUMPDEST PUSH1 0x40 DUP3 ADD SWAP1 POP SWAP2 SWAP1 POP JUMP JUMPDEST PUSH1 0x0 PUSH1 0x20 DUP3 ADD SWAP1 POP DUP2 DUP2 SUB PUSH1 0x0 DUP4 ADD MSTORE PUSH2 0x3863 DUP2 PUSH2 0x3827 JUMP JUMPDEST SWAP1 POP SWAP2 SWAP1 POP JUMP INVALID LOG2 PUSH5 0x6970667358 0x22 SLT KECCAK256 0x2C BLOBHASH PUSH1 0xEA GASLIMIT PUSH22 0x3468B92EEF73971AA577C952EFA4469494C62EFDE995 0x4E PUSH6 0xC29C64736F6C PUSH4 0x4300081C STOP CALLER "
				},
				"gasEstimates": {
					"creation": {
						"codeDepositCost": "2899200",
						"executionCost": "27485",
						"totalCost": "2926685"
					},
					"external": {
						"activateCandidate(address)": "31661",
						"addCandidate(address,string,string)": "infinite",
						"blockCandidate(address)": "31662",
						"candidates(address)": "infinite",
						"candidatesData(uint256)": "infinite",
						"candidatesVotes(address)": "2838",
						"castVote(address)": "infinite",
						"endingTime()": "2518",
						"getCandidatesVotes()": "infinite",
						"isVoting()": "2539",
						"owner()": "2587",
						"pendingCandidate(address)": "31639",
						"removeVote(address)": "infinite",
						"setDate(uint256,uint256)": "infinite",
						"startingTime()": "2519",
						"toggleVoting()": "41073",
						"updateCandidate(address,string,string)": "infinite",
						"votes(address)": "infinite"
					}
				},
				"methodIdentifiers": {
					"activateCandidate(address)": "ef6bdade",
					"addCandidate(address,string,string)": "e22a6231",
					"blockCandidate(address)": "bced38ed",
					"candidates(address)": "8ab66a90",
					"candidatesData(uint256)": "4f1c7762",
					"candidatesVotes(address)": "00b170fd",
					"castVote(address)": "53358fc4",
					"endingTime()": "6c47a6c3",
					"getCandidatesVotes()": "b21e3387",
					"isVoting()": "1bbef399",
					"owner()": "8da5cb5b",
					"pendingCandidate(address)": "e3888e9a",
					"removeVote(address)": "3ccc1f53",
					"setDate(uint256,uint256)": "f3587e46",
					"startingTime()": "39518b5e",
					"toggleVoting()": "aae3bd47",
					"updateCandidate(address,string,string)": "0ddf0c41",
					"votes(address)": "d8bff5a5"
				}
			},
			"storageLayout": {
				"storage": [
					{
						"astId": 30,
						"contract": "contracts/Voting.sol:Voting",
						"label": "startingTime",
						"offset": 0,
						"slot": "0",
						"type": "t_uint256"
					},
					{
						"astId": 32,
						"contract": "contracts/Voting.sol:Voting",
						"label": "endingTime",
						"offset": 0,
						"slot": "1",
						"type": "t_uint256"
					},
					{
						"astId": 34,
						"contract": "contracts/Voting.sol:Voting",
						"label": "isVoting",
						"offset": 0,
						"slot": "2",
						"type": "t_bool"
					},
					{
						"astId": 36,
						"contract": "contracts/Voting.sol:Voting",
						"label": "owner",
						"offset": 1,
						"slot": "2",
						"type": "t_address"
					},
					{
						"astId": 40,
						"contract": "contracts/Voting.sol:Voting",
						"label": "candidatesData",
						"offset": 0,
						"slot": "3",
						"type": "t_array(t_struct(Candidate)20_storage)dyn_storage"
					},
					{
						"astId": 45,
						"contract": "contracts/Voting.sol:Voting",
						"label": "candidates",
						"offset": 0,
						"slot": "4",
						"type": "t_mapping(t_address,t_struct(Candidate)20_storage)"
					},
					{
						"astId": 49,
						"contract": "contracts/Voting.sol:Voting",
						"label": "candidateExists",
						"offset": 0,
						"slot": "5",
						"type": "t_mapping(t_address,t_bool)"
					},
					{
						"astId": 54,
						"contract": "contracts/Voting.sol:Voting",
						"label": "votes",
						"offset": 0,
						"slot": "6",
						"type": "t_mapping(t_address,t_struct(Vote)10_storage)"
					},
					{
						"astId": 58,
						"contract": "contracts/Voting.sol:Voting",
						"label": "candidatesVotes",
						"offset": 0,
						"slot": "7",
						"type": "t_mapping(t_address,t_uint256)"
					}
				],
				"types": {
					"t_address": {
						"encoding": "inplace",
						"label": "address",
						"numberOfBytes": "20"
					},
					"t_array(t_struct(Candidate)20_storage)dyn_storage": {
						"base": "t_struct(Candidate)20_storage",
						"encoding": "dynamic_array",
						"label": "struct Voting.Candidate[]",
						"numberOfBytes": "32"
					},
					"t_bool": {
						"encoding": "inplace",
						"label": "bool",
						"numberOfBytes": "1"
					},
					"t_enum(CandidateStatus)5": {
						"encoding": "inplace",
						"label": "enum Voting.CandidateStatus",
						"numberOfBytes": "1"
					},
					"t_mapping(t_address,t_bool)": {
						"encoding": "mapping",
						"key": "t_address",
						"label": "mapping(address => bool)",
						"numberOfBytes": "32",
						"value": "t_bool"
					},
					"t_mapping(t_address,t_struct(Candidate)20_storage)": {
						"encoding": "mapping",
						"key": "t_address",
						"label": "mapping(address => struct Voting.Candidate)",
						"numberOfBytes": "32",
						"value": "t_struct(Candidate)20_storage"
					},
					"t_mapping(t_address,t_struct(Vote)10_storage)": {
						"encoding": "mapping",
						"key": "t_address",
						"label": "mapping(address => struct Voting.Vote)",
						"numberOfBytes": "32",
						"value": "t_struct(Vote)10_storage"
					},
					"t_mapping(t_address,t_uint256)": {
						"encoding": "mapping",
						"key": "t_address",
						"label": "mapping(address => uint256)",
						"numberOfBytes": "32",
						"value": "t_uint256"
					},
					"t_string_storage": {
						"encoding": "bytes",
						"label": "string",
						"numberOfBytes": "32"
					},
					"t_struct(Candidate)20_storage": {
						"encoding": "inplace",
						"label": "struct Voting.Candidate",
						"members": [
							{
								"astId": 12,
								"contract": "contracts/Voting.sol:Voting",
								"label": "_address",
								"offset": 0,
								"slot": "0",
								"type": "t_address"
							},
							{
								"astId": 14,
								"contract": "contracts/Voting.sol:Voting",
								"label": "name",
								"offset": 0,
								"slot": "1",
								"type": "t_string_storage"
							},
							{
								"astId": 16,
								"contract": "contracts/Voting.sol:Voting",
								"label": "profession",
								"offset": 0,
								"slot": "2",
								"type": "t_string_storage"
							},
							{
								"astId": 19,
								"contract": "contracts/Voting.sol:Voting",
								"label": "status",
								"offset": 0,
								"slot": "3",
								"type": "t_enum(CandidateStatus)5"
							}
						],
						"numberOfBytes": "128"
					},
					"t_struct(Vote)10_storage": {
						"encoding": "inplace",
						"label": "struct Voting.Vote",
						"members": [
							{
								"astId": 7,
								"contract": "contracts/Voting.sol:Voting",
								"label": "receiver",
								"offset": 0,
								"slot": "0",
								"type": "t_address"
							},
							{
								"astId": 9,
								"contract": "contracts/Voting.sol:Voting",
								"label": "timestamp",
								"offset": 0,
								"slot": "1",
								"type": "t_uint256"
							}
						],
						"numberOfBytes": "64"
					},
					"t_uint256": {
						"encoding": "inplace",
						"label": "uint256",
						"numberOfBytes": "32"
					}
				}
			},
			"userdoc": {
				"kind": "user",
				"methods": {},
				"version": 1
			}
		}
	}
}